:020000040000FA
:10000000F8340820E1000000E5000000E7000000EF
:10001000E9000000EB000000ED000000000000001F
:10002000000000000000000000000000EF000000E1
:10003000F100000000000000F3000000499E0100F4
:10004000F7000000D9C101000DC20100F700000057
:10005000F70000003BEA0100F7000000F700000095
:10006000F7000000F7000000F7000000F7000000B4
:10007000F7000000F7000000F7000000F7000000A4
:10008000F7000000F7000000F7000000F700000094
:10009000F7000000F7000000175D0000F700000007
:1000A000F7000000D9E70100F7000000F7000000AA
:1000B0005D120200F7000000F7000000F7000000EA
:1000C000F7000000F7000000F7000000DFF80CD098
:1000D00021F024F900480047DD9F0100F834082092
:1000E00005480047FEE7FEE7FEE7FEE7FEE7FEE71E
:1000F000FEE7FEE7FEE7FEE7CD000000FEE710B5F5
:1001000021F0A4FE21F000FF21F0F2FEAFF3008009
:10011000BDE8104021F0BEBE10B522F07FFC23F0F8
:100120009DF8BDE8104022F0D1BC22F0E5BB22F0E2
:10013000ADB909B10020704721F0B0BD0020704773
:1001400030B54FF000003D4BA3F1140202F10A0458
:10015000115C61B1255CA94209D1195C39B1A1F1E9
:100160000101C9B2195411B94FF000011154115CC9
:10017000215400F10100C0B20A28E9D330BD70B5A6
:100180004FF000042D4EA6F1140604F10104E4B270
:10019000355D1DB1854201D00A2CF6D33055274874
:1001A0000C3040F82410283040F82420343803550F
:1001B00070BD4FF00001214AA2F1140201F10101CA
:1001C000C9B2535C834201D00A29F7D3535C8342FE
:1001D00012D11A480C3050F8213019480360174BDF
:1001E000343353F8213043604FF000005054134A29
:1001F00050544FF001007047002070474FF000014D
:100200000E4AA2F1140201F10101C9B2535C83420A
:1002100001D00A29F7D3525C82420CD107480C3036
:1002200050F8212006480260044A343252F8211066
:10023000416001207047002070470000ACF20720A9
:1002400010C007200D4BDA601870597070470B4AC8
:100250001161907070470949088170470749B1F9E9
:100260000800002809D0A0F1010000B20881002890
:1002700003D10146084601F0B4BA7047A00000104F
:1002800090F900308B4200DA027090F9003093420E
:1002900000DD0170704790F900308B4200DA017088
:1002A00090F90010914200DD02707047B0F9003003
:1002B0008B4200DA0180B0F90010914200DD02802B
:1002C0007047B0F900308B4200DA0280B0F900309C
:1002D000934200DD018070470146002000E0401C91
:1002E0000A5C002AFBD17047084400EB104080B242
:1002F0007047010241EA102080B27047FFFFFFFF04
:10030000002802DAC0F1000000B270474FF0000090
:10031000FC4A4FF02001115400F10100C0B2C8287E
:10032000F9D3704701464FF00000F64A00F1010092
:10033000C0B2135C8B4201D0C828F7D3704710B508
:100340004FF00001F04C4FF00A020346B0FBF2F010
:1003500002FB1033635401F10101C9B20529F4D342
:1003600010BDF0B5E94D4FF0010129704FF00501C6
:10037000E54B4FF020064FF000072A7842B15A189B
:1003800012F8014C24B9814202D902F8016C07E04D
:1003900003EB010212F8014D04F1300414702F70C8
:1003A000A1F10101C9B20029E7D1F0BDFEB50346B4
:1003B0004FF02B07002B04DAC3F1000003B24FF01B
:1003C0002D074FF000004FF00A046D4693FBF4F642
:1003D00004FB16332B5433B200F1010040B20A285B
:1003E000F4DB4FF001034FF000044FF009004FF031
:1003F000200643B115F800C0BCF1000F03D19042B4
:1004000001DD2E5408E02B5C03F130032B544FF038
:10041000000304F10104E4B2A0F1010040B200289D
:10042000E7DA2D2F04D1204604F10104E4B22F5461
:100430008AB160B207E005EB000313F8013C2B54CE
:10044000A0F1010040B29042F5DC4FF02E00A8541C
:1004500004F10104E4B20846FFF764FF4FF0000125
:10046000A84A06E0A0EB01066B5C935501F101017F
:1004700049B2A142F6DBFEBDFEB503464FF02B07A5
:10048000002B03DAC3F100034FF02D074FF00000FB
:100490004FF00A046D461E4693FBF4F304FB13660B
:1004A0002E5400F1010040B20A28F4DB4FF00103A2
:1004B0004FF000044FF009004FF0200643B115F84B
:1004C00000C0BCF1000F03D1904201DD2E5408E0C2
:1004D0002B5C03F130032B544FF0000304F10104B3
:1004E000E4B2A0F1010040B20028E7DA2D2F04D1D8
:1004F000204604F10104E4B22F548AB160B207E04F
:1005000005EB000313F8013C2B54A0F1010040B2AD
:100510009042F5DC4FF02E00A85404F10104E4B23F
:100520000846FFF7FFFE4FF00001764A06E0A0EB19
:1005300001066B5C935501F1010149B2A142F6DB62
:10054000FEBD2DE9FE414FF02B0C002803DAC0F16F
:1005500000004FF02D0C4FF000044FF00A056F46DD
:10056000064690FBF5F005FB10663E5504F10104CC
:1005700064B20A2CF4DB4FF001054FF000044FF099
:1005800009004FF0200645B117F80080B8F1000FC0
:1005900003D1984201DD3E5408E03D5C05F1300591
:1005A0003D544FF0000504F10104E4B2A0F1010054
:1005B00040B20028E7DABCF12D0F05D1204604F146
:1005C0000104E4B207F800C08BB160B207E007EBAA
:1005D000000515F8015C3D54A0F1010040B29842BD
:1005E000F5DC4FF02E00F85404F10104E4B201EB05
:1005F000810002EB8000C1B24FF00000414A06E0EA
:10060000A1EB00053B5C535500F1010040B2A04254
:10061000F6DBBDE8FE8170B50D4616461C46FFF7B9
:100620008EFE601CC0B2FFF79CFE05EB850006EB5A
:100630008000C1B24FF00000334B324DA04201D2D6
:100640001A5C6A5407D31A5C202A04D064B105EB03
:10065000010606F8012CA1F10101C9B200F1010067
:10066000C0B20528EAD370BD6A54F4E730B5044639
:1006700008461546FFF756FEFF280CD0214A07E032
:1006800000EB050304F10104D15400F10100C0B2F4
:1006900021780029F4D130BD70B50D461446FFF71E
:1006A0004EFE601CC0B2FFF75CFE2846FFF73AFE24
:1006B0004FF00001144A134D24B9535C202B01D094
:1006C0002B5415E0A14202D2535C2B5410E008D108
:1006D0004FF02E032B5405EB0006535C06F8013C4B
:1006E00006E0535C202B03D005EB000606F8013C26
:1006F000A0F10100C0B201F10101C9B20529DBD3AB
:1007000070BD00007AC20720EC000010E2C3072091
:100710001044002801DA084403E0884201DBA0EB22
:100720000100C0B270472DE9FF5F04460D464FF44B
:1007300060601BF0DCFF62424021FFF7E9FF4FEAF7
:10074000401000F58060044602A920461CF056F8CF
:1007500001A904F108001CF051F8694604F10C00ED
:100760001CF04CF82846FFF7DDFD9DF808E040221C
:10077000302121232324DFF808844FF0C2094FF0F1
:100780003A0C0127FF4E4FF0200AFF4DBEF1550FE6
:1007900011D04FF0C00BBEF1500F7DD0BEF1510F04
:1007A0007BD0BEF1530F79D0BEF1420F77D0BEF1AE
:1007B000560F75D082E39DF80AB0BBF1520F14D1E9
:1007C00000F1010B0BF0FF0B06F800904FF0EA0070
:1007D0000BF1010909F0FF0906F80B004FF0EB0BD4
:1007E00009F10100C0B206F809B000F1010909F0F1
:1007F000FF0906F800A009F1010B0BF0FF0006F855
:1008000009A000F1010909F0FF0906F800A009F1AB
:100810000100C0B206F809A000F1010909F0FF09C2
:1008200006F800A09DF80400B5F83CB0584548D142
:100830009DF8050095F838B0584542D19DF806005E
:1008400095F82C50A8423CD109F10100C0B206F83D
:10085000091000F10105EDB2335405F10100C0B2F9
:1008600006F805C000F10103DBB231541D4603F167
:100870000103D8B2725500F10102D2B206F800C0ED
:1008800002F10100C0B2B15434549DF800004FF0A1
:1008900000024FF0210104E051E007E1C9E1BBE2B1
:1008A00002E3FFF7F9FE9DF8010000224021FFF767
:1008B000F3FE9DF8020000222321FFF7EDFEBDE8C4
:1008C000FF9F09F10100C0B206F809A000F101057F
:1008D000EDB2315405F10100C0B2735500F10103CE
:1008E000DBB2325403F10100C0B206F803A000F1FC
:1008F0000102D2B206F800A002F10100C0B2B15468
:1009000034549DF806004FF000024FF02101FFF72C
:10091000C3FE9DF8040000222321FFF7BDFE9DF8D1
:100920000500401E0C2801D38DF805709DF80500C8
:10093000002208EB80004021FFF798FEBFE700F19E
:10094000010E0EF0FF0E06F800B00EF10100C0B26D
:1009500006F80E904FF02E0B00F1010909F0FF0987
:1009600006F800B04FF0CF0009F1010B0BF0FF0BC0
:1009700006F809004FF0D1000BF1010909F0FF0959
:1009800006F80B0009F10100C0B206F809A000F159
:10099000010909F0FF0906F800A009F10100C0B241
:1009A00006F809A09DF80490B5F83CB0D9453FD1B0
:1009B0009DF8059095F838B0D94539D19DF8069045
:1009C00095F82C50A94533D100F10105EDB2315411
:1009D00005F10100C0B2735500F10103DBB206F866
:1009E00000C003F10100C0B2F15400F10103DBB219
:1009F000325403F10100C0B206F803C000F1010255
:100A0000D2B23154B4549DF800004FF000024FF0C0
:100A10002101FFF741FE9DF8010000224021FFF770
:100A20003BFE9DF8020000222321FFF735FE46E73A
:100A300000F10105EDB206F800A005F10100C0B219
:100A4000715500F10105EDB2335405F10100C0B25A
:100A5000725500F10102D2B206F800A002F10100C5
:100A6000C0B206F802A000F10102D2B23154B4546F
:100A70009DF806004FF000024FF02101FFF70CFE39
:100A80009DF8040000222321FFF706FE9DF80500D3
:100A9000401E0C2801D38DF805709DF8050000223A
:100AA00008EB80004021FFF7E1FD08E700F1010EAF
:100AB0000EF0FF0E06F800B00EF10100C0B206F80D
:100AC0000E904FF02E0900F1010B0BF0FF0B06F812
:100AD00000904FF055000BF1010909F0FF0906F8ED
:100AE0000B004FF0E20009F1010B0BF0FF0B06F8D1
:100AF00009004FF0FB000BF1010909F0FF0906F8AE
:100B00000B004FF0F50009F1010B0BF0FF0B06F89D
:100B100009000BF10100C0B206F80BA09DF804908B
:100B2000B5F83CB0D94546D19DF8059095F838B058
:100B3000D94540D19DF8069095F82C50A9453AD159
:100B400000F10105EDB2315405F10100C0B2735559
:100B500000F10103DBB206F800C003F10100C0B2EE
:100B6000F15400F10103DBB2325403F10100C0B2D1
:100B700006F803C000F10102D2B23154B45405E0CA
:100B8000D84002007AC20720004002409DF80000D1
:100B90004FF000024FF02101FFF77EFD9DF80100AC
:100BA00000224021FFF778FD9DF80200002223215A
:100BB000FFF772FD83E600F10105EDB206F800A033
:100BC00005F10100C0B2715500F10105EDB23354D9
:100BD00005F10100C0B2725500F10102D2B206F86F
:100BE00000A002F10100C0B206F802A000F101026B
:100BF000D2B23154B4549DF806004FF000024FF0C9
:100C00002101FFF749FD9DF8040000222321FFF791
:100C100043FD9DF80500401E0C2801D38DF805709A
:100C20009DF80500002208EB80004021FFF71EFD23
:100C300045E600F1010E0EF0FF0E06F800B00EF1D1
:100C40000100C0B206F80E904FF02E0B00F1010922
:100C500009F0FF0906F800B04FF0C10009F1010BDF
:100C60000BF0FF0B06F809004FF0CF090BF1010064
:100C7000C0B206F80B904FF0D10900F1010B0BF058
:100C8000FF0B06F800909DF80990B9F1090F0DD2FD
:100C900009F131090BF10100C0B206F80B9000F127
:100CA000010909F0FF0906F800A02CE0A9F10900EC
:100CB0005A281DD209F101094FF00A00B9FBF0FED4
:100CC000CDF80CE00EF1300E0BF10100C0B206F8C9
:100CD0000BE0DDF80CE04FF00A0B0BFB1E9B0BF159
:100CE000300B00F1010909F0FF0906F800B00AE035
:100CF0000BF10100C0B206F80BA000F1010909F0E8
:100D0000FF0906F800A009F10100C0B206F809A029
:100D10009DF80490B5F83CB0D9453FD19DF80590B9
:100D200095F838B0D94539D19DF8069095F82C50F2
:100D3000A94533D100F10105EDB2315405F10100AF
:100D4000C0B2735500F10103DBB206F800C003F135
:100D50000100C0B2F15400F10103DBB2325403F1DF
:100D60000100C0B206F803C000F10102D2B2315452
:100D7000B4549DF800004FF000024FF02101FFF73E
:100D80008BFC9DF8010000224021FFF785FC9DF8B7
:100D9000020000222321FFF77FFC90E500F101050E
:100DA000EDB206F800A005F10100C0B2715500F1E6
:100DB0000105EDB2335405F10100C0B2725500F1E6
:100DC0000102D2B206F800A002F10100C0B206F89A
:100DD00002A000F10102D2B23154B4549DF80600D1
:100DE0004FF000024FF02101FFF756FC9DF8040080
:100DF00000222321FFF750FC9DF80500401E0C281F
:100E000001D38DF805709DF80500002208EB8000E5
:100E10004021FFF72BFC52E54FF0C10200F1010128
:100E2000C9B232544FF0E00301F10100C2B2735471
:100E30004FF0F20102F10100C0B2B1549DF8091067
:100E400009290BD201F1310100F10102D2B2315472
:100E500002F10100C0B206F802A022E0A1F10902ED
:100E60005A2A14D201F101014FF00A05B1FBF5F342
:100E700003F1300400F10102D2B2345405FB131126
:100E800001F1300102F10100C0B2B15409E000F1FA
:100E90000101C9B206F800A001F10100C0B206F8D4
:100EA00001A006F800A00AE59DF80990B9F1490FE4
:100EB00004D19DF80A90B9F14E0F03D0BEF1560F40
:100EC0007ED0CBE000F1010909F0FF0906F800B07F
:100ED0004FF0E20009F1010E0EF0FF0B06F80900D9
:100EE0004FF02E0E0BF1010909F0FF0906F80BE097
:100EF0004FF0550E09F1010B0BF0FF0B06F809E05E
:100F00000BF1010909F0FF0E06F80B004FF0F50B8D
:100F10000EF1010000F0FF0906F80EB009F1010022
:100F2000C0B206F809A000F1010909F0FF0906F8AE
:100F300000A09DF80400B5F83CB0584541D19DF89B
:100F4000050095F838B058453BD19DF8060095F856
:100F50002C50A84235D109F10100C0B206F80910A1
:100F600000F10105EDB2335405F10100C0B206F8FD
:100F700005C000F10103DBB2315403F10100C0B23E
:100F8000F25400F10102D2B206F800C002F10100F1
:100F9000C0B2B15434549DF800004FF000024FF03D
:100FA0002101FFF779FB9DF8010000224021FFF7A6
:100FB00073FB9DF8020000222321FFF76DFB7EE406
:100FC0003DE009F10100C0B206F809A000F10105F9
:100FD000EDB2315405F10100C0B2735500F10103C7
:100FE000DBB2325403F10100C0B206F803A000F1F5
:100FF0000102D2B206F800A002F10100C0B2B15461
:1010000034549DF806004FF000024FF02101FFF725
:1010100043FB9DF8040000222321FFF73DFB9DF8D0
:101020000500401E0C2801D38DF805709DF80500C1
:10103000002208EB80004021FFF718FB3FE49DF8F9
:101040000990B9F14F0F09D19DF80A90B9F1550FE8
:1010500004D19DF80B90B9F1540F03D0BEF14F0F9E
:101060007DD0C8E000F1010909F0FF0906F800B0E1
:101070004FF0E20009F1010E0EF0FF0B06F8090037
:101080004FF02E0E0BF1010909F0FF0906F80BE0F5
:101090004FF0550E09F1010B0BF0FF0B06F809E0BC
:1010A0000BF1010909F0FF0906F80B004FF0FB00F6
:1010B00009F1010B0BF0FF0B06F809004FF0F500EA
:1010C0000BF1010909F0FF0906F80B0009F1010015
:1010D000C0B206F809A09DF80490B5F83CB0D94517
:1010E00041D19DF8059095F838B0D9453BD19DF890
:1010F000069095F82C50A94535D100F10105EDB2C7
:10110000315405F10100C0B2735500F10103DBB2A7
:1011100006F800C003F10100C0B2F15400F1010370
:10112000DBB2325403F10100C0B206F803C000F193
:101130000102D2B23154B4549DF800004FF00002C5
:101140004FF02101FFF7A8FA9DF80100002240218D
:10115000FFF7A2FA00229DF80200232100E040E000
:10116000FFF79AFA63E400F10105EDB206F800A07A
:1011700005F10100C0B2715500F10105EDB2335423
:1011800005F10100C0B2725500F10102D2B206F8B9
:1011900000A002F10100C0B206F802A000F10102B5
:1011A000D2B23154B4549DF806004FF000024FF013
:1011B0002101FFF771FA9DF8040000222321FFF7B7
:1011C0006BFA9DF80500401E0C2801D38DF80570C0
:1011D0009DF80500002208EB80004021FFF746FA49
:1011E00025E49DF80990B9F1560F04D19DF80A90B5
:1011F000B9F14C0F7DD0BEF1540FB3D19DF80990D9
:10120000B9F1530FAED19DF80A90B9F1590FA9D198
:101210009DF80B90B9F1530FA4D100F1010909F029
:10122000FF0906F800B04FF0E20B09F10100C0B26F
:1012300006F809B04FF02E0900F1010B0BF0FF0B7F
:1012400006F800904FF054000BF1010909F0FF0976
:1012500006F80B004FF0F10B09F10100C0B206F8DF
:1012600009B04FF0E80E00F1010909F0FF0906F896
:1012700000E009F10100C0B206F809B000F101096F
:1012800009F0FF0906F800A09DF80400B5F83CB08D
:1012900058457ED19DF8050095F838B0584578D16D
:1012A0009DF8060095F82C50A84272D109F1010072
:1012B000C0B206F8091000F10105EDB2335405F192
:1012C0000100C0B206F805C000F10103DBB23154E1
:1012D00003F10100C0B2F25400F10102D2B206F8EB
:1012E00000C002F10100C0B2B15434549DF80000B6
:1012F00000E012E04FF000024FF02101FFF7CCF9BF
:101300009DF8010000224021FFF7C6F99DF8020078
:1013100000222321FFF7C0F94CE44FF0CF0B00F17E
:10132000010909F0FF0906F800B04FF0D00009F1FB
:10133000010E0EF0FF0B06F809004FF0C30E0BF183
:10134000010909F0FF0906F80BE009F1010B0BF0A8
:10135000FF0B06F809004FF0C70E0BF1010000F07B
:10136000FF0906F80BE009F10100C0B206F809A078
:1013700000F1010909F0FF0906F800A009F10100D8
:10138000C0B206F809A09DF80490B5F83CB0D94564
:1013900000E07EE03FD19DF8059095F838B0D94542
:1013A00039D19DF8069095F82C50A94533D100F11C
:1013B0000105EDB2315405F10100C0B2735500F1E1
:1013C0000103DBB206F800C003F10100C0B2F15422
:1013D00000F10103DBB2325403F10100C0B206F8A0
:1013E00003C000F10102D2B23154B4549DF80000A0
:1013F0004FF000024FF02101FFF74EF99DF8010078
:1014000000224021FFF748F99DF802000022232125
:10141000FFF742F90CE400F10105EDB206F800A077
:1014200005F10100C0B2715500F10105EDB2335470
:1014300005F10100C0B2725500F10102D2B206F806
:1014400000A002F10100C0B206F802A000F1010202
:10145000D2B23154B4549DF806004FF000024FF060
:101460002101FFF719F99DF8040000222321FFF75D
:1014700013F99DF80500401E0C2801D38DF8057066
:101480009DF80500002208EB80004021FFF7EEF8F0
:1014900083E409F10100C0B206F809A000F10105DA
:1014A000EDB2315405F10100C0B2735500F10103F2
:1014B000DBB2325403F10100C0B206F803A000F120
:1014C0000102D2B206F800A002F10100C0B2B1548C
:1014D00034549DF806004FF000024FF02101FFF751
:1014E000DBF89DF8040000222321FFF7D5F89DF8D2
:1014F0000500401E0C2801D38DF805709DF80500ED
:10150000002208EB80004021FFF7B0F845E4F0B579
:101510000446084616461F46FEF704FF02461046DC
:10152000FF4DFF2806D108E0295404F1010400F121
:101530000100C0B221780029F6D1FA4800780028CD
:1015400006D0002F04D002EB06014FF05F00685474
:10155000F0BD2DE9F04F0746DDE9090588469146C3
:101560009A46FEF7DFFEEF4B2021ED4C0A224FF0AA
:10157000640C012D09D11E783EB104EB0006A6F1E2
:101580000E06B1707170317017E097FBF2FB02FB31
:101590001B7E04EB00060EF1300E06F80CEC9BFBF4
:1015A000F2FE02FB1EBB0BF1300B06F80DBC97FBE5
:1015B000FCF707F1300706F80E7C022D09D11E78E2
:1015C0003EB104EB0006A6F10A06B17071703170ED
:1015D00017E098FBF2F702FB178B04EB0006A6F16D
:1015E0000A060BF1300B86F802B097FBF2FB02FB08
:1015F0001B7707F13007777098FBFCF707F130078E
:101600003770032D09D11E783EB104EB0006A6F118
:101610000606B1707170317017E099FBF2F702FBAA
:10162000179804EB0006A6F1060608F1300886F8C4
:10163000028097FBF2F802FB187707F1300777700A
:1016400099FBFCF707F130073770042D09D11B789F
:101650003BB121542044A0F1020041700170BDE86B
:10166000F08F9AFBF2F102FB11A303F13003235434
:1016700091FBF2F302FB13112044A0F1020001F1EF
:10168000300141709AFBFCF101F130010170E6E795
:1016900010B50C46FEF746FEA1491CB14FF00302FF
:1016A0000A5410BD4FF004020A5410BD17B501EBE7
:1016B000810002EB8000C2B29DF800309A4803F02E
:1016C0000F01445C96498C54A2F10102D2B200EBA6
:1016D00013131B788B54A2F10102D2B29DF8013092
:1016E00003F00F04045D8C54A2F10102D2B200EBAE
:1016F00013131B788B54A2F10102D2B29DF8023071
:1017000003F00F04045D8C54A2F10102D2B200EB8D
:1017100013131B788B54A2F10102D3B29DF803205E
:1017200002F00F04045DCC54A3F10103DBB200EB23
:1017300012100078C8541EBD30B57C490124784B86
:1017400091F9012091F904108A4204D100EB800044
:1017500003F8204030BD4D1CAA4206D100F1010023
:1017600000EB800003F8204030BD8D1CAA4206D15A
:1017700000F1020000EB800003F8204030BDCD1CDA
:10178000AA4206D100F1030000EB800003F82040DC
:1017900030BD0D1DAA4206D100F1040000EB80000F
:1017A00003F8204030BD4D1DAA4206D100F10500CE
:1017B00000EB800003F8204030BD8D1DAA4206D109
:1017C00000F1060000EB800003F8204030BDC91D89
:1017D0008A42FBD100F1070000EB800003F82040B3
:1017E00030BD534B1A88A2F10102104400B2188098
:1017F000504A00EB800002444C48136803601279A1
:101800000271427811444170704770B5484DB5F986
:10181000004004F101062E80464D04EB840425446B
:10182000424C26682E6026792E71207061702271DC
:10183000A37070BD2DE9F04180460F461646FEF7B5
:1018400065FD374C4FF0000518F8010B04F8010B4B
:1018500005F10105EDB2142DF6D34FF0000017F895
:10186000011B04F8011B00F10100C0B21428F6D3DB
:101870004FF0000016F8011B04F8011B00F10100F5
:10188000C0B21428F6D34FF0000013F8011B04F87F
:10189000011B00F10100C0B21428F6D3BDE8F081AD
:1018A00010B5029CFFF7C6FF2048C37882784178C4
:1018B0005E20FFF7AAFF642094FBF0F0BDE8104023
:1018C000C0B2FEF7C8BC2DE9FE430D464FEA4010FA
:1018D00000F58060044602A920461AF08FFF01A996
:1018E00004F108001AF08AFF694604F10C001AF0AE
:1018F00085FF2846FEF716FD094C4FF0200600F143
:101900000101C9B226544FF0300701F10100C0B205
:10191000675400F101014FF02108C9B20CE000004A
:101920007AC2072059C0072062410200F8C107208F
:1019300082C00720866F001004F800804FF0400935
:1019400001F10100C0B204F8019000F10101C9B237
:10195000265401F10100C0B2665400F10101C9B280
:1019600027544FF0230201F10100C5B262549DF8E3
:1019700006004FF000024FF02101FEF78DFE9DF8AA
:10198000040000222321FEF787FE9DF80500401E7B
:101990000C2803D34FF001008DF805009DF80500D9
:1019A0001949002201EB80004021FEF75FFE05F19E
:1019B0000100C0B2665500F10101C9B2275401F11E
:1019C0000100C0B204F801804FF03A0200F10101B9
:1019D000C9B2225401F10100C0B2675400F1010103
:1019E000CDB204F800909DF800004FF000024FF0D7
:1019F0002101FEF751FE9DF8010000224021FEF773
:101A00004BFE6655BDE8FE83D84002002DE9FC413F
:101A100006464FF00007FF4D6F76A87D4FF001039B
:101A200002280FD006EB460101EB0612FA4901EB42
:101A3000820494F83D10CA0706D04FF0660068761D
:101A4000BDE8FC816B76FBE794F83F20920703D555
:101A50004FF067006876F3E7890703D54FF0680019
:101A60006876EDE7ED4AB4F90810B2F9002091422A
:101A700003DD4FF069006876E2E75242914203DAF3
:101A80004FF06A006876DBE7E2490128C97D00D1A2
:101A900011B1012804D005E04FF06B006876CFE764
:101AA00001297DD005F116054FF06400E8702B7018
:101AB0002B8619464FF4F8701AF017FF6E706E8679
:101AC00031464FF4FA701AF010FFA761D448002194
:101AD00030F916001AF009FFAF70AF8639464FF49F
:101AE000FB701AF002FFCF48008800F1010000F0FF
:101AF000070004EB4000008C0190CB4DA88B0090B8
:101B00004FF063024FF001016846FEF7C4FBC14C81
:101B10009DF8000088342070287E00900C2201215E
:101B20006846FEF7B8FB9DF800006070287B0090C7
:101B30001F2201216846FEF7AEFB9DF80000A07051
:101B40009DF80400E0704FF4FC7021681AF00EFF5D
:101B5000287A0090172200216846FEF79CFB9DF82A
:101B600000002071287900903B2200216846FEF792
:101B700092FB9DF800006071287800903B220021C4
:101B80006846FEF788FB9DF80000A0719DF80500EF
:101B9000E0714FF4FE7061681AF0E8FE50E7FFE76D
:101BA0004FF06C0068764BE72DE9F047994CB4F89C
:101BB0004200401C00B2A4F84200B0F5E16F03DB24
:101BC0004FF00000A4F84200B4F94200B0F5DF6F16
:101BD00011D90F2301226421D220FEF7D0FA0F235E
:101BE0000022D821D720FEF7CAFA0F230022D821DD
:101BF000DC20FEF7C4FAB4F94200A0F5E061073931
:101C000033D18A4D8A4C844E288821880A27DFF8F0
:101C10002482DFF82492884210D0B6F9080090FBA5
:101C2000F7F000B2FEF76CFBB8F90010884205DA55
:101C3000B4F90010B9F900001AF057FE68886188FD
:101C4000884212D0B6F9080090FBF7F000B2FEF718
:101C500057FBB8F90010884207DAB4F90210B9F955
:101C60000200BDE8F0471AF040BEBDE8F08710B5AD
:101C70006C4C208800F1010020804FF008024FF0EA
:101C800000012046FEF71DFB6349B4F9000001EB9B
:101C900040004A880284B1F84E10A0F86C1010BDC4
:101CA0002DE9FE4F6548664A674990F8280502907D
:101CB000664BB2F900B0B1F900100191B3F9001010
:101CC000604D634B634F644CDFF8909145F21166B1
:101CD00045F2FA580091072838D04E49DFF880C104
:101CE000DFF864A10A8D5649BAF900A041F2707B71
:101CF000B1F90010B9F800004A43BCF90610BCF96C
:101D000014C001FB0AF1DFF844A191FBFBF1BAF921
:101D100000A009B20CFB0AFC9CFBFBFC0FFA8CFC3C
:101D2000B04258D14FF47A6092FBF0F000B22880B4
:101D30001980A7F800C02080814200DA2180B4F920
:101D40000000844501DAA4F800C0AAE04548DFF8A5
:101D5000C4C0017842780CF1740C01EB02211FFA27
:101D600081FAACF800A08178C27801EB022189B237
:101D7000ACF80210027990F805E002EB0E2292B264
:101D8000ACF8042002FB0BF241F2707C92FBFCF2F7
:101D90000FFA82FBA5F800B0019A01FB02F191FB5A
:101DA000FCF109B21980009A0AFB02FA9AFBFCF2D4
:101DB00012B23A808379C07903EB00202A4B188055
:101DC000A4F800B0594500DA2180B4F9000082423D
:101DD00067DA228065E0A0F5AC4ABAF12F0A08D094
:101DE0001AF1280A05D0BAF1140A02D01AF1190A18
:101DF00040D149F6404092FBF0F000B228801980B3
:101E0000A7F800C02080814200DA2180B4F90000E8
:101E100084452BE008000010D4530010B2C0072006
:101E20004E3A0200EA00001020400240B6000010C6
:101E3000A2C40720B8C007206E3A020084540010E4
:101E4000BAC307208CC10720C6000010BCC30720FE
:101E50008EC1072090C107208AC107201CC107201E
:101E600018F20720B259001098C1072019DAA4F817
:101E700000C016E0FF49B1F90020FF49098D514328
:101E8000404503D0A0F5AA42FB3A05D148F6B80078
:101E900091FBF0F0208004E04FF4FA7091FBF0F039
:101EA00020800298072803D0F4480188F448018074
:101EB000DFF8D0A3BAF90020F349B1F9000050438C
:101EC0004FF4FA6790FBF7F0F04D6880BAF90830EC
:101ED000EF4AB2F9000000FB03F04FF42F7390FBC0
:101EE000F3F0A880BAF91800B1F9021001FB00F173
:101EF00091FBF7F0A5F84E00BAF90200B2F9021012
:101F000001FB00F191FBF3F0A5F850004FF0DC006D
:101F1000FEF774F9F0BBDFF87CC3BCF80000DFF813
:101F200078B3BBF80010A0EB0100DC4AB2F9001056
:101F300001FB00F1B9F8000045F63863984204D07F
:101F4000A0F5BC4EBEF1920E04D14FF4967E91FBEB
:101F5000FEF10FE0404506D0A0F5AC4EBEF1130EE9
:101F600001D0B04202D191FBF7F103E04FF47A7E49
:101F700091FBFEF12981BCF80210BBF802C0A1EB75
:101F80000C0CB2F9021001FB0CF1984205D0A0F53F
:101F9000BC4200E017E0923A04D14FF4967091FBF6
:101FA000F0F00EE0404505D0A0F5AC42133A01D068
:101FB000B04202D191FBF7F003E04FF47A7091FB4D
:101FC000F0F0A5F85400BAF90C0051460646A0F20C
:101FD000213040F6B733002282464FF0010C984280
:101FE00001D22A7301E085F80CC0DFF8B4E2BEF933
:101FF0000000704344F6206B90FBFBF0A0F2111040
:102000006881B1F90E0040F6B733A0F2213B9B4541
:1020100002D285F8582001E085F858C0BEF9023098
:10202000434344F6206B93FBFBF0A0F21110974B57
:10203000A3F85600B1F904009A4BB3F9003000FB45
:1020400003F34FF4FA6593FBF5F31FB2964B1F8031
:10205000B1F90210954BB3F9003001FB03F14FF4D5
:10206000FA7591FBF5F1924B1980924BB3F9003060
:1020700000FB03F393FBF5F3DFF83CE2AEF800302E
:10208000A1EB03018D4B19808D49B1F9001000FBC4
:1020900001F0B9F80010414504D14FF4C87190FB2C
:1020A000F1F001E090FBF5F0864D00B22880DFF8FA
:1020B00018E2642815DA4FF00000BEF90080DFF85E
:1020C0000C920CE0C0EB001109EBC101B5F9003036
:1020D000096A994200DD298000F10100C0B2404543
:1020E000F0DB4FF000031846BEF90010774D09E011
:1020F000C0EB001805EBC808D8F82480434400F171
:102100000100C0B28842F3DB7148038040F6B7306B
:10211000704B824501D21A7001E083F800C06E480E
:10212000B0F90000704390FBFBF0A0F21110DFF853
:10213000AC9100B2A9F80000DFF83CC1BCF93460F2
:10214000002E01DAACF83420BCF93460032E03DD34
:102150004FF00306ACF83460BCF8346006EB46067A
:10216000304400B2A9F800005A4B1E785C4B96B17F
:102170004FF0140018805B48DFF86CA15B4E0088BC
:10218000DFF86C8148B14FF03200AAF800005948DE
:10219000008828B33CE01880EDE7574B18685B686F
:1021A000A0EB03033D48B0F9000000FB03F04FF43F
:1021B000FA6390FBF3F0BAF900301BB1A3F101030D
:1021C000AAF800304D4B1B781E2B01D94FF00000B0
:1021D000BAF80030002BDAD1A8F800003080D6E73A
:1021E0004FF00003184609E0C0EB001A05EBCA0ADD
:1021F000DAF824A0534400F10100C0B28842F3DBB6
:102200001BB24FF00A0093FBF0F0A8F800003080FA
:102210001E4E7780DFF8E8B0BBF800303948B0F9DF
:10222000000058434FF47A6A90FBFAF0364B80B2C4
:102230001880DFF8D8E0642802D2AEF8000002E08F
:102240002088AEF80000BBF802402E48B0F902002A
:10225000604390FBFAF058802D4BB3F900002D4CF1
:10226000B4F900A00AFB00FA41F270709AFBF0FB8F
:1022700052E00000B2C307200800001092C10720FE
:1022800098C1072018F20720A6C30720D4530010D6
:10229000AAC30720A2C40720B6000010AEC30720BF
:1022A000BA000010C400001078C10720BEC3072088
:1022B0007EC10720CA00001084C1072080C107200A
:1022C000C80000107CC10720ECC007208454001017
:1022D000E0C30720BBC10720BE00001032C20720A8
:1022E00086C10720AAC107201001001082C1072063
:1022F00076C107206EC107200CC4072048C0072004
:10230000F6C30720B4C3072038C20720A2C10720A4
:10231000B86F001000010010DFF838A4AAF800B070
:10232000B3F902E0B4F902B00BFB0EFB9BFBF0FB30
:10233000AAF802B0B3F904B0B4F9044004FB0BF4FA
:1023400094FBF0F4AAF80440B3F906B0DFF808A44F
:10235000BAF9004004FB0BF494FBF0FBFF4CA4F82B
:1023600000B0B3F908B0BAF902E00EFB0BFE9EFB19
:10237000F0FBA4F802B0B3F90AB0BAF9043003FBD9
:102380000BF393FBF0F0A080B9F80200F44C00F2DC
:1023900011100FFA80FAA4F800A0B9F8040000F2B6
:1023A00011100FFA80F9A4F80290EE4843782372D6
:1023B00080786072EC4C03B910B1012B0AD00AE0AE
:1023C0000AEB090000EBD0706FF4887303EB600038
:1023D00020801EE008B12BB106E0A9F21119A4F883
:1023E000009016E0012802D0012B05D011E0AAF2DE
:1023F000111AA4F800A00CE001280AD1DB480078EB
:10240000052803D2DA480088208002E04FF014004B
:102410002080D8480378552B04D1C82F02DD33899A
:10242000ACF83A30407855280BD1B6F94E00C828A0
:1024300007DDB6F95400B6F90830984201DDACF872
:102440003A00B8F80000ACF83A004FF0000345E05D
:10245000C3EB031005EBC000C478192C2ED284798D
:10246000C77904EB07244462047A477A04EB072413
:102470000462847AC77A04EB0724C461047B846213
:10248000447B80F85840847B80F84640047C477C3D
:1024900004EB07240463847CC77C04EB0724A0F8C6
:1024A0006040047D477D04EB0724A0F86240847DF2
:1024B000C77D04EB0724A0F864400CE0C2614262CF
:1024C0000262826280F846200263A0F86020A0F8D1
:1024D0006220A0F8642003F10103DBB28B42B7DB7A
:1024E000A54CB6F908304FF00A0093FBF0F3B6F9AB
:1024F000546096FBF0F01844C0F1000007B227804A
:102500009E4E32804FF0000010E0C0EB001305EB50
:10251000C30393F803C0BCF1050F04D25B6AB6F89D
:1025200000C06344338000F10100C0B28842ECDB9C
:102530003088384400B22080002800DA22802280CF
:1025400032804FF000000DE0C0EB001305EBC30339
:10255000DF78052F03D25B6A37883B44338000F174
:102560000100C0B28842EFDB318802EB010000B20B
:102570002080002800DA22808148B0F90040002C39
:1025800064D04FF000037F4E5EE003F11400C0EB17
:10259000001005EBC000C178192939D28179C779BB
:1025A00001EB072703EB430106EB4111CF61077AEB
:1025B00090F809C007EB0C27CF62877A90F80BC020
:1025C00007EB0C278F61077B0F62477B81F8467012
:1025D000877B90F80FC007EB0C278F62077C90F881
:1025E00011C007EB0C274F628A70877C81F8597005
:1025F000C77C81F85A70077D81F85870477D81F853
:102600005B70877D81F85C70C07D81F85D0018E0AB
:1026100003EB430006EB4010C261C26282610262BA
:1026200080F84620426282624FF01901817080F882
:10263000592080F85A2080F8582080F85B2080F8D4
:102640005C2003F10103DBB2A3429EDBBDE8FE8FF9
:102650004D48416821F4402141F4802141604168A6
:1026600021F4403141F480314160416821F440411E
:1026700041F480414160416C21F4402141F400214A
:102680004164416C21F4403141F400314164416CBA
:1026900021F4404141F4004141643C48016821F08B
:1026A000E0610160016841F400110160016821F4FA
:1026B00080310160016821F47F4141F48071016043
:1026C0004FF48071C16032484FF48001016070475F
:1026D0002DE9F0412F4C60882188401A00B203F0A8
:1026E000D6FAA61D3080A0886188401A00B203F097
:1026F000CEFA7080A0882188401A00B203F0C7FA91
:10270000B0804FF49671A4F17A05884202DAA0886D
:1027100068850CE0B6F90200884202DA60886885B4
:1027200005E0B6F90000884201DA20886885EF7874
:1027300000269FB31848B5F92A1002680A440260BF
:1027400042680A44426082680A448260C268114456
:10275000C16024E03EC20720FEC3072044C2072018
:10276000526F0010BBC107209AC1072071C007201B
:10277000FCC307201AC107207AC10720F0C3072035
:10278000EEC007208463001000C0024000400340F8
:1027900000E100E08200001038F2072016E0698EA8
:1027A00001F1010109B26986B1F5805F00DB6E8637
:1027B000B5F932108A052FD14FEAA12150F8212016
:1027C0004FEA22222A8540F8216025E0FC482C7936
:1027D0006A7900EB8413B5F92A1043F822109007A8
:1027E0000DD1014653F820C0614400F10100C0B290
:1027F0001028F7D34FEA2110F24921F81400641C85
:10280000E0B22871102807D32E7102F10102D0B274
:102810006871102800D36E71AE7007F1010707F0E0
:102820000100E870E84A30B1106820F0FF0000F1C4
:10283000040010603DE02979080706D4106820F0F4
:10284000FF0000F10100106005E0106820F0FF00BB
:1028500000F102001060DD48036843F0805303601C
:10286000036A43F080430362036E43F080630366B0
:10287000CB070AD0436943F0805343618B0709D4E7
:10288000436B23F08043436308E0436923F08053A4
:102890004361F3E7436B43F080434363490704D448
:1028A000416F21F08061416703E0416F41F0806139
:1028B0004167106840F080701060BDE8F0812DE93C
:1028C000F047DFF80C8398F80F00002806D1B8F91C
:1028D000220028B1A0F10100A8F82200BDE8F0878D
:1028E00098F80D000A2804D200F1010088F80D00C4
:1028F000F4E74FF0000C88F80DC088F80EC098F887
:1029000010004FF0010710B188F810C001E088F8FE
:1029100010704FF00000B049AE4EB1F9003012E037
:10292000C0EB001106EBC1018A78022A08D1C978F0
:10293000142905D298F80E1001F1010188F80E1043
:1029400000F10100C0B29842EADB98F80E20022A9A
:10295000C4D341F28830C8F85800C8F854C0C8F849
:102960005CC04FF000011BE0C1EB011006EBC000A2
:102970008478022C11D1406AD8F85440A04201DD7D
:10298000C8F85400D8F85840A04201DAC8F85800F6
:10299000D8F85C402044C8F85C0001F10101C9B2DC
:1029A0009942E1DBD8F85C0090FBF2F0C8F86000D7
:1029B000D8F8580008B9C8F85870D8F854004FF043
:1029C000640100FB01F0D8F8581090FBF1F0C8F852
:1029D0006400A02801DD88F80C70782804DB7F48AB
:1029E000B0F90000322801DA88F80CC098F80C0021
:1029F000012812D14FF000016FF031090BE0C1EB5B
:102A0000011006EBC0008278022A08D0A0F866C048
:102A100001F10101C9B29942F1DB00BF5EE7446AEE
:102A20004FF0640204FB02F2D8F860500DB9C8F808
:102A300060701546D8F8602095FBF2F52DB2A0F82D
:102A4000665094420CDD782D0ADD98F810A0BAF19A
:102A5000000F05D1B0F856A0AAF1010AA0F856A0BF
:102A600094420ADA502D08DA98F810202AB1B0F80A
:102A7000562002F10102A0F85620B0F956204A452E
:102A800001DAA0F85690B0F95620322AC0DD4FF096
:102A90003202A0F85620BBE710B54D49B1F9240029
:102AA00018B1A0F10100888410BD4FF005008884A2
:102AB0004B484D4BB0F900204A48B3F90010B0F92B
:102AC0000000A0F10504A24209DA01F101010AB2F5
:102AD0001A8000F132018A420DDD19800BE0441D9D
:102AE000A24208DDA1F101010AB21A80A0F132016F
:102AF0008A4200DA1980188010BD70B54FF00003CB
:102B00001A4610463449334CB1F900500FE0C0EB7F
:102B1000001104EBC10149780E0701D04FF0010309
:102B2000C90601D54FF0010200F10100C0B2A84270
:102B3000EDDB2E49B1F900001BB140F00100088027
:102B400002E020F0010008802948007810B1012837
:102B500005D008E0088820F00200088003E008881B
:102B600040F0020008802348007810B1012805D009
:102B700008E0088820F00400088003E0088840F09E
:102B8000040008801C48007820B1012807D00228E2
:102B90000AD00DE0088820F01800088008E00888B6
:102BA00040F01000088003E0088840F0080008802A
:102BB0001248007820B3012827D002282AD02DE01F
:102BC00018EE072018F207200040034000C009203B
:102BD0000800001084540010ECC0072084C10720B6
:102BE0007EC1072096C0072098C0072030C4072068
:102BF00078C007207BC0072079C007207AC0072053
:102C0000088820F06000088008E0088840F0400054
:102C1000088003E0088840F02000088022B108887E
:102C200040F08000088003E0088820F080000880E1
:102C3000FF48007820B1088840F48070088003E0E5
:102C4000088820F4807008804FF00000B1F900502F
:102C5000F84CF9494FF0010634F910202A4206D009
:102C60000A8806FA00F343EA02030B8005E00A88AB
:102C700006FA00F322EA03020A8000F10100C0B262
:102C80000428E9D370BD70B5EC480168EC4A01EA4C
:102C900002010160EB4C216841F47C712160C16943
:102CA00021F44021C161216E41F00071216641682B
:102CB00021F040614160206840F0005020604FF0FA
:102CC000D200FDF79BFADC4EDF4D10B12868652875
:102CD00015D03088C0071ED0A06F40F00070A067EC
:102CE000D220FDF78BFA10B12868662818D03088FA
:102CF000800724D4E06940F08000E06123E0686848
:102D000020B1A06F40F00070A067E9E7E06F40F0ED
:102D10000070E067E4E7E06F40F00070E067DFE735
:102D2000686810B1012805D00DE0E06940F080002E
:102D3000E06108E0A06940F08000A06103E0A069C4
:102D400040F08000A061D220FDF758FA10B1286849
:102D5000672807D03088400713D4E06940F010009E
:102D6000E06112E0686810B1012805D00DE0E0696B
:102D700040F01000E06108E0A06940F01000A061A0
:102D800003E0A06940F01000A061D220FDF736FA00
:102D900010B12868682807D03088000713D4E0698C
:102DA00040F40070E06112E0686810B1012805D0BD
:102DB0000DE0E06940F40070E06108E0A06940F4D3
:102DC0000070A06103E0A06940F40070A0619F4919
:102DD0004FF000008886626F920102D500F1010079
:102DE00088866069000603D5888E00F10100888618
:102DF0006069C00603D5888E00F10100888670BD29
:102E00002DE9F05F914E00274FF0010A307D0A282E
:102E100008D200F10100C0B230750A2802D337751C
:102E200086F815A0B766F766CD20FDF7E7F9DFF85D
:102E30002082DFF820B2F0B383490868CE2802D19F
:102E40004FF6FF72F266CF2801D14A68F266D128A8
:102E500001D14A68B266D22802D14FF0FF32B26681
:102E6000D02804D14868B0666FEA0000F0664FF0E1
:102E7000000430E0F06E0AFA04F919EA000F09D0F4
:102E8000C4EB041008EBC00030F8441F01F101014D
:102E9000018005E0C4EB041008EBC000A0F844700A
:102EA000C4EB041008EBC00505F1440032220021F8
:102EB000FDF7FCF900E013E0B5F94400142801DD4A
:102EC00085F82CA0B06E19EA000F01D085F82C709F
:102ED00004F10104E4B2BBF900008442CADD72E0EF
:102EE000707DE8B34FF000042146BBF9000008E014
:102EF000C1EB011208EBC20282F82CA001F1010122
:102F0000C9B28142F4DD4FF0000120E0C2B2202AB4
:102F100001D94FF02002B37E834201DB4FF0000362
:102F20000B44DBB2B3FBF2F502FB1532C2EB02122B
:102F300008EBC2039A78032A01D0022A04D183F84D
:102F40002C7004F10104E4B201F10101C9B2814223
:102F500004DA414AB2F900209442D7DBF17E00E066
:102F600031E0C1EB011108EBC10181F82C703B4944
:102F7000B1F900103C290DDA4FF0000108E0C1EB77
:102F8000011208EBC20282F82C7001F10101C9B2F2
:102F90008142F4DD3249098869B14FF0000108E04F
:102FA000C1EB011208EBC20282F82CA001F1010171
:102FB000C9B28142F4DD4FF0000102E001F10101EC
:102FC000C9B28142FADD4FF000004FF06304BBF953
:102FD00000300DE0C0EB001108EBC1010A6C22B11A
:102FE00081F82C40A2F101020A6400F10100C0B294
:102FF0009842EFDB777577744FF00001084611E0D7
:10300000C0EB001208EBC2029478022C07D1747C4A
:1030100004F101047474D2698A4200DD91B200F1B6
:103020000100C0B29842EBDBF187BDE8F09F0000E1
:1030300022C407204AC207202C01001000C0024011
:10304000FF00F0FF00C0092010C00720080000109A
:1030500084540010ECC00720F800001080C0072046
:1030600020C4072070B50A23FF4CFE4800252268C3
:103070000068B2FBF3F6B0FBF3F1FC4AB1420BD1AE
:1030800011780F2902D201F10101117011780A297A
:1030900003D3F749086000E015702060F548F64C4E
:1030A000B0F90000B4F90020B0FBF3F1B2FBF3F388
:1030B000F24A99420BD111780F2902D201F1010194
:1030C000117011780A2903D3ED49088000E01570CA
:1030D000208070BD2DE9F04385B0EA4CEA4E002512
:1030E0002078401CC0B220700A2840D32570DFF839
:1030F0009CC39CF8000000F101008CF80000E4483B
:10310000E449B0F900000880E349DFF890836246A3
:103110003746B1F900105278B8F90030B7F90070AD
:10312000884206DDA0EB0109B9F10A0F01DB012F8E
:1031300007D0884216DA081A0A2813DB012F09D0B3
:1031400010E002F101028CF80120A3F10103A8F8BC
:10315000003007E0A2F101028CF8012003F1010325
:10316000A8F8003014225142CC48FDF79FF820788F
:10317000DFF82C83CB4F082825D13088012822D1B5
:10318000B8F800008DF800004FF004008DF8010041
:103190008DF802504FF002008DF803008DF80450B6
:1031A0004FF001008DF805004FF0060168461BF056
:1031B00087FE8DF806004FEA20208DF80700B7F94A
:1031C0000000E8B30128B8486FF01402B0F900001D
:1031D000C0EB001102EB8101B44AB2F944209142E4
:1031E00034D13188012931D1B8F800108DF80010A0
:1031F0004FF006018DF801108DF802504FF01E01BE
:103200008DF803104FEAE07100EB11614FEA2122C3
:103210008DF804208DF805004FF0060168461BF07C
:103220004FFE8DF806004FEA20208DF80700388801
:1032300000280BD104466D46285D1DF097F900E08B
:1032400007E004F10104E4B2082CF5D305B0BDE8B1
:10325000F0834FF00004E94619F804001DF086F9E8
:1032600004F10104E4B2082CF6D3ACE72DE9F041F7
:1032700007468F49C7EB071011F83020032A75D194
:1032800001EBC00494F846504FF00A06A80715D584
:10329000B4F94A100A2922DA01F1010108B2A4F8AE
:1032A0004A000A281BDBA4F84A606078C00716D1E0
:1032B00001220021384601F009FD10E0B4F94A105E
:1032C00069B1A1F1010108B2A4F84A0038B96078E7
:1032D000C00704D000221146384601F0F7FC280749
:1032E0004FF0000815D5B4F94C100A2926DA01F17F
:1032F000010108B2A4F84C000A281FDBA4F84C60B6
:10330000607880071AD401221146384601F0DEFCAD
:1033100014E0B4F94C1000290DDDA1F1010108B24F
:10332000A4F84C0050B94FF000024FF001013846AC
:1033300001F0CCFC02E001DAA4F84C80E80616D5D6
:10334000B4F94E000A2820DA00F1010000B2A4F816
:103350004E000A2819DBA4F84E606078400714D4A8
:1033600001220221384601F0B1FC0EE045E0B4F93B
:103370004E0050B1A0F1010000B2A4F84E0020B9F7
:1033800000220221384601F0A1FC6078000703D03A
:103390004FF00500A07016E04648007828B1E078AC
:1033A000142802D984F802800DE094F846008006C3
:1033B00003D54FF00300A07005E0E078142802D296
:1033C0004FF00200A070E0780A2806D394F82C0091
:1033D00040F0800084F82C0005E094F82C0000F008
:1033E0007F0084F82C003149B4F95400B1F91E1063
:1033F000084460634FF4FA60A063BDE8F08170B5E3
:103400004FF000002C492D4D4FF00104B1F90C2074
:10341000034604FA00F10A4201D02C5400E02B5478
:1034200000F10100C0B20C28F3D3254E2878254CBA
:10343000317881420BD0B4F90010012907DB012853
:103440007ED0002301220B211FA017F097FD717879
:103450006878814248D0B4F90010022944DB012881
:103460006FD03BE00801001004C407200AC4072005
:10347000F4C107200C01001008C407200E01001041
:10348000A6C1072077C0072002C107207C6F00106B
:10349000E0C30720B2C10720B4C10720B6C107208E
:1034A00006C1072004C10720BEC007200800001085
:1034B0008454001066C00720B86F0010706F0010B1
:1034C000CC6F0010F4C007204176746F6D617420DA
:1034D0002331206973204F4646000000002302225A
:1034E0000B21FDA017F04AFDB178A87881420BD0DE
:1034F000B4F90010032907DB012872D0002303224E
:103500000B21FAA017F03AFDF178E87881420BD050
:10351000B4F90010042907DB012879D00023042224
:103520000B21F7A017F02AFD3179287981420ED0BE
:10353000B4F9001005290ADB012871D0002301E04D
:1035400050E056E005220B21F2A017F017FD71792B
:10355000687981420BD0B4F90010062907DB0128F5
:1035600065D0002306220B21EFA017F007FDB179EB
:10357000A87981420BD0B4F90010072907DB012894
:103580005CD0002307220B21ECA017F0F7FCF179A7
:10359000E87981420BD0B4F90010082907DB012833
:1035A00053D0002308220B21E9A017F0E7FC317A61
:1035B000287A81420BD0B4F90010092907DB0128D1
:1035C0004AD0002309220B21E6A017F0D7FC4FF0C8
:1035D0000000295C315400F10100C0B20C28F8D37E
:1035E00070BD0EE001231A460B21E3A017F0C6FCC4
:1035F0002DE7012302220B21E4A017F0BFFC73E7A3
:1036000006E0012303220B21E5A017F0B7FC7BE7BE
:10361000012304220B21E7A017F0B0FC84E7FFE7A9
:10362000012305220B21E8A017F0A8FC8FE7012356
:1036300006220B21E9A017F0A1FC98E7012307223D
:103640000B21EBA017F09AFCA1E7012308220B2124
:10365000ECA017F093FCAAE7012309220B21EEA0AE
:1036600017F08CFCB3E770B5F048B0F900001E28E5
:10367000B6DBEF48F04BF14CB0F90020ED48B0F963
:103680000010B3F900008A4207DA8D1A322D04DDEA
:10369000EB4D2D8815F0810F09D032398A421BDDA0
:1036A000D0B1A0F1010000B2188090B114E0B4F9DB
:1036B000001001EB8101B0EB410F0DDA00F10100C8
:1036C00000B21880B0EB410F06D1012001F0FFFCE1
:1036D00002E0002001F0FBFCDA48DC4AB0F90010FF
:1036E000D948B0F90000814214DDB4F9000000EBC4
:1036F0008001B2F90000B0EB410F1EDA00F10100C9
:1037000000B21080B0EB410F17D1BDE8704001202E
:1037100001F0DDBC11DACE48008800280DD1B2F9E5
:103720000000002809D0A0F1010000B2108000289C
:1037300003D1BDE8704001F0CABC51E72DE9F0416A
:10374000BA48B0F900000A287DDBB94EC148C24F23
:10375000B6F90010B0F90020B7F900000025BF4C01
:10376000914217DDB4F9002002EB8203B0EB430F66
:103770000ADA00F1010000B23880B0EB430F15DB2C
:10378000012001F08EFE11E002EB82004FEA4000C2
:1037900038800BE0002808DDA0F1010000B238807D
:1037A00020B9002001F07DFE00E03D80AC48B6F974
:1037B0000010AC4EB0F90000814219DAB4F90000F3
:1037C000B6F9002000EB8003B2EB430F0ADA02F1F6
:1037D000010210B23080B0EB430F17DB022001F082
:1037E00060FE13E000EB80004FEA400030800DE007
:1037F000B6F90000002808DDA0F1010000B2308019
:1038000020B9002001F04DFE00E03580964E97482B
:10381000974FB6F90010B0F9000081421ADDB4F9F3
:103820000000B7F9002000EB8003B2EB430F0BDA86
:1038300002F1010210B23880B0EB430F18DB012017
:1038400001F07FFF14E035E000EB80004FEA40001C
:1038500038800DE0B7F90000002808DDA0F1010074
:1038600000B2388020B9002001F06BFF00E03D80FD
:103870008048B6F90010804EB0F9000081421ADA93
:10388000B4F90000B6F9002000EB8003B2EB430F5F
:103890000BDA02F1010210B23080B0EB430F09DB0A
:1038A000BDE8F041022001F04CBF00EB80004FEA80
:1038B00040003080A1E5B6F90000002809DDA0F144
:1038C000010000B230800028F4D1BDE8F04101F0E1
:1038D00038BF358091E500004176746F6D617420CA
:1038E0002332206973204F46460000004176746FF2
:1038F0006D6174202333206973204F464600000019
:103900004176746F6D6174202334206973204F46B3
:10391000460000004176746F6D6174202335206984
:1039200073204F46460000004176746F6D6174202D
:103930002336206973204F46460000004176746F9D
:103940006D6174202337206973204F4646000000C4
:103950004176746F6D6174202338206973204F465F
:10396000460000004176746F6D6174202339206930
:1039700073204F46460000004176746F6D617420DD
:103980002331206973204F4E200000004176746F70
:103990006D6174202332206973204F4E2000000097
:1039A0004176746F6D6174202333206973204F4E0C
:1039B000200000004176746F6D617420233420690B
:1039C00073204F4E200000004176746F6D617420AB
:1039D0002335206973204F4E200000004176746F1C
:1039E0006D6174202336206973204F4E2000000043
:1039F0004176746F6D6174202337206973204F4EB8
:103A0000200000004176746F6D61742023382069B6
:103A100073204F4E200000004176746F6D6174205A
:103A20002339206973204F4E2000000080C00720FA
:103A30007EC1072096C007202401001072C1072014
:103A400030C4072076C1072070C1072028C4072092
:103A5000AAC10720AEC0072026010010BCC0072065
:103A6000B0C007202AC4072080C10720AAC00720B1
:103A700028010010ACC007202CC4072030B4F8483F
:103A8000B0F900000A2822DBF648F84CB0F9001023
:103A9000F548B0F90020B4F90000914219DDF44A6C
:103AA000B2F9002002EB8203B0EB430F0ADA00F117
:103AB000010000B22080B0EB430F08DB30BC0120D6
:103AC00001F098BF02EB82004FEA4000208030BC3A
:103AD0007047002808DDA0F1010000B22080002816
:103AE000F5D130BC01F086BF4FF000002080EEE73A
:103AF00038B5E049E04C098881B1E049097821B145
:103B00004FF01401ADF8001003E0DD490988ADF86D
:103B10000010DC4ABDF9001011602080DA480088EE
:103B200010B1DA4800882080BE20FCF767FB28B17E
:103B3000D7480168BF2901D140682080D548008856
:103B400020B1D5492088098808442080B4F90000B4
:103B50004FF0620100FB01F14FF0640291FBF2F1C2
:103B6000CE4B19804FF0660100FB01F090FBF2F0A4
:103B7000CB49088038BD2DE9F041CA4CB4F9260084
:103B800010B1A0F10100E084C748C84D008828802A
:103B9000C74E0A27B6F90800002806DAFCF7B0FB82
:103BA00090FBF7F0298808442880B6F954000028D3
:103BB00006DAFCF7A5FB90FBF7F02988084428807B
:103BC000BC48B5F90010B0F9000091FBF0F000F12D
:103BD0000100C0B2A074B84AB2F9002091FBF2F122
:103BE00001F10101C9B2E174B44B4FF03C05B3F9E6
:103BF0000020904202DD1880E58405E0914203DA5E
:103C0000E08C08B91980E584AD48B0F900201A802D
:103C1000BDE8F0410121A948FCF748BB2DE9F04778
:103C2000A848DFF88082B0F90010A8F83C10964848
:103C3000008818B1A4480088A8F83C00B8F94C00E6
:103C400018B1A0F10100A8F84C00B8F94E0018B165
:103C5000A0F10100A8F84E0095484FF00A0790F82F
:103C60003F20920703D190F88B00800703D091FB8F
:103C7000F7F0A8F83C0095480122B0F90010491E61
:103C8000052900D30280B0F90000002400EB800178
:103C900098F80700B0EB410F0BDA00F10100C0B259
:103CA00088F80700B0EB410F03DB88F8074088F87D
:103CB0000820E120FCF7A2FA754DDFF8BCC1844B67
:103CC000844E00287ED02868642809D069280ED048
:103CD00081496E2813D0E52833D0E62835D066E137
:103CE000B8F8201068680844A8F81E005FE1B8F82A
:103CF00020106868A1EB0000A8F81E0057E1B8F892
:103D00001E00A0F1010000B2A8F81E001E2806DD6A
:103D1000B1F900007149B1F9001088420EDA98F843
:103D20000100401CC0B288F80100FA2805D10A231E
:103D30000022E721E620FCF722FA38E188F801406A
:103D400035E16868A8F81E0031E1B1F90010BCF94E
:103D5000000081421FDD4FF00B0188F81D10B3F900
:103D60000010A1EB0000282808DDB8F91E0000288B
:103D700004DDA0F10500A8F81E0018E1B8F91E0046
:103D8000002807D098F80810002903D0A0F10100FE
:103D9000A8F81E000BE1B3F90010814211DA4FF0D0
:103DA0000C0288F81D20A0EB010028280BDDB8F9D3
:103DB0001E0040F2DF71884205DA00F10500A8F824
:103DC0001E00F4E00DE0B8F91E0040F2E4718842F4
:103DD00033DA98F8081081B300F10100A8F81E004A
:103DE000E5E098F8080040B33D48008818B196F81F
:103DF000C303282821D9B8F92000A8F838004FF0CB
:103E0000130188F81D10B8F93A20B8F83C1092FB5D
:103E1000F7F7B7EB410F11DD4FF0140188F81D10D3
:103E2000B8F84C1021B1A0F10100A8F838007DE0ED
:103E3000A0F10A00A8F8380078E0B8E057DAC1EB42
:103E40000119914553DA4FF0150188F81D10B8F8A3
:103E50004C1021B1A0F10100A8F8380066E041E063
:103E600080C0072086C10720A0C007202A010010BB
:103E7000BCC00720DEC007209CC10720BBC10720B3
:103E800032C20720ECC307201A01001016010010EF
:103E900010C0072002C10720B6C10720E8C30720D1
:103EA000F600001008000010F0C30720FA00001010
:103EB000D4530010B4C00720B6C00720F80000108B
:103EC000ECC00720B8C0072018C4072016C107207F
:103ED0007CC107208454001078C10720A4C00720AB
:103EE000AAC10720A0F10300A8F838001EE0C1EB2A
:103EF000011991450ADD8F4208DD4FF0160188F85F
:103F00001D10A0F10100A8F838000FE0B3F900007F
:103F1000BCF90010884204DA4FF0170088F81D0041
:103F200004E003DD4FF0210088F81D00FF4840F257
:103F30008A22B0F90010FE48B0F90000A1EB0000A1
:103F400000F11E004FF4FA6100FB01F191FBF2F168
:103F5000A8F83810002801DAA8F8384040F2DA72E0
:103F60000A21F448FCF7A2F9B8F83800A8F82000B4
:103F7000A8F81E00F04A98F80B1022F8110001F181
:103F80000101C8B288F80B00102801D388F80B4053
:103F90004FF00001084632F91030194400F10100D9
:103FA000C0B21028F7D34FEA2110A8F8400088F8D3
:103FB0000A4088F80940E14FE148B7F90020B0F91C
:103FC00000300CE0C0EB001106EBC101B1F856C0A7
:103FD0009444A1F854C000F1010088F8090098F851
:103FE00009009842EEDBD749D74E0888401C00B242
:103FF000088064281ADB0C80D448D54BB0F9001037
:10400000B6F90000814208DAB3F900C0BCF1140F20
:1040100003DD02F101023A8008E0814206DDB3F9D6
:104020000000142802DDA2F101023A80322251423E
:10403000C248FCF73BF93088A0F62E114942A0F6A1
:1040400034000AB2404201B2BC48FCF72FF928689C
:10405000E5280CD1B8F91E00B0F57F7F02D141F2FE
:10406000883139801E2802D14EF67840388088F891
:104070000840BDE8F0872DE9F05F4FF00000B74A37
:10408000B44BB54D4FF0010A4FF00A0B0646B2F99A
:10409000004026E0B249A84F095C403F37F91110B3
:1040A000B1F5FA6F0EDA19560A2908DA01F10101A1
:1040B00049B219540A2911DB05F800A00EE003F8F3
:1040C00000B00BE01956002907DDA1F1010149B24A
:1040D0001954002902DC2E5400E01E5400F10100A6
:1040E000C0B2A042D6DB4FF00004DFF878929E4FBA
:1040F000DFF8788283E09E4830F9140010B9295D1A
:1041000001290FD008B1285D60B119F90400002819
:1041100019DBA0F1010040B209F80400002814DC0A
:104120003E5512E019F904000A2809DA00F10100ED
:1041300040B209F804000A2807DB07F804A004E0ED
:1041400009F804B001E009F8046018F80410385DBB
:1041500081424ED0774A383AD18E01F10101D186A1
:10416000012807D054B3012C2FD0022C34D0032CBB
:1041700039D03EE034B1012C0BD0022C10D0032CEE
:1041800015D036E001231A460F217AA016F0F6FE6C
:104190002FE0012302220F2179A016F0EFFE28E084
:1041A000012303220F2179A016F0E8FE21E001236C
:1041B00004220F2178A016F0E1FE1AE0002301226C
:1041C0000F2178A016F0DAFE13E0002302220F215F
:1041D00079A016F0D3FE0CE0002303220F217BA070
:1041E00016F0CCFE05E0002304220F217CA016F07F
:1041F000C5FE385D08F8040004F10104E4B2574834
:10420000B0F900008442FFF676AFBDE8F09F794A2E
:104210004FF0010010707849087050704870704776
:104220002DE9F05F7648DFF8DC91DFF8D081B0F956
:1042300000C0B9F900003F4CC0EB0011383CB8F9A0
:1042400002706FF01D0A6FF0950B0025694EB4F9EE
:1042500044000AEB81020BEB8103674505DCDFF8C4
:10426000A8C1BCF900C0674504DA824202DD83427E
:1042700000DA3570654FB8F908C0B7F900E05E4F55
:10428000BCEB4E0F04DCCEF1000EBCEB4E0F04DA9B
:10429000824202DD834200DA3D706FF0090202EBD8
:1042A0008101814220D1A07DF0B9307801281BD155
:1042B0003878012818D14FF4D67018F018FA5449FC
:1042C000B1F9001088420FD05248008860B198F8C8
:1042D0003D00C00708D14FF4D67018F006FB4E48D9
:1042E000017801F1010101704548B8F90210B0F9F7
:1042F0000000814206DC4448B8F94E10B0F90000D5
:1043000081420EDAB9F90000B4F94410C0EB001094
:104310000AEB80028A4204DD0BEB8000884200DA5F
:104320007570B8F95400394978E0000098C007204A
:1043300080C107204000001058F207202001001023
:10434000ECC0072024C4072096C007207EC10720A8
:1043500084C10720E4C10720BEC10720F2C00720A6
:10436000423A0200E3C30720C2C10720F100001057
:1043700052C20720534B20233120416C61726D00E3
:10438000534B20233220416C61726D00534B20232C
:104390003320416C61726D00534B20233420416CFB
:1043A00061726D00534B20233120416C61726D208E
:1043B0006973206F66660000534B20233220416CE6
:1043C00061726D206973206F66660000534B202375
:1043D0003320416C61726D206973206F6666000046
:1043E000534B20233420416C61726D206973206F20
:1043F00066660000F2C30720FC000010D4530010D2
:10440000F6000010BEC00720E8C30720B2C0072096
:10441000D2C30720E8C00720FE000010B1F9001049
:10442000B0EB410F03DC4942B0EB410F0EDAB9F9B2
:104430000000B4F94410C0EB00100AEB80028A427D
:1044400004DD0BEB8000884200DA7D70B9F90000D2
:10445000C0EB00116FF0090000EB8100B4F94410CB
:10446000884221D1A07DF8B9707801281CD17878D4
:10447000012819D14FF4E575284618F038F9FF499D
:10448000B1F9021088420FD0FD48008802280BD1F4
:1044900098F88900C00707D1284618F026FAF9488D
:1044A000017801F101010170B9F900006FF001011B
:1044B000C0EB001001EB8000B4F94410884202D137
:1044C000BDE8F05FA3E6A0E62DE9F003EE48EF4F6C
:1044D000EF4E00784FF0000C4FF00108E8B3ED48C4
:1044E0003946B0F90050EC48B1F90010B0F900902D
:1044F000EA484D45B0F90020E948B0F90030E948F4
:10450000B0F90040E848B0F9000013DA824203DB5A
:10451000834201DB84420DDAE448B0F90020914285
:1045200023DA01F1010108B2388090421DD186F8EA
:1045300000C01AE0DFF878C3BCF900C0654514DD9F
:10454000824212DD834210DD84420EDD69B1A1F1A9
:10455000010108B2388040B900E002E086F800802E
:1045600003E0A7F800C086F800803078002807D163
:10457000BDE8F0030F2301226E21D220FBF7FFBD1F
:10458000BDE8F00370472DE9F041CA4CA07EE0760B
:104590004FF00005A576C84EB6F90000002802DDF0
:1045A000B0F5FA7F02DD3580BDE8F081207F00F1B3
:1045B0000100C0B220773C281AD325774FF49477B6
:1045C000384618F094F800F1010000B2A4F8500049
:1045D000BA4AB6F90010B2F9002001FB02F181429B
:1045E00001DCA4F85050B4F95010384618F07DF9A9
:1045F000B4F95000B6F9001090FBF1F0A076D3E7C3
:1046000010B500214FF4947018F06FF9A9494FF0DC
:104610003A00087710BD2DE9F0414FF00002A7489D
:10462000A74FB0F900606CE0C2EB021007EBC000CE
:10463000417B8B0906D00123B3EB911F05D180F894
:104640005B100FE080F85A100CE00223B3EB911FCF
:1046500002D180F85C1005E00323B3EB911F01D178
:1046600080F85D1010F85A1FC1F30114437803F06D
:10467000300544EA9505847804F0300C4CEA050CCA
:10468000C578A0F15A0005F030084CEA880C01F01A
:104690000F0103F00F0383EA010804F00F0484EA1A
:1046A000080805F00F0585EA0808E04513D14FEA30
:1046B000051544EA05044FEA041443EA04034FEAEB
:1046C00003534FEA134341EA0301B0F85E308B42D3
:1046D00001D0A0F85E107B49B0F85E30B1F900104F
:1046E00001EB8101B3EB410F04DD417841F0100192
:1046F000417003E0417821F01001417002F10102A4
:10470000D2B2B24290DB4FE72DE9F04F87B06E484E
:10471000684C6E496E4A007894F90030B1F9001087
:10472000B2F9002048B102283CD001287ED04FF0D9
:104730000100207007B0BDE8F08F664FDFF8988168
:10474000B7F90A003D7BB7F9566098F800C097F8B2
:10475000587098F801802BB1012BEBD1BCF1550FAB
:1047600015D110E0BCF1550F02D1884207DC35B9F4
:10477000B8F1550FDED18E4201DC002FDAD04FF0B8
:1047800001002070D6E79042D4DA002DD2D1B8F1E2
:10479000550F03D19642CDDA002FCBD14FF0000058
:1047A0002070C7E7464E4548B56AB0F90000F67874
:1047B00018B18D4261DC1E2E5FD2DFF804C10128E2
:1047C000DCF8A0709CF87BC0CDF818C006DD8F42E5
:1047D00053DCDDF818C0BCF11E0F4ED2DFF8E0C08C
:1047E0000228DCF81881CDF814809CF8F3C0CDF8CD
:1047F00010C008DDDDF814C08C453EDCDDF810C0CB
:10480000BCF11E0F39D2DFF8B8C00328DCF8908164
:10481000CDF80C809CF86BC1CDF808C00ADDDDF83E
:104820000CC08C4574DCDDF808C000E0B2E0BCF1DF
:104830001E0F6DD2DFF888800428D8F808C298F8D7
:10484000E381CDF8048006DD8C4561DCDDF8048071
:10485000B8F11E0F5CD2DFF868900528D9F8808285
:1048600099F85B92CDF8009006DD884550DCDDF8C4
:104870000090B9F11E0F4BD230E049E0D2C30720BF
:10488000E8C00720FE0000105DC0072014C4072008
:10489000B400001078C10720DAC007208CC10720BF
:1048A0008EC1072090C10720A6C00720D8C00720CE
:1048B000DCC0072008000010E6C00720ECC007207D
:1048C0008454001000C10720C8C30720C4C30720B8
:1048D000D0000010D45300101AC10720DFF884A1C3
:1048E00006289AF8D3E2DAF8F89204DD89450FDC5D
:1048F000BEF11E0F0CD2DFF86CB10728DBF870A3F5
:104900009BF84BB308DD8A4502DCBBF11E0F03D3D5
:104910004FF0010020700DE7012BFCD118B195423A
:10492000F9DA0A2EF7D2022804DB9742F3DA069965
:104930000A29F0D2032805DB05999142EBDA0499A4
:104940000A29E8D2042805DB03999142E3DA0299A7
:104950000A29E0D2052804DB9445DCDA01990A290A
:10496000D9D2062804DB9045D5DA00990A29D2D29B
:10497000072804DB9145CEDABEF10A0FCBD2082816
:1049800004DB9245C7DABBF10A0FC4D24FF0000036
:104990002070CFE63448354D354EB0F90000B5F9FA
:1049A0000050367810B18D421DDCE6B92F4FDFF88C
:1049B000C0C00128B7F902709CF801C004DD8F4225
:1049C00011DCBCF1000F0ED1DFF8A080DFF8A09061
:1049D0000228B8F9048099F8029008DD884502DCC5
:1049E000B9F1000F03D04FF001002070A2E6012BB7
:1049F00091D118B195428EDA002E8CD1022804DBB9
:104A0000974288DABCF1000F85D1032804DB90457A
:104A1000BFDAB9F1000FBCD14FF00000207089E679
:104A2000144815490022B0F900300878142B09DD2C
:104A3000052803D200F10100087007E04FF00500DF
:104A4000087003E010B1A0F10100087008780B496C
:104A5000052803D0002800D10A7070474FF00100EC
:104A60000870704784540010F0C0072032C207203D
:104A7000BBC1072084C107201E01001022C40720EB
:104A800030B5FF48FF4A0178106819B140F00100C5
:104A9000106002E020F0010010604FF00000FA4CBE
:104AA0004FF00103C0EB001104EBC101497811F094
:104AB000EF0F0AD000F1030503FA05F1156825EAA6
:104AC000010545EA0105156007E000F1030103FA5D
:104AD00001F5116821EA0501116000F10100C0B281
:104AE0001D28DFD34FF01D00C0EB001104EBC10106
:104AF000497811F0EF0F0AD0A0F11D0503FA05F176
:104B0000556825EA010545EA0105556007E0A0F171
:104B10001D0103FA01F5516821EA0501516000F118
:104B20000100C0B22028DFD3D848007820B1106837
:104B300040F00200106003E0106820F002001060F6
:104B400010681169044620EA01009061936843EA05
:104B50000003936021EA04016FEA0100D061CC49AF
:104B6000B1F90010002902D140F00600D061D069EF
:104B700003EA00039360146150685369044620EA15
:104B800003001062D16841EA0001D16023EA040306
:104B90006FEA0300506201EA0001D160546130BD48
:104BA000F8B54FF46065284617F0A1FD00F101004B
:104BB00004463F2C01D94FF0000421B2284617F0DB
:104BC00094FE40F60266304617F091FD3F2800D073
:104BD000204601B2304617F088FE284617F087FDC0
:104BE0004FF4806101EB40144FF055008DF8000048
:104BF0004FF000068DF801604FF052008DF8020072
:104C00008DF803606946204617F0F3FE009669466A
:104C1000201D17F0EEFE9F4DA88B8DF80000287E1A
:104C20008DF80100287B8DF802008DF8036069463D
:104C300004F1080017F0DDFE287A8DF800002879CD
:104C40008DF8010028788DF802009348D0F8800193
:104C50008DF80300694604F10C0017F0CAFE4FF00E
:104C600041058DF800508DF801508DF802508DF8F7
:104C70000350694604F1100017F0BBFE8DF8005098
:104C80008DF801508DF802508DF80350694604F1FB
:104C9000140017F0AEFE8DF800508DF801508DF81D
:104CA00002508DF80350694604F1180017F0A1FE78
:104CB0008DF800508DF801508DF802508DF803509A
:104CC000694604F11C0017F094FEF8BD2DE9F84F79
:104CD00006460C464FF0540774B1012C04D0022C48
:104CE00005D0032C06D007E04FF0550704E04FF045
:104CF000750701E04FF04C07DFF898816248C6EB7A
:104D000006114FF00009A8F120084FF4606A4FF433
:104D1000806500EBC100012A02D0002A7ED0D3E1D9
:104D200034B1012C09D0022C0CD0032C0FD012E08E
:104D3000417841F0010141700DE0417841F00201FC
:104D4000417008E0417841F00401417003E041788E
:104D500041F00801417080F85940504617F0C7FCF7
:104D600000F101001FFA80FBBBF13F0F01D94FF0AA
:104D7000000B0FFA8BF1504617F0B7FD40F60260BA
:104D800017F0B5FC80B23F2800D0584601B240F67B
:104D9000026017F0AAFD504617F0A9FC05EB401081
:104DA00085B24FF053008DF800008DF801608DF84A
:104DB00002708DF803906946284617F01AFECDF868
:104DC00000906946281D17F014FEB8F83C008DF8D5
:104DD000000098F838008DF8010098F82C008DF844
:104DE00002008DF80390694605F1080017F001FEF6
:104DF00098F828008DF8000098F824008DF801003C
:104E000098F820008DF802008DF80390694605F1AE
:104E10000C0017F0EEFD4FF0410700E0B4E08DF814
:104E200000708DF801708DF802708DF8037069467E
:104E300005F1100017F0DDFD8DF800708DF80170A0
:104E40008DF802708DF80370694605F1140017F0B3
:104E5000D0FD8DF800708DF801708DF802708DF81E
:104E60000370694605F1180017F0C3FD8DF8007056
:104E70008DF801708DF802708DF8037069460DE0B1
:104E800066C0072018C007208454001075C0072092
:104E9000A2C007202040024000C00F4005F11C00C6
:104EA00017F0A7FD26B1012E26D0022E48D00BE127
:104EB00034B1012C0BD0022C10D0032C15D003E1FF
:104EC000002301220421DFA016F058F8FCE00123A2
:104ED0001A460421E1A016F051F8F5E00223012260
:104EE0000421E5A016F04AF8EEE003230122042194
:104EF000E9A016F043F8E7E034B1012C0BD0022C06
:104F000010D0032C15D0DFE0002302220421EAA0F8
:104F100016F034F8D8E0012302220421ECA016F0A8
:104F20002DF8D1E002231A460421F0A016F026F84D
:104F3000CAE0032302220421F4A016F01FF8C3E004
:104F400034B1012C0BD0022C10D0032C15D0BBE0B7
:104F5000002303220421F5A016F010F8B4E0012389
:104F600003220421F7A016F009F8ADE00223032282
:104F70000421FBA016F002F8A6E003231A46042140
:104F8000FFA015F0FBFF9FE034B1012C09D0022CEB
:104F90000CD0032C0FD012E0417821F001014170B8
:104FA0000DE0417821F00201417008E0417821F0E4
:104FB0000401417003E0417821F00801417050463E
:104FC00017F095FB1FFA80FB5C4605EB44101FFAB7
:104FD00080FA6946504617F011FC9DF800005328EE
:104FE00007D19DF80100B04203D19DF80200B842FC
:104FF00009D01CB1A4F10104A4B201E04FF03F04B8
:105000005C45E2D160E069460AF1100017F0F6FB5A
:105010009DF8000041280BD19DF80100412807D1DF
:105020009DF80200412803D19DF80300412809D0D2
:105030001CB1A4F10104A4B201E04FF03F045C45AF
:10504000C3D141E0B8F83C008DF8000098F8380072
:105050008DF8010098F82C008DF802008DF803906F
:1050600069460AF1100017F0C4FC98F828008DF882
:10507000000098F824008DF8010098F820008DF8C1
:1050800002008DF8039069460AF1140017F0B1FC94
:105090004FF042048DF800408DF801408DF8024039
:1050A0008DF8034069460AF1180017F0A2FC8DF84C
:1050B00000408DF801408DF802408DF803406946AC
:1050C0000AF11C0017F095FC00BFBDE8F88F2DE930
:1050D000F843B44AB24F4FF4606511784FF00008BE
:1050E0004FF48069012816D000287DD100297BD09B
:1050F00082F80080284617F0FAFA86B2344609EBA7
:10510000441085B26946284617F078FB9DF80000E8
:105110004F286AD154E1012966D04FF00100107088
:10512000284617F0E4FA00F1010084B23F2C01D9BF
:105130004FF0000421B2284617F0D7FB40F6026674
:10514000304617F0D4FA81B23F2900D0214609B287
:10515000304617F0CAFB284617F0C9FA09EB401091
:1051600084B24FF04F008DF800004FF056008DF8DC
:1051700001004FF04C008DF802008DF80380694665
:10518000204617F036FCCDF800806946201D17F048
:1051900030FC07F12007B88B8DF80000387E8DF8C1
:1051A0000100387B8DF802008DF80380694604F118
:1051B000080017F01EFC387A8DF8000038798DF859
:1051C000010038788DF802008DF80380694604F1FB
:1051D0000C0017F00EFC4FF041058DF800508DF8D3
:1051E00001508DF8025001E0E8E0F1E08DF8035045
:1051F000694604F1100017F0FCFB8DF800508DF8A3
:1052000001508DF802508DF80350694604F11400E6
:1052100017F0EFFB8DF800508DF801508DF802501B
:105220008DF80350694604F1180017F0E2FB8DF881
:1052300000508DF801508DF802508DF803506946EA
:10524000B2E0000042505320233120416C61726D66
:105250002C206F766572686561740000425053209F
:10526000233120416C61726D2C20766F6C74616704
:10527000652069732075700042505320233120410E
:105280006C61726D2C20766F6C7461676520697338
:1052900020646F776E00000042505320233120417C
:1052A0006C61726D2C20636F6E6E65637420697320
:1052B000206C6F7374000000425053202332204151
:1052C0006C61726D2C206F76657268656174000088
:1052D00042505320233220416C61726D2C20766F36
:1052E0006C746167652069732075700042505320AB
:1052F000233220416C61726D2C20766F6C74616773
:105300006520697320646F776E000000425053205F
:10531000233220416C61726D2C20636F6E6E656369
:1053200074206973206C6F73740000004250532026
:10533000233320416C61726D2C206F766572686535
:105340006174000042505320233320416C61726D20
:105350002C20766F6C74616765206973207570000E
:1053600042505320233320416C61726D2C20766FA4
:105370006C7461676520697320646F776E0000004C
:1053800042505320233320416C61726D2C20636F97
:105390006E6E656374206973206C6F737400000017
:1053A0000040024078C0072004F11C0017F021FBE8
:1053B000022301220521FAA015F0E0FDBDE8F883E3
:1053C0009DF80100562803D19DF802004C280AD010
:1053D0001CB1A4F10104A4B201E04FF03F04B442B7
:1053E0007FF48DAEEAE7694605F1100017F006FA82
:1053F0009DF8000041280BD19DF80100412807D1FC
:105400009DF80200412803D19DF80300412809D0EE
:105410001CB1A4F10104A4B201E04FF03F04B44276
:10542000DED1CBE707F12007B88B8DF80000387E7E
:105430008DF80100387B8DF802008DF803806946F5
:1054400005F1100017F0D5FA387A8DF80000387998
:105450008DF8010038788DF802008DF803806946D8
:1054600005F1140017F0C5FA4FF042048DF8004022
:105470008DF801408DF802408DF80340694605F132
:10548000180017F0B6FA8DF800408DF801408DF83D
:1054900002408DF80340694605F11C0017F0A9FA97
:1054A0008CE72DE9F34F81B00546C1490878A84241
:1054B0007ED09DF808609DF80970DFF8F8824FF4FF
:1054C00060644FF000094FF4806A012D19D0022D5D
:1054D00017D0002D6CD100286AD081F800902046AA
:1054E00017F005F91FFA80FB5C460AEB441085B201
:1054F0006946284617F082F99DF8000056287DD1AC
:10550000A6E00D70204617F0F2F800F101001FFA36
:1055100080FBBBF13F0F01D94FF0000B0FFA8BF16D
:10552000204617F0E2F940F6026017F0E0F880B28A
:105530003F2800D0584601B240F6026017F0D5F976
:10554000204617F0D4F80AEB401084B24FF0560012
:105550008DF800004FF04F008DF801004FF055001E
:105560008DF802004FF054008DF803006946204684
:1055700017F03FFA8DF800608DF801708DF8025039
:105580008DF803906946201D17F033FAB8F83C00F7
:105590008DF8000098F838008DF8010098F82C007C
:1055A0008DF802008DF80390694604F1080000E0D0
:1055B0004CE017F01EFA98F828008DF8000098F8D3
:1055C00024008DF8010098F820008DF802008DF875
:1055D0000390694604F10C0017F00BFA4FF04105F7
:1055E0008DF800508DF801508DF802508DF8035061
:1055F000694604F1100017F0FCF900E034E08DF882
:1056000000508DF801508DF802508DF80350694616
:1056100004F1140017F0EDF98DF800508DF80150E9
:105620008DF802508DF80350694604F1180017F008
:10563000E0F98DF800508DF801508DF802508DF88A
:105640000350694604F11C0017F0D3F9BDE8FE8F42
:105650009DF801004F2807D19DF80200552803D17D
:105660009DF8030054280AD01CB1A4F10104A4B28F
:1056700001E04FF03F045C457FF437AFE6E7694651
:1056800005F1100017F0BAF89DF8000041280BD181
:105690009DF80100412807D19DF80200412803D15F
:1056A0009DF80300412809D01CB1A4F10104A4B263
:1056B00001E04FF03F045C45DED1C7E7B8F83C009D
:1056C0008DF8000098F838008DF8010098F82C004B
:1056D0008DF802008DF80390694605F1100017F06F
:1056E00088F998F828008DF8000098F824008DF8C3
:1056F000010098F820008DF802008DF803906946AB
:1057000005F1140017F075F98DF800608DF801703F
:105710004FF042048DF802408DF80340694605F1D0
:10572000180017F066F98DF800408DF801408DF8EB
:1057300002408DF80340694605F11C0017F059F945
:1057400084E72DE9F34F81B005461B480178A94253
:105750007ED09DF808609DF80970DFF858804FF4FE
:1057600060644FF000094FF4806A012D26D0022DAD
:1057700024D0002D6CD180F80090204616F0B7FFA1
:1057800084B2A3465C460AEB441085B269462846BB
:1057900017F034F89DF8000056287DD1B2E00000E3
:1057A00053797374656D206F7665726C6F616400F8
:1057B00079C00720004002407AC0072005702046CB
:1057C00016F095FF00F101001FFA80FBBBF13F0FBF
:1057D00001D94FF0000B0FFA8BF1204617F085F836
:1057E00040F6026016F083FF80B23F2800D0584692
:1057F00001B240F6026017F078F8204616F077FF05
:105800000AEB401084B24FF056008DF800004FF0C4
:1058100049008DF801004FF04E008DF802008DF820
:1058200003906946204617F0E4F88DF800608DF883
:1058300001708DF802508DF803906946201D17F015
:10584000D8F8B8F83C008DF8000098F8380000E06F
:1058500057E08DF8010098F82C008DF802008DF8C3
:105860000390694604F1080017F0C3F898F828007F
:105870008DF8000098F824008DF8010098F82000B9
:105880008DF802008DF80390694604F10C0017F0C2
:10589000B0F84FF0410500E03FE08DF800508DF882
:1058A00001508DF802508DF80350694604F1100044
:1058B00017F09FF88DF800508DF801508DF80250C8
:1058C0008DF80350694604F1140017F092F88DF832
:1058D00000508DF801508DF802508DF80350694644
:1058E00004F1180017F085F88DF800508DF801507C
:1058F0008DF802508DF80350694604F11C0017F032
:1059000078F8A3E69DF80100492806D19DF8020029
:105910004E2802D19DF8030050B11CB1A4F101043E
:10592000A4B201E04FF03F045C457FF42CAF8DE65C
:10593000694605F1100016F061FF9DF8000041284E
:105940000BD19DF80100412807D19DF802004128A4
:1059500003D19DF80300412809D01CB1A4F1010432
:10596000A4B201E04FF03F045C45DED16EE6B8F82A
:105970003C008DF8000098F838008DF8010098F888
:105980002C008DF802008DF80390694605F1100097
:1059900017F02FF898F828008DF8000098F82400E8
:1059A0008DF8010098F820008DF802008DF8039022
:1059B000694605F1140017F01CF88DF800608DF8A9
:1059C00001704FF042048DF802408DF803406946A3
:1059D00005F1180017F00DF88DF800408DF8014022
:1059E0008DF802408DF80340694605F11C0017F060
:1059F00000F82BE62DE9F34F81B0A0490A788242E6
:105A00007ED09DF808709DF80980DFF874924FF4FD
:105A100060654FF0000A4FF4806B012814D0002815
:105A20006ED181F800A0284616F061FE86B2344699
:105A30000BEB441085B26946284616F0DFFE9DF850
:105A4000000054287ED1A0E00870284616F04FFED2
:105A500000F1010084B23F2C01D94FF0000421B2C3
:105A6000284616F042FF40F60266304616F03FFE2A
:105A700080B23F2800D0204601B2304616F035FFF4
:105A8000284616F034FE0BEB401084B24FF0540061
:105A90008DF800004FF053008DF801004FF05901D0
:105AA0008DF802108DF803006946204616F0A1FF1C
:105AB0008DF800708DF801808DF802A08DF803A09C
:105AC0006946201D16F095FFB9F83C008DF80000DE
:105AD00099F838008DF8010099F82C008DF8020033
