:020000040000FA
:10000000F8340820E1000000E5000000E7000000EF
:10001000E9000000EB000000ED000000000000001F
:10002000000000000000000000000000EF000000E1
:10003000F100000000000000F3000000559D0100E9
:10004000F7000000E5C0010019C10100F700000041
:10005000F700000067E80100F7000000F70000006B
:10006000F7000000F7000000F7000000F7000000B4
:10007000F7000000F7000000F7000000F7000000A4
:10008000F7000000F7000000F7000000F700000094
:10009000F7000000F7000000FB5A0000F700000026
:1000A000F7000000E5E60100F7000000F70000009F
:1000B00071FC0100F7000000F7000000F7000000ED
:1000C000F7000000F7000000F7000000DFF80CD098
:1000D0001FF02EFE00480047E99E0100F83408207A
:1000E00005480047FEE7FEE7FEE7FEE7FEE7FEE71E
:1000F000FEE7FEE7FEE7FEE7CD000000FEE710B5F5
:1001000020F0AEFB20F00AFC20F0FCFBAFF30080F7
:10011000BDE8104020F0C8BB10B521F089F921F0EE
:10012000A7FDBDE8104021F0DBB921F0EFB820F0C9
:10013000B7BE09B10020704720F0BABA002070475E
:1001400030B54FF000003D4BA3F1140202F10A0458
:10015000115C61B1255CA94209D1195C39B1A1F1E9
:100160000101C9B2195411B94FF000011154115CC9
:10017000215400F10100C0B20A28E9D330BD70B5A6
:100180004FF000042D4EA6F1140604F10104E4B270
:10019000355D1DB1854201D00A2CF6D33055274874
:1001A0000C3040F82410283040F82420343803550F
:1001B00070BD4FF00001214AA2F1140201F10101CA
:1001C000C9B2535C834201D00A29F7D3535C8342FE
:1001D00012D11A480C3050F8213019480360174BDF
:1001E000343353F8213043604FF000005054134A29
:1001F00050544FF001007047002070474FF000014D
:100200000E4AA2F1140201F10101C9B2535C83420A
:1002100001D00A29F7D3525C82420CD107480C3036
:1002200050F8212006480260044A343252F8211066
:10023000416001207047002070470000ACF20720A9
:100240009CC007200D4BDA601870597070470B4A3C
:100250001161907070470949088170470749B1F9E9
:100260000800002809D0A0F1010000B20881002890
:1002700003D10146084601F0B4BA704710000010DF
:1002800090F900308B4200DA027090F9003093420E
:1002900000DD0170704790F900308B4200DA017088
:1002A00090F90010914200DD02707047B0F9003003
:1002B0008B4200DA0180B0F90010914200DD02802B
:1002C0007047B0F900308B4200DA0280B0F900309C
:1002D000934200DD018070470146002000E0401C91
:1002E0000A5C002AFBD17047084400EB104080B242
:1002F0007047010241EA102080B27047FFFFFFFF04
:10030000002802DAC0F1000000B270474FF0000090
:10031000FC4A4FF02001115400F10100C0B2C8287E
:10032000F9D3704701464FF00000F64A00F1010092
:10033000C0B2135C8B4201D0C828F7D3704710B508
:100340004FF00001F04C4FF00A020346B0FBF2F010
:1003500002FB1033635401F10101C9B20529F4D342
:1003600010BDF0B5E94D4FF0010129704FF00501C6
:10037000E54B4FF020064FF000072A7842B15A189B
:1003800012F8014C24B9814202D902F8016C07E04D
:1003900003EB010212F8014D04F1300414702F70C8
:1003A000A1F10101C9B20029E7D1F0BDFEB50346B4
:1003B0004FF02B07002B04DAC3F1000003B24FF01B
:1003C0002D074FF000004FF00A046D4693FBF4F642
:1003D00004FB16332B5433B200F1010040B20A285B
:1003E000F4DB4FF001034FF000044FF009004FF031
:1003F000200643B115F800C0BCF1000F03D19042B4
:1004000001DD2E5408E02B5C03F130032B544FF038
:10041000000304F10104E4B2A0F1010040B200289D
:10042000E7DA2D2F04D1204604F10104E4B22F5461
:100430008AB160B207E005EB000313F8013C2B54CE
:10044000A0F1010040B29042F5DC4FF02E00A8541C
:1004500004F10104E4B20846FFF764FF4FF0000125
:10046000A84A06E0A0EB01066B5C935501F101017F
:1004700049B2A142F6DBFEBDFEB503464FF02B07A5
:10048000002B03DAC3F100034FF02D074FF00000FB
:100490004FF00A046D461E4693FBF4F304FB13660B
:1004A0002E5400F1010040B20A28F4DB4FF00103A2
:1004B0004FF000044FF009004FF0200643B115F84B
:1004C00000C0BCF1000F03D1904201DD2E5408E0C2
:1004D0002B5C03F130032B544FF0000304F10104B3
:1004E000E4B2A0F1010040B20028E7DA2D2F04D1D8
:1004F000204604F10104E4B22F548AB160B207E04F
:1005000005EB000313F8013C2B54A0F1010040B2AD
:100510009042F5DC4FF02E00A85404F10104E4B23F
:100520000846FFF7FFFE4FF00001764A06E0A0EB19
:1005300001066B5C935501F1010149B2A142F6DB62
:10054000FEBD2DE9FE414FF02B0C002803DAC0F16F
:1005500000004FF02D0C4FF000044FF00A056F46DD
:10056000064690FBF5F005FB10663E5504F10104CC
:1005700064B20A2CF4DB4FF001054FF000044FF099
:1005800009004FF0200645B117F80080B8F1000FC0
:1005900003D1984201DD3E5408E03D5C05F1300591
:1005A0003D544FF0000504F10104E4B2A0F1010054
:1005B00040B20028E7DABCF12D0F05D1204604F146
:1005C0000104E4B207F800C08BB160B207E007EBAA
:1005D000000515F8015C3D54A0F1010040B29842BD
:1005E000F5DC4FF02E00F85404F10104E4B201EB05
:1005F000810002EB8000C1B24FF00000414A06E0EA
:10060000A1EB00053B5C535500F1010040B2A04254
:10061000F6DBBDE8FE8170B50D4616461C46FFF7B9
:100620008EFE601CC0B2FFF79CFE05EB850006EB5A
:100630008000C1B24FF00000334B324DA04201D2D6
:100640001A5C6A5407D31A5C202A04D064B105EB03
:10065000010606F8012CA1F10101C9B200F1010067
:10066000C0B20528EAD370BD6A54F4E730B5044639
:1006700008461546FFF756FEFF280CD0214A07E032
:1006800000EB050304F10104D15400F10100C0B2F4
:1006900021780029F4D130BD70B50D461446FFF71E
:1006A0004EFE601CC0B2FFF75CFE2846FFF73AFE24
:1006B0004FF00001144A134D24B9535C202B01D094
:1006C0002B5415E0A14202D2535C2B5410E008D108
:1006D0004FF02E032B5405EB0006535C06F8013C4B
:1006E00006E0535C202B03D005EB000606F8013C26
:1006F000A0F10100C0B201F10101C9B20529DBD3AB
:1007000070BD000006C307205E0000106CC4072007
:100710001044002801DA084403E0884201DBA0EB22
:100720000100C0B270472DE9FF5F04460D464FF44B
:1007300060601BF062FF62424021FFF7E9FF4FEA71
:10074000401000F58060044602A920461BF0DCFF43
:1007500001A904F108001BF0D7FF694604F10C0061
:100760001BF0D2FF2846FFF7DDFD9DF808E0402290
:10077000302121232324DFF808844FF0C2094FF0F1
:100780003A0C0127FF4E4FF0200AFF4DBEF1550FE6
:1007900011D04FF0C00BBEF1500F7DD0BEF1510F04
:1007A0007BD0BEF1530F79D0BEF1420F77D0BEF1AE
:1007B000560F75D082E39DF80AB0BBF1520F14D1E9
:1007C00000F1010B0BF0FF0B06F800904FF0EA0070
:1007D0000BF1010909F0FF0906F80B004FF0EB0BD4
:1007E00009F10100C0B206F809B000F1010909F0F1
:1007F000FF0906F800A009F1010B0BF0FF0006F855
:1008000009A000F1010909F0FF0906F800A009F1AB
:100810000100C0B206F809A000F1010909F0FF09C2
:1008200006F800A09DF80400B5F83CB0584548D142
:100830009DF8050095F838B0584542D19DF806005E
:1008400095F82C50A8423CD109F10100C0B206F83D
:10085000091000F10105EDB2335405F10100C0B2F9
:1008600006F805C000F10103DBB231541D4603F167
:100870000103D8B2725500F10102D2B206F800C0ED
:1008800002F10100C0B2B15434549DF800004FF0A1
:1008900000024FF0210104E051E007E1C9E1BBE2B1
:1008A00002E3FFF7F9FE9DF8010000224021FFF767
:1008B000F3FE9DF8020000222321FFF7EDFEBDE8C4
:1008C000FF9F09F10100C0B206F809A000F101057F
:1008D000EDB2315405F10100C0B2735500F10103CE
:1008E000DBB2325403F10100C0B206F803A000F1FC
:1008F0000102D2B206F800A002F10100C0B2B15468
:1009000034549DF806004FF000024FF02101FFF72C
:10091000C3FE9DF8040000222321FFF7BDFE9DF8D1
:100920000500401E0C2801D38DF805709DF80500C8
:10093000002208EB80004021FFF798FEBFE700F19E
:10094000010E0EF0FF0E06F800B00EF10100C0B26D
:1009500006F80E904FF02E0B00F1010909F0FF0987
:1009600006F800B04FF0CF0009F1010B0BF0FF0BC0
:1009700006F809004FF0D1000BF1010909F0FF0959
:1009800006F80B0009F10100C0B206F809A000F159
:10099000010909F0FF0906F800A009F10100C0B241
:1009A00006F809A09DF80490B5F83CB0D9453FD1B0
:1009B0009DF8059095F838B0D94539D19DF8069045
:1009C00095F82C50A94533D100F10105EDB2315411
:1009D00005F10100C0B2735500F10103DBB206F866
:1009E00000C003F10100C0B2F15400F10103DBB219
:1009F000325403F10100C0B206F803C000F1010255
:100A0000D2B23154B4549DF800004FF000024FF0C0
:100A10002101FFF741FE9DF8010000224021FFF770
:100A20003BFE9DF8020000222321FFF735FE46E73A
:100A300000F10105EDB206F800A005F10100C0B219
:100A4000715500F10105EDB2335405F10100C0B25A
:100A5000725500F10102D2B206F800A002F10100C5
:100A6000C0B206F802A000F10102D2B23154B4546F
:100A70009DF806004FF000024FF02101FFF70CFE39
:100A80009DF8040000222321FFF706FE9DF80500D3
:100A9000401E0C2801D38DF805709DF8050000223A
:100AA00008EB80004021FFF7E1FD08E700F1010EAF
:100AB0000EF0FF0E06F800B00EF10100C0B206F80D
:100AC0000E904FF02E0900F1010B0BF0FF0B06F812
:100AD00000904FF055000BF1010909F0FF0906F8ED
:100AE0000B004FF0E20009F1010B0BF0FF0B06F8D1
:100AF00009004FF0FB000BF1010909F0FF0906F8AE
:100B00000B004FF0F50009F1010B0BF0FF0B06F89D
:100B100009000BF10100C0B206F80BA09DF804908B
:100B2000B5F83CB0D94546D19DF8059095F838B058
:100B3000D94540D19DF8069095F82C50A9453AD159
:100B400000F10105EDB2315405F10100C0B2735559
:100B500000F10103DBB206F800C003F10100C0B2EE
:100B6000F15400F10103DBB2325403F10100C0B2D1
:100B700006F803C000F10102D2B23154B45405E0CA
:100B8000EC2A020006C30720004002409DF8000046
:100B90004FF000024FF02101FFF77EFD9DF80100AC
:100BA00000224021FFF778FD9DF80200002223215A
:100BB000FFF772FD83E600F10105EDB206F800A033
:100BC00005F10100C0B2715500F10105EDB23354D9
:100BD00005F10100C0B2725500F10102D2B206F86F
:100BE00000A002F10100C0B206F802A000F101026B
:100BF000D2B23154B4549DF806004FF000024FF0C9
:100C00002101FFF749FD9DF8040000222321FFF791
:100C100043FD9DF80500401E0C2801D38DF805709A
:100C20009DF80500002208EB80004021FFF71EFD23
:100C300045E600F1010E0EF0FF0E06F800B00EF1D1
:100C40000100C0B206F80E904FF02E0B00F1010922
:100C500009F0FF0906F800B04FF0C10009F1010BDF
:100C60000BF0FF0B06F809004FF0CF090BF1010064
:100C7000C0B206F80B904FF0D10900F1010B0BF058
:100C8000FF0B06F800909DF80990B9F1090F0DD2FD
:100C900009F131090BF10100C0B206F80B9000F127
:100CA000010909F0FF0906F800A02CE0A9F10900EC
:100CB0005A281DD209F101094FF00A00B9FBF0FED4
:100CC000CDF80CE00EF1300E0BF10100C0B206F8C9
:100CD0000BE0DDF80CE04FF00A0B0BFB1E9B0BF159
:100CE000300B00F1010909F0FF0906F800B00AE035
:100CF0000BF10100C0B206F80BA000F1010909F0E8
:100D0000FF0906F800A009F10100C0B206F809A029
:100D10009DF80490B5F83CB0D9453FD19DF80590B9
:100D200095F838B0D94539D19DF8069095F82C50F2
:100D3000A94533D100F10105EDB2315405F10100AF
:100D4000C0B2735500F10103DBB206F800C003F135
:100D50000100C0B2F15400F10103DBB2325403F1DF
:100D60000100C0B206F803C000F10102D2B2315452
:100D7000B4549DF800004FF000024FF02101FFF73E
:100D80008BFC9DF8010000224021FFF785FC9DF8B7
:100D9000020000222321FFF77FFC90E500F101050E
:100DA000EDB206F800A005F10100C0B2715500F1E6
:100DB0000105EDB2335405F10100C0B2725500F1E6
:100DC0000102D2B206F800A002F10100C0B206F89A
:100DD00002A000F10102D2B23154B4549DF80600D1
:100DE0004FF000024FF02101FFF756FC9DF8040080
:100DF00000222321FFF750FC9DF80500401E0C281F
:100E000001D38DF805709DF80500002208EB8000E5
:100E10004021FFF72BFC52E54FF0C10200F1010128
:100E2000C9B232544FF0E00301F10100C2B2735471
:100E30004FF0F20102F10100C0B2B1549DF8091067
:100E400009290BD201F1310100F10102D2B2315472
:100E500002F10100C0B206F802A022E0A1F10902ED
:100E60005A2A14D201F101014FF00A05B1FBF5F342
:100E700003F1300400F10102D2B2345405FB131126
:100E800001F1300102F10100C0B2B15409E000F1FA
:100E90000101C9B206F800A001F10100C0B206F8D4
:100EA00001A006F800A00AE59DF80990B9F1490FE4
:100EB00004D19DF80A90B9F14E0F03D0BEF1560F40
:100EC0007ED0CBE000F1010909F0FF0906F800B07F
:100ED0004FF0E20009F1010E0EF0FF0B06F80900D9
:100EE0004FF02E0E0BF1010909F0FF0906F80BE097
:100EF0004FF0550E09F1010B0BF0FF0B06F809E05E
:100F00000BF1010909F0FF0E06F80B004FF0F50B8D
:100F10000EF1010000F0FF0906F80EB009F1010022
:100F2000C0B206F809A000F1010909F0FF0906F8AE
:100F300000A09DF80400B5F83CB0584541D19DF89B
:100F4000050095F838B058453BD19DF8060095F856
:100F50002C50A84235D109F10100C0B206F80910A1
:100F600000F10105EDB2335405F10100C0B206F8FD
:100F700005C000F10103DBB2315403F10100C0B23E
:100F8000F25400F10102D2B206F800C002F10100F1
:100F9000C0B2B15434549DF800004FF000024FF03D
:100FA0002101FFF779FB9DF8010000224021FFF7A6
:100FB00073FB9DF8020000222321FFF76DFB7EE406
:100FC0003DE009F10100C0B206F809A000F10105F9
:100FD000EDB2315405F10100C0B2735500F10103C7
:100FE000DBB2325403F10100C0B206F803A000F1F5
:100FF0000102D2B206F800A002F10100C0B2B15461
:1010000034549DF806004FF000024FF02101FFF725
:1010100043FB9DF8040000222321FFF73DFB9DF8D0
:101020000500401E0C2801D38DF805709DF80500C1
:10103000002208EB80004021FFF718FB3FE49DF8F9
:101040000990B9F14F0F09D19DF80A90B9F1550FE8
:1010500004D19DF80B90B9F1540F03D0BEF14F0F9E
:101060007DD0C8E000F1010909F0FF0906F800B0E1
:101070004FF0E20009F1010E0EF0FF0B06F8090037
:101080004FF02E0E0BF1010909F0FF0906F80BE0F5
:101090004FF0550E09F1010B0BF0FF0B06F809E0BC
:1010A0000BF1010909F0FF0906F80B004FF0FB00F6
:1010B00009F1010B0BF0FF0B06F809004FF0F500EA
:1010C0000BF1010909F0FF0906F80B0009F1010015
:1010D000C0B206F809A09DF80490B5F83CB0D94517
:1010E00041D19DF8059095F838B0D9453BD19DF890
:1010F000069095F82C50A94535D100F10105EDB2C7
:10110000315405F10100C0B2735500F10103DBB2A7
:1011100006F800C003F10100C0B2F15400F1010370
:10112000DBB2325403F10100C0B206F803C000F193
:101130000102D2B23154B4549DF800004FF00002C5
:101140004FF02101FFF7A8FA9DF80100002240218D
:10115000FFF7A2FA00229DF80200232100E040E000
:10116000FFF79AFA63E400F10105EDB206F800A07A
:1011700005F10100C0B2715500F10105EDB2335423
:1011800005F10100C0B2725500F10102D2B206F8B9
:1011900000A002F10100C0B206F802A000F10102B5
:1011A000D2B23154B4549DF806004FF000024FF013
:1011B0002101FFF771FA9DF8040000222321FFF7B7
:1011C0006BFA9DF80500401E0C2801D38DF80570C0
:1011D0009DF80500002208EB80004021FFF746FA49
:1011E00025E49DF80990B9F1560F04D19DF80A90B5
:1011F000B9F14C0F7DD0BEF1540FB3D19DF80990D9
:10120000B9F1530FAED19DF80A90B9F1590FA9D198
:101210009DF80B90B9F1530FA4D100F1010909F029
:10122000FF0906F800B04FF0E20B09F10100C0B26F
:1012300006F809B04FF02E0900F1010B0BF0FF0B7F
:1012400006F800904FF054000BF1010909F0FF0976
:1012500006F80B004FF0F10B09F10100C0B206F8DF
:1012600009B04FF0E80E00F1010909F0FF0906F896
:1012700000E009F10100C0B206F809B000F101096F
:1012800009F0FF0906F800A09DF80400B5F83CB08D
:1012900058457ED19DF8050095F838B0584578D16D
:1012A0009DF8060095F82C50A84272D109F1010072
:1012B000C0B206F8091000F10105EDB2335405F192
:1012C0000100C0B206F805C000F10103DBB23154E1
:1012D00003F10100C0B2F25400F10102D2B206F8EB
:1012E00000C002F10100C0B2B15434549DF80000B6
:1012F00000E012E04FF000024FF02101FFF7CCF9BF
:101300009DF8010000224021FFF7C6F99DF8020078
:1013100000222321FFF7C0F94CE44FF0CF0B00F17E
:10132000010909F0FF0906F800B04FF0D00009F1FB
:10133000010E0EF0FF0B06F809004FF0C30E0BF183
:10134000010909F0FF0906F80BE009F1010B0BF0A8
:10135000FF0B06F809004FF0C70E0BF1010000F07B
:10136000FF0906F80BE009F10100C0B206F809A078
:1013700000F1010909F0FF0906F800A009F10100D8
:10138000C0B206F809A09DF80490B5F83CB0D94564
:1013900000E07EE03FD19DF8059095F838B0D94542
:1013A00039D19DF8069095F82C50A94533D100F11C
:1013B0000105EDB2315405F10100C0B2735500F1E1
:1013C0000103DBB206F800C003F10100C0B2F15422
:1013D00000F10103DBB2325403F10100C0B206F8A0
:1013E00003C000F10102D2B23154B4549DF80000A0
:1013F0004FF000024FF02101FFF74EF99DF8010078
:1014000000224021FFF748F99DF802000022232125
:10141000FFF742F90CE400F10105EDB206F800A077
:1014200005F10100C0B2715500F10105EDB2335470
:1014300005F10100C0B2725500F10102D2B206F806
:1014400000A002F10100C0B206F802A000F1010202
:10145000D2B23154B4549DF806004FF000024FF060
:101460002101FFF719F99DF8040000222321FFF75D
:1014700013F99DF80500401E0C2801D38DF8057066
:101480009DF80500002208EB80004021FFF7EEF8F0
:1014900083E409F10100C0B206F809A000F10105DA
:1014A000EDB2315405F10100C0B2735500F10103F2
:1014B000DBB2325403F10100C0B206F803A000F120
:1014C0000102D2B206F800A002F10100C0B2B1548C
:1014D00034549DF806004FF000024FF02101FFF751
:1014E000DBF89DF8040000222321FFF7D5F89DF8D2
:1014F0000500401E0C2801D38DF805709DF80500ED
:10150000002208EB80004021FFF7B0F845E4F0B579
:101510000446084616461F46FEF704FF02461046DC
:10152000FF4DFF2806D108E0295404F1010400F121
:101530000100C0B221780029F6D1FA4800780028CD
:1015400006D0002F04D002EB06014FF05F00685474
:10155000F0BD2DE9F04F0746DDE9090588469146C3
:101560009A46FEF7DFFEEF4B2021ED4C0A224FF0AA
:10157000640C012D09D11E783EB104EB0006A6F1E2
:101580000E06B1707170317017E097FBF2FB02FB31
:101590001B7E04EB00060EF1300E06F80CEC9BFBF4
:1015A000F2FE02FB1EBB0BF1300B06F80DBC97FBE5
:1015B000FCF707F1300706F80E7C022D09D11E78E2
:1015C0003EB104EB0006A6F10A06B17071703170ED
:1015D00017E098FBF2F702FB178B04EB0006A6F16D
:1015E0000A060BF1300B86F802B097FBF2FB02FB08
:1015F0001B7707F13007777098FBFCF707F130078E
:101600003770032D09D11E783EB104EB0006A6F118
:101610000606B1707170317017E099FBF2F702FBAA
:10162000179804EB0006A6F1060608F1300886F8C4
:10163000028097FBF2F802FB187707F1300777700A
:1016400099FBFCF707F130073770042D09D11B789F
:101650003BB121542044A0F1020041700170BDE86B
:10166000F08F9AFBF2F102FB11A303F13003235434
:1016700091FBF2F302FB13112044A0F1020001F1EF
:10168000300141709AFBFCF101F130010170E6E795
:1016900010B50C46FEF746FEA1491CB14FF00302FF
:1016A0000A5410BD4FF004020A5410BD17B501EBE7
:1016B000810002EB8000C2B29DF800309A4803F02E
:1016C0000F01445C96498C54A2F10102D2B200EBA6
:1016D00013131B788B54A2F10102D2B29DF8013092
:1016E00003F00F04045D8C54A2F10102D2B200EBAE
:1016F00013131B788B54A2F10102D2B29DF8023071
:1017000003F00F04045D8C54A2F10102D2B200EB8D
:1017100013131B788B54A2F10102D3B29DF803205E
:1017200002F00F04045DCC54A3F10103DBB200EB23
:1017300012100078C8541EBD30B57C490124784B86
:1017400091F9012091F904108A4204D100EB800044
:1017500003F8204030BD4D1CAA4206D100F1010023
:1017600000EB800003F8204030BD8D1CAA4206D15A
:1017700000F1020000EB800003F8204030BDCD1CDA
:10178000AA4206D100F1030000EB800003F82040DC
:1017900030BD0D1DAA4206D100F1040000EB80000F
:1017A00003F8204030BD4D1DAA4206D100F10500CE
:1017B00000EB800003F8204030BD8D1DAA4206D109
:1017C00000F1060000EB800003F8204030BDC91D89
:1017D0008A42FBD100F1070000EB800003F82040B3
:1017E00030BD534B1A88A2F10102104400B2188098
:1017F000504A00EB800002444C48136803601279A1
:101800000271427811444170704770B5484DB5F986
:10181000004004F101062E80464D04EB840425446B
:10182000424C26682E6026792E71207061702271DC
:10183000A37070BD2DE9F04180460F461646FEF7B5
:1018400065FD374C4FF0000518F8010B04F8010B4B
:1018500005F10105EDB2142DF6D34FF0000017F895
:10186000011B04F8011B00F10100C0B21428F6D3DB
:101870004FF0000016F8011B04F8011B00F10100F5
:10188000C0B21428F6D34FF0000013F8011B04F87F
:10189000011B00F10100C0B21428F6D3BDE8F081AD
:1018A00010B5029CFFF7C6FF2048C37882784178C4
:1018B0005E20FFF7AAFF642094FBF0F0BDE8104023
:1018C000C0B2FEF7C8BC2DE9FE430D464FEA4010FA
:1018D00000F58060044602A920461AF015FF01A910
:1018E00004F108001AF010FF694604F10C001AF028
:1018F0000BFF2846FEF716FD094C4FF0200600F1BD
:101900000101C9B226544FF0300701F10100C0B205
:10191000675400F101014FF02108C9B20CE000004A
:1019200006C30720E5C00720762B020084C20720EB
:101930000EC107207A6F001004F800804FF04009B4
:1019400001F10100C0B204F8019000F10101C9B237
:10195000265401F10100C0B2665400F10101C9B280
:1019600027544FF0230201F10100C5B262549DF8E3
:1019700006004FF000024FF02101FEF78DFE9DF8AA
:10198000040000222321FEF787FE9DF80500401E7B
:101990000C2803D34FF001008DF805009DF80500D9
:1019A0001949002201EB80004021FEF75FFE05F19E
:1019B0000100C0B2665500F10101C9B2275401F11E
:1019C0000100C0B204F801804FF03A0200F10101B9
:1019D000C9B2225401F10100C0B2675400F1010103
:1019E000CDB204F800909DF800004FF000024FF0D7
:1019F0002101FEF751FE9DF8010000224021FEF773
:101A00004BFE6655BDE8FE83EC2A02002DE9FC4141
:101A100006464FF00007FF4D6F76A87D4FF001039B
:101A200002280FD006EB460101EB0612FA4901EB42
:101A3000820494F83D10CA0706D04FF0660068761D
:101A4000BDE8FC816B76FBE794F83F20920703D555
:101A50004FF067006876F3E7890703D54FF0680019
:101A60006876EDE7ED4AB4F90810B2F9002091422A
:101A700003DD4FF069006876E2E75242914203DAF3
:101A80004FF06A006876DBE7E2490128C97D00D1A2
:101A900011B1012804D005E04FF06B006876CFE764
:101AA00001297DD005F116054FF06400E8702B7018
:101AB0002B8619464FF4F8701AF09DFE6E706E86F4
:101AC00031464FF4FA701AF096FEA761D44800210F
:101AD00030F916001AF08FFEAF70AF8639464FF41A
:101AE000FB701AF088FECF48008800F1010000F07A
:101AF000070004EB4000008C0190CB4DA88B0090B8
:101B00004FF063024FF001016846FEF7C4FBC14C81
:101B10009DF8000080342070287E00900C22012166
:101B20006846FEF7B8FB9DF800006070287B0090C7
:101B30001F2201216846FEF7AEFB9DF80000A07051
:101B40009DF80400E0704FF4FC7021681AF094FED8
:101B5000287A0090172200216846FEF79CFB9DF82A
:101B600000002071287900903B2200216846FEF792
:101B700092FB9DF800006071287800903B220021C4
:101B80006846FEF788FB9DF80000A0719DF80500EF
:101B9000E0714FF4FE7061681AF06EFE50E7FFE7E7
:101BA0004FF06C0068764BE72DE9F047994CB4F89C
:101BB0004200401C00B2A4F84200B0F5E16F03DB24
:101BC0004FF00000A4F84200B4F94200B0F5DF6F16
:101BD00011D90F2301226421D220FEF7D0FA0F235E
:101BE0000022D821D720FEF7CAFA0F230022D821DD
:101BF000DC20FEF7C4FAB4F94200A0F5E061073931
:101C000033D18A4D8A4C844E288821880A27DFF8F0
:101C10002482DFF82492884210D0B6F9080090FBA5
:101C2000F7F000B2FEF76CFBB8F90010884205DA55
:101C3000B4F90010B9F900001AF0DDFD6888618878
:101C4000884212D0B6F9080090FBF7F000B2FEF718
:101C500057FBB8F90010884207DAB4F90210B9F955
:101C60000200BDE8F0471AF0C6BDBDE8F08710B528
:101C70006C4C208800F1010020804FF008024FF0EA
:101C800000012046FEF71DFB6349B4F9000001EB9B
:101C900040004A880284B1F84E10A0F86C1010BDC4
:101CA0002DE9F05F654EB6F90010654FB7F90000F9
:101CB00048434FF4FA6490FBF4F0574D6880B6F94E
:101CC0000800604AB2F9001001FB00F14FF42F73D5
:101CD00091FBF3F0A880B6F91800B7F9021001FBE8
:101CE00000F191FBF4F0A5F84E00B6F90210B2F93C
:101CF000020000FB01F090FBF3F0A5F850004FF05C
:101D0000DC00FEF77BFA504FDFF840C145F2FA5293
:101D1000F0BBDFF81C81B8F80000DFF81091B9F8CB
:101D20000010A0EB0100B7F9001001FB00F1BCF8B6
:101D3000000045F6386345F6926A45F2116B984209
:101D400001D0504504D14FF4967E91FBFEF10FE097
:101D5000904206D0A0F5AC4EBEF1130E01D058450E
:101D600002D191FBF4F103E04FF47A7E91FBFEF196
:101D70002981B8F80210B9F80280A1EB0808B7F978
:101D8000021001FB08F1984201D0504506D100E055
:101D900015E04FF4967091FBF0F00EE0904205D004
:101DA000A0F5AC43133B01D0584502D191FBF4F0B0
:101DB00003E04FF47A7091FBF0F0A5F85400B6F907
:101DC00004002349B1F9001041434FF4FA6391FB39
:101DD000F3F10FFA81F81F49A1F80080B6F902105B
:101DE0001D4BB3F9003001FB03F14FF4FA7391FB83
:101DF000F3F11A4C21801A4CB4F9004000FB04F4B2
:101E000094FBF3F40FFA84F9164CA4F80090A1EBBC
:101E1000090129E00CC00720C85300103EC107206B
:101E2000622402006AC407202040024026000010FD
:101E300032C5072044C107208224020018F207207F
:101E400032C4072036C407203AC40720A8C107209F
:101E500044C4072004C207203A0000100AC2072029
:101E60004AC4072010C20720FF4C2180FF49B1F966
:101E7000001000FB01F0BCF80010914204D14FF4B7
:101E8000C87190FBF1F001E090FBF3F0DFF8E0A304
:101E900000B2AAF80000F74CF74A642814DA4FF0B1
:101EA0000000B4F900C00DE0C0EB001102EBC1016D
:101EB000BAF90030096A994201DDAAF8001000F170
:101EC0000100C0B26045EFDB4FF000031946B4F9E2
:101ED000000008E0C1EB011402EBC404646A23446F
:101EE00001F10101C9B28142F4DBE4490B80B6F98A
:101EF0000C3040F6B736A3F22134DFF884A300217A
:101F0000B44202D28AF8001003E04FF001048AF8CC
:101F10000040DC4CB4F900405C4344F6206394FB81
:101F2000F3F3A3F21113DFF860C31CB2ACF8004066
:101F3000D64BB3F93460002E00DA9986B3F93460D9
:101F4000032E02DD4FF003069E869E8E06EB4606AC
:101F5000344424B2ACF80040C94E96F800A0CC4EF0
:101F6000BAF1000F12D04FF014043480C94CDFF8DE
:101F700028A3DFF828B32688C94C4EB14FF03206AB
:101F8000AAF80060C74E36883EB343E03480EDE7E0
:101F9000DFF814E3DEF80060DEF804E0A6EB0E0ED6
:101FA000B7F9006006FB0EF64FF4FA6796FBF7F6FA
:101FB000BAF900701FB1A7F10107AAF80070BB4F72
:101FC0003F781E2F01D94FF00006BAF80070002F9D
:101FD000D8D12680ABF80060D4E74FF000073E462A
:101FE00009E0C6EB061A02EBCA0ADAF824A0574445
:101FF00006F10106F6B28642F3DB3FB24FF00A0665
:1020000097FBF6F62680B9F1000F00D121802688D3
:10201000ABF80060A5F80280DFF894A2BAF800706F
:10202000DFF890B2BBF900607E434FF47A6996FB0B
:10203000F9F6A14FB6B23E80DFF880E2642E02D2FC
:10204000AEF8006003E09E4E3688AEF80060BAF845
:1020500002A0BBF9026006FB0AF696FBF9F67E8049
:10206000984EB6F90070DFF86092B9F900A00AFB4B
:1020700007FA41F270779AFBF7FBDFF850A2AAF853
:1020800000B0B6F902E0B9F902B00BFB0EFB9BFB06
:10209000F7FBAAF802B0B6F904B0B9F9049009FB4D
:1020A0000BF999FBF7F9AAF80490B6F906B0DFF836
:1020B0002092B9F900A00AFB0BFA9AFBF7FBDFF8B4
:1020C00014A2AAF800B0B6F908E0B9F902B00BFB07
:1020D0000EFB9BFBF7FBAAF802B0B6F90AB0B9F900
:1020E000046006FB0BF696FBF7F6AAF80460BCF852
:1020F0000260DFF8E4B106F211160FFA86F9ABF8C8
:102100000090BCF8046006F211160FFA86FAABF8DC
:1021100002A05B4E77788BF80870B6788BF8096070
:10212000DFF8B8C107B916B1012F0BD00BE009EBEE
:102130000A0606EBD6766FF4887707EB6606ACF8EE
:10214000006020E00EB12FB106E0AAF2111AACF83F
:1021500000A018E0012E02D0012F05D013E0A9F253
:102160001119ACF800900EE0012E0CD15C4E3678BF
:10217000052E04D25B4E3688ACF8006003E04FF0C9
:102180001406ACF80060584E3778552F04D1B8F1DA
:10219000C80F01DD2F895F877678552E0AD1B5F9F2
:1021A0004E60C82E06DDB5F95460B5F90870BE4220
:1021B00000DD5E8724885C874FF0000445E0C4EBB7
:1021C000041302EBC303DE78192E2ED29E79DF7939
:1021D00006EB07265E621E7A5F7A06EB07261E6212
:1021E0009E7ADF7A06EB0726DE611E7B9E625E7BAF
:1021F00083F858609E7B83F846601E7C5F7C06EB0C
:1022000007261E639E7CDF7C06EB0726A3F8606032
:102210001E7D5F7D06EB0726A3F862609E7DDF7D55
:1022200006EB0726A3F864600CE0D96159621962D5
:10223000996283F846101963A3F86010A3F862103E
:10224000A3F8641004F10104E4B28442B7DB274E22
:10225000B5F908404FF00A0394FBF3F4B5F9545074
:1022600095FBF3F3234443E00CC2072048C4072046
:1022700008C2072078C10720785400105C000010C5
:1022800047C2072030000010BEC207200CC0072044
:1022900012C2072036C20720A0C407200EC20720A2
:1022A00002C20720FAC1072098C40720D4C0072023
:1022B00082C407203EC40720C4C207202EC20720C4
:1022C00016C20720AC6F001072000010CAC20720AF
:1022D00088C40720D0C20720466F001026C20720FE
:1022E000FDC0072070000010A6C1072006C207200D
:1022F000C3F100031FB23780FF4D29804FF0000368
:1023000010E0C3EB031402EBC40494F803C0BCF167
:10231000050F04D2646AB5F800C064442C8003F150
:102320000103DBB28342ECDB2B883B441BB23380DE
:10233000002B00DA3180318029804FF000030DE05E
:10234000C3EB031402EBC404E778052F03D2646ADD
:102350002F883C442C8003F10103DBB28342EFDB86
:102360002B8801EB030000B23080002800DA3180B6
:10237000E248B0F90050002D64D04FF00004E04E68
:102380005EE004F11400C0EB001002EBC000C37863
:10239000192B39D28379C77903EB072704EB440360
:1023A00006EB4313DF61077A90F809C007EB0C27AF
:1023B000DF62877A90F80BC007EB0C279F61077BE1
:1023C0001F62477B83F84670877B90F80FC007EB4E
:1023D0000C279F62077C90F811C007EB0C275F6207
:1023E0009970877C83F85970C77C83F85A70077D91
:1023F00083F85870477D83F85B70877D83F85C7045
:10240000C07D83F85D0018E004EB440006EB40104B
:10241000C161C1628161016280F8461041628162DE
:102420004FF01903837080F8591080F85A1080F823
:10243000581080F85B1080F85C1004F10104E4B2DD
:10244000AC429EDBBDE8F09FAE48416821F44021DC
:1024500041F480214160416821F4403141F48031F0
:102460004160416821F4404141F480414160416C48
:1024700021F4402141F400214164416C21F44031B8
:1024800041F400314164416C21F4404141F4004188
:1024900041649D48016821F0E0610160016841F4F8
:1024A00000110160016821F480310160016821F4AC
:1024B0007F4141F4807101604FF48071C1609348A5
:1024C0004FF48001016070472DE9F041904C608825
:1024D0002188401A00B203F0CCFAA61D3080A088F3
:1024E0006188401A00B203F0C4FA7080A088218885
:1024F000401A00B203F0BDFAB0804FF49671A4F117
:102500007405884202DAA08868850CE0B6F90200FA
:10251000884202DA6088688505E0B6F900008842E2
:1025200001DA20886885EF7800262FB37948B5F95D
:102530002A1002680A44026042680A4442608268C3
:102540000A448260C2681144C160698E01F10101D0
:1025500009B26986B1F5805F00DB6E86B5F932108D
:102560008A0531D14FEAA12150F821204FEA2222D9
:102570002A8540F8216027E067482C796A7900EBCA
:102580008413B5F92A1043F8221090070FD10146A1
:1025900053F820C0614400F10100C0B21028F7D305
:1025A0004FEA21105B49A1F1200121F81400641CBD
:1025B000E0B22871102807D32E7102F10102D0B2C7
:1025C0006871102800D36E71AE7007F1010707F033
:1025D0000100E8704C4A30B1106820F0FF0000F1B3
:1025E000040010603DE02979080706D4106820F047
:1025F000FF0000F10100106005E0106820F0FF000E
:1026000000F1020010604548036843F08053036006
:10261000036A43F080430362036E43F08063036602
:10262000CB070AD0436943F0805343618B0709D439
:10263000436B23F08043436308E0436923F08053F6
:102640004361F3E7436B43F080434363490704D49A
:10265000416F21F08061416703E0416F41F080618B
:102660004167106840F080701060BDE8F0812DE98E
:10267000F047DFF89C80A8F1740898F80F00002854
:1026800006D1B8F9220028B1A0F10100A8F8220073
:10269000BDE8F08798F80D000A2804D200F1010087
:1026A00088F80D00F4E74FF0000C88F80DC088F8AA
:1026B0000EC098F810004FF0010710B188F810C054
:1026C00001E088F810704FF000001649144EB1F97F
:1026D00000302CE0C0EB001106EBC1018A78022A21
:1026E00008D1C978142905D298F80E1001F101011A
:1026F00088F80E1018E000006A0000107AC1072068
:102700007863001000C002400040034000E100E098
:1027100080C0072038F2072018EE072000C00920EB
:102720007854001078C1072000F10100C0B298422F
:10273000D0DB98F80E20022AAAD341F28830C8F8DC
:102740005800C8F854C0C8F85CC04FF000011BE046
:10275000C1EB011006EBC0008478022C11D1406A55
:10276000D8F85440A04201DDC8F85400D8F85840C9
:10277000A04201DAC8F85800D8F85C402044C8F8F4
:102780005C0001F10101C9B29942E1DBD8F85C00BB
:1027900090FBF2F0C8F86000D8F8580008B9C8F803
:1027A0005870D8F854004FF0640100FB01F0D8F8DD
:1027B000581090FBF1F0C8F86400A02801DD88F8FB
:1027C0000C70782804DBF848B0F90000322801DAF0
:1027D00088F80CC098F80C00012812D14FF00001C5
:1027E0006FF031090BE0C1EB011006EBC0008278FD
:1027F000022A08D0A0F866C001F10101C9B29942CD
:10280000F1DB00BF44E7446A4FF0640204FB02F2CC
:10281000D8F860500DB9C8F860701546D8F8602037
:1028200095FBF2F52DB2A0F8665094420CDD782DA0
:102830000ADD98F810A0BAF1000F05D1B0F856A043
:10284000AAF1010AA0F856A094420ADA502D08DA3B
:1028500098F810202AB1B0F8562002F10102A0F831
:102860005620B0F956204A4501DAA0F85690B0F942
:102870005620322AC0DD4FF03202A0F85620BBE7C6
:1028800010B5CA49B1F9240018B1A0F1010088843B
:1028900010BD4FF005008884C548C74BB0F9002033
:1028A000C448B3F90010B0F90000A0F10504A24239
:1028B00009DA01F101010AB21A8000F132018A42FB
:1028C0000DDD19800BE0441DA24208DDA1F10101DC
:1028D0000AB21A80A0F132018A4200DA1980188007
:1028E00010BD70B54FF000031A461046B449B34C02
:1028F000B1F900500FE0C0EB001104EBC1014978C1
:102900000E0701D04FF00103C90601D54FF00102B7
:1029100000F10100C0B2A842EDDBAA49B1F9000004
:102920001BB140F00100088002E020F001000880A7
:10293000A548007810B1012805D008E0088820F0EB
:102940000200088003E0088840F0020008809F48E9
:10295000007810B1012805D008E0088820F00400B4
:10296000088003E0088840F0040008809848007858
:1029700020B1012807D002280AD00DE0088820F0F5
:102980001800088008E0088840F01000088003E084
:10299000088840F0080008808E48007820B101289F
:1029A00007D002280AD00DE0088820F060000880D7
:1029B00008E0088840F04000088003E0088840F004
:1029C0002000088022B1088840F08000088003E0E1
:1029D000088820F0800008807F48007820B10888AF
:1029E00040F48070088003E0088820F4807008803C
:1029F0004FF00000B1F90050784C79494FF00106D2
:102A000034F910202A4206D00A8806FA00F343EA75
:102A100002030B8005E00A8806FA00F322EA0302AB
:102A20000A8000F10100C0B20428E9D370BD70B57E
:102A30006C4801686C4A01EA020101606B4C216834
:102A400041F47C712160C16921F44021C161216E92
:102A500041F000712166416821F0406141602068C9
:102A600040F0005020604FF0D200FDF7C7FB5C4EF5
:102A70005F4D10B12868652815D03088C0071ED07A
:102A8000A06F40F00070A067D220FDF7B7FB10B137
:102A90002868662818D03088800724D4E06940F080
:102AA0008000E06123E0686820B1A06F40F0007012
:102AB000A067E9E7E06F40F00070E067E4E7E06FEF
:102AC00040F00070E067DFE7686810B1012805D0CA
:102AD0000DE0E06940F08000E06108E0A06940F0AE
:102AE0008000A06103E0A06940F08000A061D220D6
:102AF000FDF784FB10B12868672807D030884007AD
:102B000013D4E06940F01000E06112E0686810B191
:102B1000012805D00DE0E06940F01000E06108E018
:102B2000A06940F01000A06103E0A06940F010002F
:102B3000A061D220FDF762FB10B12868682807D099
:102B40003088000713D4E06940F40070E06112E0BF
:102B5000686810B1012805D00DE0E06940F400700C
:102B6000E06108E0A06940F40070A06103E0A069A2
:102B700040F40070A0610D494FF000008886626F3C
:102B8000920102D500F1010088866069000603D534
:102B9000888E00F1010088866069C00603D5888EA2
:102BA00000F10100888670BD10C207200CC007200C
:102BB0000AC2072022C1072024C107207854001030
:102BC00078C10720BCC4072004C1072007C1072023
:102BD00005C1072006C10720AEC40720D6C20720C2
:102BE0009A00001000C00240FF00F0FF00C0092062
:102BF0009CC007202DE9F05FFF4E00274FF0010A2F
:102C0000307D0A2808D200F10100C0B230750A28D0
:102C100002D3377586F815A0B766F766CD20FDF7A5
:102C2000EDFADFF8D883DFF8D8B3F0B3F5490868D8
:102C3000CE2802D14FF6FF72F266CF2801D14A6842
:102C4000F266D12801D14A68B266D22802D14FF08B
:102C5000FF32B266D02804D14868B0666FEA00003F
:102C6000F0664FF0000430E0F06E0AFA04F919EA59
:102C7000000F09D0C4EB041008EBC00030F8441F6B
:102C800001F10101018005E0C4EB041008EBC00074
:102C9000A0F84470C4EB041008EBC00505F1440033
:102CA00032220021FDF702FB00E013E0B5F94400F9
:102CB000142801DD85F82CA0B06E19EA000F01D0B0
:102CC00085F82C7004F10104E4B2BBF900008442E1
:102CD000CADD72E0707DE8B34FF000042146BBF915
:102CE000000008E0C1EB011208EBC20282F82CA040
:102CF00001F10101C9B28142F4DD4FF0000120E091
:102D0000C2B2202A01D94FF02002B37E834201DBF8
:102D10004FF000030B44DBB2B3FBF2F502FB1532BC
:102D2000C2EB021208EBC2039A78032A01D0022AEE
:102D300004D183F82C7004F10104E4B201F1010123
:102D4000C9B2814204DAB04AB2F900209442D7DB1A
:102D5000F17E00E031E0C1EB011108EBC10181F827
:102D60002C70AA49B1F900103C290DDA4FF000018E
:102D700008E0C1EB011208EBC20282F82C7001F1ED
:102D80000101C9B28142F4DDA149098869B14FF05E
:102D9000000108E0C1EB011208EBC20282F82CA08E
:102DA00001F10101C9B28142F4DD4FF0000102E0FE
:102DB00001F10101C9B28142FADD4FF000004FF08C
:102DC0006304BBF900300DE0C0EB001108EBC1015A
:102DD0000A6C22B181F82C40A2F101020A6400F1D0
:102DE0000100C0B29842EFDB777577744FF00001B5
:102DF000084611E0C0EB001208EBC2029478022CE6
:102E000007D1747C04F101047474D2698A4200DD34
:102E100091B200F10100C0B29842EBDBF187BDE84E
:102E2000F09F70B50A237C4C7A4800252268006820
:102E3000B2FBF3F6B0FBF3F1784AB1420BD1117853
:102E40000F2902D201F10101117011780A2903D36F
:102E50007349086000E0157020607248724CB0F948
:102E60000000B4F90020B0FBF3F1B2FBF3F36F4ABA
:102E700099420BD111780F2902D201F10101117091
:102E800011780A2903D36A49088000E01570208070
:102E900089E62DE9F04385B0664C674E0025207821
:102EA000401CC0B220700A2840D32570DFF88CC1C6
:102EB0009CF8000000F101008CF8000060486149B6
:102EC000B0F9000008806049DFF88081624637462B
:102ED000B1F900105278B8F90030B7F900708842A3
:102EE00006DDA0EB0109B9F10A0F01DB012F07D0C4
:102EF000884216DA081A0A2813DB012F09D010E0DD
:102F000002F101028CF80120A3F10103A8F80030BE
:102F100007E0A2F101028CF8012003F10103A8F8F7
:102F20000030142251424948FDF7C0F92078DFF8FB
:102F30002081484F082825D13088012822D1B8F8AF
:102F400000008DF800004FF004008DF801008DF8AE
:102F500002504FF002008DF803008DF804504FF03E
:102F600001008DF805004FF0060168461BF04CFD8E
:102F70008DF806004FEA20208DF80700B7F9000011
:102F8000C8B3012834486FF01402B0F90000C0EB58
:102F9000001102EB8101184AB2F94420914266D136
:102FA0003188012963D1B8F800108DF800104FF076
:102FB00006018DF801108DF802504FF01E018DF8BA
:102FC00003104FEAE07100EB11614FEA21228DF806
:102FD00004208DF805004FF0060168461BF014FD33
:102FE0008DF806004FEA20208DF807003888002869
:102FF0003DD1044632E03DE00CC00720785400107B
:1030000078C107209CC0072074C407200CC107208A
:103010008C0000107800001090C4072096C4072090
:1030200080C2072094C407207C0000107E0000109E
:1030300032C2072003C107208EC10720706F001025
:103040005C0000103EC2072040C2072042C2072099
:1030500092C1072090C107204AC107206D46285D14
:103060001BF08FFF04F10104E4B2082CF7D305B084
:10307000BDE8F0834FF00004E94619F804001BF0A6
:1030800080FF04F10104E4B2082CF6D37AE72DE9BD
:10309000F0410746FA49C7EB071011F83020032A20
:1030A00075D101EBC00494F846504FF00A06A8070A
:1030B00015D5B4F94A100A2922DA01F1010108B242
:1030C000A4F84A000A281BDBA4F84A606078C0070D
:1030D00016D101220021384601F0EAFC10E0B4F9D3
:1030E0004A1069B1A1F1010108B2A4F84A0038B947
:1030F0006078C00704D000221146384601F0D8FCA1
:1031000028074FF0000815D5B4F94C100A2926DA23
:1031100001F1010108B2A4F84C000A281FDBA4F851
:103120004C60607880071AD401221146384601F0BD
:10313000BFFC14E0B4F94C1000290DDDA1F1010130
:1031400008B2A4F84C0050B94FF000024FF0010152
:10315000384601F0ADFC02E001DAA4F84C80E80644
:1031600016D5B4F94E000A2820DA00F1010000B2A9
:10317000A4F84E000A2819DBA4F84E6060784007D6
:1031800014D401220221384601F092FC0EE045E001
:10319000B4F94E0050B1A0F1010000B2A4F84E0005
:1031A00020B900220221384601F082FC6078000735
:1031B00003D04FF00500A07016E0B248007828B1A7
:1031C000E078142802D984F802800DE094F84600D3
:1031D000800603D54FF00300A07005E0E0781428C6
:1031E00002D24FF00200A070E0780A2806D394F8CB
:1031F0002C0040F0800084F82C0005E094F82C00AE
:1032000000F07F0084F82C009F49B4F95400B1F914
:103210001E10084460634FF4FA60A063BDE8F081BB
:1032200070B54FF000009949994D4FF00104B1F984
:103230000C20034604FA00F10A4201D02C5400E0AD
:103240002B5400F10100C0B20C28F3D3914E287822
:10325000914C317881420BD0B4F90010012907DB81
:1032600001287ED0002301220B218CA017F00CFE38
:103270007178687881420BD0B4F90010022907DB1D
:1032800001286FD0002302220B2189A017F0FCFD3A
:10329000B178A87881420BD0B4F90010032907DB7C
:1032A000012872D0002303220B2186A017F0ECFD29
:1032B000F178E87881420BD0B4F90010042907DBDB
:1032C000012879D0002304220B2183A017F0DCFD14
:1032D0003179287981420BD0B4F90010052907DB38
:1032E000012871D0002305220B2180A017F0CCFD0E
:1032F0007179687981420BD0B4F90010062907DB97
:10330000012868D0002306220B217DA017F0BCFD08
:10331000B179A87981420BD0B4F90010072907DBF5
:1033200001285FD0002307220B217AA017F0ACFD03
:10333000F179E87981420BD0B4F90010082907DB54
:10334000012856D0002308220B2177A017F09CFDFE
:10335000317A287A81420ED0B4F9001009290ADBAB
:1033600001E013E019E001284AD0002309220B21D3
:1033700072A017F089FD4FF00000295C315400F174
:103380000100C0B20C28F8D30DE40EE001231A4668
:103390000B216FA017F078FD6AE7012302220B21B1
:1033A00070A017F071FD73E706E0012303220B21E3
:1033B00071A017F069FD7BE7012304220B2173A0A4
:1033C00017F062FD84E7FFE7012305220B2174A0BB
:1033D00017F05AFD8CE7012306220B2175A017F088
:1033E00053FD95E7012307220B2177A017F04CFD31
:1033F0009EE7012308220B2178A017F045FDA7E7DF
:10340000012309220B217AA017F03EFDB3E770B526
:103410007C48B0F900001E2831DB7B487C4B7D4C9A
:10342000B0F900207948B0F90010B3F900008A42E1
:1034300007DA8D1A322D04DD774D2D8815F0810FB6
:1034400009D032398A4218DDB8B1A0F1010000B2CA
:10345000188098B1E5E0B4F9001001EB8101B0EB00
:10346000410F0ADA00F1010000B21880B0EB410F01
:1034700003D1012001F01DFDD3E0D2E0CEE001E157
:1034800078540010F2C007200CC00720AC6F001069
:10349000646F0010C06F001080C107204176746F08
:1034A0006D6174202331206973204F46460000006F
:1034B0004176746F6D6174202332206973204F460A
:1034C000460000004176746F6D61742023332069DB
:1034D00073204F46460000004176746F6D61742082
:1034E0002334206973204F46460000004176746FF4
:1034F0006D6174202335206973204F46460000001B
:103500004176746F6D6174202336206973204F46B5
:10351000460000004176746F6D6174202337206986
:1035200073204F46460000004176746F6D61742031
:103530002338206973204F46460000004176746F9F
:103540006D6174202339206973204F4646000000C6
:103550004176746F6D6174202331206973204F4E62
:10356000200000004176746F6D6174202332206961
:1035700073204F4E200000004176746F6D617420FF
:103580002333206973204F4E200000004176746F72
:103590006D6174202334206973204F4E2000000099
:1035A0004176746F6D6174202335206973204F4E0E
:1035B000200000004176746F6D617420233620690D
:1035C00073204F4E200000004176746F6D617420AF
:1035D0002337206973204F4E200000004176746F1E
:1035E0006D6174202338206973204F4E2000000045
:1035F0004176746F6D6174202339206973204F4EBA
:10360000200000000CC107200AC2072022C10720A9
:10361000B4C40720FEC10720BCC40720002001F06D
:1036200048FCFF48B0F90010FE48B0F90000FE4A1F
:10363000814214DDB4F9000000EB8001B2F9000012
:10364000B0EB410F1EDA00F1010000B21080B0EBC8
:10365000410F17D1BDE87040012001F02ABC11DAFA
:10366000F248008800280DD1B2F90000002809D0E6
:10367000A0F1010000B21080002803D1BDE8704025
:1036800001F017BC04E42DE9F041E948B0F900006D
:103690000A287DDBE74EE848E84FB6F90010B0F99C
:1036A0000020B7F900000025E54C914217DDB4F980
:1036B000002002EB8203B0EB430F0ADA00F10100B5
:1036C00000B23880B0EB430F15DB012001F0DBFDC9
:1036D00011E002EB82004FEA400038800BE0002846
:1036E00008DDA0F1010000B2388020B9002001F00F
:1036F000CAFD00E03D80D348B6F90010D24EB0F9C3
:103700000000814219DAB4F90000B6F9002000EB9C
:103710008003B2EB430F0ADA02F1010210B23080EB
:10372000B0EB430F17DB022001F0ADFD13E000EB1F
:1037300080004FEA400030800DE0B6F9000000281C
:1037400008DDA0F1010000B2308020B9002001F0B6
:103750009AFD00E03580BD4EBD48BE4FB6F9001061
:10376000B0F9000081421ADDB4F90000B7F9002079
:1037700000EB8003B2EB430F0BDA02F1010210B24F
:103780003880B0EB430F18DB012001F0CCFE14E0D1
:1037900035E000EB80004FEA400038800DE0B7F9DB
:1037A0000000002808DDA0F1010000B2388020B937
:1037B000002001F0B8FE00E03D80A748B6F90010F7
:1037C000A64EB0F9000081421ADAB4F90000B6F949
:1037D000002000EB8003B2EB430F0BDA02F1010291
:1037E00010B23080B0EB430F09DBBDE8F04102209E
:1037F00001F099BE00EB80004FEA400030800DE5FB
:10380000B6F90000002809DDA0F1010000B2308007
:103810000028F4D1BDE8F04101F085BE3580FDE41B
:1038200030B48348B0F900000A2822DB8C488E4C63
:10383000B0F900108B48B0F90020B4F900009142B3
:1038400019DD7F4AB2F9002002EB8203B0EB430F8F
:103850000ADA00F1010000B22080B0EB430F08DB70
:1038600030BC012001F0B8BF02EB82004FEA4000FB
:10387000208030BC7047002808DDA0F1010000B2B4
:1038800020800028F5D130BC01F0A6BF4FF0000029
:103890002080EEE738B57549754C098881B17549C6
:1038A000097821B14FF01401ADF8001003E072491E
:1038B0000988ADF80010714ABDF900101160208030
:1038C0006F48008810B16F4800882080BE20FCF748
:1038D00095FC28B16C480168BF2901D1406820805F
:1038E0006A48008820B16A492088098808442080F5
:1038F000B4F900004FF0620100FB01F14FF06402E7
:1039000091FBF2F1634B19804FF0660100FB01F06F
:1039100090FBF2F06049088038BD2DE9F0415F4C22
:10392000B4F9260010B1A0F10100E0845C485D4DBF
:10393000008828805C4E0A27B6F90800002806DABD
:10394000FCF7DEFC90FBF7F0298808442880B6F9E4
:103950005400002806DAFCF7D3FC90FBF7F0298826
:10396000084428805148B5F90010B0F9000091FBD7
:10397000F0F000F10100C0B2A0744D4AB2F900208D
:1039800091FBF2F101F10101C9B2E174494B4FF031
:103990003C05B3F90020904202DD1880E58405E083
:1039A000914203DAE08C08B91980E5844248B0F905
:1039B00000201A80BDE8F04101213E48FCF776BCAA
:1039C0002DE9F0473D48DFF8D480B0F90010A8F8A1
:1039D0003C102B48008818B139480088A8F83C00F2
:1039E000B8F94C0018B1A0F10100A8F84C00B8F9E2
:1039F0004E0018B1A0F10100A8F84E002A484FF07F
:103A00000A0790F83F20920703D190F88B008007B7
:103A100003D091FBF7F0A8F83C002A4854E00000DE
:103A200002C20720FCC107209400001036C2072004
:103A30000CC107200AC207203AC10720B6C40720DC
:103A400048C107203CC10720960000100CC2072087
:103A500036C10720B8C4072038C1072098000010DD
:103A600012C207202CC10720BAC407206AC1072050
:103A700028C2072047C20720BEC2072078C40720FB
:103A8000AAC40720A6C407209CC007208EC1072017
:103A900042C207206800001072C407200CC0072033
:103AA0006A0000107CC40720C853001040C10720E2
:103AB00042C1072074C4072078C1072044C10720F1
:103AC00084000010A2C10720B0F900100122491E95
:103AD000052900D30280B0F90000002400EB80012A
:103AE00098F80700B0EB410F0BDA00F10100C0B20B
:103AF00088F80700B0EB410F03DB88F8074088F82F
:103B00000820E120FCF77AFBF94DDFF8E8C3FA4B17
:103B1000FA4E00287ED02868642809D069280ED083
:103B2000F7496E2813D0E52833D0E62835D023E1B5
:103B3000B8F8201068680844A8F81E001CE1B8F81E
:103B400020106868A1EB0000A8F81E0014E1B8F886
:103B50001E00A0F1010000B2A8F81E001E2806DD1C
:103B6000B1F90000E749B1F9001088420EDA98F87F
:103B70000100401CC0B288F80100FA2805D10A23D0
:103B80000022E721E620FCF7FAFAF5E088F8014088
:103B9000F2E06868A8F81E00EEE0B1F90010BCF988
:103BA000000081421FDD4FF00B0188F81D10B3F9B2
:103BB0000010A1EB0000282808DDB8F91E0000283D
:103BC00004DDA0F10500A8F81E00D5E0B8F91E003C
:103BD000002807D098F80810002903D0A0F10100B0
:103BE000A8F81E00C8E0B3F90010814211DA4FF0C6
:103BF0000C0288F81D20A0EB010028280BDDB8F985
:103C00001E0040F2DF71884205DA00F10500A8F8D5
:103C10001E00B1E00DE0B8F91E0040F2E4718842E8
:103C200033DA98F8081081B300F10100A8F81E00FB
:103C3000A2E098F8080040B3B348008818B196F89D
:103C4000C303282821D9B8F92000A8F838004FF07C
:103C5000130188F81D10B8F93A20B8F83C1092FB0F
:103C6000F7F7B7EB410F11DD4FF0140188F81D1085
:103C7000B8F84C1021B1A0F10100A8F838003AE0E2
:103C8000A0F10A00A8F8380035E075E014DAC1EBBD
:103C90000119914510DA4FF0150188F81D10B8F898
:103CA0004C1021B1A0F10100A8F8380023E0A0F1E8
:103CB0000300A8F838001EE0C1EB011991450ADDA8
:103CC0008F4208DD4FF0160188F81D10A0F10100A9
:103CD000A8F838000FE0B3F90000BCF900108842E2
:103CE00004DA4FF0170088F81D0004E003DD4FF000
:103CF000210088F81D00854840F28A22B0F90010A2
:103D00008348B0F90000A1EB000000F11E004FF461
:103D1000FA6100FB01F191FBF2F1A8F838100028DC
:103D200001DAA8F8384040F2DA720A217948FCF743
:103D3000BDFAB8F83800A8F82000A8F81E00764AA6
:103D400098F80B1022F8110001F10101C8B288F8AF
:103D50000B00102801D388F80B404FF000010846F3
:103D600032F91030194400F10100C0B21028F7D325
:103D70004FEA2110A8F8400088F80A4088F8094066
:103D8000664F6748B7F90020B0F900300CE0C0EB8F
:103D9000001106EBC101B1F856C09444A1F854C01B
:103DA00000F1010088F8090098F809009842EEDB5C
:103DB0005C495D4E0888401C00B2088064281ADB0C
:103DC0000C805A485A4BB0F90010B6F900008142F5
:103DD00008DAB3F900C0BCF1140F03DD02F10102EF
:103DE0003A8008E0814206DDB3F90000142802DDC4
:103DF000A2F101023A80322251424848FCF756FAB9
:103E00003088A0F62E114942A0F634000AB2404292
:103E100001B24248FCF74AFA2868E5280CD1B8F903
:103E20001E00B0F57F7F02D141F2883139801E2813
:103E300002D14EF67840388088F80840BDE8F08717
:103E40002DE9F05F4FF000003C4A3A4B3A4D4FF0FD
:103E5000010A4FF00A0B0646B2F9004026E0384945
:103E60002D4F095C403F37F91110B1F5FA6F0EDAAA
:103E700019560A2908DA01F1010149B219540A292F
:103E800011DB05F800A00EE003F800B00BE01956B6
:103E9000002907DDA1F1010149B21954002902DC12
:103EA0002E5400E01E5400F10100C0B2A042D6DB47
:103EB0004FF00004DFF88C90234FDFF89080B5E0DE
:103EC000234830F9140010B9295D012942D008B106
:103ED000285D60B119F9040000284CDBA0F1010055
:103EE00040B209F80400002847DC3E5545E031E0C7
:103EF0009CC0072028C2072008C207207854001061
:103F000004C2072030C1072036C2072024C1072081
:103F10000CC2072044C0072058F20720B0C4072075
:103F200078C107209000001022C107200AC2072094
:103F300010C2072070C207204AC207207EC1072096
:103F4000562402006DC407204EC2072063000010F3
:103F5000DEC2072019F904000A2809DA00F101007D
:103F600040B209F804000A2807DB07F804A004E0BF
:103F700009F804B001E009F8046018F80410385D8D
:103F800081424DD0FD4AD18E01F10101D186012837
:103F900007D054B3012C2FD0022C34D0032C39D0AD
:103FA0003EE034B1012C0BD0022C10D0032C15D0E4
:103FB00036E001231A460F21F1A016F065FF2FE02D
:103FC000012302220F21F1A016F05EFF28E0012359
:103FD00003220F21F0A016F057FF21E00123042255
:103FE0000F21F0A016F050FF1AE0002301220F214C
:103FF000EFA016F049FF13E0002302220F21F1A0E9
:1040000016F042FF0CE0002303220F21F2A016F06D
:104010003BFF05E0002304220F21F4A016F034FF3B
:10402000385D08F8040004F10104E4B2F448B0F982
:1040300000008442FFF644AFBDE8F09FF14A4FF024
:1040400001001070F04908705070487070472DE9F9
:10405000F05FEF48DFF8BC93DFF8B083B0F900C041
:10406000B9F90000C54CC0EB0011B8F902706FF04F
:104070001D0A6FF0950B0025E24EB4F944000AEBDF
:1040800081020BEB8103674505DCDFF88CC3BCF9CB
:1040900000C0674504DA824202DD834200DA3570EF
:1040A000DE4FB8F908C0B7F900E0D74FBCEB4E0FB0
:1040B00004DCCEF1000EBCEB4E0F04DA824202DDCE
:1040C000834200DA3D706FF0090202EB8101814208
:1040D00020D1A07DF0B9307801281BD13878012893
:1040E00018D14FF4D67018F088FACD49B1F9001004
:1040F00088420FD0CB48008860B198F83D00C007D7
:1041000008D14FF4D67018F076FBC748017801F15A
:1041100001010170BE48B8F90210B0F900008142F7
:1041200006DCBD48B8F94E10B0F9000081420EDA45
:10413000B9F90000B4F94410C0EB00100AEB80029A
:104140008A4204DD0BEB8000884200DA7570B349C7
:10415000B8F95400B1F90010B0EB410F03DC49424B
:10416000B0EB410F0EDAB9F90000B4F94410C0EB1E
:1041700000100AEB80028A4204DD0BEB80008842CB
:1041800000DA7D70B9F90000C0EB00116FF0090092
:1041900000EB8100B4F94410884221D1A07DF8B928
:1041A000707801281CD17878012819D14FF4E57571
:1041B000284618F022FA9A49B1F9021088420FD025
:1041C0009848008802280BD198F88900C00707D1C9
:1041D000284618F010FB9448017801F101010170A4
:1041E000B9F900006FF00101C0EB001001EB800095
:1041F000B4F94410884202D1BDE8F05F1EE71BE726
:104200002DE9F00389488A4F8A4E00784FF0000C60
:104210004FF00108E8B388483946B0F900508748A4
:10422000B1F90010B0F9009085484D45B0F9002073
:104230008448B0F900308448B0F900408348B0F9B0
:10424000000013DA824203DB834201DB84420DDA91
:104250007F48B0F90020914223DA01F1010108B250
:10426000388090421DD186F800C01AE0DFF8E4C122
:10427000BCF900C0654514DD824212DD834210DDC9
:1042800084420EDD69B1A1F1010108B2388040B964
:1042900000E002E086F8008003E0A7F800C086F89E
:1042A00000803078002807D1BDE8F0030F230122F9
:1042B0006E21D220FBF763BFBDE8F00370472DE904
:1042C000F0412E4CA07EE0764FF00005A576624EC0
:1042D000B6F90000002802DDB0F5FA7F02DD358076
:1042E000BDE8F081207F00F10100C0B220773C28BA
:1042F0001AD325774FF49477384618F07EF900F1F9
:10430000010000B2A4F85000544AB6F90010B2F906
:10431000002001FB02F1814201DCA4F85050B4F905
:104320005010384618F067FAB4F95000B6F900108A
:1043300090FBF1F0A076D3E710B500214FF4947014
:1043400018F059FA0D494FF03A00087710BD2DE9E1
:10435000F0414FF000024148414FB0F90060E2E007
:10436000C2EB021007EBC000417B8B097CD001231C
:10437000B3EB911F7BD180F85B1085E00CC0072068
:10438000534B20233120416C61726D00534B20232D
:104390003220416C61726D00534B20233320416CFD
:1043A00061726D00534B20233420416C61726D00AB
:1043B000534B20233120416C61726D206973206F53
:1043C00066660000534B20233220416C61726D20E1
:1043D0006973206F66660000534B20233320416CC5
:1043E00061726D206973206F66660000534B202355
:1043F0003420416C61726D206973206F6666000025
:104400007EC107206C0000107EC40720C853001036
:1044100072C407204AC10720680000103EC107206F
:104420005EC4072074C107206E000010E9C0072099
:10443000800000102400001004C2072066C107207D
:1044400018C207201AC207201CC2072032C1072049
:1044500064C1072068C1072072C1072078C1072006
:104460007854001000E002E080F85A100CE00223BB
:10447000B3EB911F02D180F85C1005E00323B3EB8E
:10448000911F01D180F85D1010F85A1FC1F301147B
:10449000437803F0300544EA9505847804F0300C45
:1044A0004CEA050CC578A0F15A0005F030084CEA3A
:1044B000880C01F00F0103F00F0383EA010804F0F8
:1044C0000F0484EA080805F00F0585EA0808E045AE
:1044D00013D14FEA051544EA05044FEA041443EAF0
:1044E00004034FEA03534FEA134341EA0301B0F8D0
:1044F0005E308B4201D0A0F85E10CB49B0F85E3040
:10450000B1F9001001EB8101B3EB410F04DD4178FB
:1045100041F01001417003E0417821F01001417039
:1045200002F10102D2B2B242FFF61AAFD8E62DE98B
:10453000F04F87B0BD48BE4CBE49BF4A007894F9E1
:104540000030B1F90010B2F9002048B102283CD087
:1045500001287ED04FF00100207007B0BDE8F08F39
:10456000B64FDFF8DC82B7F90A003D7BB7F9566039
:1045700098F800C097F8587098F801802BB1012B7B
:10458000EBD1BCF1550F15D110E0BCF1550F02D1A4
:10459000884207DC35B9B8F1550FDED18E4201DC17
:1045A000002FDAD04FF001002070D6E79042D4DA25
:1045B000002DD2D1B8F1550F03D19642CDDA002F9C
:1045C000CBD14FF000002070C7E79F4E9D48B56AE1
:1045D000B0F90000F67818B18D427ADC1E2E78D240
:1045E000DFF864C20128DCF8A0709CF87BC0CDF82D
:1045F00018C006DD8F426CDCDDF818C0BCF11E0F60
:1046000067D2DFF844C20228DCF81881CDF81480A4
:104610009CF8F3C0CDF810C008DDDDF814C08C455F
:1046200057DCDDF810C0BCF11E0F52D2DFF818C203
:104630000328DCF89081CDF80C809CF86BC1CDF894
:1046400008C00ADDDDF80CC08C4542DCDDF808C08E
:1046500000E080E0BCF11E0F3BD2DFF8EC810428C3
:10466000D8F808C298F8E381CDF8048006DD8C45BF
:104670002FDCDDF80480B8F11E0F2AD2DFF8C891D4
:104680000528D9F8808299F85B92CDF8009006DD74
:1046900088451EDCDDF80090B9F11E0F19D2DFF855
:1046A000A8A106289AF8D3E2DAF8F89204DD894541
:1046B0000FDCBEF11E0F0CD2DFF88CB10728DBF83F
:1046C00070A39BF84BB308DD8A4502DCBBF11E0FDB
:1046D00003D34FF0010020703FE7012BFCD118B14C
:1046E0009542F9DA0A2EF7D2022804DB9742F3DA70
:1046F00006990A29F0D2032805DB05999142EBDAE5
:1047000004990A29E8D2042805DB03999142E3DAE7
:1047100002990A29E0D2052804DB9445DCDA0199E4
:104720000A29D9D2062804DB9045D5DA00990A294E
:10473000D2D2072804DB9145CEDABEF10A0FCBD2E4
:10474000082804DB9245C7DABBF10A0FC4D24FF048
:104750000000207001E73D483D4D3E4EB0F900009D
:10476000B5F90050367810B18D421DDCE6B9384FEE
:10477000DFF8E0C00128B7F902709CF801C004DD41
:104780008F4211DCBCF1000F0ED1DFF8C480DFF8DE
:10479000C4900228B8F9048099F8029008DD884591
:1047A00002DCB9F1000F03D04FF001002070D4E615
:1047B000012B91D118B195428EDA002E8CD10228AE
:1047C00004DB974288DABCF1000F85D1032804DBB3
:1047D0009045BFDAB9F1000FBCD14FF00000207056
:1047E000BBE61D481D490022B0F900300878142BA3
:1047F00009DD052803D200F10100087007E04FF041
:104800000500087003E010B1A0F1010008700878FD
:104810001349052803D0002800D10A7070474FF0D3
:1048200001000870704700008CC1072054C40720A5
:104830000CC007204000001050C40720C8530010CF
:10484000A6C1072078C10720785400107CC107203A
:10485000BEC2072047C2072010C207208E000010EA
:10486000AEC4072030B5FF48FF4A0178106819B17F
:1048700040F00100106002E020F0010010604FF0F5
:104880000000FA4C4FF00103C0EB001104EBC10132
:10489000497811F0EF0F0AD000F1030503FA05F192
:1048A000156825EA010545EA0105156007E000F1F4
:1048B000030103FA01F5116821EA0501116000F115
:1048C0000100C0B21D28DFD34FF01D00C0EB001166
:1048D00004EBC101497811F0EF0F0AD0A0F11D05DA
:1048E00003FA05F1556825EA010545EA0105556019
:1048F00007E0A0F11D0103FA01F5516821EA050165
:10490000516000F10100C0B22028DFD3D848007800
:1049100020B1106840F00200106003E0106820F041
:104920000200106010681169044620EA01009061DD
:10493000936843EA0003936021EA04016FEA0100EF
:10494000D061CC49B1F90010002902D140F0060035
:10495000D061D06903EA0003936014615068536921
:10496000044620EA03001062D16841EA0001D160E8
:1049700023EA04036FEA0300506201EA0001D160F8
:10498000546130BDF8B54FF46065284617F035FE28
:1049900000F1010004463F2C01D94FF0000421B280
:1049A000284617F028FF40F60266304617F025FE2D
:1049B0003F2800D0204601B2304617F01CFF2846A1
:1049C00017F01BFE4FF4806101EB40144FF05500CF
:1049D0008DF800004FF000068DF801604FF0520096
:1049E0008DF802008DF803606946204617F087FFB6
:1049F00000966946201D17F082FF9F4DA88B8DF809
:104A00000000287E8DF80100287B8DF802008DF8CB
:104A10000360694604F1080017F071FF287A8DF8E9
:104A2000000028798DF8010028788DF8020093485D
:104A3000D0F880018DF80300694604F10C0017F0EE
:104A40005EFF4FF041058DF800508DF801508DF854
:104A500002508DF80350694604F1100017F04FFF23
:104A60008DF800508DF801508DF802508DF80350EC
:104A7000694604F1140017F042FF8DF800508DF8DC
:104A800001508DF802508DF80350694604F118006A
:104A900017F035FF8DF800508DF801508DF8025059
:104AA0008DF80350694604F11C0017F028FFF8BD8B
:104AB0002DE9F84F06460C464FF0540774B1012C0F
:104AC00004D0022C05D0032C06D007E04FF0550788
:104AD00004E04FF0750701E04FF04C07DFF89881D4
:104AE0006248C6EB06114FF00009A8F120084FF408
:104AF000606A4FF4806500EBC100012A02D0002AF1
:104B00007ED0D3E134B1012C09D0022C0CD0032C7F
:104B10000FD012E0417841F0010141700DE0417881
:104B200041F00201417008E0417841F00401417018
:104B300003E0417841F00801417080F85940504647
:104B400017F05BFD00F101001FFA80FBBBF13F0F86
:104B500001D94FF0000B0FFA8BF1504617F04BFEC6
:104B600040F6026017F049FD80B23F2800D0584659
:104B700001B240F6026017F03EFE504617F03DFDD0
:104B800005EB401085B24FF053008DF800008DF812
:104B900001608DF802708DF803906946284617F081
:104BA000AEFECDF800906946281D17F0A8FEB8F8B3
:104BB0003C008DF8000098F838008DF8010098F856
:104BC0002C008DF802008DF80390694605F108006D
:104BD00017F095FE98F828008DF8000098F824004A
:104BE0008DF8010098F820008DF802008DF80390F0
:104BF000694605F10C0017F082FE4FF0410700E016
:104C0000B4E08DF800708DF801708DF802708DF8A9
:104C10000370694605F1100017F071FE8DF8007001
:104C20008DF801708DF802708DF80370694605F1FA
:104C3000140017F064FE8DF800708DF801708DF887
:104C400002708DF80370694605F1180017F057FEE1
:104C50008DF800708DF801708DF802708DF803707A
:104C600069460DE0F2C00720A4C007207854001068
:104C700001C107202EC107202040024000C00F4084
:104C800005F11C0017F03BFE26B1012E26D0022EA6
:104C900048D00BE134B1012C0BD0022C10D0032CE6
:104CA00015D003E1002301220421DFA016F0ECF867
:104CB000FCE001231A460421E1A016F0E5F8F5E036
:104CC000022301220421E5A016F0DEF8EEE0032322
:104CD00001220421E9A016F0D7F8E7E034B1012C55
:104CE0000BD0022C10D0032C15D0DFE000230222C1
:104CF0000421EAA016F0C8F8D8E00123022204211A
:104D0000ECA016F0C1F8D1E002231A460421F0A06D
:104D100016F0BAF8CAE0032302220421F4A016F028
:104D2000B3F8C3E034B1012C0BD0022C10D0032C0B
:104D300015D0BBE0002303220421F5A016F0A4F84F
:104D4000B4E0012303220421F7A016F09DF8ADE0A2
:104D5000022303220421FBA016F096F8A6E0032309
:104D60001A460421FFA016F08FF89FE034B1012C01
:104D700009D0022C0CD0032C0FD012E0417821F086
:104D8000010141700DE0417821F00201417008E01D
:104D9000417821F00401417003E0417821F00801DD
:104DA0004170504617F029FC1FFA80FB5C4605EB6A
:104DB00044101FFA80FA6946504617F0A5FC9DF88A
:104DC0000000532807D19DF80100B04203D19DF89F
:104DD0000200B84209D01CB1A4F10104A4B201E060
:104DE0004FF03F045C45E2D160E069460AF11000F3
:104DF00017F08AFC9DF8000041280BD19DF80100B6
:104E0000412807D19DF80200412803D19DF80300F5
:104E1000412809D01CB1A4F10104A4B201E04FF073
:104E20003F045C45C3D141E0B8F83C008DF8000078
:104E300098F838008DF8010098F82C008DF80200E1
:104E40008DF8039069460AF1100017F058FD98F8A4
:104E500028008DF8000098F824008DF8010098F8DB
:104E600020008DF802008DF8039069460AF11400C5
:104E700017F045FD4FF042048DF800408DF80140D9
:104E80008DF802408DF8034069460AF1180017F0CA
:104E900036FD8DF800408DF801408DF802408DF808
:104EA000034069460AF11C0017F029FD00BFBDE868
:104EB000F88F2DE9F843B44AB24F4FF4606511788A
:104EC0004FF000084FF48069012816D000287DD1EA
:104ED00000297BD082F80080284617F08EFB86B22E
:104EE000344609EB441085B26946284617F00CFC9D
:104EF0009DF800004F286AD154E1012966D04FF097
:104F000001001070284617F078FB00F1010084B210
:104F10003F2C01D94FF0000421B2284617F06BFC5A
:104F200040F60266304617F068FB81B23F2900D098
:104F3000214609B2304617F05EFC284617F05DFBAB
:104F400009EB401084B24FF04F008DF800004FF095
:104F500056008DF801004FF04C008DF802008DF8DE
:104F600003806946204617F0CAFCCDF800806946E8
:104F7000201D17F0C4FC07F12007B88B8DF8000046
:104F8000387E8DF80100387B8DF802008DF80380A3
:104F9000694604F1080017F0B2FC387A8DF8000079
:104FA00038798DF8010038788DF802008DF803808B
:104FB000694604F10C0017F0A2FC4FF041058DF892
:104FC00000508DF801508DF8025001E0E8E0F1E06A
:104FD0008DF80350694604F1100017F090FC8DF82D
:104FE00000508DF801508DF802508DF8035069463D
:104FF00004F1140017F083FC8DF800508DF8015077
:105000008DF802508DF80350694604F1180017F02E
:1050100076FC8DF800508DF801508DF802508DF817
:1050200003506946B2E00000425053202331204132
:105030006C61726D2C206F7665726865617400001A
:1050400042505320233120416C61726D2C20766FC9
:105050006C7461676520697320757000425053203D
:10506000233120416C61726D2C20766F6C74616706
:105070006520697320646F776E00000042505320F2
:10508000233120416C61726D2C20636F6E6E6563FD
:1050900074206973206C6F737400000042505320B9
:1050A000233220416C61726D2C206F7665726865C9
:1050B0006174000042505320233220416C61726DB4
:1050C0002C20766F6C7461676520697320757000A1
:1050D00042505320233220416C61726D2C20766F38
:1050E0006C7461676520697320646F776E000000DF
:1050F00042505320233220416C61726D2C20636F2B
:105100006E6E656374206973206C6F7374000000A9
:1051100042505320233320416C61726D2C206F76F6
:10512000657268656174000042505320233320414A
:105130006C61726D2C20766F6C7461676520697389
:105140002075700042505320233320416C61726DF2
:105150002C20766F6C7461676520697320646F77AB
:105160006E00000042505320233320416C61726D69
:105170002C20636F6E6E656374206973206C6F738F
:10518000740000000040024004C1072004F11C002C
:1051900017F0B5FB022301220521FAA015F074FED9
:1051A000BDE8F8839DF80100562803D19DF8020060
:1051B0004C280AD01CB1A4F10104A4B201E04FF0C4
:1051C0003F04B4427FF48DAEEAE7694605F1100072
:1051D00017F09AFA9DF8000041280BD19DF80100C4
:1051E000412807D19DF80200412803D19DF8030012
:1051F000412809D01CB1A4F10104A4B201E04FF090
:105200003F04B442DED1CBE707F12007B88B8DF81D
:105210000000387E8DF80100387B8DF802008DF893
:105220000380694605F1100017F069FB387A8DF8A4
:10523000000038798DF8010038788DF802008DF87B
:105240000380694605F1140017F059FB4FF0420442
:105250008DF800408DF801408DF802408DF8034034
:10526000694605F1180017F04AFB8DF800408DF8EB
:1052700001408DF802408DF80340694605F11C009D
:1052800017F03DFB8CE72DE9F34F81B00546C1498E
:105290000878A8427ED09DF808609DF80970DFF874
:1052A000F8824FF460644FF000094FF4806A012DDA
:1052B00019D0022D17D0002D6CD100286AD081F8AA
:1052C0000090204617F099F91FFA80FB5C460AEB24
:1052D000441085B26946284617F016FA9DF800007A
:1052E00056287DD1A6E00D70204617F086F900F112
:1052F00001001FFA80FBBBF13F0F01D94FF0000BFB
:105300000FFA8BF1204617F076FA40F6026017F09C
:1053100074F980B23F2800D0584601B240F60260CE
:1053200017F069FA204617F068F90AEB401084B2CA
:105330004FF056008DF800004FF04F008DF801003F
:105340004FF055008DF802004FF054008DF8030027
:105350006946204617F0D3FA8DF800608DF8017089
:105360008DF802508DF803906946201D17F0C7FA9A
:10537000B8F83C008DF8000098F838008DF801006E
:1053800098F82C008DF802008DF80390694604F11E
:10539000080000E04CE017F0B2FA98F828008DF809
:1053A000000098F824008DF8010098F820008DF88E
:1053B00002008DF80390694604F10C0017F09FFA83
:1053C0004FF041058DF800508DF801508DF80250D6
:1053D0008DF80350694604F1100017F090FA00E0D0
:1053E00034E08DF800508DF801508DF802508DF8A2
:1053F0000350694604F1140017F081FA8DF800504B
:105400008DF801508DF802508DF80350694604F173
:10541000180017F074FA8DF800508DF801508DF8CF
:1054200002508DF80350694604F11C0017F067FA2A
:10543000BDE8FE8F9DF801004F2807D19DF80200BE
:10544000552803D19DF8030054280AD01CB1A4F1BB
:105450000104A4B201E04FF03F045C457FF437AF94
:10546000E6E7694605F1100017F04EF99DF80000D7
:1054700041280BD19DF80100412807D19DF8020079
:10548000412803D19DF80300412809D01CB1A4F1A3
:105490000104A4B201E04FF03F045C45DED1C7E750
:1054A000B8F83C008DF8000098F838008DF801003D
:1054B00098F82C008DF802008DF80390694605F1EC
:1054C000100017F01CFA98F828008DF8000098F8E2
:1054D00024008DF8010098F820008DF802008DF866
:1054E0000390694605F1140017F009FA8DF8006081
:1054F0008DF801704FF042048DF802408DF80340A2
:10550000694605F1180017F0FAF98DF800408DF89A
:1055100001408DF802408DF80340694605F11C00FA
:1055200017F0EDF984E72DE9F34F81B005461B48EC
:105530000178A9427ED09DF808609DF80970DFF8D7
:1055400058804FF460644FF000094FF4806A012DD9
:1055500026D0022D24D0002D6CD180F8009020465A
:1055600017F04BF884B2A3465C460AEB441085B2B0
:105570006946284617F0C8F89DF8000056287DD1E6
:10558000B2E0000053797374656D206F7665726CBC
:105590006F61640005C107200040024006C107207A
:1055A0000570204617F029F800F101001FFA80FB72
:1055B000BBF13F0F01D94FF0000B0FFA8BF12046E2
:1055C00017F019F940F6026017F017F880B23F287B
:1055D00000D0584601B240F6026017F00CF92046A0
:1055E00017F00BF80AEB401084B24FF056008DF81C
:1055F00000004FF049008DF801004FF04E008DF88B
:1056000002008DF803906946204617F078F98DF86E
:1056100000608DF801708DF802508DF80390694696
:10562000201D17F06CF9B8F83C008DF8000098F8D0
:10563000380000E057E08DF8010098F82C008DF854
:1056400002008DF80390694604F1080017F057F93D
:1056500098F828008DF8000098F824008DF80100D3
:1056600098F820008DF802008DF80390694604F147
:105670000C0017F044F94FF0410500E03FE08DF8D1
:1056800000508DF801508DF802508DF80350694696
:1056900004F1100017F033F98DF800508DF8015027
:1056A0008DF802508DF80350694604F1140017F08C
:1056B00026F98DF800508DF801508DF802508DF8C4
:1056C0000350694604F1180017F019F98DF80050DD
:1056D0008DF801508DF802508DF80350694604F1A1
:1056E0001C0017F00CF9A3E69DF80100492806D12B
:1056F0009DF802004E2802D19DF8030050B11CB164
:10570000A4F10104A4B201E04FF03F045C457FF432
:105710002CAF8DE6694605F1100016F0F5FF9DF8F7
:10572000000041280BD19DF80100412807D19DF8C8
:105730000200412803D19DF80300412809D01CB183
:10574000A4F10104A4B201E04FF03F045C45DED1B6
:105750006EE6B8F83C008DF8000098F838008DF837
:10576000010098F82C008DF802008DF8039069462E
:1057700005F1100017F0C3F898F828008DF8000024
:1057800098F824008DF8010098F820008DF80200A8
:105790008DF80390694605F1140017F0B0F88DF804
:1057A00000608DF801704FF042048DF802408DF8D2
:1057B0000340694605F1180017F0A1F88DF8004084
:1057C0008DF801408DF802408DF80340694605F1DF
:1057D0001C0017F094F82BE62DE9F34F81B0A04997
:1057E0000A7882427ED09DF808709DF80980DFF823
:1057F00074924FF460654FF0000A4FF4806B0128FB
:1058000014D000286ED181F800A0284616F0F5FECD
:1058100086B234460BEB441085B26946284616F032
:1058200073FF9DF8000054287ED1A0E00870284640
:1058300016F0E3FE00F1010084B23F2C01D94FF0D5
:10584000000421B2284616F0D6FF40F60266304624
:1058500016F0D3FE80B23F2800D0204601B2304679
:1058600016F0C9FF284616F0C8FE0BEB401084B2B4
:105870004FF054008DF800004FF053008DF80100F8
:105880004FF059018DF802108DF80300694620464B
:1058900017F035F88DF800708DF801808DF802A0B2
:1058A0008DF803A06946201D17F029F8B9F83C00CF
:1058B0008DF8000099F838008DF8010099F82C0057
:1058C0008DF802008DF803A0694604F1080017F076
:1058D00016F899F828008DF8000099F824008DF842
:1058E000010000E042E099F820008DF802008DF8F8
:1058F00003A0694604F10C0017F001F84FF04105D0
:105900008DF800508DF801508DF802508DF803503D
:10591000694604F1100016F0F2FF8DF800508DF882
:1059200001508DF8025000E02DE08DF803506946DB
:1059300004F1140016F0E3FF8DF800508DF80150CB
:105940008DF802508DF80350694604F1180016F0E6
:10595000D6FF8DF800508DF801508DF802508DF86B
:105960000350694604F11C0016F0C9FF60E59DF87C
:105970000100532807D19DF80200592803D19DF852
:10598000030053280AD01CB1A4F10104A4B201E021
:105990004FF03F04B4427FF43DAF49E5694605F15D
:1059A000100016F0B1FE9DF8000041280BD19DF8C3
:1059B0000100412807D19DF80200412803D19DF83C
:1059C0000300412809D01CB1A4F10104A4B201E0F4
:1059D0004FF03F04B442DED12AE5B9F83C008DF81F
:1059E000000099F838008DF8010099F82C008DF826
:1059F00002008DF803A0694605F1100016F07FFF44
:105A000099F828008DF8000099F824008DF801001D
:105A100099F820008DF802008DF803A0694605F181
:105A2000140016F06CFF8DF800708DF801804FF0B7
:105A300042048DF802408DF80340694605F11800D4
:105A400016F05DFF8DF800408DF801408DF80240A2
:105A50008DF80340694605F11C0016F050FFE7E49D
:105A600007C10720004002404FF01100F7490872BB
:105A70007047002801DA404200B2704710B54FF479
:105A8000347016F0BAFDF24C207040F2D22016F0BD
:105A9000B4FD60704FF4357016F0AFFDA07040F2A9
:105AA000D62016F0AAFDE0704FF4367016F0A5FD72
:105AB000207240F2DA2016F0A0FD60724FF43770C9
:105AC00016F09BFDA07240F2DE2016F096FDE0720B
:105AD0004FF4437016F091FD207140F20E3016F035
