:020000040000FA
:1000000018750010E1000000E5000000E7000000A6
:10001000E9000000EB000000ED000000000000001F
:10002000000000000000000000000000EF000000E1
:10003000F100000000000000F30000000B9F010031
:10004000F700000085C60100B9C60100F7000000F6
:10005000F700000007F90100F7000000F7000000BA
:10006000F7000000F7000000F7000000F7000000B4
:10007000F7000000F7000000F7000000F7000000A4
:10008000F7000000F7000000F7000000F700000094
:10009000F7000000F70000009F5C0000F700000080
:1000A000F7000000BDF60100F7000000F7000000B7
:1000B000191A0200F7000000F7000000F700000026
:1000C000F7000000F7000000F7000000DFF80CD098
:1000D00021F008FD004800478FA0010018750010AE
:1000E00005480047FEE7FEE7FEE7FEE7FEE7FEE71E
:1000F000FEE7FEE7FEE7FEE7CD000000FEE710B5F5
:1001000022F0CAF922F026FA22F018FAAFF30080A2
:10011000BDE8104022F0E4B910B522F0A3FF23F0AF
:10012000C1FBBDE8104022F0F5BF22F009BF22F06C
:10013000D1BC09B10020704722F0D6B8002070472A
:1001400030B54FF000003D4BA3F1140202F10A0458
:10015000115C61B1255CA94209D1195C39B1A1F1E9
:100160000101C9B2195411B94FF000011154115CC9
:10017000215400F10100C0B20A28E9D330BD70B5A6
:100180004FF000042D4EA6F1140604F10104E4B270
:10019000355D1DB1854201D00A2CF6D33055274874
:1001A0000C3040F82410283040F82420343803550F
:1001B00070BD4FF00001214AA2F1140201F10101CA
:1001C000C9B2535C834201D00A29F7D3535C8342FE
:1001D00012D11A480C3050F8213019480360174BDF
:1001E000343353F8213043604FF000005054134A29
:1001F00050544FF001007047002070474FF000014D
:100200000E4AA2F1140201F10101C9B2535C83420A
:1002100001D00A29F7D3525C82420CD107480C3036
:1002200050F8212006480260044A343252F8211066
:10023000416001207047002070470000985E001068
:100240009C0000100D4BDA601870597070470B4A13
:100250001161907070470949088170470749B1F9E9
:100260000800002809D0A0F1010000B20881002890
:1002700003D10146084601F0B4BA7047A40000104B
:1002800090F900308B4200DA027090F9003093420E
:1002900000DD0170704790F900308B4200DA017088
:1002A00090F90010914200DD02707047B0F9003003
:1002B0008B4200DA0180B0F90010914200DD02802B
:1002C0007047B0F900308B4200DA0280B0F900309C
:1002D000934200DD01807047FE21C0B221F0EEBBE9
:1002E0008021C0B221F0EABB1C21C0B221F0E6BBE4
:1002F0007021C0B221F0E2BB70477047FFFFFFFFE3
:10030000002802DAC0F1000000B270474FF0000090
:10031000FC4A4FF02001115400F10100C0B2C8287E
:10032000F9D3704701464FF00000F64A00F1010092
:10033000C0B2135C8B4201D0C828F7D3704710B508
:100340004FF00001F04C4FF00A020346B0FBF2F010
:1003500002FB1033635401F10101C9B20529F4D342
:1003600010BDF0B5E94D4FF0010129704FF00501C6
:10037000E54B4FF020064FF000072A7842B15A189B
:1003800012F8014C24B9814202D902F8016C07E04D
:1003900003EB010212F8014D04F1300414702F70C8
:1003A000A1F10101C9B20029E7D1F0BDFEB50346B4
:1003B0004FF02B07002B04DAC3F1000003B24FF01B
:1003C0002D074FF000004FF00A046D4693FBF4F642
:1003D00004FB16332B5433B200F1010040B20A285B
:1003E000F4DB4FF001034FF000044FF009004FF031
:1003F000200643B115F800C0BCF1000F03D19042B4
:1004000001DD2E5408E02B5C03F130032B544FF038
:10041000000304F10104E4B2A0F1010040B200289D
:10042000E7DA2D2F04D1204604F10104E4B22F5461
:100430008AB160B207E005EB000313F8013C2B54CE
:10044000A0F1010040B29042F5DC4FF02E00A8541C
:1004500004F10104E4B20846FFF764FF4FF0000125
:10046000A84A06E0A0EB01066B5C935501F101017F
:1004700049B2A142F6DBFEBDFEB503464FF02B07A5
:10048000002B03DAC3F100034FF02D074FF00000FB
:100490004FF00A046D461E4693FBF4F304FB13660B
:1004A0002E5400F1010040B20A28F4DB4FF00103A2
:1004B0004FF000044FF009004FF0200643B115F84B
:1004C00000C0BCF1000F03D1904201DD2E5408E0C2
:1004D0002B5C03F130032B544FF0000304F10104B3
:1004E000E4B2A0F1010040B20028E7DA2D2F04D1D8
:1004F000204604F10104E4B22F548AB160B207E04F
:1005000005EB000313F8013C2B54A0F1010040B2AD
:100510009042F5DC4FF02E00A85404F10104E4B23F
:100520000846FFF7FFFE4FF00001764A06E0A0EB19
:1005300001066B5C935501F1010149B2A142F6DB62
:10054000FEBD2DE9FE414FF02B0C002803DAC0F16F
:1005500000004FF02D0C4FF000044FF00A056F46DD
:10056000064690FBF5F005FB10663E5504F10104CC
:1005700064B20A2CF4DB4FF001054FF000044FF099
:1005800009004FF0200645B117F80080B8F1000FC0
:1005900003D1984201DD3E5408E03D5C05F1300591
:1005A0003D544FF0000504F10104E4B2A0F1010054
:1005B00040B20028E7DABCF12D0F05D1204604F146
:1005C0000104E4B207F800C08BB160B207E007EBAA
:1005D000000515F8015C3D54A0F1010040B29842BD
:1005E000F5DC4FF02E00F85404F10104E4B201EB05
:1005F000810002EB8000C1B24FF00000414A06E0EA
:10060000A1EB00053B5C535500F1010040B2A04254
:10061000F6DBBDE8FE8170B50D4616461C46FFF7B9
:100620008EFE601CC0B2FFF79CFE05EB850006EB5A
:100630008000C1B24FF00000334B324DA04201D2D6
:100640001A5C6A5407D31A5C202A04D064B105EB03
:10065000010606F8012CA1F10101C9B200F1010067
:10066000C0B20528EAD370BD6A54F4E730B5044639
:1006700008461546FFF756FEFF280CD0214A07E032
:1006800000EB050304F10104D15400F10100C0B2F4
:1006900021780029F4D130BD70B50D461446FFF71E
:1006A0004EFE601CC0B2FFF75CFE2846FFF73AFE24
:1006B0004FF00001144A134D24B9535C202B01D094
:1006C0002B5415E0A14202D2535C2B5410E008D108
:1006D0004FF02E032B5405EB0006535C06F8013C4B
:1006E00006E0535C202B03D005EB000606F8013C26
:1006F000A0F10100C0B201F10101C9B20529DBD3AB
:1007000070BD0000EA0200105404001059040010EB
:100710001044002801DA084403E0884201DBA0EB22
:100720000100C0B270472DE9FF5F04460D464FF44B
:1007300060601CF0EAFC62424021FFF7E9FF4FEAEB
:10074000401000F58060044602A920461CF064FDBC
:1007500001A904F108001CF05FFD694604F10C00DA
:100760001CF05AFD2846FFF7DDFD9DF808E0402209
:10077000302121232324DFF808844FF0C2094FF0F1
:100780003A0C0127FF4E4FF0200AFF4DBEF1550FE6
:1007900011D04FF0C00BBEF1500F7DD0BEF1510F04
:1007A0007BD0BEF1530F79D0BEF1420F77D0BEF1AE
:1007B000560F75D082E39DF80AB0BBF1520F14D1E9
:1007C00000F1010B0BF0FF0B06F800904FF0EA0070
:1007D0000BF1010909F0FF0906F80B004FF0EB0BD4
:1007E00009F10100C0B206F809B000F1010909F0F1
:1007F000FF0906F800A009F1010B0BF0FF0006F855
:1008000009A000F1010909F0FF0906F800A009F1AB
:100810000100C0B206F809A000F1010909F0FF09C2
:1008200006F800A09DF80400B5F83CB0584548D142
:100830009DF8050095F838B0584542D19DF806005E
:1008400095F82C50A8423CD109F10100C0B206F83D
:10085000091000F10105EDB2335405F10100C0B2F9
:1008600006F805C000F10103DBB231541D4603F167
:100870000103D8B2725500F10102D2B206F800C0ED
:1008800002F10100C0B2B15434549DF800004FF0A1
:1008900000024FF0210104E051E007E1C9E1BBE2B1
:1008A00002E3FFF7F9FE9DF8010000224021FFF767
:1008B000F3FE9DF8020000222321FFF7EDFEBDE8C4
:1008C000FF9F09F10100C0B206F809A000F101057F
:1008D000EDB2315405F10100C0B2735500F10103CE
:1008E000DBB2325403F10100C0B206F803A000F1FC
:1008F0000102D2B206F800A002F10100C0B2B15468
:1009000034549DF806004FF000024FF02101FFF72C
:10091000C3FE9DF8040000222321FFF7BDFE9DF8D1
:100920000500401E0C2801D38DF805709DF80500C8
:10093000002208EB80004021FFF798FEBFE700F19E
:10094000010E0EF0FF0E06F800B00EF10100C0B26D
:1009500006F80E904FF02E0B00F1010909F0FF0987
:1009600006F800B04FF0CF0009F1010B0BF0FF0BC0
:1009700006F809004FF0D1000BF1010909F0FF0959
:1009800006F80B0009F10100C0B206F809A000F159
:10099000010909F0FF0906F800A009F10100C0B241
:1009A00006F809A09DF80490B5F83CB0D9453FD1B0
:1009B0009DF8059095F838B0D94539D19DF8069045
:1009C00095F82C50A94533D100F10105EDB2315411
:1009D00005F10100C0B2735500F10103DBB206F866
:1009E00000C003F10100C0B2F15400F10103DBB219
:1009F000325403F10100C0B206F803C000F1010255
:100A0000D2B23154B4549DF800004FF000024FF0C0
:100A10002101FFF741FE9DF8010000224021FFF770
:100A20003BFE9DF8020000222321FFF735FE46E73A
:100A300000F10105EDB206F800A005F10100C0B219
:100A4000715500F10105EDB2335405F10100C0B25A
:100A5000725500F10102D2B206F800A002F10100C5
:100A6000C0B206F802A000F10102D2B23154B4546F
:100A70009DF806004FF000024FF02101FFF70CFE39
:100A80009DF8040000222321FFF706FE9DF80500D3
:100A9000401E0C2801D38DF805709DF8050000223A
:100AA00008EB80004021FFF7E1FD08E700F1010EAF
:100AB0000EF0FF0E06F800B00EF10100C0B206F80D
:100AC0000E904FF02E0900F1010B0BF0FF0B06F812
:100AD00000904FF055000BF1010909F0FF0906F8ED
:100AE0000B004FF0E20009F1010B0BF0FF0B06F8D1
:100AF00009004FF0FB000BF1010909F0FF0906F8AE
:100B00000B004FF0F50009F1010B0BF0FF0B06F89D
:100B100009000BF10100C0B206F80BA09DF804908B
:100B2000B5F83CB0D94546D19DF8059095F838B058
:100B3000D94540D19DF8069095F82C50A9453AD159
:100B400000F10105EDB2315405F10100C0B2735559
:100B500000F10103DBB206F800C003F10100C0B2EE
:100B6000F15400F10103DBB2325403F10100C0B2D1
:100B700006F803C000F10102D2B23154B45405E0CA
:100B800020470200EA020010004002409DF80000E9
:100B90004FF000024FF02101FFF77EFD9DF80100AC
:100BA00000224021FFF778FD9DF80200002223215A
:100BB000FFF772FD83E600F10105EDB206F800A033
:100BC00005F10100C0B2715500F10105EDB23354D9
:100BD00005F10100C0B2725500F10102D2B206F86F
:100BE00000A002F10100C0B206F802A000F101026B
:100BF000D2B23154B4549DF806004FF000024FF0C9
:100C00002101FFF749FD9DF8040000222321FFF791
:100C100043FD9DF80500401E0C2801D38DF805709A
:100C20009DF80500002208EB80004021FFF71EFD23
:100C300045E600F1010E0EF0FF0E06F800B00EF1D1
:100C40000100C0B206F80E904FF02E0B00F1010922
:100C500009F0FF0906F800B04FF0C10009F1010BDF
:100C60000BF0FF0B06F809004FF0CF090BF1010064
:100C7000C0B206F80B904FF0D10900F1010B0BF058
:100C8000FF0B06F800909DF80990B9F1090F0DD2FD
:100C900009F131090BF10100C0B206F80B9000F127
:100CA000010909F0FF0906F800A02CE0A9F10900EC
:100CB0005A281DD209F101094FF00A00B9FBF0FED4
:100CC000CDF80CE00EF1300E0BF10100C0B206F8C9
:100CD0000BE0DDF80CE04FF00A0B0BFB1E9B0BF159
:100CE000300B00F1010909F0FF0906F800B00AE035
:100CF0000BF10100C0B206F80BA000F1010909F0E8
:100D0000FF0906F800A009F10100C0B206F809A029
:100D10009DF80490B5F83CB0D9453FD19DF80590B9
:100D200095F838B0D94539D19DF8069095F82C50F2
:100D3000A94533D100F10105EDB2315405F10100AF
:100D4000C0B2735500F10103DBB206F800C003F135
:100D50000100C0B2F15400F10103DBB2325403F1DF
:100D60000100C0B206F803C000F10102D2B2315452
:100D7000B4549DF800004FF000024FF02101FFF73E
:100D80008BFC9DF8010000224021FFF785FC9DF8B7
:100D9000020000222321FFF77FFC90E500F101050E
:100DA000EDB206F800A005F10100C0B2715500F1E6
:100DB0000105EDB2335405F10100C0B2725500F1E6
:100DC0000102D2B206F800A002F10100C0B206F89A
:100DD00002A000F10102D2B23154B4549DF80600D1
:100DE0004FF000024FF02101FFF756FC9DF8040080
:100DF00000222321FFF750FC9DF80500401E0C281F
:100E000001D38DF805709DF80500002208EB8000E5
:100E10004021FFF72BFC52E54FF0C10200F1010128
:100E2000C9B232544FF0E00301F10100C2B2735471
:100E30004FF0F20102F10100C0B2B1549DF8091067
:100E400009290BD201F1310100F10102D2B2315472
:100E500002F10100C0B206F802A022E0A1F10902ED
:100E60005A2A14D201F101014FF00A05B1FBF5F342
:100E700003F1300400F10102D2B2345405FB131126
:100E800001F1300102F10100C0B2B15409E000F1FA
:100E90000101C9B206F800A001F10100C0B206F8D4
:100EA00001A006F800A00AE59DF80990B9F1490FE4
:100EB00004D19DF80A90B9F14E0F03D0BEF1560F40
:100EC0007ED0CBE000F1010909F0FF0906F800B07F
:100ED0004FF0E20009F1010E0EF0FF0B06F80900D9
:100EE0004FF02E0E0BF1010909F0FF0906F80BE097
:100EF0004FF0550E09F1010B0BF0FF0B06F809E05E
:100F00000BF1010909F0FF0E06F80B004FF0F50B8D
:100F10000EF1010000F0FF0906F80EB009F1010022
:100F2000C0B206F809A000F1010909F0FF0906F8AE
:100F300000A09DF80400B5F83CB0584541D19DF89B
:100F4000050095F838B058453BD19DF8060095F856
:100F50002C50A84235D109F10100C0B206F80910A1
:100F600000F10105EDB2335405F10100C0B206F8FD
:100F700005C000F10103DBB2315403F10100C0B23E
:100F8000F25400F10102D2B206F800C002F10100F1
:100F9000C0B2B15434549DF800004FF000024FF03D
:100FA0002101FFF779FB9DF8010000224021FFF7A6
:100FB00073FB9DF8020000222321FFF76DFB7EE406
:100FC0003DE009F10100C0B206F809A000F10105F9
:100FD000EDB2315405F10100C0B2735500F10103C7
:100FE000DBB2325403F10100C0B206F803A000F1F5
:100FF0000102D2B206F800A002F10100C0B2B15461
:1010000034549DF806004FF000024FF02101FFF725
:1010100043FB9DF8040000222321FFF73DFB9DF8D0
:101020000500401E0C2801D38DF805709DF80500C1
:10103000002208EB80004021FFF718FB3FE49DF8F9
:101040000990B9F14F0F09D19DF80A90B9F1550FE8
:1010500004D19DF80B90B9F1540F03D0BEF14F0F9E
:101060007DD0C8E000F1010909F0FF0906F800B0E1
:101070004FF0E20009F1010E0EF0FF0B06F8090037
:101080004FF02E0E0BF1010909F0FF0906F80BE0F5
:101090004FF0550E09F1010B0BF0FF0B06F809E0BC
:1010A0000BF1010909F0FF0906F80B004FF0FB00F6
:1010B00009F1010B0BF0FF0B06F809004FF0F500EA
:1010C0000BF1010909F0FF0906F80B0009F1010015
:1010D000C0B206F809A09DF80490B5F83CB0D94517
:1010E00041D19DF8059095F838B0D9453BD19DF890
:1010F000069095F82C50A94535D100F10105EDB2C7
:10110000315405F10100C0B2735500F10103DBB2A7
:1011100006F800C003F10100C0B2F15400F1010370
:10112000DBB2325403F10100C0B206F803C000F193
:101130000102D2B23154B4549DF800004FF00002C5
:101140004FF02101FFF7A8FA9DF80100002240218D
:10115000FFF7A2FA00229DF80200232100E040E000
:10116000FFF79AFA63E400F10105EDB206F800A07A
:1011700005F10100C0B2715500F10105EDB2335423
:1011800005F10100C0B2725500F10102D2B206F8B9
:1011900000A002F10100C0B206F802A000F10102B5
:1011A000D2B23154B4549DF806004FF000024FF013
:1011B0002101FFF771FA9DF8040000222321FFF7B7
:1011C0006BFA9DF80500401E0C2801D38DF80570C0
:1011D0009DF80500002208EB80004021FFF746FA49
:1011E00025E49DF80990B9F1560F04D19DF80A90B5
:1011F000B9F14C0F7DD0BEF1540FB3D19DF80990D9
:10120000B9F1530FAED19DF80A90B9F1590FA9D198
:101210009DF80B90B9F1530FA4D100F1010909F029
:10122000FF0906F800B04FF0E20B09F10100C0B26F
:1012300006F809B04FF02E0900F1010B0BF0FF0B7F
:1012400006F800904FF054000BF1010909F0FF0976
:1012500006F80B004FF0F10B09F10100C0B206F8DF
:1012600009B04FF0E80E00F1010909F0FF0906F896
:1012700000E009F10100C0B206F809B000F101096F
:1012800009F0FF0906F800A09DF80400B5F83CB08D
:1012900058457ED19DF8050095F838B0584578D16D
:1012A0009DF8060095F82C50A84272D109F1010072
:1012B000C0B206F8091000F10105EDB2335405F192
:1012C0000100C0B206F805C000F10103DBB23154E1
:1012D00003F10100C0B2F25400F10102D2B206F8EB
:1012E00000C002F10100C0B2B15434549DF80000B6
:1012F00000E012E04FF000024FF02101FFF7CCF9BF
:101300009DF8010000224021FFF7C6F99DF8020078
:1013100000222321FFF7C0F94CE44FF0CF0B00F17E
:10132000010909F0FF0906F800B04FF0D00009F1FB
:10133000010E0EF0FF0B06F809004FF0C30E0BF183
:10134000010909F0FF0906F80BE009F1010B0BF0A8
:10135000FF0B06F809004FF0C70E0BF1010000F07B
:10136000FF0906F80BE009F10100C0B206F809A078
:1013700000F1010909F0FF0906F800A009F10100D8
:10138000C0B206F809A09DF80490B5F83CB0D94564
:1013900000E07EE03FD19DF8059095F838B0D94542
:1013A00039D19DF8069095F82C50A94533D100F11C
:1013B0000105EDB2315405F10100C0B2735500F1E1
:1013C0000103DBB206F800C003F10100C0B2F15422
:1013D00000F10103DBB2325403F10100C0B206F8A0
:1013E00003C000F10102D2B23154B4549DF80000A0
:1013F0004FF000024FF02101FFF74EF99DF8010078
:1014000000224021FFF748F99DF802000022232125
:10141000FFF742F90CE400F10105EDB206F800A077
:1014200005F10100C0B2715500F10105EDB2335470
:1014300005F10100C0B2725500F10102D2B206F806
:1014400000A002F10100C0B206F802A000F1010202
:10145000D2B23154B4549DF806004FF000024FF060
:101460002101FFF719F99DF8040000222321FFF75D
:1014700013F99DF80500401E0C2801D38DF8057066
:101480009DF80500002208EB80004021FFF7EEF8F0
:1014900083E409F10100C0B206F809A000F10105DA
:1014A000EDB2315405F10100C0B2735500F10103F2
:1014B000DBB2325403F10100C0B206F803A000F120
:1014C0000102D2B206F800A002F10100C0B2B1548C
:1014D00034549DF806004FF000024FF02101FFF751
:1014E000DBF89DF8040000222321FFF7D5F89DF8D2
:1014F0000500401E0C2801D38DF805709DF80500ED
:10150000002208EB80004021FFF7B0F845E4F0B579
:101510000446084616461F46FEF704FF02461046DC
:10152000FF4DFF2806D108E0295404F1010400F121
:101530000100C0B221780029F6D1FA4800780028CD
:1015400006D0002F04D002EB06014FF05F00685474
:10155000F0BD2DE9F04F0746DDE9090588469146C3
:101560009A46FEF7DFFEEF4B2021ED4C0A224FF0AA
:10157000640C012D09D11E783EB104EB0006A6F1E2
:101580000E06B1707170317017E097FBF2FB02FB31
:101590001B7E04EB00060EF1300E06F80CEC9BFBF4
:1015A000F2FE02FB1EBB0BF1300B06F80DBC97FBE5
:1015B000FCF707F1300706F80E7C022D09D11E78E2
:1015C0003EB104EB0006A6F10A06B17071703170ED
:1015D00017E098FBF2F702FB178B04EB0006A6F16D
:1015E0000A060BF1300B86F802B097FBF2FB02FB08
:1015F0001B7707F13007777098FBFCF707F130078E
:101600003770032D09D11E783EB104EB0006A6F118
:101610000606B1707170317017E099FBF2F702FBAA
:10162000179804EB0006A6F1060608F1300886F8C4
:10163000028097FBF2F802FB187707F1300777700A
:1016400099FBFCF707F130073770042D09D11B789F
:101650003BB121542044A0F1020041700170BDE86B
:10166000F08F9AFBF2F102FB11A303F13003235434
:1016700091FBF2F302FB13112044A0F1020001F1EF
:10168000300141709AFBFCF101F130010170E6E795
:1016900010B50C46FEF746FEA1491CB14FF00302FF
:1016A0000A5410BD4FF004020A5410BD17B501EBE7
:1016B000810002EB8000C2B29DF800309A4803F02E
:1016C0000F01445C96498C54A2F10102D2B200EBA6
:1016D00013131B788B54A2F10102D2B29DF8013092
:1016E00003F00F04045D8C54A2F10102D2B200EBAE
:1016F00013131B788B54A2F10102D2B29DF8023071
:1017000003F00F04045D8C54A2F10102D2B200EB8D
:1017100013131B788B54A2F10102D3B29DF803205E
:1017200002F00F04045DCC54A3F10103DBB200EB23
:1017300012100078C8541EBD30B57C490124784B86
:1017400091F9012091F904108A4204D100EB800044
:1017500003F8204030BD4D1CAA4206D100F1010023
:1017600000EB800003F8204030BD8D1CAA4206D15A
:1017700000F1020000EB800003F8204030BDCD1CDA
:10178000AA4206D100F1030000EB800003F82040DC
:1017900030BD0D1DAA4206D100F1040000EB80000F
:1017A00003F8204030BD4D1DAA4206D100F10500CE
:1017B00000EB800003F8204030BD8D1DAA4206D109
:1017C00000F1060000EB800003F8204030BDC91D89
:1017D0008A42FBD100F1070000EB800003F82040B3
:1017E00030BD534B1A88A2F10102104400B2188098
:1017F000504A00EB800002444C48136803601279A1
:101800000271427811444170704770B5484DB5F986
:10181000004004F101062E80464D04EB840425446B
:10182000424C26682E6026792E71207061702271DC
:10183000A37070BD2DE9F04180460F461646FEF7B5
:1018400065FD374C4FF0000518F8010B04F8010B4B
:1018500005F10105EDB2142DF6D34FF0000017F895
:10186000011B04F8011B00F10100C0B21428F6D3DB
:101870004FF0000016F8011B04F8011B00F10100F5
:10188000C0B21428F6D34FF0000013F8011B04F87F
:10189000011B00F10100C0B21428F6D3BDE8F081AD
:1018A00010B5029CFFF7C6FF2048C37882784178C4
:1018B0005E20FFF7AAFF642094FBF0F0BDE8104023
:1018C000C0B2FEF7C8BC2DE9FE430D464FEA4010FA
:1018D00000F58060044602A920461BF09DFC01A98A
:1018E00004F108001BF098FC694604F10C001BF0A1
:1018F00093FC2846FEF716FD094C4FF0200600F138
:101900000101C9B226544FF0300701F10100C0B205
:10191000675400F101014FF02108C9B20CE000004A
:10192000EA020010D1000010AA470200680200106D
:10193000FA0000107C04082004F800804FF04009F1
:1019400001F10100C0B204F8019000F10101C9B237
:10195000265401F10100C0B2665400F10101C9B280
:1019600027544FF0230201F10100C5B262549DF8E3
:1019700006004FF000024FF02101FEF78DFE9DF8AA
:10198000040000222321FEF787FE9DF80500401E7B
:101990000C2803D34FF001008DF805009DF80500D9
:1019A0001949002201EB80004021FEF75FFE05F19E
:1019B0000100C0B2665500F10101C9B2275401F11E
:1019C0000100C0B204F801804FF03A0200F10101B9
:1019D000C9B2225401F10100C0B2675400F1010103
:1019E000CDB204F800909DF800004FF000024FF0D7
:1019F0002101FEF751FE9DF8010000224021FEF773
:101A00004BFE6655BDE8FE83204702002DE9FC41F0
:101A100006464FF00007FF4D6F76A87D4FF001039B
:101A200002280FD006EB460101EB0612FA4901EB42
:101A3000820494F83D10CA0706D04FF0660068761D
:101A4000BDE8FC816B76FBE794F83F20920703D555
:101A50004FF067006876F3E7890703D54FF0680019
:101A60006876EDE7ED4AB4F90810B2F9002091422A
:101A700003DD4FF069006876E2E75242914203DAF3
:101A80004FF06A006876DBE7E2490128C97D00D1A2
:101A900011B1012804D005E04FF06B006876CFE764
:101AA00001297DD005F116054FF06400E8702B7018
:101AB0006B8619464FF4F8701BF025FC6E70AE86ED
:101AC00031464FF4FA701BF01EFCA761D448002188
:101AD00030F916001BF017FCAF70EF8639464FF453
:101AE000FB701BF010FCCF48008800F1010000F0F3
:101AF000070004EB4000008C0190CB4DA88B0090B8
:101B00004FF063024FF001016846FEF7C4FBC14C81
:101B10009DF8000080342070287E00900C22012166
:101B20006846FEF7B8FB9DF800006070287B0090C7
:101B30001F2201216846FEF7AEFB9DF80000A07051
:101B40009DF80400E0704FF4FC7021681BF01CFC51
:101B5000287A0090172200216846FEF79CFB9DF82A
:101B600000002071287900903B2200216846FEF792
:101B700092FB9DF800006071287800903B220021C4
:101B80006846FEF788FB9DF80000A0719DF80500EF
:101B9000E0714FF4FE7061681BF0F6FB50E7FFE761
:101BA0004FF06C0068764BE72DE9F047994CB4F89C
:101BB0004000401C00B2A4F84000B0F5E16F03DB28
:101BC0004FF00000A4F84000B4F94000B0F5DF6F1A
:101BD00011D90F2301226421D220FEF7D0FA0F235E
:101BE0000022D821D720FEF7CAFA0F230022D821DD
:101BF000DC20FEF7C4FAB4F94000A0F5E061073933
:101C000033D18A4D8A4C844E288821880A27DFF8F0
:101C10002482DFF82492884210D0B6F9080090FBA5
:101C2000F7F000B2FEF76CFBB8F90010884205DA55
:101C3000B4F90010B9F900001BF065FB68886188F1
:101C4000884212D0B6F9080090FBF7F000B2FEF718
:101C500057FBB8F90010884207DAB4F90210B9F955
:101C60000200BDE8F0471BF04EBBBDE8F08710B5A1
:101C70006C4C208800F1010020804FF008024FF0EA
:101C800000012046FEF71DFB6349B4F9000001EB9B
:101C900040004A880284B1F84E10A0F86C1010BDC4
:101CA0002DE9FE4F6548664A674990F8780402902E
:101CB000664BB2F900B0B1F900100191B3F9001010
:101CC000604D634B634E644CDFF890A145F21167A1
:101CD00045F2FA590091072838D04E49DFF880C103
:101CE000DFF864810A8D5649B8F9008041F2707BB3
:101CF000B1F90010BAF800004A43BCF90610BCF96B
:101D000014C001FB08F1DFF8448191FBFBF1B8F945
:101D1000008009B20CFB08FC9CFBFBFC0FFA8CFC5E
:101D2000B84258D14FF47A6092FBF0F000B22880AC
:101D30001980A6F800C02080814200DA2180B4F921
:101D40000000844501DAA4F800C0AAE04548DFF8A5
:101D5000C4C0027841780CF16C0C02EB01211FFA2F
:101D600081F8ACF800808178C27801EB02218AB258
:101D7000ACF80220017990F805E001EB0E2189B260
:101D8000ACF8041001FB0BF141F2707C91FBFCF10B
:101D90000FFA81FBA5F800B0019902FB01F292FB5A
:101DA000FCF109B21980009A08FB02F898FBFCF2DA
:101DB00012B232808379C07903EB00202A4B18805D
:101DC000A4F800B0594500DA2180B4F9000082423D
:101DD00067DA228065E0A0F5AC48B8F12F0808D09A
:101DE00018F1280805D0B8F1140802D018F1190824
:101DF00040D149F6404092FBF0F000B228801980B3
:101E0000A6F800C02080814200DA2180B4F90000E9
:101E100084452BE01000001068EA07202A0100101A
:101E2000964002005CC00720204002401C040010C5
:101E30001259001030010010B6400200A4EC072037
:101E40002C040010FE01001038C007202E040010E2
:101E50000002001002020010FC01001094010010AA
:101E6000045E001022F107200A02001019DAA4F81B
:101E700000C016E0FF49B1F90020FF49098D514328
:101E8000484503D0A0F5AA42FB3A05D148F6B80070
:101E900091FBF0F0208004E04FF4FA7091FBF0F039
:101EA00020800298072803D0F4480188F448018074
:101EB000F44EB6F90020F449B1F9000050434FF454
:101EC000FA6890FBF8F0F14D6880B6F90830F04AF6
:101ED000B2F9000000FB03F04FF42F7390FBF3F016
:101EE000A880B6F91800B1F9021001FB00F191FBCE
:101EF000F8F0A5F84E00B6F90210B2F9020000FBA6
:101F000001F090FBF3F0A5F850004FF0DC00FEF775
:101F100075F9F0BBDFF87CC3BCF80000DFF878B3DC
:101F2000BBF80010A0EB0100DC4AB2F9001001FB85
:101F300000F1BAF8000045F69263A0F5B04EBEF588
:101F4000C76E01D0984204D14FF4967E91FBFEF10A
:101F50000FE0484506D0A0F5AC4EBEF1130E01D0FF
:101F6000B84202D191FBF8F103E04FF47A7E91FB85
:101F7000FEF12981BCF80210BBF802C0A1EB0C0CE9
:101F8000B2F9021001FB0CF1A0F5BC42383A03D0C3
:101F900000E017E0984204D14FF4967091FBF0F006
:101FA0000EE0484505D0A0F5AC42133A01D0B84246
:101FB00002D191FBF8F003E04FF47A7091FBF0F05E
:101FC000A5F85400B6F90C7040F6B733A7F2213BE0
:101FD00000224FF0010C9B4501D22A7301E085F8E5
:101FE0000CC0AF49B1F90000784344F6206E90FB75
:101FF000FEF0A0F211106881B6F90E0040F6B7337A
:10200000A0F2213E9E4502D285F8582001E085F8D5
:1020100058C0B1F90210414344F6206091FBF0F042
:10202000A0F211109949A1F85600B6F904009D4993
:10203000B1F9001000FB01F14FF4FA6391FBF3F1E9
:102040000FFA81F89849A1F80080B6F90210974B71
:10205000B3F9003001FB03F14FF4FA7591FBF5F190
:10206000934B1980934BB3F9003000FB03F393FBC0
:10207000F5F3DFF844E2AEF80030A1EB03018F4B3B
:1020800019808F49B1F9001000FB01F0BAF8001077
:10209000494504D14FF4C87190FBF1F001E090FB89
:1020A000F5F0884D00B22880DFF81CE2642817DACA
:1020B0004FF00000BEF90090DFF810A20EE000EB38
:1020C000800101EBC0010AEBC101B5F90030096ADA
:1020D000994200DD298000F10100C0B24845EEDBE5
:1020E0004FF000031846BEF90010784D0BE000EBEE
:1020F000800909EBC00905EBC909D9F824904B44C4
:1021000000F10100C0B28842F1DB71480380B6F9EA
:102110000A3040F6B736A3F22130DFF8B891B0426A
:1021200002D289F8002001E089F800C06A48B0F9BD
:102130000000434344F6206E93FBFEF3A3F2111319
:10214000DFF898A1AAF80030B34502D289F8002040
:1021500001E089F800C0784390FBFEF0A0F2111076
:10216000AAF800005E4B18805E485F4E5F4F008803
:1021700078B95F4B18685B68A0EB03034748B0F978
:10218000000000FB03F04FF4FA6390FBF3F038809B
:10219000308058480088C0B94FF0000318460BE063
:1021A00000EB800C0CEBC00C05EBCC0CDCF824C075
:1021B000634400F10100C0B28842F1DB1BB24FF072
:1021C0000A0093FBF0F038803080304EA6F8028091
:1021D000DFF824B1BBF800304848B0F9000058439C
:1021E0004FF47A6390FBF3F0DFF814C180B2ACF8DF
:1021F0000000DFF810E1642802D2AEF8000002E02F
:102200002088AEF80000BBF802403C48B0F902005C
:10221000604390FBF3F0ACF802003B4BB3F90000D5
:102220003A4CB4F900C00CFB00FC41F270709CFB0E
:10223000F0FBDFF8DCC0ACF800B0B3F902E0B4F9B1
:1022400002B00BFB0EFB9BFBF0FBACF802B0B3F94A
:1022500004B0B4F9044004FB0BF494FBF0F4ACF8C4
:102260000440B3F906B02B4CB4F900C00CFB0BFCD6
:1022700052E00000240400101000001004020010BE
:102280000A020010045E00101804001068EA07201B
:1022900028C00720125900101C0400102CC0072071
:1022A0002004001036C00720EA010010300400109E
:1022B000F00100103CC00720F6010010F2010010F0
:1022C0003AC00720EE01001064010010A4EC0720C2
:1022D0005EC007202D02001026040010A20200108C
:1022E000F80100101C020010F4010010E8010010B9
:1022F00078040010E601001074C0072030C00720E9
:10230000A802001014020010AE0408206A04001095
:10231000AE0200107AC007209CFBF0FBDFF828C457
:10232000ACF800B0B3F908E0B4F902B00BFB0EFB57
:102330009BFBF0FBACF802B0B3F90A30B4F90440EF
:1023400004FB03F494FBF0F0ACF80400BAF80200CC
:10235000FE4C00F211100FFA80FCA4F800C0BAF88D
:10236000040000F211100FFA80FAA4F802A099F804
:102370000130237299F802006072F54C03B910B174
:10238000012B0AD00AE00CEB0A0000EBD0706FF4CE
:10239000887303EB600020801EE008B12BB106E0DB
:1023A000AAF2111AA4F800A016E0012802D0012B0D
:1023B00005D011E0ACF2111CA4F800C00CE001281B
:1023C0000AD1E4480078052803D2E3480088208039
:1023D00002E04FF014002080E04B1878552805D11A
:1023E000B8F1C80F02DDDE483489048758785528D3
:1023F0000BD1B6F94E00C82807DDB6F95400B6F97E
:102400000830984201DDD64B1887D5483B880387B2
:102410004FF000033FE003EB830000EBC30005EB4C
:10242000C000C478192C28D28479C77904EB07241A
:102430004462047A477A04EB07240462847AC77AF8
:1024400004EB0724C461047B8462447B80F856401B
:10245000847B80F84640047C477C04EB07240463BB
:10246000847CC77C04EB0724A0F85E40047D477D94
:1024700004EB0724A0F860400AE0C26142620262F5
:10248000826280F846200263A0F85E20A0F86020F7
:1024900003F10103DBB28B42BDDBB24CB6F908306D
:1024A0004FF00A0093FBF0F3B6F9546096FBF0F09E
:1024B0001844C0F1000007B22780AB4E32804FF0C5
:1024C000000012E000EB800303EBC00305EBC30345
:1024D00093F803C0BCF1050F04D25B6AB6F800C0E4
:1024E0006344338000F10100C0B28842EADB3088E7
:1024F000384400B22080002800DA22802280328016
:102500004FF000000FE000EB800303EBC00305EB8E
:10251000C303DF78052F03D25B6A37883B443380DF
:1025200000F10100C0B28842EDDB318802EB01000E
:1025300000B22080002800DA22808C48B0F90040E8
:10254000002C66D04FF00003894E60E003F11400C8
:1025500000EB800101EBC00005EBC000C178192938
:1025600039D28179C77901EB072703EB430106EBE9
:102570004111CF61077A90F809C007EB0C27CF62B1
:10258000877A90F80BC007EB0C278F61077B0F62EF
:10259000477B81F84670877B90F80FC007EB0C27CC
:1025A0008F62077C90F811C007EB0C274F628A708E
:1025B000877C81F85970C77C81F85A70077D81F853
:1025C0005870477D81F85B70877D81F85C70C07DB5
:1025D00081F85D0018E003EB430006EB4010C26198
:1025E000C2628261026280F84620426282624FF0DB
:1025F0001901817080F8592080F85A2080F85820FD
:1026000080F85B2080F85C2003F10103DBB2A34279
:102610009CDBBDE8FE8F5748416821F4402141F41E
:1026200080214160416821F4403141F480314160B2
:10263000416821F4404141F480414160416C21F402
:10264000402141F400214164416C21F4403141F4C6
:1026500000314164416C21F4404141F40041416446
:102660004548016821F0E0610160016841F4001112
:102670000160016821F480310160016821F47F412B
:1026800041F4807101604FF48071C1603B484FF4A8
:102690008001016070472DE9F041314C723460884F
:1026A0002188401A00B203F0B6FAA61D3080A08837
:1026B0006188401A00B203F0AEFA7080A0882188C9
:1026C000401A00B203F0A7FAB0804FF49671244D7F
:1026D000884202DAA08868850CE0B6F902008842D8
:1026E00002DA6088688505E0B6F90000884201DA00
:1026F00020886885EF7800262FB32148B5F92A1085
:1027000002680A44026042680A44426082680A44DD
:102710008260C2681144C160698E01F1010109B291
:102720006986B1F5805F00DB6E86B5F932108A05E7
:102730004ED14FEAA12150F821204FEA22222A85CA
:1027400040F8216044E01DE0B40200104804082075
:102750000C020010EA000010680400109201001042
:1027600010000010EC0100106CC007206601001082
:102770006CF8072000C002400040034000E100E088
:10278000245E0010F9482C796A7900EB8413B5F9BE
:102790002A1043F8221090070DD1014653F820C0AB
:1027A000614400F10100C0B21028F7D34FEA2110B4
:1027B000EF4921F81400641CE0B22871102807D3F7
:1027C0002E7102F10102D0B26871102800D36E712F
:1027D000AE7007F1010707F00100E870E54A30B17B
:1027E000106820F0FF0000F1040010603DE029793E
:1027F000080706D4106820F0FF0000F10100106007
:1028000005E0106820F0FF0000F102001060DA48D7
:10281000036843F080530360036A43F0804303621C
:10282000036E43F080630366CB070AD0436943F02D
:10283000805343618B0709D4436B23F08043436388
:1028400008E0436923F080534361F3E7436B43F0AF
:1028500080434363490704D4416F21F0806141679D
:1028600003E0416F41F080614167106840F0807083
:102870001060BDE8F0812DE9F047C04FF87B0028DB
:1028800005D1B7F9220020B1A0F101007884BDE89C
:10289000F087787B0A2803D200F101007873F6E70D
:1028A0004FF000057D73BD73387C4FF0010608B111
:1028B0003D7400E03E744FF00000B249B04CB1F9F5
:1028C000002012E000EB800101EBC00104EBC1012C
:1028D0008B78022B06D1C978142903D2B97B01F178
:1028E0000101B97300F10100C0B29042EADBBB7B89
:1028F000022BCCD341F28830B8657D65FD654FF081
:1029000000011CE001EB810000EBC10004EBC00002
:1029100090F802C0BCF1020F0ED1406AD7F854C043
:10292000604500DD7865D7F858C0604500DAB865C5
:10293000D7F85CC06044F86501F10101C9B2914269
:10294000E0DBF86D90FBF3F03866B86D00B9BE655A
:10295000786D4FF0640100FB01F0B96D90FBF1F070
:102960007866A02800DD3E73782800DA3D73387B56
:10297000012814D14FF000016FF031090DE001EB97
:10298000810000EBC10004EBC0008378022B12D061
:10299000A0F8625001F10101C9B29142EFDB7A481F
:1029A0007A49B0F90000B1F90010401A142851DA40
:1029B0004FF000004CE0436A4FF0640C03FB0CF84E
:1029C000D7F860C0BCF1000F00D13E66D7F860C0F8
:1029D00098FBFCF80FFA88F8A0F86280B3F5FA7F4C
:1029E0001CDA63450DDDB8F1780F0ADD97F810A009
:1029F000BAF1000F05D1B0F854A0AAF1010AA0F86D
:102A000054A063450ADAB8F1500F07DA3B7C2BB1CA
:102A1000B0F8543003F10103A0F85430B0F9543049
:102A20004B4501DAA0F85490B0F95430322BB1DDA7
:102A30004FF03203A0F85430ACE700EB800101EB1B
:102A4000C00104EBC101A1F8545000F10100C0B273
:102A50009042F2DB00BF1AE710B54849B1F92400F3
:102A600018B1A0F10100888410BD4FF005008884E2
:102A70004748454BB0F900204648B3F90010B0F97B
:102A80000000A0F10504A24209DA01F101010AB235
:102A90001A8000F132018A420DDD19800BE0441DDD
:102AA000A24208DDA1F101010AB21A80A0F13201AF
:102AB0008A4200DA1980188010BD70B54FF000030B
:102AC0001A4610462F492E4CB1F9005011E000EB88
:102AD000800101EBC00104EBC10149784E0701D030
:102AE0004FF00103090701D54FF0010200F1010089
:102AF000C0B2A842EBDB2849B1F900001BB140F09D
:102B00000100088002E020F00100088023480078DE
:102B100010B1012805D008E0088820F002000880E4
:102B200003E0088840F0020008801D48007810B1DA
:102B3000012805D008E0088820F00400088003E0A0
:102B4000088840F0040008801648007820B1012869
:102B500007D0022828D02BE0088820F01800088031
:102B600026E0088840F01000088021E0045A001098
:102B7000045E00100040034000C009201000001057
:102B8000A4EC07206401001010010010F2010010F5
:102B9000F00100100E010010A4C00720F100001089
:102BA000F4000010F2000010088840F008000880CF
:102BB000FF48007820B1012807D002280AD00DE094
:102BC000088820F06000088008E0088840F0400095
:102BD000088003E0088840F02000088022B10888BF
:102BE00040F08000088003E0088820F08000088022
:102BF000F048007820B1088840F48070088003E035
:102C0000088820F4807008804FF00000B1F900506F
:102C1000E94CEA494FF0010634F910202A4206D067
:102C20000B8806FA00F242EA03020A8005E00B88EC
:102C300006FA00F223EA02030B8000F10100C0B2A1
:102C40000428E9D370BD70B5DD480168DD4A01EAAA
:102C500002010160DC4C216841F47C712160C16992
:102C600021F44021C161216E41F00071216641686B
:102C700021F040614160206840F0005020604FF03A
:102C8000D200FDF7BBFACD4ED04D10B128686528B3
:102C900015D03088C0071ED0A06F40F00070A0672C
:102CA000D220FDF7ABFA10B12868662818D030881A
:102CB000800724D4E06940F08000E06123E0686888
:102CC00020B1A06F40F00070A067E9E7E06F40F02E
:102CD0000070E067E4E7E06F40F00070E067DFE776
:102CE000686810B1012805D00DE0E06940F080006F
:102CF000E06108E0A06940F08000A06103E0A06905
:102D000040F08000A061D220FDF778FA10B1286869
:102D1000672807D03088400713D4E06940F01000DE
:102D2000E06112E0686810B1012805D00DE0E069AB
:102D300040F01000E06108E0A06940F01000A061E0
:102D400003E0A06940F01000A061D220FDF756FA20
:102D500010B12868682807D03088000712D4E069CD
:102D600040F40070E06170BD686830B10128FAD1AC
:102D7000A06940F40070A06170BDE06940F400708B
:102D8000E06170BDA06940F40070A06170BD2DE9E4
:102D9000F05F8F4E00274FF0010A307D0A2808D2DD
:102DA00000F10100C0B230750A2802D3377586F8E9
:102DB00015A0A6F84470A6F84670CD20FDF71EFABF
:102DC000DFF81082DFF810B2A0B3804A4FF6FF732D
:102DD0001068CE2801D1A6F84630CF2802D151681C
:102DE000A6F84610D12802D15168A6F84410D2287E
:102DF00001D1A6F84430D02806D15068A6F8440086
:102E00006FEA0000A6F846004FF0000437E0B6F87D
:102E100046000AFA04F919EA000F0CD004EB84000A
:102E200000EBC40008EBC00030F8441F01F10101C1
:102E3000018008E028E004EB840000EBC40008EB0C
:102E4000C000A0F8447004EB840000EBC40008EB61
:102E5000C00505F1440032220021FDF727FAB5F93B
:102E60004400142801DD85F82CA0B6F8440019EAC6
:102E7000000F01D085F82C7004F10104E4B2BBF915
:102E800000008442C3DD7CE0707DF0B34FF00004AD
:102E90002146BBF900000AE001EB810202EBC1020E
:102EA00008EBC20282F82CA001F10101C9B28142F3
:102EB000F2DD4FF0000122E0C2B2202A01D94FF02A
:102EC0002002B37E834201DB4FF000030B44DBB2F0
:102ED000B3FBF2F502FB153202EB820303EBC202F5
:102EE00008EBC2029378032B01D0022B04D182F8A5
:102EF0002C7004F10104E4B201F10101C9B2814274
:102F000006DA364AB2F9002000E03AE09442D3DB18
:102F1000F17E01EB810202EBC10108EBC10181F8F6
:102F20002C702F49B1F900103C290FDA4FF0000145
:102F30000AE001EB810202EBC10208EBC20282F857
:102F40002C7001F10101C9B28142F2DD25490988E5
:102F500079B14FF000010AE001EB810202EBC102FE
:102F600008EBC20282F82CA001F10101C9B2814232
:102F7000F2DD4FF0000102E001F10101C9B281422E
:102F8000FADD4FF000004FF06304BBF900302CE095
:102F900000EB800101EBC00108EBC1010A6C22B11A
:102FA00081F82C40A2F101020A6400F101001BE04B
:102FB000F30000109AC00720BA0200109604001017
:102FC00000C00240FF00F0FF00C009209C0000107C
:102FD00010000010A4EC0720640100106004001031
:102FE000F800001098C00720C0B29842D0DB777577
:102FF00077744FF00001084613E000EB800202EB0B
:10300000C00208EBC2029478022C07D1747C04F150
:1030100001047474D2698A4200DD91B200F10100AA
:10302000C0B29842E9DBB187BDE8F09F70B50A23D2
:10303000FF4CFE48002522680068B2FBF3F6B0FBA7
:10304000F3F1FC4AB1420BD111780F2902D201F100
:103050000101117011780A2903D3F749086000E0D3
:1030600015702060F548F64CB0F90000B4F9002066
:10307000B0FBF3F1B2FBF3F3F24A99420BD11178B2
:103080000F2902D201F10101117011780A2903D32D
:10309000ED49088000E01570208070BD2DE9F043F7
:1030A00085B0EA4CEA4E00252078401CC0B2207062
:1030B0000A2840D32570DFF89CC39CF8000000F17B
:1030C00001008CF80000E448E449B0F900000880F1
:1030D000E349DFF8908362463746B1F90010527831
:1030E000B8F90030B7F90070884206DDA0EB01099D
:1030F000B9F10A0F01DB012F07D0884216DA081A4E
:103100000A2813DB012F09D010E002F101028CF82C
:103110000120A3F10103A8F8003007E0A2F10102A9
:103120008CF8012003F10103A8F800301422514269
:10313000CC48FDF7BBF82078DFF82C83CB4F08286C
:1031400025D13088012822D1B8F800008DF8000080
:103150004FF004008DF801008DF802504FF002008E
:103160008DF803008DF804504FF001008DF8050034
:103170004FF0060168461CF06DFE8DF806004FEA20
:1031800020208DF80700B7F90000E8B30128B848FF
:103190006FF01402B0F90000C0EB001102EB8101E6
:1031A000B44AB2F94220914234D13188012931D157
:1031B000B8F800108DF800104FF006018DF80110DE
:1031C0008DF802504FF01E018DF803104FEAE071A8
:1031D00000EB11614FEA21228DF804208DF80500E3
:1031E0004FF0060168461CF035FE8DF806004FEAE8
:1031F00020208DF80700388800280BD104466D4642
:10320000285D1DF037FF00E007E004F10104E4B29F
:10321000082CF5D305B0BDE8F0834FF00004E94673
:1032200019F804001DF026FF04F10104E4B2082C93
:10323000F6D3ACE72DE9F041064606EB860000EB3D
:10324000C6018D4810F83120032A77D100EBC10464
:1032500094F84650A80717D5B4F94A104FF496626F
:10326000914222DA01F1010108B2A4F84A00904229
:103270001BDBA4F84A206078C00716D10122002188
:10328000304601F0DEFC10E0B4F94A1069B1A1F15A
:10329000010108B2A4F84A0038B96078C00704D028
:1032A00000221146304601F0CCFC28074FF00A07F7
:1032B0004FF0000815D5B4F94C100A2926DA01F1AF
:1032C000010108B2A4F84C000A281FDBA4F84C70D6
:1032D000607880071AD401221146304601F0B1FC13
:1032E00014E0B4F94C1000290DDDA1F1010108B280
:1032F000A4F84C0050B94FF000024FF001013046E5
:1033000001F09FFC02E001DAA4F84C80E80616D533
:10331000B4F94E000A2820DA00F1010000B2A4F846
:103320004E000A2819DBA4F84E706078400714D4C8
:1033300001220221304601F084FC0EE045E0B4F9A0
:103340004E0050B1A0F1010000B2A4F84E0020B927
:1033500000220221304601F074FC6078000703D09F
:103360004FF00500A07016E04448007828B1E078DE
:10337000142802D984F802800DE094F846008006F3
:1033800003D54FF00300A07005E0E078142802D2C6
:103390004FF00200A070E0780A2806D394F82C00C1
:1033A00040F0800084F82C0005E094F82C0000F038
:1033B0007F0084F82C002F49B4F95400B1F91E1095
:1033C000084460634FF4FA60A063BDE8F08170B513
:1033D0004FF000002A492B4D4FF00104B1F90C20A9
:1033E000034604FA00F10A4201D02C5400E02B54A9
:1033F00000F10100C0B20C28F3D3234E2878234CEF
:10340000317881420BD0B4F90010012907DB012883
:103410007ED0002301220B211DA017F0EDFF717853
:103420006878814248D0B4F900103BE07004001085
:1034300080C0072086C007206402001084C00720D7
:10344000740400107604001018020010F000001040
:103450007A010010720408205EC0072024020010C8
:1034600026020010280200107E0100107C010010CE
:103470003601001010000010A4EC0720DF0000103F
:10348000AE04082066040820C20408206C01001065
:103490004176746F6D6174202331206973204F462B
:1034A00046000000022907DB01287ED0002302220B
:1034B0000B21F9A017F0A0FFB178A87881420BD0BA
:1034C000B4F90010032907DB01286FD00023032281
:1034D0000B21F6A017F090FFF178E87881420BD02D
:1034E000B4F90010042907DB01287AD00023042254
:1034F0000B21F3A017F080FF3179287981420DD09C
:10350000B4F90010052909DB012872D0002300E07E
:1035100051E005220B21EFA017F06EFF7179687959
:1035200081420BD0B4F90010062907DB012867D0CF
:10353000002306220B21ECA017F05EFFB179A879D9
:1035400081420BD0B4F90010072907DB01285ED0B7
:10355000002307220B21E9A017F04EFFF179E8794B
:1035600081420BD0B4F90010082907DB012855D09F
:10357000002308220B21E6A017F03EFF317A287ABB
:1035800081420BD0B4F90010092907DB01284CD087
:10359000002309220B21E3A017F02EFF4FF00000BB
:1035A000295C315400F1010001E00BE012E0C0B2EF
:1035B0000C28F5D370BD01231A460B21DEA017F0AD
:1035C0001BFF2CE7012302220B21E0A017F014FFC0
:1035D00072E706E0012303220B21E1A017F00CFFA4
:1035E0007AE7012304220B21E2A017F005FF83E70D
:1035F000FFE7012305220B21E3A017F0FDFE8DE775
:10360000012306220B21E5A017F0F6FE96E7012321
:1036100007220B21E6A017F0EFFE9FE70123082207
:103620000B21E8A017F0E8FEA8E7012309220B21EF
:10363000E9A017F0E1FEB1E730B4EC48B0F90000C2
:103640001E282EDBEA48EC4BB0F90020E948B0F91F
:103650000010B3F900008A4215DA8C1A322C12DD00
:10366000E649B1F9001001EB8101B0EB410F18DA26
:1036700000F1010000B21880B0EB410F11D130BC55
:10368000012001F0E8BC14398A420ADD002808D084
:10369000A0F1010000B21880002802D130BC01F076
:1036A000DABC30BC70472DE9F041D048B0F90000D9
:1036B0000A287DDBCE4ED248D24FB6F90010B0F9C1
:1036C0000020B7F900000025CC4C914217DDB4F979
:1036D000002002EB8203B0EB430F0ADA00F1010095
:1036E00000B23880B0EB430F15DB012001F09DFEE6
:1036F00011E002EB82004FEA400038800BE0002826
:1037000008DDA0F1010000B2388020B9002001F0EE
:103710008CFE00E03D80BC48B6F90010BB4EB0F90D
:103720000000814219DAB4F90000B6F9002000EB7C
:103730008003B2EB430F0ADA02F1010210B23080CB
:10374000B0EB430F17DB022001F06FFE13E000EB3C
:1037500080004FEA400030800DE0B6F900000028FC
:1037600008DDA0F1010000B2308020B9002001F096
:103770005CFE00E03580A64EA648A74FB6F90010C3
:10378000B0F9000081421ADDB4F90000B7F9002059
:1037900000EB8003B2EB430F0BDA02F1010210B22F
:1037A0003880B0EB430F18DB012001F08EFF14E0EE
:1037B00035E000EB80004FEA400038800DE0B7F9BB
:1037C0000000002808DDA0F1010000B2388020B917
:1037D000002001F07AFF00E03D809048B6F900102B
:1037E0008F4EB0F9000081421ADAB4F90000B6F940
:1037F000002000EB8003B2EB430F0BDA02F1010271
:1038000010B23080B0EB430F09DBBDE8F04102207D
:1038100001F05BBF00EB80004FEA40003080D4E550
:10382000B6F90000002809DDA0F1010000B23080E7
:103830000028F4D1BDE8F04101F047BF3580C4E570
:1038400030B46A48B0F900000A2822DB7548774C8A
:10385000B0F900107448B0F90020B4F900009142AA
:1038600018DD664AB2F9002002EB8203B0EB430F89
:103870000ADA00F1010000B22080B0EB430F08DB50
:1038800030BC012002F07AB802EB82004FEA40001F
:10389000208006E7CCE000004176746F6D617420F3
:1038A0002332206973204F46460000004176746F32
:1038B0006D6174202333206973204F464600000059
:1038C0004176746F6D6174202334206973204F46F4
:1038D000460000004176746F6D61742023352069C5
:1038E00073204F46460000004176746F6D6174206E
:1038F0002336206973204F46460000004176746FDE
:103900006D6174202337206973204F464600000004
:103910004176746F6D6174202338206973204F469F
:10392000460000004176746F6D6174202339206970
:1039300073204F46460000004176746F6D6174201D
:103940002331206973204F4E200000004176746FB0
:103950006D6174202332206973204F4E20000000D7
:103960004176746F6D6174202333206973204F4E4C
:10397000200000004176746F6D617420233420694B
:1039800073204F4E200000004176746F6D617420EB
:103990002335206973204F4E200000004176746F5C
:1039A0006D6174202336206973204F4E2000000083
:1039B0004176746F6D6174202337206973204F4EF8
:1039C000200000004176746F6D61742023382069F7
:1039D00073204F4E200000004176746F6D6174209B
:1039E0002339206973204F4E20000000F80000109A
:1039F000F00100100E0100109CC0072034010010DF
:103A00002601001090040010280100109EC007201D
:103A1000F201001022010010920400102401001095
:103A2000A0C00720F8010010180100109404001035
:103A3000002809DDA0F1010000B2208000287FF4F9
:103A400028AF30BC01F09ABF4FF00000208028E67C
:103A500038B5FF49FF4C098881B1FF49097821B188
:103A60004FF01401ADF8001003E0FC490988ADF8EF
:103A70000010FB4ABDF9001011602080F948008851
:103A800010B1F94800882080BE20FCF7B7FB28B1B0
:103A9000F6480168BF2901D140682080F4480088B9
:103AA00020B1F4492088098808442080B4F9000036
:103AB0004FF0620100FB01F14FF0640291FBF2F163
:103AC000ED4B19804FF0660100FB01F090FBF2F026
:103AD000EA49088038BD2DE9F041E94CB4F92600E7
:103AE00010B1A0F10100E084E648E74D008828808D
:103AF000E64E0A27B6F90800002806DAFCF700FCB3
:103B000090FBF7F0298808442880B6F95400002873
:103B100006DAFCF7F5FB90FBF7F0298808442880CB
:103B2000DB48B5F90010B0F9000091FBF0F000F1AE
:103B30000100C0B2A074D74AB2F9002091FBF2F1A3
:103B400001F10101C9B2E174D34B4FF03C05B3F967
:103B50000020904202DD1880E58405E0914203DAFE
:103B6000E08C08B91980E584CC48B0F900201A80AF
:103B7000BDE8F0410121C848FCF798BB2DE9F047AA
:103B8000C748DFF8FC82B0F90010A8F83A10B54831
:103B9000008818B1C3480088A8F83A00B8F94E0068
:103BA00018B1A0F10100A8F84E00B8F9500018B102
:103BB000A0F10100A8F85000B4484FF00A0990F8AD
:103BC0003F20920703D190F88B00800703D091FB30
:103BD000F9F0A8F83A00B4480125B0F90010491EE0
:103BE000052900D30580B0F90000002400EB800116
:103BF00098F80700B0EB410F0BDA00F10100C0B2FA
:103C000088F80700B0EB410F03DB88F8074088F81D
:103C10000850E120FCF7F2FA8E4BA44AA44E40F281
:103C2000DA7700287ED09149086864280AD069288C
:103C30000FD0DFF880C26E2813D0E52833D0E628F5
:103C400035D066E14968B8F820000844A8F81E009D
:103C50005FE14868B8F82010A1EB0000A8F81E004A
:103C600057E1B8F81E00A0F1010000B2A8F81E004C
:103C70001E2806DD9049BCF90000B1F90010884209
:103C80000EDA98F80100401CC0B288F80100FA284A
:103C900005D10A230022E721E620FCF770FA38E17B
:103CA00088F8014035E14868A8F81E0031E1BCF908
:103CB0000010B3F9000081421FDD4FF00B0188F8BE
:103CC0001D10B2F90010A1EB0000282808DDB8F99A
:103CD0001E00002804DDA0F10500A8F81E0018E170
:103CE000B8F91E00002807D098F80810002903D062
:103CF000A0F10100A8F81E000BE1B2F9001081420A
:103D000013DA4FF00C0288F81D20A0EB01002828E0
:103D10000CDDB8F91E0040F2DF71884206DA00F1CE
:103D2000050000E010E0A8F81E00F2E0B8F91E005F
:103D300040F2E471884233DA98F8081081B300F158
:103D40000100A8F81E00E4E098F8080040B35B48C2
:103D5000008818B196F84303282821D9B8F9200023
:103D6000A8F836004FF0130188F81D10B8F938C0D4
:103D7000B8F83A109CFBF9F9B9EB410F11DD4FF09F
:103D8000140188F81D10B8F84E1021B1A0F10100FF
:103D9000A8F836003AE0A0F10A00A8F8360035E0AD
:103DA000B7E014DAC1EB011AE24510DA4FF0150161
:103DB00088F81D10B8F84E1021B1A0F10100A8F844
:103DC000360023E0A0F10300A8F836001EE0C1EBA6
:103DD000011AE2450ADD894508DD4FF0160188F831
:103DE0001D10A0F10100A8F836000FE0B2F90000A4
:103DF000B3F90010884204DA4FF0170088F81D006C
:103E000004E003DD4FF0210088F81D002C4840F24B
:103E10008A22B0F900102B48B0F90000A1EB000095
:103E20004FF4FA6100FB01F191FBF2F1A8F83610B2
:103E3000002801DAA8F8364011483A460A213630FF
:103E4000FCF734FAB8F83600A8F820003CE000008F
:103E5000560100100E0200102D020010A2020010E8
:103E600068C0072088040010840400109C00001023
:103E70007A0100102802001064C007205E040010C0
:103E8000100000106CC007206204001068EA0720D0
:103E90002C0100102E0100106004001064010010BD
:103EA0003001001090C007208E010010EE010010BC
:103EB000A4EC0720EA0100101C0100101C020010F5
:103EC00010010010F2010010A8F81E00FF4A98F837
:103ED0000B1022F8110001F10101C8B288F80B00A3
:103EE000102801D388F80B404FF00001084632F942
:103EF0001030194400F10100C0B21028F7D34FEA86
:103F0000211000B2A8F83E00F149098809B1A8F8CB
:103F10001E0088F80A4088F80940EE48B0F90020F1
:103F20001BE001EB810000EBC10006EBC000C37891
:103F30001E2B01D288F80A5000F12C00B8F81EC0E0
:103F4000038D6344038710F82C39DB0701D0A0F8F8
:103F5000644001F1010188F8091098F809109142B4
:103F6000DFDB98F80A0038B94FF49660A8F81E0015
:103F7000A8F82000A8F836003A460A21D648FCF7EF
:103F800095F988F80840BDE8F0872DE9F05F4FF01B
:103F90000000CF4AD14BD24D4FF0010A4FF00A0B2F
:103FA0000646B2F9004026E0CE49C84F095C403FC2
:103FB00037F91110B1F5FA6F0EDA19560A2908DA35
:103FC00001F1010149B219540A2911DB05F800A0D9
:103FD0000EE003F800B00BE01956002907DDA1F14F
:103FE000010149B21954002902DC2E5400E01E548C
:103FF00000F10100C0B2A042D6DB4FF00004DFF8B0
:10400000E892BA4FDFF8E88283E0BA4830F914004A
:1040100010B9295D01290FD008B1285D60B119F9E7
:104020000400002819DBA0F1010040B209F80400E7
:10403000002814DC3E5512E019F904000A2809DAB8
:1040400000F1010040B209F804000A2807DB07F874
:1040500004A004E009F804B001E009F8046018F8CD
:104060000410385D81424ED09B4A1E3A918E01F178
:1040700001019186012807D054B3012C2FD0022CC6
:1040800034D0032C39D03EE034B1012C0BD0022CBB
:1040900010D0032C15D036E001231A460F2196A02C
:1040A00017F0AAF92FE0012302220F2195A017F0A3
:1040B000A3F928E0012303220F2195A017F09CF912
:1040C00021E0012304220F2194A017F095F91AE0B2
:1040D000002301220F2194A017F08EF913E0002392
:1040E00002220F2195A017F087F90CE0002303228C
:1040F0000F2197A017F080F905E0002304220F217B
:1041000098A017F079F9385D08F8040004F101046B
:10411000E4B26F48B0F900008442FFF676AFBDE824
:10412000F09F954A4FF0010010709449087050704C
:10413000487070472DE9F05F9248DFF84C92DFF845
:104140004082B0F900C0B9F90000634CC0EB001127
:104150001E3CB8F902706FF01D0A6FF0950B002538
:10416000854EB4F942000AEB81020BEB81036745EF
:1041700005DCDFF818C2BCF900C0674504DA8242EA
:1041800002DD834200DA3570814FB8F908C0B7F913
:1041900000E07A4FBCEB4E0F04DCCEF1000EBCEB1E
:1041A0004E0F04DA824202DD834200DA3D706FF086
:1041B000090202EB8101814220D1A07DF0B9307863
:1041C00001281BD13878012818D14FF4D67018F087
:1041D0009CFF7049B1F9001088420FD06E480088EA
:1041E00060B198F83D00C00708D14FF4D67019F0BF
:1041F0008AF86A48017801F1010101706148B8F953
:104200000210B0F90000814206DC6048B8F94E1097
:10421000B0F9000081420EDAB9F90000B4F9421099
:10422000C0EB00100AEB80028A4204DD0BEB800039
:10423000884200DA75705649B8F95400B1F9001097
:10424000B0EB410F03DC4942B0EB410F0EDAB9F994
:104250000000B4F94210C0EB00100AEB80028A4261
:1042600004DD0BEB8000884200DA7D70B9F90000B4
:10427000C0EB00116FF0090000EB8100B4F94210AF
:10428000884221D1A07DF8B9707801281CD17878B6
:10429000012819D14FF4E575284618F036FF3D493D
:1042A000B1F9021088420FD03B48008802280BD198
:1042B00098F88900C00707D1284619F024F8374834
:1042C000017801F1010101706AE00000445E001014
:1042D0006A010010640100102E000010540200104A
:1042E000300200108A40020060C007203402001033
:1042F0005A040010C2020010534B20233120416C9D
:1043000061726D00534B20233220416C61726D004D
:10431000534B20233320416C61726D00534B20239B
:104320003420416C61726D00534B20233120416C6D
:1043300061726D206973206F66660000534B202305
:104340003220416C61726D206973206F66660000D7
:10435000534B20233320416C61726D206973206FB1
:1043600066660000534B20233420416C61726D203F
:104370006973206F666600006EC007206404001039
:1043800068EA07205E0400103601001064C00720B0
:104390002A0100104EC007206001001070C00720E5
:1043A000B9F900006FF00101C0EB001001EB8000D3
:1043B000B4F94210884202D1BDE8F05FB1E6AEE642
:1043C0002DE9F003FA48FB4FFB4E00784FF0000C4C
:1043D0004FF00108E8B3F9483946B0F90050F84801
:1043E000B1F90010B0F90090F6484D45B0F9002041
:1043F000F548B0F90030F548B0F90040F448B0F99C
:10440000000013DA824203DB834201DB84420DDACF
:10441000F048B0F90020914223DA01F1010108B21D
:10442000388090421DD186F800C01AE0DFF8A8C39A
:10443000BCF900C0654514DD824212DD834210DD07
:1044400084420EDD69B1A1F1010108B2388040B9A2
:1044500000E002E086F8008003E0A7F800C086F8DC
:1044600000803078002807D1BDE8F0030F23012237
:104470006E21D220FBF783BEBDE8F00370472DE923
:10448000F041D64CA07EE0764FF00005A576D44EE4
:10449000B6F90000002802DDB0F5FA7F02DD3580B4
:1044A000BDE8F081207F00F10100C0B220773C28F8
:1044B0001AD325774FF49477384618F026FE00F18A
:1044C000010000B2A4F85200C64AB6F90010B2F9D1
:1044D000002001FB02F1814201DCA4F85250B4F942
:1044E0005210384618F00FFFB4F95200B6F9001018
:1044F00090FBF1F0A076D3E710B500214FF4947053
:1045000018F001FFB5494FF03A00087710BD2DE9CA
:10451000F0414FF00002B348B34FB0F900606EE0D5
:1045200002EB820000EBC20007EBC000417B8B096D
:1045300006D00123B3EB911F05D180F859100FE08D
:1045400080F858100CE00223B3EB911F02D180F8E1
:104550005A1005E00323B3EB911F01D180F85B10E3
:1045600010F8581FC1F30114437803F0300544EAF2
:104570009505847804F0300C4CEA050CC578A0F160
:10458000580005F030084CEA880C01F00F0103F0E8
:104590000F0383EA010804F00F0484EA080805F019
:1045A0000F0585EA0808E04513D14FEA051544EAEE
:1045B00005044FEA041443EA04034FEA03534FEAA5
:1045C000134341EA0301B0F85C308B4201D0A0F8FC
:1045D0005C108649B0F85C30B1F9001001EB810144
:1045E000B3EB410F04DD417841F01001417003E06D
:1045F000417821F01001417002F10102D2B2B242C1
:104600008EDB4DE72DE9F04F87B07948734C79493F
:10461000794A007894F90030B1F90010B2F900201D
:1046200048B102283CD001287ED04FF00100207014
:1046300007B0BDE8F08F714FDFF8C481B7F90A0009
:104640003D7BB7F9566098F800C097F8587098F815
:1046500001802BB1012BEBD1BCF1550F15D110E02E
:10466000BCF1550F02D1884207DC35B9B8F1550FBE
:10467000DED18E4201DC002FDAD04FF00100207035
:10468000D6E79042D4DA002DD2D1B8F1550F03D13C
:104690009642CDDA002FCBD14FF000002070C7E753
:1046A000514E5048B56AB0F90000F67818B18D4205
:1046B0007ADC1E2E78D2DFF830C10128DCF8907049
:1046C0009CF86BC0CDF818C006DD8F426CDCDDF8BD
:1046D00018C0BCF11E0F67D2DFF80CC10228DCF84D
:1046E000F880CDF814809CF8D3C0CDF810C008DD58
:1046F000DDF814C08C4557DCDDF810C0BCF11E0F8E
:1047000052D2DFF8E4C00328DCF86081CDF80C80D9
:104710009CF83BC1CDF808C00ADDDDF80CC08C4523
:1047200042DCDDF808C000E0AAE0BCF11E0F3BD27D
:10473000DFF8B4800428D8F8C8C198F8A381CDF870
:10474000048006DD8C452FDCDDF80480B8F11E0FF7
:104750002AD2DFF894900528D9F8308299F80B9284
:10476000CDF8009006DD88451EDCDDF80090B9F13B
:104770001E0F19D2DFF870A006289AF873E2DAF853
:10478000989204DD89450FDCBEF11E0F0CD2DFF8D4
:1047900058B00728DBF800A39BF8DBB232DD8A456E
:1047A00002DCBBF11E0F2DD34FF0010020703FE75C
:1047B000D500001088C0072026C00720EA0100109D
:1047C00052010010FE010010000200100202001051
:1047D0001E010010500100105401001010000010C4
:1047E0005E01001064010010A4EC072078010010A5
:1047F0003A0400103604001042C0072068EA07207F
:1048000092010010012BD2D118B19542CFDA0A2EB5
:10481000CDD2022804DB9742C9DA06990A29C6D20A
:10482000032805DB05999142C1DA04990A29BED211
:10483000042805DB03999142B9DA02990A29B6D214
:10484000052804DB9445B2DA01990A29AFD206287B
:1048500004DB9045ABDA00990A29A8D2072804DBCB
:104860009145A4DABEF10A0FA1D2082804DB9245D3
:104870009DDABBF10A0F9AD24FF000002070D7E604
:104880003348344D344EB0F90000B5F90050367855
:1048900010B18D421DDCE6B92E4FDFF8BCC00128F7
:1048A000B7F902709CF801C004DD8F4211DCBCF145
:1048B000000F0ED1DFF89C80DFF89C900228B8F939
:1048C000048099F8029008DD884502DCB9F1000FF8
:1048D00003D04FF001002070AAE6012BCFD118B110
:1048E0009542CCDA002ECAD1022804DB9742C6DA00
:1048F000BCF1000FC3D1032804DB9045BFDAB9F146
:10490000000FBCD14FF00000207091E6134814490D
:104910000022B0F900300878142B09DD052803D2F5
:1049200000F10100087007E04FF00500087003E097
:1049300010B1A0F10100087008780A49052803D0D9
:10494000002800D10A7070474FF0010008707047CE
:1049500068010010A20200102D020010F6010010E4
:104960008C0400109AC0072030B5FF48FF4A017838
:10497000106819B140F00100106002E020F0010061
:1049800010604FF00000FA4C4FF0010300EB4001C3
:1049900001EB001104EB810191F83D10C9070AD029
:1049A00000F1010503FA05F1156825EA010545EA5C
:1049B0000105156007E000F1010503FA05F115682E
:1049C00025EA0105156000F10100C0B20228DDD31F
:1049D0004FF00000E74C00EB800101EBC00104EB5D
:1049E000C101497811F0EF0F0AD000F1030503FA75
:1049F00005F1156825EA010545EA0105156007E09E
:104A000000F1030103FA01F5116821EA05011160C3
:104A100000F10100C0B20C28DDD34FF00000D34CF0
:104A200004F11404215C51B100F10F0503FA05F102
:104A3000156825EA010545EA0105156007E000F162
:104A40000F01156803FA01F125EA0105156000F16F
:104A50000100C0B20628E5D34FF00000C64D1C4649
:104A6000295C012914D000F1180104FA01F311683E
:104A700021EA0301116000F10100C0B20428EFD364
:104A8000BE48007878B1106840F0805010600EE0A9
:104A900000F1180304FA03F1136823EA010343EA5F
:104AA00001031360E7E7106820F0805010609468FD
:104AB000106820EA0401D160536843EA010353609F
:104AC000AF490D8815B123F0807353604B881BB13B
:104AD000536823F0007353608B881BB1536823F035
:104AE00080635360C98819B1516821F00061516039
:104AF00024EA00046FEA04011161A24B1B881BB970
:104B0000A14B41EA030111611369516801EA0301F4
:104B10005160906030BDF8B54FF46065284618F0DC
:104B2000F4FA00F1010004463F2C01D94FF00004D3
:104B300021B2284618F0E7FB40F60266304618F02E
:104B4000E4FA3F2800D0204601B2304618F0DBFBE3
:104B5000284618F0DAFA4FF4806101EB40144FF068
:104B600055008DF800004FF000068DF801604FF001
:104B700052008DF802008DF803606946204618F057
:104B800046FC00966946201D18F041FC7F4DA88B1D
:104B90008DF80000287E8DF80100287B8DF802003A
:104BA0008DF80360694604F1080018F030FC287A9B
:104BB0008DF8000028798DF8010028788DF8020022
:104BC0007348D0F880018DF80300694604F10C00A9
:104BD00018F01DFC4FF041058DF800508DF8015084
:104BE0008DF802508DF80350694604F1100018F05A
:104BF0000EFC8DF800508DF801508DF802508DF8A4
:104C00000350694604F1140018F001FC8DF80050BF
:104C10008DF801508DF802508DF80350694604F16B
:104C2000180018F0F4FB8DF800508DF801508DF845
:104C300002508DF80350694604F11C0018F0E7FBA0
:104C4000F8BD2DE9F84F06460C464FF0540774B1F5
:104C5000012C04D0022C05D0032C06D007E04FF025
:104C6000550704E04FF0750701E04FF04C07DFF8FF
:104C70001C81404806EB860101EBC6014FF000099C
:104C8000A8F120084FF4606A4FF4806500EBC10082
:104C9000012A02D0002A7DD0DAE134B1012C09D0FA
:104CA000022C0CD0032C0FD012E0417841F001010E
:104CB00041700DE0417841F00201417008E0417817
:104CC00041F00401417003E0417841F00801417076
:104CD00080F85740504618F018FA00F101001FFA0A
:104CE00080FBBBF13F0F01D94FF0000B0FFA8BF1A6
:104CF000504618F008FB40F6026018F006FA80B241
:104D00003F2800D0584601B240F6026018F0FBFA86
:104D1000504618F0FAF905EB401085B24FF05300F9
:104D20008DF800008DF801608DF802708DF8039009
:104D30006946284618F06BFBCDF800906946281D9F
:104D400018F065FBB8F83C008DF8000098F83800C2
:104D50008DF8010098F82C008DF802008DF8039072
:104D6000694605F1080016E0DF0000100CC00720BE
:104D700068EA0720A4EC072034020010EE000010BF
:104D8000D20200101A010010FEFFFFEF2040024087
:104D900000C00F40BCE018F03AFB98F828008DF8EE
:104DA000000098F824008DF8010098F820008DF894
:104DB00002008DF80390694605F10C0018F027FBFE
:104DC0004FF041078DF800708DF801708DF802707A
:104DD0008DF80370694605F1100018F018FB8DF886
:104DE00000708DF801708DF802708DF803706946BF
:104DF00005F1140018F00BFB8DF800708DF80170B0
:104E00008DF802708DF80370694605F1180018F0EE
:104E1000FEFA8DF800708DF801708DF802708DF833
:104E20000370694605F11C0018F0F1FA26B1012E55
:104E300026D0022E48D00BE134B1012C0BD0022C2D
:104E400010D0032C15D003E1002301220421DFA0A0
:104E500016F0D2FAFCE001231A460421E1A016F074
:104E6000CBFAF5E0022301220421E5A016F0C4FAF2
:104E7000EEE0032301220421E9A016F0BDFAE7E0E9
:104E800034B1012C0BD0022C10D0032C15D0DFE054
:104E9000002302220421EAA016F0AEFAD8E0012392
:104EA00002220421ECA016F0A7FAD1E002231A4650
:104EB0000421F0A016F0A0FACAE003230222042184
:104EC000F4A016F099FAC3E034B1012C0BD0022CF7
:104ED00010D0032C15D0BBE0002303220421F5A041
:104EE00016F08AFAB4E0012303220421F7A016F099
:104EF00083FAADE0022303220421FBA016F07CFA22
:104F0000A6E003231A460421FFA016F075FA9FE0DD
:104F100034B1012C09D0022C0CD0032C0FD012E09C
:104F2000417821F0010141700DE0417821F002014A
:104F3000417008E0417821F00401417003E04178BC
:104F400021F008014170504618F0DFF81FFA80FB8D
:104F50005C4605EB44101FFA80FA6946504618F08B
:104F60005BF99DF80000532807D19DF80100B0427D
:104F700003D19DF80200B84209D01CB1A4F101048C
:104F8000A4B201E04FF03F045C45E2D160E0694625
:104F90000AF1100018F040F99DF8000041280BD1EB
:104FA0009DF80100412807D19DF80200412803D156
:104FB0009DF80300412809D01CB1A4F10104A4B25A
:104FC00001E04FF03F045C45C3D141E0B8F83C003C
:104FD0008DF8000098F838008DF8010098F82C0042
:104FE0008DF802008DF8039069460AF1100018F060
:104FF0000EFA98F828008DF8000098F824008DF833
:10500000010098F820008DF802008DF803906946A1
:105010000AF1140018F0FBF94FF042048DF800403B
:105020008DF801408DF802408DF8034069460AF181
:10503000180018F0ECF98DF800408DF801408DF85B
:1050400002408DF8034069460AF11C0018F0DFF9B0
:1050500000BFBDE8F88F2DE9F843B44AB24F4FF4D2
:10506000606511784FF000084FF48069012816D070
:1050700000287DD100297BD082F80080284618F0D6
:1050800044F886B2344609EB441085B26946284696
:1050900018F0C2F89DF800004F286AD154E10129A8
:1050A00066D04FF001001070284618F02EF800F17D
:1050B000010084B23F2C01D94FF0000421B22846F0
:1050C00018F021F940F60266304618F01EF881B259
:1050D0003F2900D0214609B2304618F014F928467D
:1050E00018F013F809EB401084B24FF04F008DF820
:1050F00000004FF056008DF801004FF04C008DF885
:1051000002008DF803806946204618F080F9CDF83A
:1051100000806946201D18F07AF907F12007B88B46
:105120008DF80000387E8DF80100387B8DF8020084
:105130008DF80380694604F1080018F068F9387AA0
:105140008DF8000038798DF8010038788DF802006C
:105150008DF80380694604F10C0018F058F94FF0FF
:1051600041058DF800508DF801508DF8025001E096
:10517000E8E0F1E08DF80350694604F1100018F002
:1051800046F98DF800508DF801508DF802508DF8D9
:105190000350694604F1140018F039F98DF80050F5
:1051A0008DF801508DF802508DF80350694604F1D6
:1051B000180018F02CF98DF800508DF801508DF87A
:1051C00002508DF803506946B2E00000425053206F
:1051D000233120416C61726D2C206F766572686599
:1051E0006174000042505320233120416C61726D84
:1051F0002C20766F6C746167652069732075700070
:1052000042505320233120416C61726D2C20766F07
:105210006C7461676520697320646F776E000000AD
:1052200042505320233120416C61726D2C20636FFA
:105230006E6E656374206973206C6F737400000078
:1052400042505320233220416C61726D2C206F76C6
:10525000657268656174000042505320233220411A
:105260006C61726D2C20766F6C7461676520697358
:105270002075700042505320233220416C61726DC2
:105280002C20766F6C7461676520697320646F777A
:105290006E00000042505320233220416C61726D39
:1052A0002C20636F6E6E656374206973206C6F735E
:1052B0007400000042505320233320416C61726D12
:1052C0002C206F766572686561740000425053202F
:1052D000233320416C61726D2C20766F6C74616792
:1052E000652069732075700042505320233320419C
:1052F0006C61726D2C20766F6C74616765206973C8
:1053000020646F776E000000425053202333204109
:105310006C61726D2C20636F6E6E656374206973AF
:10532000206C6F737400000000400240F100001018
:1053300004F11C0018F06BF8022301220521FAA0E9
:1053400016F05AF8BDE8F8839DF80100562803D1FD
:105350009DF802004C280AD01CB1A4F10104A4B2AB
:1053600001E04FF03F04B4427FF48DAEEAE76946B6
:1053700005F1100017F050FF9DF8000041280BD1F7
:105380009DF80100412807D19DF80200412803D172
:105390009DF80300412809D01CB1A4F10104A4B276
:1053A00001E04FF03F04B442DED1CBE707F1200724
:1053B000B88B8DF80000387E8DF80100387B8DF8B1
:1053C00002008DF80380694605F1100018F01FF8FF
:1053D000387A8DF8000038798DF8010038788DF82A
:1053E00002008DF80380694605F1140018F00FF8EB
:1053F0004FF042048DF800408DF801408DF80240D6
:105400008DF80340694605F1180018F000F88DF892
:1054100000408DF801408DF802408DF80340694648
:1054200005F11C0017F0F3FF8CE72DE9F34F81B075
:105430000546C1490878A8427ED09DF808609DF8CD
:105440000970DFF8F8824FF460644FF000094FF400
:10545000806A012D19D0022D17D0002D6CD10028A3
:105460006AD081F80090204617F04FFE1FFA80FBAB
:105470005C460AEB441085B26946284617F0CCFE1C
:105480009DF8000056287DD1A6E00D70204617F04B
:105490003CFE00F101001FFA80FBBBF13F0F01D978
:1054A0004FF0000B0FFA8BF1204617F02CFF40F65F
:1054B000026017F02AFE80B23F2800D0584601B2A1
:1054C00040F6026017F01FFF204617F01EFE0AEBA1
:1054D000401084B24FF056008DF800004FF04F009E
:1054E0008DF801004FF055008DF802004FF0540088
:1054F0008DF803006946204617F089FF8DF800609B
:105500008DF801708DF802508DF803906946201DCA
:1055100017F07DFFB8F83C008DF8000098F83800CF
:105520008DF8010098F82C008DF802008DF803909A
:10553000694604F1080000E04CE017F068FF98F8B5
:1055400028008DF8000098F824008DF8010098F8E4
:1055500020008DF802008DF80390694604F10C00DC
:1055600017F055FF4FF041058DF800508DF80150B0
:105570008DF802508DF80350694604F1100017F0C1
:1055800046FF00E034E08DF800508DF801508DF8B2
:1055900002508DF80350694604F1140017F037FFEC
:1055A0008DF800508DF801508DF802508DF80350A1
:1055B000694604F1180017F02AFF8DF800508DF8A5
:1055C00001508DF802508DF80350694604F11C001B
:1055D00017F01DFFBDE8FE8F9DF801004F2807D191
:1055E0009DF80200552803D19DF8030054280AD0E5
:1055F0001CB1A4F10104A4B201E04FF03F045C45EA
:105600007FF437AFE6E7694605F1100017F004FEB6
:105610009DF8000041280BD19DF80100412807D1D9
:105620009DF80200412803D19DF80300412809D0CC
:105630001CB1A4F10104A4B201E04FF03F045C45A9
:10564000DED1C7E7B8F83C008DF8000098F83800C4
:105650008DF8010098F82C008DF802008DF8039069
:10566000694605F1100017F0D2FE98F828008DF871
:10567000000098F824008DF8010098F820008DF8BB
:1056800002008DF80390694605F1140017F0BFFE83
:105690008DF800608DF801704FF042048DF80240E3
:1056A0008DF80340694605F1180017F0B0FE8DF83B
:1056B00000408DF801408DF802408DF803406946A6
:1056C00005F11C0017F0A3FE84E72DE9F34F81B02C
:1056D00005461B480178A9427ED09DF808609DF8D8
:1056E0000970DFF858804FF460644FF000094FF400
:1056F000806A012D26D0022D24D0002D6CD180F897
:105700000090204617F001FD84B2A3465C460AEBE8
:10571000441085B26946284617F07EFD9DF80000CA
:1057200056287DD1B2E0000053797374656D206F07
:105730007665726C6F616400F200001000400240F8
:10574000F30000100570204617F0DFFC00F10100A7
:105750001FFA80FBBBF13F0F01D94FF0000B0FFA8E
:105760008BF1204617F0CFFD40F6026017F0CDFC1C
:1057700080B23F2800D0584601B240F6026017F0D0
:10578000C2FD204617F0C1FC0AEB401084B24FF076
:1057900056008DF800004FF049008DF801004FF0E1
:1057A0004E008DF802008DF803906946204617F0F0
:1057B0002EFE8DF800608DF801708DF802508DF886
:1057C00003906946201D17F022FEB8F83C008DF8C2
:1057D000000098F8380000E057E08DF8010098F8D4
:1057E0002C008DF802008DF80390694604F1080042
:1057F00017F00DFE98F828008DF8000098F82400A6
:105800008DF8010098F820008DF802008DF80390C3
:10581000694604F10C0017F0FAFD4FF0410500E075
:105820003FE08DF800508DF801508DF802508DF852
:105830000350694604F1100017F0E9FD8DF800509F
:105840008DF801508DF802508DF80350694604F12F
:10585000140017F0DCFD8DF800508DF801508DF824
:1058600002508DF80350694604F1180017F0CFFD7F
:105870008DF800508DF801508DF802508DF80350CE
:10588000694604F11C0017F0C2FDA3E69DF8010073
:10589000492806D19DF802004E2802D19DF8030048
:1058A00050B11CB1A4F10104A4B201E04FF03F04D7
:1058B0005C457FF42CAF8DE6694605F1100017F0CA
:1058C000ABFC9DF8000041280BD19DF80100412858
:1058D00007D19DF80200412803D19DF8030041281B
:1058E00009D01CB1A4F10104A4B201E04FF03F04BF
:1058F0005C45DED16EE6B8F83C008DF8000098F803
:1059000038008DF8010098F82C008DF802008DF811
:105910000390694605F1100017F079FD98F828000A
:105920008DF8000098F824008DF8010098F8200008
:105930008DF802008DF80390694605F1140017F008
:1059400066FD8DF800608DF801704FF042048DF80F
:1059500002408DF80340694605F1180017F057FD25
:105960008DF800408DF801408DF802408DF803401D
:10597000694605F11C0017F04AFD2BE62DE9F34FAF
:1059800081B0A0490A7882427ED09DF808709DF8C7
:105990000980DFF874924FF460654FF0000A4FF40D
:1059A000806B012814D000286ED181F800A0284611
:1059B00017F0ABFB86B234460BEB441085B2694658
:1059C000284617F029FC9DF8000054287ED1A0E05D
:1059D0000870284617F099FB00F1010084B23F2CB3
:1059E00001D94FF0000421B2284617F08CFC40F694
:1059F0000266304617F089FB80B23F2800D020466F
:105A000001B2304617F07FFC284617F07EFB0BEB07
:105A1000401084B24FF054008DF800004FF0530056
:105A20008DF801004FF059018DF802108DF8030038
:105A30006946204617F0EBFC8DF800708DF8018068
:105A40008DF802A08DF803A06946201D17F0DFFC39
:105A5000B9F83C008DF8000099F838008DF8010085
:105A600099F82C008DF802008DF803A0694604F126
:105A7000080017F0CCFC99F828008DF8000099F880
:105A800024008DF8010000E042E099F820008DF834
:105A900002008DF803A0694604F10C0017F0B7FC72
:105AA0004FF041058DF800508DF801508DF80250EF
:105AB0008DF80350694604F1100017F0A8FC8DF82A
:105AC00000508DF801508DF8025000E02DE08DF867
:105AD0000350694604F1140017F099FC8DF800504A
