:020000040000FA
:1000000028750010E1000000E5000000E700000096
:10001000E9000000EB000000ED000000000000001F
:10002000000000000000000000000000EF000000E1
:10003000F100000000000000F300000001B001002A
:10004000F700000095D70100C9D70100F7000000B4
:10005000F70000005F090200F7000000F700000051
:10006000F7000000F7000000F7000000F7000000B4
:10007000F7000000F7000000F7000000F7000000A4
:10008000F7000000F7000000F7000000F700000094
:10009000F7000000F70000002F5D0000F7000000EF
:1000A000F700000015070200F7000000F70000004D
:1000B000152F0200F7000000F7000000F700000015
:1000C000F7000000F7000000F7000000DFF80CD098
:1000D00022F09CFF004800478BB1010028750010FA
:1000E00005480047FEE7FEE7FEE7FEE7FEE7FEE71E
:1000F000FEE7FEE7FEE7FEE7CD000000FEE710B5F5
:1001000023F024FD23F080FD23F072FDAFF3008087
:10011000BDE8104023F03EBD10B524F0FDFA24F0F8
:100120001BFFBDE8104024F04FBB24F063BA24F05D
:100130002BB809B10020704723F030BC0020704775
:1001400030B54FF000003D4BA3F1140202F10A0458
:10015000115C61B1255CA94209D1195C39B1A1F1E9
:100160000101C9B2195411B94FF000011154115CC9
:10017000215400F10100C0B20A28E9D330BD70B5A6
:100180004FF000042D4EA6F1140604F10104E4B270
:10019000355D1DB1854201D00A2CF6D33055274874
:1001A0000C3040F82410283040F82420343803550F
:1001B00070BD4FF00001214AA2F1140201F10101CA
:1001C000C9B2535C834201D00A29F7D3535C8342FE
:1001D00012D11A480C3050F8213019480360174BDF
:1001E000343353F8213043604FF000005054134A29
:1001F00050544FF001007047002070474FF000014D
:100200000E4AA2F1140201F10101C9B2535C83420A
:1002100001D00A29F7D3525C82420CD107480C3036
:1002200050F8212006480260044A343252F8211066
:1002300041600120704700207047000000EB07205C
:1002400094C007200D4BDA601870597070470B4A44
:100250001161907070470949088170470749B1F9E9
:100260000800002809D0A0F1010000B20881002890
:1002700003D10146084601F0B4BA70479CC007207C
:1002800090F900308B4200DA027090F9003093420E
:1002900000DD0170704790F900308B4200DA017088
:1002A00090F90010914200DD02707047B0F9003003
:1002B0008B4200DA0180B0F90010914200DD02802B
:1002C0007047B0F900308B4200DA0280B0F900309C
:1002D000934200DD01807047FE21C0B222F082BE51
:1002E0008021C0B222F07EBE1C21C0B222F07ABEB4
:1002F0007021C0B222F076BE70477047FFFFFFFF4B
:10030000002802DAC0F1000000B270474FF0000090
:10031000FC4A4FF02001115400F10100C0B2C8287E
:10032000F9D3704701464FF00000F64A00F1010092
:10033000C0B2135C8B4201D0C828F7D3704710B508
:100340004FF00001F04C4FF00A020346B0FBF2F010
:1003500002FB1033635401F10101C9B20529F4D342
:1003600010BDF0B5E94D4FF0010129704FF00501C6
:10037000E54B4FF020064FF000072A7842B15A189B
:1003800012F8014C24B9814202D902F8016C07E04D
:1003900003EB010212F8014D04F1300414702F70C8
:1003A000A1F10101C9B20029E7D1F0BDFEB50346B4
:1003B0004FF02B07002B04DAC3F1000003B24FF01B
:1003C0002D074FF000004FF00A046D4693FBF4F642
:1003D00004FB16332B5433B200F1010040B20A285B
:1003E000F4DB4FF001034FF000044FF009004FF031
:1003F000200643B115F800C0BCF1000F03D19042B4
:1004000001DD2E5408E02B5C03F130032B544FF038
:10041000000304F10104E4B2A0F1010040B200289D
:10042000E7DA2D2F04D1204604F10104E4B22F5461
:100430008AB160B207E005EB000313F8013C2B54CE
:10044000A0F1010040B29042F5DC4FF02E00A8541C
:1004500004F10104E4B20846FFF764FF4FF0000125
:10046000A84A06E0A0EB01066B5C935501F101017F
:1004700049B2A142F6DBFEBDFEB503464FF02B07A5
:10048000002B03DAC3F100034FF02D074FF00000FB
:100490004FF00A046D461E4693FBF4F304FB13660B
:1004A0002E5400F1010040B20A28F4DB4FF00103A2
:1004B0004FF000044FF009004FF0200643B115F84B
:1004C00000C0BCF1000F03D1904201DD2E5408E0C2
:1004D0002B5C03F130032B544FF0000304F10104B3
:1004E000E4B2A0F1010040B20028E7DA2D2F04D1D8
:1004F000204604F10104E4B22F548AB160B207E04F
:1005000005EB000313F8013C2B54A0F1010040B2AD
:100510009042F5DC4FF02E00A85404F10104E4B23F
:100520000846FFF7FFFE4FF00001764A06E0A0EB19
:1005300001066B5C935501F1010149B2A142F6DB62
:10054000FEBD2DE9FE414FF02B0C002803DAC0F16F
:1005500000004FF02D0C4FF000044FF00A056F46DD
:10056000064690FBF5F005FB10663E5504F10104CC
:1005700064B20A2CF4DB4FF001054FF000044FF099
:1005800009004FF0200645B117F80080B8F1000FC0
:1005900003D1984201DD3E5408E03D5C05F1300591
:1005A0003D544FF0000504F10104E4B2A0F1010054
:1005B00040B20028E7DABCF12D0F05D1204604F146
:1005C0000104E4B207F800C08BB160B207E007EBAA
:1005D000000515F8015C3D54A0F1010040B29842BD
:1005E000F5DC4FF02E00F85404F10104E4B201EB05
:1005F000810002EB8000C1B24FF00000414A06E0EA
:10060000A1EB00053B5C535500F1010040B2A04254
:10061000F6DBBDE8FE8170B50D4616461C46FFF7B9
:100620008EFE601CC0B2FFF79CFE05EB850006EB5A
:100630008000C1B24FF00000334B324DA04201D2D6
:100640001A5C6A5407D31A5C202A04D064B105EB03
:10065000010606F8012CA1F10101C9B200F1010067
:10066000C0B20528EAD370BD6A54F4E730B5044639
:1006700008461546FFF756FEFF280CD0214A07E032
:1006800000EB050304F10104D15400F10100C0B2F4
:1006900021780029F4D130BD70B50D461446FFF71E
:1006A0004EFE601CC0B2FFF75CFE2846FFF73AFE24
:1006B0004FF00001144A134D24B9535C202B01D094
:1006C0002B5415E0A14202D2535C2B5410E008D108
:1006D0004FF02E032B5405EB0006535C06F8013C4B
:1006E00006E0535C202B03D005EB000606F8013C26
:1006F000A0F10100C0B201F10101C9B20529DBD3AB
:1007000070BD000076020010E0030010E503001049
:100710001044002801DA084403E0884201DBA0EB22
:100720000100C0B270472DE9FF5F04460D464FF44B
:1007300060601DF01CFD62424021FFF7E9FF4FEAB7
:10074000401000F58060044602A920461DF096FD89
:1007500001A904F108001DF091FD694604F10C00A7
:100760001DF08CFD2846FFF7DDFD9DF808E04022D6
:10077000302121232324DFF808844FF0C2094FF0F1
:100780003A0C0127FF4E4FF0200AFF4DBEF1550FE6
:1007900011D04FF0C00BBEF1500F7DD0BEF1510F04
:1007A0007BD0BEF1530F79D0BEF1420F77D0BEF1AE
:1007B000560F75D082E39DF80AB0BBF1520F14D1E9
:1007C00000F1010B0BF0FF0B06F800904FF0EA0070
:1007D0000BF1010909F0FF0906F80B004FF0EB0BD4
:1007E00009F10100C0B206F809B000F1010909F0F1
:1007F000FF0906F800A009F1010B0BF0FF0006F855
:1008000009A000F1010909F0FF0906F800A009F1AB
:100810000100C0B206F809A000F1010909F0FF09C2
:1008200006F800A09DF80400B5F83CB0584548D142
:100830009DF8050095F838B0584542D19DF806005E
:1008400095F82C50A8423CD109F10100C0B206F83D
:10085000091000F10105EDB2335405F10100C0B2F9
:1008600006F805C000F10103DBB231541D4603F167
:100870000103D8B2725500F10102D2B206F800C0ED
:1008800002F10100C0B2B15434549DF800004FF0A1
:1008900000024FF0210104E051E007E1C9E1BBE2B1
:1008A00002E3FFF7F9FE9DF8010000224021FFF767
:1008B000F3FE9DF8020000222321FFF7EDFEBDE8C4
:1008C000FF9F09F10100C0B206F809A000F101057F
:1008D000EDB2315405F10100C0B2735500F10103CE
:1008E000DBB2325403F10100C0B206F803A000F1FC
:1008F0000102D2B206F800A002F10100C0B2B15468
:1009000034549DF806004FF000024FF02101FFF72C
:10091000C3FE9DF8040000222321FFF7BDFE9DF8D1
:100920000500401E0C2801D38DF805709DF80500C8
:10093000002208EB80004021FFF798FEBFE700F19E
:10094000010E0EF0FF0E06F800B00EF10100C0B26D
:1009500006F80E904FF02E0B00F1010909F0FF0987
:1009600006F800B04FF0CF0009F1010B0BF0FF0BC0
:1009700006F809004FF0D1000BF1010909F0FF0959
:1009800006F80B0009F10100C0B206F809A000F159
:10099000010909F0FF0906F800A009F10100C0B241
:1009A00006F809A09DF80490B5F83CB0D9453FD1B0
:1009B0009DF8059095F838B0D94539D19DF8069045
:1009C00095F82C50A94533D100F10105EDB2315411
:1009D00005F10100C0B2735500F10103DBB206F866
:1009E00000C003F10100C0B2F15400F10103DBB219
:1009F000325403F10100C0B206F803C000F1010255
:100A0000D2B23154B4549DF800004FF000024FF0C0
:100A10002101FFF741FE9DF8010000224021FFF770
:100A20003BFE9DF8020000222321FFF735FE46E73A
:100A300000F10105EDB206F800A005F10100C0B219
:100A4000715500F10105EDB2335405F10100C0B25A
:100A5000725500F10102D2B206F800A002F10100C5
:100A6000C0B206F802A000F10102D2B23154B4546F
:100A70009DF806004FF000024FF02101FFF70CFE39
:100A80009DF8040000222321FFF706FE9DF80500D3
:100A9000401E0C2801D38DF805709DF8050000223A
:100AA00008EB80004021FFF7E1FD08E700F1010EAF
:100AB0000EF0FF0E06F800B00EF10100C0B206F80D
:100AC0000E904FF02E0900F1010B0BF0FF0B06F812
:100AD00000904FF055000BF1010909F0FF0906F8ED
:100AE0000B004FF0E20009F1010B0BF0FF0B06F8D1
:100AF00009004FF0FB000BF1010909F0FF0906F8AE
:100B00000B004FF0F50009F1010B0BF0FF0B06F89D
:100B100009000BF10100C0B206F80BA09DF804908B
:100B2000B5F83CB0D94546D19DF8059095F838B058
:100B3000D94540D19DF8069095F82C50A9453AD159
:100B400000F10105EDB2315405F10100C0B2735559
:100B500000F10103DBB206F800C003F10100C0B2EE
:100B6000F15400F10103DBB2325403F10100C0B2D1
:100B700006F803C000F10102D2B23154B45405E0CA
:100B8000D45D020076020010004002409DF8000093
:100B90004FF000024FF02101FFF77EFD9DF80100AC
:100BA00000224021FFF778FD9DF80200002223215A
:100BB000FFF772FD83E600F10105EDB206F800A033
:100BC00005F10100C0B2715500F10105EDB23354D9
:100BD00005F10100C0B2725500F10102D2B206F86F
:100BE00000A002F10100C0B206F802A000F101026B
:100BF000D2B23154B4549DF806004FF000024FF0C9
:100C00002101FFF749FD9DF8040000222321FFF791
:100C100043FD9DF80500401E0C2801D38DF805709A
:100C20009DF80500002208EB80004021FFF71EFD23
:100C300045E600F1010E0EF0FF0E06F800B00EF1D1
:100C40000100C0B206F80E904FF02E0B00F1010922
:100C500009F0FF0906F800B04FF0C10009F1010BDF
:100C60000BF0FF0B06F809004FF0CF090BF1010064
:100C7000C0B206F80B904FF0D10900F1010B0BF058
:100C8000FF0B06F800909DF80990B9F1090F0DD2FD
:100C900009F131090BF10100C0B206F80B9000F127
:100CA000010909F0FF0906F800A02CE0A9F10900EC
:100CB0005A281DD209F101094FF00A00B9FBF0FED4
:100CC000CDF80CE00EF1300E0BF10100C0B206F8C9
:100CD0000BE0DDF80CE04FF00A0B0BFB1E9B0BF159
:100CE000300B00F1010909F0FF0906F800B00AE035
:100CF0000BF10100C0B206F80BA000F1010909F0E8
:100D0000FF0906F800A009F10100C0B206F809A029
:100D10009DF80490B5F83CB0D9453FD19DF80590B9
:100D200095F838B0D94539D19DF8069095F82C50F2
:100D3000A94533D100F10105EDB2315405F10100AF
:100D4000C0B2735500F10103DBB206F800C003F135
:100D50000100C0B2F15400F10103DBB2325403F1DF
:100D60000100C0B206F803C000F10102D2B2315452
:100D7000B4549DF800004FF000024FF02101FFF73E
:100D80008BFC9DF8010000224021FFF785FC9DF8B7
:100D9000020000222321FFF77FFC90E500F101050E
:100DA000EDB206F800A005F10100C0B2715500F1E6
:100DB0000105EDB2335405F10100C0B2725500F1E6
:100DC0000102D2B206F800A002F10100C0B206F89A
:100DD00002A000F10102D2B23154B4549DF80600D1
:100DE0004FF000024FF02101FFF756FC9DF8040080
:100DF00000222321FFF750FC9DF80500401E0C281F
:100E000001D38DF805709DF80500002208EB8000E5
:100E10004021FFF72BFC52E54FF0C10200F1010128
:100E2000C9B232544FF0E00301F10100C2B2735471
:100E30004FF0F20102F10100C0B2B1549DF8091067
:100E400009290BD201F1310100F10102D2B2315472
:100E500002F10100C0B206F802A022E0A1F10902ED
:100E60005A2A14D201F101014FF00A05B1FBF5F342
:100E700003F1300400F10102D2B2345405FB131126
:100E800001F1300102F10100C0B2B15409E000F1FA
:100E90000101C9B206F800A001F10100C0B206F8D4
:100EA00001A006F800A00AE59DF80990B9F1490FE4
:100EB00004D19DF80A90B9F14E0F03D0BEF1560F40
:100EC0007ED0CBE000F1010909F0FF0906F800B07F
:100ED0004FF0E20009F1010E0EF0FF0B06F80900D9
:100EE0004FF02E0E0BF1010909F0FF0906F80BE097
:100EF0004FF0550E09F1010B0BF0FF0B06F809E05E
:100F00000BF1010909F0FF0E06F80B004FF0F50B8D
:100F10000EF1010000F0FF0906F80EB009F1010022
:100F2000C0B206F809A000F1010909F0FF0906F8AE
:100F300000A09DF80400B5F83CB0584541D19DF89B
:100F4000050095F838B058453BD19DF8060095F856
:100F50002C50A84235D109F10100C0B206F80910A1
:100F600000F10105EDB2335405F10100C0B206F8FD
:100F700005C000F10103DBB2315403F10100C0B23E
:100F8000F25400F10102D2B206F800C002F10100F1
:100F9000C0B2B15434549DF800004FF000024FF03D
:100FA0002101FFF779FB9DF8010000224021FFF7A6
:100FB00073FB9DF8020000222321FFF76DFB7EE406
:100FC0003DE009F10100C0B206F809A000F10105F9
:100FD000EDB2315405F10100C0B2735500F10103C7
:100FE000DBB2325403F10100C0B206F803A000F1F5
:100FF0000102D2B206F800A002F10100C0B2B15461
:1010000034549DF806004FF000024FF02101FFF725
:1010100043FB9DF8040000222321FFF73DFB9DF8D0
:101020000500401E0C2801D38DF805709DF80500C1
:10103000002208EB80004021FFF718FB3FE49DF8F9
:101040000990B9F14F0F09D19DF80A90B9F1550FE8
:1010500004D19DF80B90B9F1540F03D0BEF14F0F9E
:101060007DD0C8E000F1010909F0FF0906F800B0E1
:101070004FF0E20009F1010E0EF0FF0B06F8090037
:101080004FF02E0E0BF1010909F0FF0906F80BE0F5
:101090004FF0550E09F1010B0BF0FF0B06F809E0BC
:1010A0000BF1010909F0FF0906F80B004FF0FB00F6
:1010B00009F1010B0BF0FF0B06F809004FF0F500EA
:1010C0000BF1010909F0FF0906F80B0009F1010015
:1010D000C0B206F809A09DF80490B5F83CB0D94517
:1010E00041D19DF8059095F838B0D9453BD19DF890
:1010F000069095F82C50A94535D100F10105EDB2C7
:10110000315405F10100C0B2735500F10103DBB2A7
:1011100006F800C003F10100C0B2F15400F1010370
:10112000DBB2325403F10100C0B206F803C000F193
:101130000102D2B23154B4549DF800004FF00002C5
:101140004FF02101FFF7A8FA9DF80100002240218D
:10115000FFF7A2FA00229DF80200232100E040E000
:10116000FFF79AFA63E400F10105EDB206F800A07A
:1011700005F10100C0B2715500F10105EDB2335423
:1011800005F10100C0B2725500F10102D2B206F8B9
:1011900000A002F10100C0B206F802A000F10102B5
:1011A000D2B23154B4549DF806004FF000024FF013
:1011B0002101FFF771FA9DF8040000222321FFF7B7
:1011C0006BFA9DF80500401E0C2801D38DF80570C0
:1011D0009DF80500002208EB80004021FFF746FA49
:1011E00025E49DF80990B9F1560F04D19DF80A90B5
:1011F000B9F14C0F7DD0BEF1540FB3D19DF80990D9
:10120000B9F1530FAED19DF80A90B9F1590FA9D198
:101210009DF80B90B9F1530FA4D100F1010909F029
:10122000FF0906F800B04FF0E20B09F10100C0B26F
:1012300006F809B04FF02E0900F1010B0BF0FF0B7F
:1012400006F800904FF054000BF1010909F0FF0976
:1012500006F80B004FF0F10B09F10100C0B206F8DF
:1012600009B04FF0E80E00F1010909F0FF0906F896
:1012700000E009F10100C0B206F809B000F101096F
:1012800009F0FF0906F800A09DF80400B5F83CB08D
:1012900058457ED19DF8050095F838B0584578D16D
:1012A0009DF8060095F82C50A84272D109F1010072
:1012B000C0B206F8091000F10105EDB2335405F192
:1012C0000100C0B206F805C000F10103DBB23154E1
:1012D00003F10100C0B2F25400F10102D2B206F8EB
:1012E00000C002F10100C0B2B15434549DF80000B6
:1012F00000E012E04FF000024FF02101FFF7CCF9BF
:101300009DF8010000224021FFF7C6F99DF8020078
:1013100000222321FFF7C0F94CE44FF0CF0B00F17E
:10132000010909F0FF0906F800B04FF0D00009F1FB
:10133000010E0EF0FF0B06F809004FF0C30E0BF183
:10134000010909F0FF0906F80BE009F1010B0BF0A8
:10135000FF0B06F809004FF0C70E0BF1010000F07B
:10136000FF0906F80BE009F10100C0B206F809A078
:1013700000F1010909F0FF0906F800A009F10100D8
:10138000C0B206F809A09DF80490B5F83CB0D94564
:1013900000E07EE03FD19DF8059095F838B0D94542
:1013A00039D19DF8069095F82C50A94533D100F11C
:1013B0000105EDB2315405F10100C0B2735500F1E1
:1013C0000103DBB206F800C003F10100C0B2F15422
:1013D00000F10103DBB2325403F10100C0B206F8A0
:1013E00003C000F10102D2B23154B4549DF80000A0
:1013F0004FF000024FF02101FFF74EF99DF8010078
:1014000000224021FFF748F99DF802000022232125
:10141000FFF742F90CE400F10105EDB206F800A077
:1014200005F10100C0B2715500F10105EDB2335470
:1014300005F10100C0B2725500F10102D2B206F806
:1014400000A002F10100C0B206F802A000F1010202
:10145000D2B23154B4549DF806004FF000024FF060
:101460002101FFF719F99DF8040000222321FFF75D
:1014700013F99DF80500401E0C2801D38DF8057066
:101480009DF80500002208EB80004021FFF7EEF8F0
:1014900083E409F10100C0B206F809A000F10105DA
:1014A000EDB2315405F10100C0B2735500F10103F2
:1014B000DBB2325403F10100C0B206F803A000F120
:1014C0000102D2B206F800A002F10100C0B2B1548C
:1014D00034549DF806004FF000024FF02101FFF751
:1014E000DBF89DF8040000222321FFF7D5F89DF8D2
:1014F0000500401E0C2801D38DF805709DF80500ED
:10150000002208EB80004021FFF7B0F845E4F0B579
:101510000446084616461F46FEF704FF02461046DC
:10152000FF4DFF2806D108E0295404F1010400F121
:101530000100C0B221780029F6D1FA4800780028CD
:1015400006D0002F04D002EB06014FF05F00685474
:10155000F0BD2DE9F04F0746DDE9090588469146C3
:101560009A46FEF7DFFEEF4B2021ED4C0A224FF0AA
:10157000640C012D09D11E783EB104EB0006A6F1E2
:101580000E06B1707170317017E097FBF2FB02FB31
:101590001B7E04EB00060EF1300E06F80CEC9BFBF4
:1015A000F2FE02FB1EBB0BF1300B06F80DBC97FBE5
:1015B000FCF707F1300706F80E7C022D09D11E78E2
:1015C0003EB104EB0006A6F10A06B17071703170ED
:1015D00017E098FBF2F702FB178B04EB0006A6F16D
:1015E0000A060BF1300B86F802B097FBF2FB02FB08
:1015F0001B7707F13007777098FBFCF707F130078E
:101600003770032D09D11E783EB104EB0006A6F118
:101610000606B1707170317017E099FBF2F702FBAA
:10162000179804EB0006A6F1060608F1300886F8C4
:10163000028097FBF2F802FB187707F1300777700A
:1016400099FBFCF707F130073770042D09D11B789F
:101650003BB121542044A0F1020041700170BDE86B
:10166000F08F9AFBF2F102FB11A303F13003235434
:1016700091FBF2F302FB13112044A0F1020001F1EF
:10168000300141709AFBFCF101F130010170E6E795
:1016900010B50C46FEF746FEA1491CB14FF00302FF
:1016A0000A5410BD4FF004020A5410BD17B501EBE7
:1016B000810002EB8000C2B29DF800309A4803F02E
:1016C0000F01445C96498C54A2F10102D2B200EBA6
:1016D00013131B788B54A2F10102D2B29DF8013092
:1016E00003F00F04045D8C54A2F10102D2B200EBAE
:1016F00013131B788B54A2F10102D2B29DF8023071
:1017000003F00F04045D8C54A2F10102D2B200EB8D
:1017100013131B788B54A2F10102D3B29DF803205E
:1017200002F00F04045DCC54A3F10103DBB200EB23
:1017300012100078C8541EBD30B57C490124784B86
:1017400091F9012091F904108A4204D100EB800044
:1017500003F8204030BD4D1CAA4206D100F1010023
:1017600000EB800003F8204030BD8D1CAA4206D15A
:1017700000F1020000EB800003F8204030BDCD1CDA
:10178000AA4206D100F1030000EB800003F82040DC
:1017900030BD0D1DAA4206D100F1040000EB80000F
:1017A00003F8204030BD4D1DAA4206D100F10500CE
:1017B00000EB800003F8204030BD8D1DAA4206D109
:1017C00000F1060000EB800003F8204030BDC91D89
:1017D0008A42FBD100F1070000EB800003F82040B3
:1017E00030BD534B1A88A2F10102104400B2188098
:1017F000504A00EB800002444C48136803601279A1
:101800000271427811444170704770B5484DB5F986
:10181000004004F101062E80464D04EB840425446B
:10182000424C26682E6026792E71207061702271DC
:10183000A37070BD2DE9F04180460F461646FEF7B5
:1018400065FD374C4FF0000518F8010B04F8010B4B
:1018500005F10105EDB2142DF6D34FF0000017F895
:10186000011B04F8011B00F10100C0B21428F6D3DB
:101870004FF0000016F8011B04F8011B00F10100F5
:10188000C0B21428F6D34FF0000013F8011B04F87F
:10189000011B00F10100C0B21428F6D3BDE8F081AD
:1018A00010B5029CFFF7C6FF2048C37882784178C4
:1018B0005E20FFF7AAFF642094FBF0F0BDE8104023
:1018C000C0B2FEF7C8BC2DE9FE430D464FEA4010FA
:1018D00000F58060044602A920461CF0CFFC01A957
:1018E00004F108001CF0CAFC694604F10C001CF06D
:1018F000C5FC2846FEF716FD094C4FF0200600F106
:101900000101C9B226544FF0300701F10100C0B205
:10191000675400F101014FF02108C9B20CE000004A
:1019200076020010590000105E5E0200F401001003
:10193000820000101C5E001004F800804FF0400987
:1019400001F10100C0B204F8019000F10101C9B237
:10195000265401F10100C0B2665400F10101C9B280
:1019600027544FF0230201F10100C5B262549DF8E3
:1019700006004FF000024FF02101FEF78DFE9DF8AA
:10198000040000222321FEF787FE9DF80500401E7B
:101990000C2803D34FF001008DF805009DF80500D9
:1019A0001949002201EB80004021FEF75FFE05F19E
:1019B0000100C0B2665500F10101C9B2275401F11E
:1019C0000100C0B204F801804FF03A0200F10101B9
:1019D000C9B2225401F10100C0B2675400F1010103
:1019E000CDB204F800909DF800004FF000024FF0D7
:1019F0002101FEF751FE9DF8010000224021FEF773
:101A00004BFE6655BDE8FE83D45D02002DE9FC4126
:101A100006464FF00007FF4D6F76A87D4FF001039B
:101A200002280FD006EB460101EB0612FA4901EB42
:101A3000820494F83D10CA0706D04FF0660068761D
:101A4000BDE8FC816B76FBE794F83F20920703D555
:101A50004FF067006876F3E7890703D54FF0680019
:101A60006876EDE7ED4AB4F90810B2F9002091422A
:101A700003DD4FF069006876E2E75242914203DAF3
:101A80004FF06A006876DBE7E2490128C97D00D1A2
:101A900011B1012804D005E04FF06B006876CFE764
:101AA00001297DD005F116054FF06400E8702B7018
:101AB000AB8619464FF4F8701CF057FC6E70EE863A
:101AC00031464FF4FA701CF050FCA761D448002155
:101AD00030F916001CF049FCAF702F8739464FF4DF
:101AE000FB701CF042FCCF48008800F1010000F0C0
:101AF000070004EB4000008C0190CB4DA88B0090B8
:101B00004FF063024FF001016846FEF7C4FBC14C81
:101B10009DF8000084342070287E00900C22012162
:101B20006846FEF7B8FB9DF800006070287B0090C7
:101B30001F2201216846FEF7AEFB9DF80000A07051
:101B40009DF80400E0704FF4FC7021681CF04EFC1E
:101B5000287A0090172200216846FEF79CFB9DF82A
:101B600000002071287900903B2200216846FEF792
:101B700092FB9DF800006071287800903B220021C4
:101B80006846FEF788FB9DF80000A0719DF80500EF
:101B9000E0714FF4FE7061681CF028FC50E7FFE72D
:101BA0004FF06C0068764BE72DE9F047994CB4F89C
:101BB0004200401C00B2A4F84200B0F5E16F03DB24
:101BC0004FF00000A4F84200B4F94200B0F5DF6F16
:101BD00011D90F2301226421D220FEF7D0FA0F235E
:101BE0000022D821D720FEF7CAFA0F230022D821DD
:101BF000DC20FEF7C4FAB4F94200A0F5E061073931
:101C000033D18A4D8A4C844E288821880A27DFF8F0
:101C10002482DFF82492884210D0B6F9080090FBA5
:101C2000F7F000B2FEF76CFBB8F90010884205DA55
:101C3000B4F90010B9F900001CF097FB68886188BE
:101C4000884212D0B6F9080090FBF7F000B2FEF718
:101C500057FBB8F90010884207DAB4F90210B9F955
:101C60000200BDE8F0471CF080BBBDE8F08710B56E
:101C70006C4C208800F1010020804FF008024FF0EA
:101C800000012046FEF71DFB6349B4F9000001EB9B
:101C900040004A880284B1F84E10A0F86C1010BDC4
:101CA0002DE9FE4F6548664A674990F8780402902E
:101CB000664BB2F900B0B1F900100191B3F9001010
:101CC000604D634B634F644CDFF8909145F21166B1
:101CD00045F2FA580091072838D04E49DFF880C104
:101CE000DFF864A10A8D5649BAF900A041F2707B71
:101CF000B1F90010B9F800004A43BCF90610BCF96C
:101D000014C001FB0AF1DFF844A191FBFBF1BAF921
:101D100000A009B20CFB0AFC9CFBFBFC0FFA8CFC3C
:101D2000B04258D14FF47A6092FBF0F000B22880B4
:101D30001980A7F800C02080814200DA2180B4F920
:101D40000000844501DAA4F800C0AAE04548DFF8A5
:101D5000C4C0017842780CF1700C01EB02211FFA2B
:101D600081FAACF800A08178C27801EB02218AB236
:101D7000ACF80220017990F805E001EB0E2189B260
:101D8000ACF8041001FB0BF141F2707C91FBFCF10B
:101D90000FFA81FBA5F800B0019902FB01F292FB5A
:101DA000FCF109B21980009A0AFB02FA9AFBFCF2D4
:101DB00012B23A808379C07903EB00202A4B188055
:101DC000A4F800B0594500DA2180B4F9000082423D
:101DD00067DA228065E0A0F5AC4ABAF12F0A08D094
:101DE0001AF1280A05D0BAF1140A02D01AF1190A18
:101DF00040D149F6404092FBF0F000B228801980B3
:101E0000A7F800C02080814200DA2180B4F90000E8
:101E100084452BE004C007205CEB0720B2000010D3
:101E20004A570200DC03001020400240A8030010C3
:101E300092580010B80000106A57020098ED072071
:101E4000C2C007208A010010B8030010C4C00720D8
:101E50008C0100108E010010880100101C01001080
:101E60009C5D001016F207209601001019DAA4F804
:101E700000C016E0FF49B1F90020FF49098D514328
:101E8000404503D0A0F5AA42FB3A05D148F6B80078
:101E900091FBF0F0208004E04FF4FA7091FBF0F039
:101EA00020800298072803D0F4480188F448018074
:101EB000DFF8D0A3BAF90020F349B1F9000050438C
:101EC0004FF4FA6790FBF7F0F04D6880BAF90830EC
:101ED000EF4AB2F9000000FB03F04FF42F7390FBC0
:101EE000F3F0A880BAF91800B1F9021001FB00F173
:101EF00091FBF7F0A5F84E00BAF90210B2F9020012
:101F000000FB01F090FBF3F0A5F850004FF0DC006F
:101F1000FEF774F9F0BBDFF87CC3BCF80000DFF813
:101F200078B3BBF80010A0EB0100DC4AB2F9001056
:101F300001FB00F1B9F8000045F63863984204D07F
:101F4000A0F5BC4EBEF1920E04D14FF4967E91FBEB
:101F5000FEF10FE0404506D0A0F5AC4EBEF1130EE9
:101F600001D0B04202D191FBF7F103E04FF47A7E49
:101F700091FBFEF12981BCF80210BBF802C0A1EB75
:101F80000C0CB2F9021001FB0CF1984205D0A0F53F
:101F9000BC4200E017E0923A04D14FF4967091FBF6
:101FA000F0F00EE0404505D0A0F5AC42133A01D068
:101FB000B04202D191FBF7F003E04FF47A7091FB4D
:101FC000F0F0A5F85400BAF90C0051460646A0F20C
:101FD000213040F6B733002282464FF0010C984280
:101FE00001D22A7301E085F80CC0DFF8B4E2BEF933
:101FF0000000704344F6206B90FBFBF0A0F2111040
:102000006881B1F90E0040F6B733A0F2213B9B4541
:1020100002D285F8582001E085F858C0BEF9023098
:10202000434344F6206B93FBFBF0A0F21110974B57
:10203000A3F85600B1F904009A4BB3F9003000FB45
:1020400003F34FF4FA6593FBF5F31FB2964B1F8031
:10205000B1F90210954BB3F9003001FB03F14FF4D5
:10206000FA7591FBF5F1924B1980924BB3F9003060
:1020700000FB03F393FBF5F3DFF83CE2AEF800302E
:10208000A1EB03018D4B19808D49B1F9001000FBC4
:1020900001F0B9F80010414504D14FF4C87190FB2C
:1020A000F1F001E090FBF5F0864D00B22880DFF8FA
:1020B00018E2642817DA4FF00000BEF90080DFF85C
:1020C0000C920EE000EB800101EBC00109EBC101B5
:1020D000B5F90030096A994200DD298000F101005C
:1020E000C0B24045EEDB4FF000031846BEF90010C9
:1020F000764D0BE000EB800808EBC00805EBC80844
:10210000D8F82480434400F10100C0B28842F1DBDA
:102110006F48038040F6B7306E4B824501D21A708B
:1021200001E083F800C06C48B0F90000704390FBF8
:10213000FBF0A0F21110DFF8A49100B2A9F80000A2
:10214000DFF834C1BCF93460002E01DAACF8342079
:10215000BCF93460032E03DD4FF00306ACF83460A5
:10216000BCF8346006EB4606304400B2A9F8000023
:10217000584B1E785A4B96B14FF0140018805948AE
:10218000DFF864A1594E0088DFF8648148B14FF050
:102190003200AAF800005748008828B33EE01880B3
:1021A000EDE7554B18685B68A0EB03033B48B0F9BB
:1021B000000000FB03F04FF4FA6390FBF3F0BAF970
:1021C00000301BB1A3F10103AAF800304B4B1B7880
:1021D0001E2B01D94FF00000BAF80030002BDAD1E5
:1021E000A8F800003080D6E74FF0000318460BE057
:1021F00000EB800A0AEBC00A05EBCA0ADAF824A051
:10220000534400F10100C0B28842F1DB1BB24FF031
:102210000A0093FBF0F0A8F8000030801B4E778096
:10222000DFF8DCB0BBF800303648B0F900005843A6
:102230004FF47A6A90FBFAF0334B80B21880DFF8E3
:10224000CCE0642802D2AEF8000002E02088AEF8AC
:102250000000BBF802402B48B0F90200604390FB3D
:10226000FAF058802A4BB3F90000DFF8A8A0BAF9B9
:10227000004051E0BAC0072004C0072090010010C0
:10228000960100109C5D0010A40300105CEB072079
:10229000B2C0072092580010A8030010B6C0072053
:1022A000AC030010B603001076010010C6C0072072
:1022B0007C010010BC030010820100107E010010A0
:1022C000BA0300107A010010EC00001098ED07200E
:1022D000DE030010B9010010B00300102E02001040
:1022E00084010010A80100100C04001080010010EF
:1022F000740100106E01001004040010480000106A
:10230000FEC00720BCC0072034020010A00100104E
:102310009A050820F4030010444341F2707094FBC6
:10232000F0FBFF4CA4F800B0B3F902E0BAF902B038
:102330000BFB0EFB9BFBF0FBA4F802B0B3F904B05F
:10234000BAF904A00AFB0BFA9AFBF0FAA4F804A06D
:10235000B3F906B0F34CB4F900A00AFB0BFA9AFBF0
:10236000F0FBDFF8C4A3AAF800B0B3F908B0B4F9E1
:1023700002E00EFB0BFE9EFBF0FBAAF802B0B3F9E5
:102380000A30B4F9044004FB03F494FBF0F0AAF81B
:102390000400B9F80200E54C00F211100FFA80FABF
:1023A000A4F800A0B9F8040000F211100FFA80F9A7
:1023B000A4F80290DE484378237280786072DD4C86
:1023C00003B910B1012B0AD00AE00AEB090000EBB7
:1023D000D0706FF4887303EB600020801EE008B1BA
:1023E0002BB106E0A9F21119A4F8009016E001281B
:1023F00002D0012B05D011E0AAF2111AA4F800A016
:102400000CE001280AD1CC480078052803D2CB483B
:102410000088208002E04FF014002080C848037834
:10242000552B04D1C82F02DD3389ACF83A304078FF
:1024300055280BD1B6F94E00C82807DDB6F954006F
:10244000B6F90830984201DDACF83A00B8F800005F
:10245000ACF83A004FF0000347E003EB830000EBD9
:10246000C30005EBC000C478192C2ED28479C7793B
:1024700004EB07244462047A477A04EB07240462DD
:10248000847AC77A04EB0724C461047B8462447BAA
:1024900080F85640847B80F84640047C477C04EBFF
:1024A00007240463847CC77C04EB0724A0F85E4007
:1024B000047D477D04EB0724A0F86040847DC77D40
:1024C00004EB0724A0F862400CE0C26142620262A1
:1024D000826280F846200263A0F85E20A0F86020A7
:1024E000A0F8622003F10103DBB28B42B5DB954C0F
:1024F000B6F908304FF00A0093FBF0F3B6F95460D8
:1025000096FBF0F01844C0F1000007B227808E4E11
:1025100032804FF0000012E000EB800303EBC003B9
:1025200005EBC30393F803C0BCF1050F04D25B6A4B
:10253000B6F800C06344338000F10100C0B28842A5
:10254000EADB3088384400B22080002800DA22809C
:10255000228032804FF000000FE000EB800303EB9D
:10256000C00305EBC303DF78052F03D25B6A37880E
:102570003B44338000F10100C0B28842EDDB31887A
:1025800002EB010000B22080002800DA22806F48B0
:10259000B0F90040002C66D04FF000036C4E60E0B4
:1025A00003F1140000EB800101EBC00005EBC0005B
:1025B000C178192939D28179C77901EB072703EB53
:1025C000430106EB4111CF61077A90F809C007EB90
:1025D0000C27CF62877A90F80BC007EB0C278F612E
:1025E000077B0F62477B81F84670877B90F80FC0AE
:1025F00007EB0C278F62077C90F811C007EB0C27C4
:102600004F628A70877C81F85970C77C81F85A7054
:10261000077D81F85870477D81F85B70877D81F870
:102620005C70C07D81F85D0018E003EB430006EBB1
:102630004010C261C2628261026280F8462042623A
:1026400082624FF01901817080F8592080F85A2079
:1026500080F8582080F85B2080F85C2003F10103AB
:10266000DBB2A3429CDBBDE8FE8F3A48416821F40F
:10267000402141F480214160416821F4403141F41E
:1026800080314160416821F4404141F48041416022
:10269000416C21F4402141F400214164416C21F45A
:1026A000403141F400314164416C21F4404141F436
:1026B000004141642848016821F0E061016001683F
:1026C00041F400110160016821F48031016001686A
:1026D00021F47F4141F4807101604FF48071C16049
:1026E0001E484FF48001016070472DE9F0411C4CF9
:1026F00060882188401A00B203F0D5FAA61D308008
:10270000A0886188401A00B203F0CDFA7080A088DA
:102710002188401A00B203F0C6FAB08022E000001F
:102720003A02001006C10720400200103C050820B4
:10273000B9010010980100107200001004C10720B8
:102740001A01001078010010EC030010EE000010D8
:1027500060F9072000C002400040034000E100E0B3
:102760007AC007204FF49671A4F17605884202DA08
:10277000A08868850CE0B6F90200884202DA608819
:10278000688505E0B6F90000884201DA208868858E
:10279000EF7800262FB3F848B5F92A1002680A44EA
:1027A000026042680A44426082680A448260C268E9
:1027B0001144C160698E01F1010109B26986B1F568
:1027C000805F00DB6E86B5F932108A0531D14FEAA1
:1027D000A12150F821204FEA22222A8540F82160C9
:1027E00027E0E6482C796A7900EB8413B5F92A10C2
:1027F00043F8221090070FD1014653F820C06144DE
:1028000000F10100C0B21028F7D34FEA2110DA49D5
:10281000A1F1200121F81400641CE0B228711028F5
:1028200007D32E7102F10102D0B26871102800D3D3
:102830006E71AE7007F1010707F00100E870D04A31
:1028400030B1106820F0FF0000F1040010603DE09E
:102850002979080706D4106820F0FF0000F1010074
:10286000106005E0106820F0FF0000F10200106029
:10287000C448036843F080530360036A43F0804315
:102880000362036E43F080630366CB070AD043699B
:1028900043F0805343618B0709D4436B23F080439B
:1028A000436308E0436923F080534361F3E7436BDC
:1028B00043F080434363490704D4416F21F08061B2
:1028C000416703E0416F41F080614167106840F06B
:1028D00080701060BDE8F0812DE9F047AA4FF87BC9
:1028E000002805D1B7F9220020B1A0F101007884B9
:1028F000BDE8F087787B0A2803D200F101007873E5
:10290000F6E74FF000057D73BD73387C4FF001068C
:1029100008B13D7400E03E744FF000009C499B4CB0
:10292000B1F9002012E000EB800101EBC00104EBE3
:10293000C1018B78022B06D1C978142903D2B97B47
:1029400001F10101B97300F10100C0B29042EADB6C
:10295000BB7B022BCCD341F28830F865BD653D6668
:102960004FF000011CE001EB810000EBC10004EB23
:10297000C00090F802C0BCF1020F0ED1406AD7F837
:1029800058C0604500DDB865D7F85CC0604500DA26
:10299000F865D7F860C06044386601F10101C9B23A
:1029A0009142E0DB386E90FBF3F07866F86D00B989
:1029B000FE65B86D4FF0640100FB01F0F96D90FB0E
:1029C000F1F0B866A02800DD3E73782800DA3D7388
:1029D000387B012814D14FF000016FF031090DE070
:1029E00001EB810000EBC10004EBC0008378022BF7
:1029F00012D0A0F8645001F10101C9B29142EFDB9D
:102A000064486549B0F90000B1F90010401A142873
:102A10004FDA4FF000004AE0D0F824C04FF06403D2
:102A20000CFB03F3D7F86480B8F1000F00D17E6689
:102A300098467B6E98FBF3F80FFA88F8A0F864804C
:102A40009C450DDDB8F1780F0ADD97F810A0BAF1BA
:102A5000000F05D1B0F854A0AAF1010AA0F854A0C3
:102A60009C450ADAB8F1500F07DA3B7C2BB1B0F87D
:102A7000543003F10103A0F85430B0F954304B4501
:102A800001DAA0F85490B0F95430322BB3DD4FF096
:102A90003203A0F85430AEE700EB800101EBC00137
:102AA00004EBC101A1F8545000F10100C0B2904202
:102AB000F2DB00BF1CE710B53349B1F9240018B1AF
:102AC000A0F10100888410BD4FF0050088843348D0
:102AD000304BB0F900203248B3F90010B0F90000D3
:102AE000A0F10504A24209DA01F101010AB21A803B
:102AF00000F132018A420DDD19800BE0441DA24233
:102B000008DDA1F101010AB21A80A0F132018A4266
:102B100000DA1980188010BD70B54FF000031A4616
:102B200010461B49194CB1F9005011E000EB80012F
:102B300001EBC00104EBC10149780E0701D04FF051
:102B40000103C90601D54FF0010200F10100C0B236
:102B5000A842EBDB1349B1F900001BB140F00100C2
:102B6000088002E020F0010008800F480078E8B1FA
:102B7000012820D023E00000BC5D00109C5900100B
:102B80000040034000C0092004C0072098ED072042
:102B9000EC000010980000107E0100107C01001075
:102BA000960000102604001079000010088820F01C
:102BB0000200088003E0088840F002000880FF4817
:102BC000007810B1012805D008E0088820F0040042
:102BD000088003E0088840F004000880F848007886
:102BE00020B1012807D002280AD00DE0088820F083
:102BF0001800088008E0088840F01000088003E012
:102C0000088840F008000880EE48007820B10128CC
:102C100007D002280AD00DE0088820F06000088064
:102C200008E0088840F04000088003E0088840F091
:102C30002000088022B1088840F08000088003E06E
:102C4000088820F080000880DF48007820B10888DC
:102C500040F48070088003E0088820F480700880C9
:102C60004FF00000B1F90050D84CD9494FF001069F
:102C700034F910202A4206D00B8806FA00F242EA04
:102C800003020A8005E00B8806FA00F223EA020339
:102C90000B8000F10100C0B20428E9D370BD70B50B
:102CA000CC480168CC4A01EA02010160CB4C2168A2
:102CB00041F47C712160C16921F44021C161216E20
:102CC00041F000712166416821F040614160206857
:102CD00040F0005020604FF0D200FDF78FFABC4E5C
:102CE000BF4D10B12868652815D03088C0071ED0A8
:102CF000A06F40F00070A067D220FDF77FFA10B1FE
:102D00002868662818D03088800724D4E06940F00D
:102D10008000E06123E0686820B1A06F40F000709F
:102D2000A067E9E7E06F40F00070E067E4E7E06F7C
:102D300040F00070E067DFE7686810B1012805D057
:102D40000DE0E06940F08000E06108E0A06940F03B
:102D50008000A06103E0A06940F08000A061D22063
:102D6000FDF74CFA10B12868672807D03088400773
:102D700013D4E06940F01000E06112E0686810B11F
:102D8000012805D00DE0E06940F01000E06108E0A6
:102D9000A06940F01000A06103E0A06940F01000BD
:102DA000A061D220FDF72AFA10B12868682807D060
:102DB0003088000713D4E06940F40070E06112E04D
:102DC000686810B1012805D00DE0E06940F400709A
:102DD000E06108E0A06940F40070A06103E0A06930
:102DE00040F40070A0617F494FF000008886626F58
:102DF000920102D500F1010088866069000603D5C2
:102E0000888E00F1010088866069C00603D5888E2F
:102E100000F10100888670BD2DE9F05F714E00273A
:102E20004FF0010A307D0A2808D200F10100C0B23B
:102E300030750A2802D3377586F815A0A6F84670B3
:102E4000A6F84870CD20FDF7D9F9DFF89C81DFF8AE
:102E50009CB1A0B3624A4FF6FF731068CE2801D12F
:102E6000A6F84830CF2802D15168A6F84810D128DA
:102E700002D15168A6F84610D22801D1A6F84630F2
:102E8000D02806D15068A6F846006FEA0000A6F8E0
:102E900048004FF0000437E0B6F848000AFA04F999
:102EA00019EA000F0CD004EB840000EBC40008EB1F
:102EB000C00030F8441F01F10101018008E028E062
:102EC00004EB840000EBC40008EBC000A0F84470E1
:102ED00004EB840000EBC40008EBC00505F14400DE
:102EE00032220021FDF7E2F9B5F94400142801DD92
:102EF00085F82CA0B6F8460019EA000F01D085F835
:102F00002C7004F10104E4B2BBF900008442C3DD7B
:102F10009AE0707DF0B34FF000042146BBF9000049
:102F20000AE001EB810202EBC10208EBC20282F867
:102F30002CA001F10101C9B28142F2DD4FF0000184
:102F400022E0C2B2202A01D94FF02002B37E834290
:102F500001DB4FF000030B44DBB2B3FBF2F502FBE5
:102F6000153202EB820303EBC20208EBC202937834
:102F7000032B01D0022B04D182F82C7004F1010440
:102F8000E4B201F10101C9B2814206DA184AB2F98C
:102F9000002000E058E09442D3DBF17E01EB810297
:102FA00002EBC10108EBC10181F82C701149B1F9A4
:102FB00000103C292DDA4FF0000128E07C000010C1
:102FC0007A0000107B00001026C107204602001086
:102FD00030C1072000C00240FF00F0FF00C0092000
:102FE00094C0072004C0072098ED0720EC000010D3
:102FF000F0C007208000001001EB810202EBC1024B
:1030000008EBC20282F82C7001F10101C9B28142C1
:10301000F2DDFC49098879B14FF000010AE001EBCB
:10302000810202EBC10208EBC20282F82CA001F17E
:103030000101C9B28142F2DD4FF0000102E001F16D
:103040000101C9B28142FADD4FF000004FF0630484
:10305000BBF900300FE000EB800101EBC00108EB91
:10306000C1010A6C22B181F82C40A2F101020A646C
:1030700000F10100C0B29842EDDB777577744FF034
:103080000001084613E000EB800202EBC00208EBEF
:10309000C2029478022C07D1747C04F10104747488
:1030A000D2698A4200DD91B200F10100C0B29842BB
:1030B000E9DBF187BDE8F09F70B50A23D34CD24815
:1030C000002522680068B2FBF3F6B0FBF3F1D04AAA
:1030D000B1420BD111780F2902D201F10101117017
:1030E00011780A2903D3CB49086000E015702060ED
:1030F000C948CA4CB0F90000B4F90020B0FBF3F1A4
:10310000B2FBF3F3C64A99420BD111780F2902D2D0
:1031100001F10101117011780A2903D3C149088016
:1031200000E01570208070BD2DE9F04385B0BE4CE5
:10313000BE4E00252078401CC0B220700A2840D323
:103140002570DFF8ECC29CF8000000F101008CF85B
:103150000000B848B849B0F900000880B749DFF866
:10316000E08262463746B1F900105278B8F9003073
:10317000B7F90070884206DDA0EB0109B9F10A0F2A
:1031800001DB012F07D0884216DA081A0A2813DB60
:10319000012F09D010E002F101028CF80120A3F107
:1031A0000103A8F8003007E0A2F101028CF8012029
:1031B00003F10103A8F8003014225142A048FDF7A2
:1031C00075F82078DFF87C829F4F082825D1308859
:1031D000012822D1B8F800008DF800004FF004005B
:1031E0008DF801008DF802504FF002008DF80300B9
:1031F0008DF804504FF001008DF805004FF00601E6
:1032000068461DF053FE8DF806004FEA20208DF829
:103210000700B7F90000E8B301288C486FF01402EA
:10322000B0F90000C0EB001102EB8101884AB2F94D
:103230004420914234D13188012931D1B8F80010AD
:103240008DF800104FF006018DF801108DF8025036
:103250004FF01E018DF803104FEAE07100EB116191
:103260004FEA21228DF804208DF805004FF0060169
:1032700068461DF01BFE8DF806004FEA20208DF8F1
:103280000700388800280BD104466D46285D1FF0E2
:103290006FF900E007E004F10104E4B2082CF5D373
:1032A00005B0BDE8F0834FF00004E94619F80400CA
:1032B0001FF05EF904F10104E4B2082CF6D3ACE788
:1032C0002DE9F041064606EB8600624900EBC60098
:1032D00011F83020032A75D101EBC00494F8465050
:1032E0004FF00A07A80715D5B4F94A100A2922DABF
:1032F00001F1010108B2A4F84A000A281BDBA4F876
:103300004A706078C00716D101220021304601F0D2
:10331000E7FC10E0B4F94A0068B1A0F1010001B285
:10332000A4F84A1039B96078C00704D000221146C9
:10333000304601F0D5FC28074FF0000815D5B4F948
:103340004C100A2926DA01F1010108B2A4F84C0058
:103350000A281FDBA4F84C70607880071AD4012279
:103360001146304601F0BCFC14E0B4F94C100029C1
:103370000DDDA1F1010108B2A4F84C0050B94FF0E5
:1033800000024FF00101304601F0AAFC02E001DA30
:10339000A4F84C80E80616D5B4F94E000A2820DAC5
:1033A00000F1010000B2A4F84E000A2819DBA4F8CD
:1033B0004E706078400714D401220221304601F09B
:1033C0008FFC0EE072E0B4F94E0050B1A0F10100A4
:1033D00001B2A4F84E1021B900220221304601F0BA
:1033E0007FFC6078000703D04FF00500A07043E039
:1033F0001948007828B1E07814282FD984F8028081
:103400003AE02BE024C10720FC0300100CC1072088
:1034100012C10720F00100100004001010C10720A5
:1034200002040010A4010010780000100201001036
:1034300066050820DE030010B0010010B201001084
:10344000B40100100601001004010010BE000010BD
:1034500004C0072098ED07206700001094F846008C
:10346000800603D54FF00300A07005E0E078142833
:1034700002D24FF00200A070E0780A2806D394F838
:103480002C0040F0800084F82C0005E094F82C001B
:1034900000F07F0084F82C00FA49B4F95400B1F927
:1034A0001E10084460634FF4FA60A063BDE8F08129
:1034B00070B54FF00000F449F44D4FF00104B1F93C
:1034C0000C20034604FA00F10A4201D02C5400E01B
:1034D0002B5400F10100C0B20C28F3D3EC4E287835
:1034E000EC4C317881420BD0B4F90010012907DB94
:1034F00001287ED0002301220B21E7A018F0F4FF61
:103500007178687881420BD0B4F90010022907DB8A
:1035100001286FD0002302220B21E4A018F0E4FF61
:10352000B178A87881420BD0B4F90010032907DBE9
:10353000012872D0002303220B21E1A018F0D4FF50
:10354000F178E87881420BD0B4F90010042907DB48
:10355000012879D0002304220B21DEA018F0C4FF3B
:103560003179287981420BD0B4F90010052907DBA5
:10357000012871D0002305220B21DBA018F0B4FF35
:103580007179687981420BD0B4F90010062907DB04
:10359000012868D0002306220B21D8A018F0A4FF30
:1035A000B179A87981420BD0B4F90010072907DB63
:1035B00001285FD0002307220B21D5A018F094FF2B
:1035C000F179E87981420BD0B4F90010082907DBC2
:1035D000012856D0002308220B21D2A018F084FF26
:1035E000317A287A81420ED0B4F9001009290ADB19
:1035F00001E013E019E001284AD0002309220B2141
:10360000CDA018F071FF4FF00000295C315400F19B
:103610000100C0B20C28F8D370BD0EE001231A4699
:103620000B21CAA018F060FF6AE7012302220B21D8
:10363000CBA018F059FF73E706E0012303220B210A
:10364000CCA018F051FF7BE7012304220B21CEA070
:1036500018F04AFF84E7FFE7012305220B21CFA0E2
:1036600018F042FF8CE7012306220B21D0A018F0AE
:103670003BFF95E7012307220B21D2A018F034FF6E
:103680009EE7012308220B21D3A018F02DFFA7E706
:10369000012309220B21D5A018F026FFB3E770B54E
:1036A000D748B0F900001E28B6DBD648D74BD84C17
:1036B000B0F90020D448B0F90010B3F900008A42F4
:1036C00007DA8D1A322D04DDD24D2D8815F0810FC9
:1036D00009D032398A421BDDD0B1A0F1010000B21D
:1036E000188090B114E0B4F9001001EB8101B0EB47
:1036F000410F0DDA00F1010000B21880B0EB410F6C
:1037000006D1012001F0F0FC02E0002001F0ECFC09
:10371000C148C34AB0F90010C048B0F90000814266
:1037200014DDB4F9000000EB8001B2F90000B0EB49
:10373000410F1EDA00F1010000B21080B0EB410F22
:1037400017D1BDE87040012001F0CEBC11DAB548B8
:10375000008800280DD1B2F90000002809D0A0F19E
:10376000010000B21080002803D1BDE8704001F0D4
:10377000BBBC51E72DE9F041A148B0F900000A288F
:103780007DDBA04EA848A94FB6F90010B0F9002083
:10379000B7F900000025A64C914217DDB4F90020CE
:1037A00002EB8203B0EB430F0ADA00F1010000B232
:1037B0003880B0EB430F15DB012001F07EFE11E0F5
:1037C00002EB82004FEA400038800BE0002808DD61
:1037D000A0F1010000B2388020B9002001F06DFE98
:1037E00000E03D809348B6F90010934EB0F9000018
:1037F000814219DAB4F90000B6F9002000EB800329
:10380000B2EB430F0ADA02F1010210B23080B0EBE2
:10381000430F17DB022001F050FE13E000EB8000A5
:103820004FEA400030800DE0B6F90000002808DDC6
:10383000A0F1010000B2308020B9002001F03DFE6F
:1038400000E035807D4E7E487E4FB6F90010B0F91D
:103850000000814214DDB4F90000B7F9002000EB4C
:103860008003B2EB430F0CDA02F1010210B2388090
:10387000B0EB430F02DB012001F06FFFF8E019E12C
:10388000E8E0E1E004C007209A0508205A05082076
:103890006C5E0010F40000104176746F6D6174204E
:1038A0002331206973204F46460000004176746F33
:1038B0006D6174202332206973204F46460000005A
:1038C0004176746F6D6174202333206973204F46F5
:1038D000460000004176746F6D61742023342069C6
:1038E00073204F46460000004176746F6D6174206E
:1038F0002335206973204F46460000004176746FDF
:103900006D6174202336206973204F464600000005
:103910004176746F6D6174202337206973204F46A0
:10392000460000004176746F6D6174202338206971
:1039300073204F46460000004176746F6D6174201D
:103940002339206973204F46460000004176746F8A
:103950006D6174202331206973204F4E20000000D8
:103960004176746F6D6174202332206973204F4E4D
:10397000200000004176746F6D617420233320694C
:1039800073204F4E200000004176746F6D617420EB
:103990002334206973204F4E200000004176746F5D
:1039A0006D6174202335206973204F4E2000000084
:1039B0004176746F6D6174202336206973204F4EF9
:1039C000200000004176746F6D61742023372069F8
:1039D00073204F4E200000004176746F6D6174209B
:1039E0002338206973204F4E200000004176746F09
:1039F0006D6174202339206973204F4E2000000030
:103A0000800000107C0100109600001028C10720E3
:103A100072010010260400107401001070010010E3
:103A20001E040010A8010010AE0000102AC10720DB
:103A3000BC000010B0000010200400107E01001037
:103A4000AA0000102CC1072000EB80004FEA4000C4
:103A500038800DE0B7F90000002808DDA0F1010072
:103A600000B2388020B9002001F077FE00E03D80F0
:103A7000B6F90010FF48B0F90000FF4E81421ADA93
:103A8000B4F90000B6F9002000EB8003B2EB430F5D
:103A90000BDA02F1010210B23080B0EB430F09DB08
:103AA000BDE8F041022001F058BE00EB80004FEA73
:103AB00040003080FAE4B6F90000002809DDA0F1EA
:103AC000010000B230800028F4D1BDE8F04101F0DF
:103AD00044BE3580EAE430B4E848B0F900000A2872
:103AE00022DBE748E84CB0F90010E648B0F90020C6
:103AF000B4F90000914219DDE44AB2F9002002EB6A
:103B00008203B0EB430F0ADA00F1010000B220801B
:103B1000B0EB430F08DB30BC012001F077BF02EBB4
:103B200082004FEA4000208030BC7047002808DD4A
:103B3000A0F1010000B220800028F5D130BC01F0D6
:103B400065BF4FF000002080EEE738B5D049D14C7A
:103B5000098881B1D049097821B14FF01401ADF83D
:103B6000001003E0CD490988ADF80010CC4ABDF93A
:103B7000001011602080CB48008810B1CA4800882E
:103B80002080BE20FCF73AFB28B1C8480168BF2955
:103B900001D140682080C648008820B1C5492088EE
:103BA000098808442080B4F900004FF0620100FB4E
:103BB00001F14FF0640291FBF2F1BF4B19804FF01D
:103BC000660100FB01F090FBF2F0BC49088038BDB3
:103BD0002DE9F041BA4CB4F9260010B1A0F1010072
:103BE000E084B848B84D00882880B84E0A27B6F956
:103BF0000800002806DAFCF783FB90FBF7F0298821
:103C000008442880B6F95400002806DAFCF778FB4F
:103C100090FBF7F0298808442880AD48B5F90010DA
:103C2000B0F9000091FBF0F000F10100C0B2A07407
:103C3000A84AB2F9002091FBF2F101F10101C9B2E9
:103C4000E174A54B4FF03C05B3F90020904202DD32
:103C50001880E58405E0914203DAE08C08B9198008
:103C6000E5849E48B0F900201A80BDE8F0410121AA
:103C70009948FCF71BBB2DE9F0479948DFF84082D3
:103C8000B0F90010A8F83C108648008818B1954893
:103C90000088A8F83C00B8F9500018B1A0F1010064
:103CA000A8F85000B8F9520018B1A0F10100A8F826
:103CB000520086484FF00A0990F83F20920703D13E
:103CC00090F88B00800703D091FBF9F0A8F83C0036
:103CD00085480125B0F90010491E052900D305804B
:103CE000B0F90000002400EB800198F80700B0EB69
:103CF000410F0BDA00F10100C0B288F80700B0EB09
:103D0000410F03DB88F8074088F80850E120FCF7F2
:103D100075FA604B754A764E40F2DA7700287ED00D
:103D20006249086864280AD069280FD0DFF8C4C146
:103D30006E2813D0E52833D0E62835D06BE14868EB
:103D4000B8F820100844A8F81E0064E14868B8F8E4
:103D50002010A1EB0000A8F81E005CE1B8F81E00DE
:103D6000A0F1010000B2A8F81E001E2806DD62497D
:103D7000BCF90000B1F9001088420EDA98F8010091
:103D8000401CC0B288F80100FA2805D10A2300229D
:103D9000E721E620FCF7F3F93DE188F801403AE13C
:103DA0004868A8F81E0036E1BCF90010B3F900001D
:103DB00081421FDD4FF00B0188F81D10B2F9001091
:103DC000A1EB0000282808DDB8F91E00002804DD5A
:103DD000A0F10500A8F81E001DE1B8F91E0000289A
:103DE00007D098F80810002903D0A0F10100A8F826
:103DF0001E0010E1B2F90010814213DA4FF00C02FC
:103E000088F81D20A0EB010028280CDDB8F91E0061
:103E100040F2DF71884206DA00F1050000E010E0B0
:103E2000A8F81E00F7E0B8F91E0040F2E4718842DD
:103E30001EDA98F80810D9B100F10100A8F81E00A8
:103E4000E9E098F8080098B12C48008818B196F875
:103E5000430328280CD9B8F92000A8F838004FF0FF
:103E6000130188F81D10B8F93AC09CFBF9F947E036
:103E7000D1E00000AC00001022040010800000100F
:103E800084010010A00000102EC10720BC0000100B
:103E9000DE0000109A010010B90100102E0200107F
:103EA000F4C00720160400101204001094C007206C
:103EB00002010010B4010010EA030010EEC0072058
:103EC00004C00720EC030010F8C007205CEB0720BB
:103ED000B4000010B6000010F0C00720EC00001085
:103EE000B80000101CC10720160100107A01001054
:103EF00098ED072076010010A4000010A801001022
:103F0000B8F83C10B9EB410F10DD4FF0140188F800
:103F10001D10B8F8501021B1A0F10100A8F8380028
:103F200039E0A0F10A00A8F8380034E014DAC1EB57
:103F3000011AE24510DA4FF0150188F81D10B8F8A3
:103F4000501021B1A0F10100A8F8380023E0A0F141
:103F50000300A8F838001EE0C1EB011AE2450ADDB3
:103F6000894508DD4FF0160188F81D10A0F1010009
:103F7000A8F838000FE0B2F90000B3F90010884249
:103F800004DA4FF0170088F81D0004E003DD4FF05D
:103F9000210088F81D00FF4840F28A22B0F9001085
:103FA000FD48B0F90000A1EB000000F11E004FF445
:103FB000FA6100FB01F191FBF2F1A8F8381000283A
:103FC00001DAA8F838403A460A21F448FCF76EF9BD
:103FD000B8F83800A8F82000A8F81E00F04A98F8B1
:103FE0000B1022F8110001F10101C8B288F80B0092
:103FF000102801D388F80B404FF00001084632F931
:104000001030194400F10100C0B21028F7D34FEA74
:104010002110A8F8400088F80A4088F80940E148D3
:10402000B0F900201BE001EB810000EBC10006EBC2
:10403000C000C3781E2B01D288F80A5000F12C0072
:10404000B8F81EC0038D6344438710F82C39DB0792
:1040500001D0A0F8664001F1010188F8091098F834
:1040600009109142DFDB98F80A0038B94FF49660E6
:10407000A8F81E00A8F82000A8F83800C7483A465B
:104080000A211A38FCF712F988F80840BDE8F087D1
:104090002DE9F05F4FF00000C54AC34BC34D4FF010
:1040A000010A4FF00A0B0646B2F9004026E0C1496A
:1040B000BB4F095C403F37F91110B1F5FA6F0EDACA
:1040C00019560A2908DA01F1010149B219540A29DD
:1040D00011DB05F800A00EE003F800B00BE0195664
:1040E000002907DDA1F1010149B21954002902DCC0
:1040F0002E5400E01E5400F10100C0B2A042D6DBF5
:104100004FF00004DFF8B092AC4FDFF8B48283E0E8
:10411000AC4830F9140010B9295D01290FD008B15D
:10412000285D60B119F90400002819DBA0F1010035
:1041300040B209F80400002814DC3E5512E019F9D9
:1041400004000A2809DA00F1010040B209F804006D
:104150000A2807DB07F804A004E009F804B001E02E
:1041600009F8046018F80410385D81424ED08B4A7B
:10417000383AD18E01F10101D186012807D054B31C
:10418000012C2FD0022C34D0032C39D03EE034B196
:10419000012C0BD0022C10D0032C15D036E00123BB
:1041A0001A460F2188A018F09FF92FE00123022260
:1041B0000F2188A018F098F928E0012303220F218D
:1041C00087A018F091F921E0012304220F2187A094
:1041D00018F08AF91AE0002301220F2186A018F0B6
:1041E00083F913E0002302220F2188A018F07CF944
:1041F0000CE0002303220F2189A018F075F905E0D7
:10420000002304220F218BA018F06EF9385D08F806
:10421000040004F10104E4B26548B0F900008442EE
:10422000FFF676AFBDE8F09F874A4FF001001070AF
:10423000864908705070487070472DE9F05F8548D6
:10424000DFF81492DFF80882B0F900C0B9F9000075
:10425000524CC0EB0011383CB8F902706FF01D0AE7
:104260006FF0950B0025784EB4F944000AEB8102FB
:104270000BEB8103674505DCDFF8E0C1BCF900C04A
:10428000674504DA824202DD834200DA3570744FFA
:10429000B8F908C0B7F900E06C4FBCEB4E0F04DC76
:1042A000CEF1000EBCEB4E0F04DA824202DD8342F7
:1042B00000DA3D706FF0090202EB8101814220D1EA
:1042C000A07DF0B9307801281BD13878012818D1A9
:1042D0004FF4D67019F04BFF6249B1F900108842D3
:1042E0000FD06148008860B198F83D00C00708D140
:1042F0004FF4D6701AF039F85C48017801F10101E9
:1043000001705448B8F90210B0F90000814206DC8F
:104310005248B8F94E10B0F9000081420EDAB9F9EE
:104320000000B4F94410C0EB00100AEB80028A428E
:1043300004DD0BEB8000884200DA75704849B8F95B
:104340005400B1F90010B0EB410F03DC4942B0EB6F
:10435000410F0EDAB9F90000B4F94410C0EB0010B7
:104360000AEB80028A4204DD0BEB8000884200DA0F
:104370007D70B9F90000C0EB00116FF0090000EB8F
:104380008100B4F94410884203D1A07D08B9707847
:104390006EE08CE0980000107E0100103CC0072009
:1043A000DC5D0010EC000010E0010010BC0100100A
:1043B000F20000103E570200EAC00720C0010010C2
:1043C000E60300104E020010534B20233120416CB5
:1043D00061726D00534B20233220416C61726D007D
:1043E000534B20233320416C61726D00534B2023CB
:1043F0003420416C61726D00534B20233120416C9D
:1044000061726D206973206F66660000534B202334
:104410003220416C61726D206973206F6666000006
:10442000534B20233320416C61726D206973206FE0
:1044300066660000534B20233420416C61726D206E
:104440006973206F66660000EE030010FAC0072053
:104450005CEB0720EEC00720BE000010EA0300104E
:10446000B2000010D8C00720E8000010FCC00720F0
:1044700001281CD17878012819D14FF4E575284618
:1044800019F075FEFF49B1F9021088420FD0FE48BD
:10449000008802280BD198F88900C00707D1284668
:1044A00019F063FFF948017801F101010170B9F9D0
:1044B00000006FF00101C0EB001001EB8000B4F9C7
:1044C0004410884202D1BDE8F05FADE6AAE62DE9CE
:1044D000F003EF48EF4FF04E00784FF0000C4FF034
:1044E0000108E8B3ED483946B0F90050EC48B1F99D
:1044F0000010B0F90090EB484D45B0F90020EA48B3
:10450000B0F90030E948B0F90040E948B0F90000DE
:1045100013DA824203DB834201DB84420DDAE54891
:10452000B0F90020914223DA01F1010108B238808C
:1045300090421DD186F800C01AE0DFF87CC3BCF9B8
:1045400000C0654514DD824212DD834210DD8442E5
:104550000EDD69B1A1F1010108B2388040B900E077
:1045600002E086F8008003E0A7F800C086F800802B
:104570003078002807D1BDE8F0030F2301226E2117
:10458000D220FBF7FCBDBDE8F00370472DE9F041F8
:10459000CA4CA07EE0764FF00005A576C84EB6F96D
:1045A0000000002802DDB0F5FA7F02DD3580BDE8AD
:1045B000F081207F00F10100C0B220773C281AD39F
:1045C00025774FF49477384619F0D1FD00F10100BA
:1045D00000B2A4F85400BB4AB6F90010B2F90020AA
:1045E00001FB02F1814201DCA4F85450B4F95410EB
:1045F000384619F0BAFEB4F95400B6F9001090FB31
:10460000F1F0A076D3E710B500214FF4947019F0C3
:10461000ACFEAA494FF03A00087710BD2DE9F041F1
:104620004FF00002A748A84FB0F900606EE002EB1F
:10463000820000EBC20007EBC000417B8B0906D073
:104640000123B3EB911F05D180F859100FE080F8DA
:1046500058100CE00223B3EB911F02D180F85A10DE
:1046600005E00323B3EB911F01D180F85B1010F834
:10467000581FC1F30114437803F0300544EA95054F
:10468000847804F0300C4CEA050CC578A0F1580091
:1046900005F030084CEA880C01F00F0103F00F031D
:1046A00083EA010804F00F0484EA080805F00F0506
:1046B00085EA0808E04513D14FEA051544EA0504E8
:1046C0004FEA041443EA04034FEA03534FEA134347
:1046D00041EA0301B0F85C308B4201D0A0F85C10D5
:1046E0007A49B0F85C30B1F9001001EB8101B3EB0D
:1046F000410F04DD417841F01001417003E0417841
:1047000021F01001417002F10102D2B2B2428EDBFF
:104710004DE72DE9F04F87B06D48684C6D496E4A02
:10472000007894F90030B1F90010B2F9002048B1D6
:1047300002283CD001287ED04FF00100207007B045
:10474000BDE8F08F654FDFF89881B7F90A003D7B2F
:10475000B7F9566098F800C097F8587098F801803B
:104760002BB1012BEBD1BCF1550F15D110E0BCF1F1
:10477000550F02D1884207DC35B9B8F1550FDED1AB
:104780008E4201DC002FDAD04FF001002070D6E716
:104790009042D4DA002DD2D1B8F1550F03D1964210
:1047A000CDDA002FCBD14FF000002070C7E7464E86
:1047B0004448B56AB0F90000F67818B18D4260DC63
:1047C0001E2E5ED2DFF800C10128DCF890709CF844
:1047D0006BC0CDF818C006DD8F4252DCDDF818C082
:1047E000BCF11E0F4DD2DFF8E0C00228DCF8F880E3
:1047F000CDF814809CF8D3C0CDF810C008DDDDF8EA
:1048000014C08C453DDCDDF810C0BCF11E0F38D261
:10481000DFF8B4C00328DCF86081CDF80C809CF888
:104820003BC1CDF808C00ADDDDF80CC08C4574DC56
:10483000DDF808C000E0B2E0BCF11E0F6DD2DFF879
:1048400088800428D8F8C8C198F8A381CDF80480DE
:1048500006DD8C4561DCDDF80480B8F11E0F5CD20A
:10486000DFF864900528D9F8308299F80B92CDF8DA
:10487000009038DD884550DCDDF80090B9F11E0F5E
:1048800030E04AE0D8C00720E8000010FCC0072054
:104890005D00001014C10720B0C007207601001091
:1048A000DA0000108A0100108C0100108E01001047
:1048B000A6000010D8000010DC00001004C0072083
:1048C000E6000010EC00001098ED07200001001039
:1048D000C6030010CCC00720C20300105CEB072009
:1048E0001A01001019D2DFF888A106289AF873E29D
:1048F000DAF8989204DD89450FDCBEF11E0F0CD268
:10490000DFF86CB10728DBF800A39BF8DBB208DD09
:104910008A4502DCBBF11E0F03D34FF0010020706B
:104920000DE7012BFCD118B19542F9DA0A2EF7D226
:10493000022804DB9742F3DA06990A29F0D2032809
:1049400005DB05999142EBDA04990A29E8D204289B
:1049500005DB03999142E3DA02990A29E0D205289E
:1049600004DB9445DCDA01990A29D9D2062804DB54
:104970009045D5DA00990A29D2D2072804DB91455F
:10498000CEDABEF10A0FCBD2082804DB9245C7DA93
:10499000BBF10A0FC4D24FF000002070CFE63548BB
:1049A000354D364EB0F90000B5F90050367810B1EB
:1049B0008D421DDCE6B9304FDFF8C0C00128B7F9E1
:1049C00002709CF801C004DD8F4211DCBCF1000FC5
:1049D0000ED1DFF8A480DFF8A4900228B8F9048093
:1049E00099F8029008DD884502DCB9F1000F03D088
:1049F0004FF001002070A2E6012B91D118B1954231
:104A00008EDA002E8CD1022804DB974288DABCF1C2
:104A1000000F85D1032804DB9045BFDAB9F1000F00
:104A2000BCD14FF00000207089E6154815490022DE
:104A3000B0F900300878142B09DD052803D200F105
:104A40000100087007E04FF00500087003E010B1A6
:104A5000A0F10100087008780B49052803D0002850
:104A600000D10A7070474FF00100087070470000D5
:104A700098ED0720F00000102E020010B901001080
:104A8000820100101A04001026C1072030B5FF482B
:104A9000FF4A0178106819B140F00100106002E08F
:104AA00020F0010010604FF00000FA4C4FF00103BD
:104AB00000EB800101EBC00104EBC101497811F06A
:104AC000EF0F0AD000F1030503FA05F1156825EA96
:104AD000010545EA0105156007E000F1030103FA4D
:104AE00001F5116821EA0501116000F10100C0B271
:104AF0001D28DDD34FF01D0000EB800101EBC0014C
:104B000004EBC101497811F0EF0F0AD0A0F11D05A7
:104B100003FA05F1556825EA010545EA01055560E6
:104B200007E0A0F11D0103FA01F5516821EA050132
:104B3000516000F10100C0B22028DDD3D6480078D2
:104B400020B1106840F00200106003E0106820F00F
:104B50000200106010681369044620EA03009061A7
:104B6000916841EA0001916023EA04036FEA0300BF
:104B7000D061CA4BB3F90030002B02D140F00600DF
:104B8000D061D06901EA00019160146150685369F5
:104B9000044620EA03001062D16841EA0001D160B6
:104BA00023EA04036FEA0300506201EA0001D160C6
:104BB000546130BDF8B54FF46065284619F0D7FA56
:104BC00000F1010004463F2C01D94FF0000421B24E
:104BD000284619F0CAFB40F60266304619F0C7FABB
:104BE0003F2800D0204601B2304619F0BEFB2846CF
:104BF00019F0BDFA4FF4806101EB40144FF05500FD
:104C00008DF800004FF000068DF801604FF0520063
:104C10008DF802008DF803606946204619F029FCE2
:104C200000966946201D19F024FC9D4DA88B8DF837
:104C30000000287E8DF80100287B8DF802008DF899
:104C40000360694604F1080019F013FC287A8DF816
:104C5000000028798DF8010028788DF8020091482D
:104C6000D0F880018DF80300694604F10C0019F0BA
:104C700000FC4FF041058DF800508DF801508DF883
:104C800002508DF80350694604F1100019F0F1FB51
:104C90008DF800508DF801508DF802508DF80350BA
:104CA000694604F1140019F0E4FB8DF800508DF80A
:104CB00001508DF802508DF80350694604F1180038
:104CC00019F0D7FB8DF800508DF801508DF8025087
:104CD0008DF80350694604F11C0019F0CAFBF8BDB9
:104CE0002DE9F84F06460C464FF0540774B1012CDD
:104CF00004D0022C05D0032C06D007E04FF0550756
:104D000004E04FF0750701E04FF04C07DFF89081A9
:104D1000604806EB860101EBC6014FF00009A8F1DF
:104D200020084FF4606A4FF4806500EBC100012A4F
:104D300002D0002A7ED0D4E134B1012C09D0022C5B
:104D40000CD0032C0FD012E0417841F001014170EA
:104D50000DE0417841F00201417008E0417841F0F6
:104D60000401417003E0417841F00801417080F88E
:104D70005740504619F0FBF900F101001FFA80FB83
:104D8000BBF13F0F01D94FF0000B0FFA8BF15046EA
:104D900019F0EBFA40F6026019F0E9F980B23F2809
:104DA00000D0584601B240F6026019F0DEFA5046D3
:104DB00019F0DDF905EB401085B24FF053008DF886
:104DC00000008DF801608DF802708DF8039069463F
:104DD000284619F04EFBCDF800906946281D19F0C1
:104DE00048FBB8F83C008DF8000098F838008DF8C2
:104DF000010098F82C008DF802008DF803906946A8
:104E000005F1080019F035FB98F828008DF800002E
:104E100098F824008DF8010098F820008DF8020021
:104E20008DF80390694605F10C0019F022FB4FF054
:104E3000410700E0B5E08DF800708DF801708DF845
:104E400002708DF80370694605F1100019F011FB2E
:104E50008DF800708DF801708DF802708DF8037078
:104E6000694605F1140019F004FB8DF800708DF807
:104E700001708DF802708DF80370694605F1180015
:104E800019F0F7FA8DF800700EE0000067000010CE
:104E90001800001098ED072076000010A200001006
:104EA0002040024000C00F408DF801708DF8027064
:104EB0008DF80370694605F11C0019F0DAFA26B185
:104EC000012E26D0022E48D00BE134B1012C0BD09C
:104ED000022C10D0032C15D003E100230122042161
:104EE000DEA017F001FBFCE001231A460421E1A03B
:104EF00017F0FAFAF5E0022301220421E4A017F0EA
:104F0000F3FAEEE0032301220421E9A017F0ECFA02
:104F1000E7E034B1012C0BD0022C10D0032C15D0BB
:104F2000DFE0002302220421E9A017F0DDFAD8E037
:104F3000012302220421ECA017F0D6FAD1E00223CB
:104F40001A460421EFA017F0CFFACAE00323022289
:104F50000421F4A017F0C8FAC3E034B1012C0BD03F
:104F6000022C10D0032C15D0BBE000230322042117
:104F7000F4A017F0B9FAB4E0012303220421F7A04A
:104F800017F0B2FAADE0022303220421FAA017F0D1
:104F9000ABFAA6E003231A460421FFA017F0A4FAF7
:104FA0009FE034B1012C09D0022C0CD0032C0FD07F
:104FB00012E0417821F0010141700DE0417821F0CB
:104FC0000201417008E0417821F00401417003E0E2
:104FD000417821F008014170504619F0C8F81FFAD5
:104FE00080FB5C4605EB44101FFA80FA6946504688
:104FF00019F044F99DF80000532807D19DF80100ED
:10500000B04203D19DF80200B84209D01CB1A4F10E
:105010000104A4B201E04FF03F045C45E2D160E03E
:1050200069460AF1100019F029F99DF8000041289D
:105030000BD19DF80100412807D19DF802004128BD
:1050400003D19DF80300412809D01CB1A4F101044B
:10505000A4B201E04FF03F045C45C3D141E0B8F891
:105060003C008DF8000098F838008DF8010098F8A1
:105070002C008DF802008DF8039069460AF11000AB
:1050800019F0F7F998F828008DF8000098F8240036
:105090008DF8010098F820008DF802008DF803903B
:1050A00069460AF1140019F0E4F94FF042048DF852
:1050B00000408DF801408DF802408DF803406946AC
:1050C0000AF1180019F0D5F98DF800408DF801406B
:1050D0008DF802408DF8034069460AF11C0019F072
:1050E000C8F900BFBDE8F88F2DE9F843B34AB24FC5
:1050F0004FF4606511784FF000084FF48069012883
:1051000016D000287DD100297BD082F80080284667
:1051100019F02DF886B2344609EB441085B2694681
:10512000284619F0ABF89DF800004F286AD153E1EA
:10513000012966D04FF001001070284619F017F8C9
:1051400000F1010084B23F2C01D94FF0000421B2DC
:10515000284619F00AF940F60266304619F007F8B9
:1051600081B23F2900D0214609B2304619F0FDF83E
:10517000284618F0FCFF09EB401084B24FF04F00B6
:105180008DF800004FF056008DF801004FF04C00F4
:105190008DF802008DF803806946204619F069F900
:1051A000CDF800806946201D19F063F907F120074A
:1051B000B88B8DF80000387E8DF80100387B8DF8B3
:1051C00002008DF80380694604F1080019F051F9D6
:1051D000387A8DF8000038798DF8010038788DF82C
:1051E00002008DF80380694604F10C0019F041F9C2
:1051F0004FF041058DF800508DF801508DF80250A8
:1052000001E0E7E0F0E08DF80350694604F110009A
:1052100019F02FF98DF800508DF801508DF80250DB
:105220008DF80350694604F1140019F022F98DF845
:1052300000508DF801508DF802508DF803506946EA
:1052400004F1180019F015F98DF800508DF801508F
:105250008DF802508DF803506946B1E0425053205A
:10526000233120416C61726D2C206F766572686508
:105270006174000042505320233120416C61726DF3
:105280002C20766F6C7461676520697320757000DF
:1052900042505320233120416C61726D2C20766F77
:1052A0006C7461676520697320646F776E0000001D
:1052B00042505320233120416C61726D2C20636F6A
:1052C0006E6E656374206973206C6F7374000000E8
:1052D00042505320233220416C61726D2C206F7636
:1052E000657268656174000042505320233220418A
:1052F0006C61726D2C20766F6C74616765206973C8
:105300002075700042505320233220416C61726D31
:105310002C20766F6C7461676520697320646F77E9
:105320006E00000042505320233220416C61726DA8
:105330002C20636F6E6E656374206973206C6F73CD
:105340007400000042505320233320416C61726D81
:105350002C206F766572686561740000425053209E
:10536000233320416C61726D2C20766F6C74616701
:10537000652069732075700042505320233320410B
:105380006C61726D2C20766F6C7461676520697337
:1053900020646F776E000000425053202333204179
:1053A0006C61726D2C20636F6E6E6563742069731F
:1053B000206C6F7374000000004002407900001000
:1053C00004F11C0019F055F8022301220521FAA06E
:1053D00017F08AF8BDE8F8839DF80100562803D13C
:1053E0009DF802004C280AD01CB1A4F10104A4B21B
:1053F00001E04FF03F04B4427FF48EAEEAE7694625
:1054000005F1100018F03AFF9DF8000041280BD17B
:105410009DF80100412807D19DF80200412803D1E1
:105420009DF80300412809D01CB1A4F10104A4B2E5
:1054300001E04FF03F04B442DED1CBE707F1200793
:10544000B88B8DF80000387E8DF80100387B8DF820
:1054500002008DF80380694605F1100019F009F883
:10546000387A8DF8000038798DF8010038788DF899
:1054700002008DF80380694605F1140018F0F9FF69
:105480004FF042048DF800408DF801408DF8024045
:105490008DF80340694605F1180018F0EAFF8DF811
:1054A00000408DF801408DF802408DF803406946B8
:1054B00005F11C0018F0DDFF8CE72DE9F34F81B0FA
:1054C0000546C1490878A8427ED09DF808609DF83D
:1054D0000970DFF8F8824FF460644FF000094FF470
:1054E000806A012D19D0022D17D0002D6CD1002813
:1054F0006AD081F80090204618F039FE1FFA80FB30
:105500005C460AEB441085B26946284618F0B6FEA0
:105510009DF8000056287DD1A6E00D70204618F0B9
:1055200026FE00F101001FFA80FBBBF13F0F01D9FD
:105530004FF0000B0FFA8BF1204618F016FF40F6E3
:10554000026018F014FE80B23F2800D0584601B225
:1055500040F6026018F009FF204618F008FE0AEB3A
:10556000401084B24FF056008DF800004FF04F000D
:105570008DF801004FF055008DF802004FF05400F7
:105580008DF803006946204618F073FF8DF800601F
:105590008DF801708DF802508DF803906946201D3A
:1055A00018F067FFB8F83C008DF8000098F8380054
:1055B0008DF8010098F82C008DF802008DF803900A
:1055C000694604F1080000E04CE018F052FF98F83A
:1055D00028008DF8000098F824008DF8010098F854
:1055E00020008DF802008DF80390694604F10C004C
:1055F00018F03FFF4FF041058DF800508DF8015035
:105600008DF802508DF80350694604F1100018F02F
:1056100030FF00E034E08DF800508DF801508DF837
:1056200002508DF80350694604F1140018F021FF70
:105630008DF800508DF801508DF802508DF8035010
:10564000694604F1180018F014FF8DF800508DF829
:1056500001508DF802508DF80350694604F11C008A
:1056600018F007FFBDE8FE8F9DF801004F2807D115
:105670009DF80200552803D19DF8030054280AD054
:105680001CB1A4F10104A4B201E04FF03F045C4559
:105690007FF437AFE6E7694605F1100018F0EEFD3C
:1056A0009DF8000041280BD19DF80100412807D149
:1056B0009DF80200412803D19DF80300412809D03C
:1056C0001CB1A4F10104A4B201E04FF03F045C4519
:1056D000DED1C7E7B8F83C008DF8000098F8380034
:1056E0008DF8010098F82C008DF802008DF80390D9
:1056F000694605F1100018F0BCFE98F828008DF8F6
:10570000000098F824008DF8010098F820008DF82A
:1057100002008DF80390694605F1140018F0A9FE07
:105720008DF800608DF801704FF042048DF8024052
:105730008DF80340694605F1180018F09AFE8DF8BF
:1057400000408DF801408DF802408DF80340694615
:1057500005F11C0018F08DFE84E72DE9F34F81B0B0
:1057600005461B480178A9427ED09DF808609DF847
:105770000970DFF858804FF460644FF000094FF46F
:10578000806A012D26D0022D24D0002D6CD180F806
:105790000090204618F0EBFC84B2A3465C460AEB6E
:1057A000441085B26946284618F068FD9DF800004F
:1057B00056287DD1B2E0000053797374656D206F77
:1057C0007665726C6F6164007A00001000400240E0
:1057D0007B0000100570204618F0C9FC00F10100A4
:1057E0001FFA80FBBBF13F0F01D94FF0000B0FFAFE
:1057F0008BF1204618F0B9FD40F6026018F0B7FCB6
:1058000080B23F2800D0584601B240F6026018F03E
:10581000ACFD204618F0ABFC0AEB401084B24FF010
:1058200056008DF800004FF049008DF801004FF050
:105830004E008DF802008DF803906946204618F05E
:1058400018FE8DF800608DF801708DF802508DF80B
:1058500003906946201D18F00CFEB8F83C008DF846
:10586000000098F8380000E057E08DF8010098F843
:105870002C008DF802008DF80390694604F10800B1
:1058800018F0F7FD98F828008DF8000098F824002B
:105890008DF8010098F820008DF802008DF8039033
:1058A000694604F10C0018F0E4FD4FF0410500E0FA
:1058B0003FE08DF800508DF801508DF802508DF8C2
:1058C0000350694604F1100018F0D3FD8DF8005024
:1058D0008DF801508DF802508DF80350694604F19F
:1058E000140018F0C6FD8DF800508DF801508DF8A9
:1058F00002508DF80350694604F1180018F0B9FD04
:105900008DF800508DF801508DF802508DF803503D
:10591000694604F11C0018F0ACFDA3E69DF80100F7
:10592000492806D19DF802004E2802D19DF80300B7
:1059300050B11CB1A4F10104A4B201E04FF03F0446
:105940005C457FF42CAF8DE6694605F1100018F038
:1059500095FC9DF8000041280BD19DF801004128DD
:1059600007D19DF80200412803D19DF8030041288A
:1059700009D01CB1A4F10104A4B201E04FF03F042E
:105980005C45DED16EE6B8F83C008DF8000098F872
:1059900038008DF8010098F82C008DF802008DF881
:1059A0000390694605F1100018F063FD98F828008F
:1059B0008DF8000098F824008DF8010098F8200078
:1059C0008DF802008DF80390694605F1140018F077
:1059D00050FD8DF800608DF801704FF042048DF895
:1059E00002408DF80340694605F1180018F041FDAA
:1059F0008DF800408DF801408DF802408DF803408D
:105A0000694605F11C0018F034FD2BE62DE9F34F33
:105A100081B0A0490A7882427ED09DF808709DF836
:105A20000980DFF874924FF460654FF0000A4FF47C
:105A3000806B012814D000286ED181F800A0284680
:105A400018F095FB86B234460BEB441085B26946DC
:105A5000284618F013FC9DF8000054287ED1A0E0E1
:105A60000870284618F083FB00F1010084B23F2C37
:105A700001D94FF0000421B2284618F076FC40F618
:105A80000266304618F073FB80B23F2800D02046F3
:105A900001B2304618F069FC284618F068FB0BEBA1
:105AA000401084B24FF054008DF800004FF05300C6
:105AB0008DF801004FF059018DF802108DF80300A8
:105AC0006946204618F0D5FC8DF800708DF80180ED
:105AD0008DF802A08DF803A06946201D18F0C9FCBE
