:020000040000FA
:1000000040750010E1000000E5000000E70000007E
:10001000E9000000EB000000ED000000000000001F
:10002000000000000000000000000000EF000000E1
:10003000F100000000000000F30000006F9A0100D2
:10004000F7000000E5C1010019C20100F70000003F
:10005000F70000005FF40100F7000000F700000067
:10006000F7000000F7000000F7000000F7000000B4
:10007000F7000000F7000000F7000000F7000000A4
:10008000F7000000F7000000F7000000F700000094
:10009000F7000000F7000000E75B0000F700000039
:1000A000F700000015F20100F7000000F700000063
:1000B00011170200F7000000F7000000F700000031
:1000C000F7000000F7000000F7000000DFF80CD098
:1000D00021F084FB00480047F79B010040750010A9
:1000E00005480047FEE7FEE7FEE7FEE7FEE7FEE71E
:1000F000FEE7FEE7FEE7FEE7CD000000FEE710B5F5
:1001000022F046F822F0A2F822F094F8AFF3008033
:10011000BDE8104022F060B810B522F01FFE23F0B9
:100120003DFABDE8104022F071BE22F085BD22F0FC
:100130004DBB09B10020704721F052BF002070472D
:1001400030B54FF000003D4BA3F1140202F10A0458
:10015000115C61B1255CA94209D1195C39B1A1F1E9
:100160000101C9B2195411B94FF000011154115CC9
:10017000215400F10100C0B20A28E9D330BD70B5A6
:100180004FF000042D4EA6F1140604F10104E4B270
:10019000355D1DB1854201D00A2CF6D33055274874
:1001A0000C3040F82410283040F82420343803550F
:1001B00070BD4FF00001214AA2F1140201F10101CA
:1001C000C9B2535C834201D00A29F7D3535C8342FE
:1001D00012D11A480C3050F8213019480360174BDF
:1001E000343353F8213043604FF000005054134A29
:1001F00050544FF001007047002070474FF000014D
:100200000E4AA2F1140201F10101C9B2535C83420A
:1002100001D00A29F7D3525C82420CD107480C3036
:1002200050F8212006480260044A343252F8211066
:1002300041600120704700207047000060EB0720FC
:1002400094C007200D4BDA601870597070470B4A44
:100250001161907070470949088170470749B1F9E9
:100260000800002809D0A0F1010000B20881002890
:1002700003D10146084601F0B4BA70479CC007207C
:1002800090F900308B4200DA027090F9003093420E
:1002900000DD0170704790F900308B4200DA017088
:1002A00090F90010914200DD02707047B0F9003003
:1002B0008B4200DA0180B0F90010914200DD02802B
:1002C0007047B0F900308B4200DA0280B0F900309C
:1002D000934200DD01807047FE21C0B221F06ABA6E
:1002E0008021C0B221F066BA1C21C0B221F062BAEE
:1002F0007021C0B221F05EBA70477047FFFFFFFF68
:10030000002802DAC0F1000000B270474FF0000090
:10031000FC4A4FF02001115400F10100C0B2C8287E
:10032000F9D3704701464FF00000F64A00F1010092
:10033000C0B2135C8B4201D0C828F7D3704710B508
:100340004FF00001F04C4FF00A020346B0FBF2F010
:1003500002FB1033635401F10101C9B20529F4D342
:1003600010BDF0B5E94D4FF0010129704FF00501C6
:10037000E54B4FF020064FF000072A7842B15A189B
:1003800012F8014C24B9814202D902F8016C07E04D
:1003900003EB010212F8014D04F1300414702F70C8
:1003A000A1F10101C9B20029E7D1F0BDFEB50346B4
:1003B0004FF02B07002B04DAC3F1000003B24FF01B
:1003C0002D074FF000004FF00A046D4693FBF4F642
:1003D00004FB16332B5433B200F1010040B20A285B
:1003E000F4DB4FF001034FF000044FF009004FF031
:1003F000200643B115F800C0BCF1000F03D19042B4
:1004000001DD2E5408E02B5C03F130032B544FF038
:10041000000304F10104E4B2A0F1010040B200289D
:10042000E7DA2D2F04D1204604F10104E4B22F5461
:100430008AB160B207E005EB000313F8013C2B54CE
:10044000A0F1010040B29042F5DC4FF02E00A8541C
:1004500004F10104E4B20846FFF764FF4FF0000125
:10046000A84A06E0A0EB01066B5C935501F101017F
:1004700049B2A142F6DBFEBDFEB503464FF02B07A5
:10048000002B03DAC3F100034FF02D074FF00000FB
:100490004FF00A046D461E4693FBF4F304FB13660B
:1004A0002E5400F1010040B20A28F4DB4FF00103A2
:1004B0004FF000044FF009004FF0200643B115F84B
:1004C00000C0BCF1000F03D1904201DD2E5408E0C2
:1004D0002B5C03F130032B544FF0000304F10104B3
:1004E000E4B2A0F1010040B20028E7DA2D2F04D1D8
:1004F000204604F10104E4B22F548AB160B207E04F
:1005000005EB000313F8013C2B54A0F1010040B2AD
:100510009042F5DC4FF02E00A85404F10104E4B23F
:100520000846FFF7FFFE4FF00001764A06E0A0EB19
:1005300001066B5C935501F1010149B2A142F6DB62
:10054000FEBD2DE9FE414FF02B0C002803DAC0F16F
:1005500000004FF02D0C4FF000044FF00A056F46DD
:10056000064690FBF5F005FB10663E5504F10104CC
:1005700064B20A2CF4DB4FF001054FF000044FF099
:1005800009004FF0200645B117F80080B8F1000FC0
:1005900003D1984201DD3E5408E03D5C05F1300591
:1005A0003D544FF0000504F10104E4B2A0F1010054
:1005B00040B20028E7DABCF12D0F05D1204604F146
:1005C0000104E4B207F800C08BB160B207E007EBAA
:1005D000000515F8015C3D54A0F1010040B29842BD
:1005E000F5DC4FF02E00F85404F10104E4B201EB05
:1005F000810002EB8000C1B24FF00000414A06E0EA
:10060000A1EB00053B5C535500F1010040B2A04254
:10061000F6DBBDE8FE8170B50D4616461C46FFF7B9
:100620008EFE601CC0B2FFF79CFE05EB850006EB5A
:100630008000C1B24FF00000334B324DA04201D2D6
:100640001A5C6A5407D31A5C202A04D064B105EB03
:10065000010606F8012CA1F10101C9B200F1010067
:10066000C0B20528EAD370BD6A54F4E730B5044639
:1006700008461546FFF756FEFF280CD0214A07E032
:1006800000EB050304F10104D15400F10100C0B2F4
:1006900021780029F4D130BD70B50D461446FFF71E
:1006A0004EFE601CC0B2FFF75CFE2846FFF73AFE24
:1006B0004FF00001144A134D24B9535C202B01D094
:1006C0002B5415E0A14202D2535C2B5410E008D108
:1006D0004FF02E032B5405EB0006535C06F8013C4B
:1006E00006E0535C202B03D005EB000606F8013C26
:1006F000A0F10100C0B201F10101C9B20529DBD3AB
:1007000070BD00004C020010B8030010BD030010C3
:100710001044002801DA084403E0884201DBA0EB22
:100720000100C0B270472DE9FF5F04460D464FF44B
:1007300060601CF09AFA62424021FFF7E9FF4FEA3D
:10074000401000F58060044602A920461CF014FB0E
:1007500001A904F108001CF00FFB694604F10C002C
:100760001CF00AFB2846FFF7DDFD9DF808E040225B
:10077000302121232324DFF808844FF0C2094FF0F1
:100780003A0C0127FF4E4FF0200AFF4DBEF1550FE6
:1007900011D04FF0C00BBEF1500F7DD0BEF1510F04
:1007A0007BD0BEF1530F79D0BEF1420F77D0BEF1AE
:1007B000560F75D082E39DF80AB0BBF1520F14D1E9
:1007C00000F1010B0BF0FF0B06F800904FF0EA0070
:1007D0000BF1010909F0FF0906F80B004FF0EB0BD4
:1007E00009F10100C0B206F809B000F1010909F0F1
:1007F000FF0906F800A009F1010B0BF0FF0006F855
:1008000009A000F1010909F0FF0906F800A009F1AB
:100810000100C0B206F809A000F1010909F0FF09C2
:1008200006F800A09DF80400B5F83CB0584548D142
:100830009DF8050095F838B0584542D19DF806005E
:1008400095F82C50A8423CD109F10100C0B206F83D
:10085000091000F10105EDB2335405F10100C0B2F9
:1008600006F805C000F10103DBB231541D4603F167
:100870000103D8B2725500F10102D2B206F800C0ED
:1008800002F10100C0B2B15434549DF800004FF0A1
:1008900000024FF0210104E051E007E1C9E1BBE2B1
:1008A00002E3FFF7F9FE9DF8010000224021FFF767
:1008B000F3FE9DF8020000222321FFF7EDFEBDE8C4
:1008C000FF9F09F10100C0B206F809A000F101057F
:1008D000EDB2315405F10100C0B2735500F10103CE
:1008E000DBB2325403F10100C0B206F803A000F1FC
:1008F0000102D2B206F800A002F10100C0B2B15468
:1009000034549DF806004FF000024FF02101FFF72C
:10091000C3FE9DF8040000222321FFF7BDFE9DF8D1
:100920000500401E0C2801D38DF805709DF80500C8
:10093000002208EB80004021FFF798FEBFE700F19E
:10094000010E0EF0FF0E06F800B00EF10100C0B26D
:1009500006F80E904FF02E0B00F1010909F0FF0987
:1009600006F800B04FF0CF0009F1010B0BF0FF0BC0
:1009700006F809004FF0D1000BF1010909F0FF0959
:1009800006F80B0009F10100C0B206F809A000F159
:10099000010909F0FF0906F800A009F10100C0B241
:1009A00006F809A09DF80490B5F83CB0D9453FD1B0
:1009B0009DF8059095F838B0D94539D19DF8069045
:1009C00095F82C50A94533D100F10105EDB2315411
:1009D00005F10100C0B2735500F10103DBB206F866
:1009E00000C003F10100C0B2F15400F10103DBB219
:1009F000325403F10100C0B206F803C000F1010255
:100A0000D2B23154B4549DF800004FF000024FF0C0
:100A10002101FFF741FE9DF8010000224021FFF770
:100A20003BFE9DF8020000222321FFF735FE46E73A
:100A300000F10105EDB206F800A005F10100C0B219
:100A4000715500F10105EDB2335405F10100C0B25A
:100A5000725500F10102D2B206F800A002F10100C5
:100A6000C0B206F802A000F10102D2B23154B4546F
:100A70009DF806004FF000024FF02101FFF70CFE39
:100A80009DF8040000222321FFF706FE9DF80500D3
:100A9000401E0C2801D38DF805709DF8050000223A
:100AA00008EB80004021FFF7E1FD08E700F1010EAF
:100AB0000EF0FF0E06F800B00EF10100C0B206F80D
:100AC0000E904FF02E0900F1010B0BF0FF0B06F812
:100AD00000904FF055000BF1010909F0FF0906F8ED
:100AE0000B004FF0E20009F1010B0BF0FF0B06F8D1
:100AF00009004FF0FB000BF1010909F0FF0906F8AE
:100B00000B004FF0F50009F1010B0BF0FF0B06F89D
:100B100009000BF10100C0B206F80BA09DF804908B
:100B2000B5F83CB0D94546D19DF8059095F838B058
:100B3000D94540D19DF8069095F82C50A9453AD159
:100B400000F10105EDB2315405F10100C0B2735559
:100B500000F10103DBB206F800C003F10100C0B2EE
:100B6000F15400F10103DBB2325403F10100C0B2D1
:100B700006F803C000F10102D2B23154B45405E0CA
:100B8000184402004C020010004002409DF8000092
:100B90004FF000024FF02101FFF77EFD9DF80100AC
:100BA00000224021FFF778FD9DF80200002223215A
:100BB000FFF772FD83E600F10105EDB206F800A033
:100BC00005F10100C0B2715500F10105EDB23354D9
:100BD00005F10100C0B2725500F10102D2B206F86F
:100BE00000A002F10100C0B206F802A000F101026B
:100BF000D2B23154B4549DF806004FF000024FF0C9
:100C00002101FFF749FD9DF8040000222321FFF791
:100C100043FD9DF80500401E0C2801D38DF805709A
:100C20009DF80500002208EB80004021FFF71EFD23
:100C300045E600F1010E0EF0FF0E06F800B00EF1D1
:100C40000100C0B206F80E904FF02E0B00F1010922
:100C500009F0FF0906F800B04FF0C10009F1010BDF
:100C60000BF0FF0B06F809004FF0CF090BF1010064
:100C7000C0B206F80B904FF0D10900F1010B0BF058
:100C8000FF0B06F800909DF80990B9F1090F0DD2FD
:100C900009F131090BF10100C0B206F80B9000F127
:100CA000010909F0FF0906F800A02CE0A9F10900EC
:100CB0005A281DD209F101094FF00A00B9FBF0FED4
:100CC000CDF80CE00EF1300E0BF10100C0B206F8C9
:100CD0000BE0DDF80CE04FF00A0B0BFB1E9B0BF159
:100CE000300B00F1010909F0FF0906F800B00AE035
:100CF0000BF10100C0B206F80BA000F1010909F0E8
:100D0000FF0906F800A009F10100C0B206F809A029
:100D10009DF80490B5F83CB0D9453FD19DF80590B9
:100D200095F838B0D94539D19DF8069095F82C50F2
:100D3000A94533D100F10105EDB2315405F10100AF
:100D4000C0B2735500F10103DBB206F800C003F135
:100D50000100C0B2F15400F10103DBB2325403F1DF
:100D60000100C0B206F803C000F10102D2B2315452
:100D7000B4549DF800004FF000024FF02101FFF73E
:100D80008BFC9DF8010000224021FFF785FC9DF8B7
:100D9000020000222321FFF77FFC90E500F101050E
:100DA000EDB206F800A005F10100C0B2715500F1E6
:100DB0000105EDB2335405F10100C0B2725500F1E6
:100DC0000102D2B206F800A002F10100C0B206F89A
:100DD00002A000F10102D2B23154B4549DF80600D1
:100DE0004FF000024FF02101FFF756FC9DF8040080
:100DF00000222321FFF750FC9DF80500401E0C281F
:100E000001D38DF805709DF80500002208EB8000E5
:100E10004021FFF72BFC52E54FF0C10200F1010128
:100E2000C9B232544FF0E00301F10100C2B2735471
:100E30004FF0F20102F10100C0B2B1549DF8091067
:100E400009290BD201F1310100F10102D2B2315472
:100E500002F10100C0B206F802A022E0A1F10902ED
:100E60005A2A14D201F101014FF00A05B1FBF5F342
:100E700003F1300400F10102D2B2345405FB131126
:100E800001F1300102F10100C0B2B15409E000F1FA
:100E90000101C9B206F800A001F10100C0B206F8D4
:100EA00001A006F800A00AE59DF80990B9F1490FE4
:100EB00004D19DF80A90B9F14E0F03D0BEF1560F40
:100EC0007ED0CBE000F1010909F0FF0906F800B07F
:100ED0004FF0E20009F1010E0EF0FF0B06F80900D9
:100EE0004FF02E0E0BF1010909F0FF0906F80BE097
:100EF0004FF0550E09F1010B0BF0FF0B06F809E05E
:100F00000BF1010909F0FF0E06F80B004FF0F50B8D
:100F10000EF1010000F0FF0906F80EB009F1010022
:100F2000C0B206F809A000F1010909F0FF0906F8AE
:100F300000A09DF80400B5F83CB0584541D19DF89B
:100F4000050095F838B058453BD19DF8060095F856
:100F50002C50A84235D109F10100C0B206F80910A1
:100F600000F10105EDB2335405F10100C0B206F8FD
:100F700005C000F10103DBB2315403F10100C0B23E
:100F8000F25400F10102D2B206F800C002F10100F1
:100F9000C0B2B15434549DF800004FF000024FF03D
:100FA0002101FFF779FB9DF8010000224021FFF7A6
:100FB00073FB9DF8020000222321FFF76DFB7EE406
:100FC0003DE009F10100C0B206F809A000F10105F9
:100FD000EDB2315405F10100C0B2735500F10103C7
:100FE000DBB2325403F10100C0B206F803A000F1F5
:100FF0000102D2B206F800A002F10100C0B2B15461
:1010000034549DF806004FF000024FF02101FFF725
:1010100043FB9DF8040000222321FFF73DFB9DF8D0
:101020000500401E0C2801D38DF805709DF80500C1
:10103000002208EB80004021FFF718FB3FE49DF8F9
:101040000990B9F14F0F09D19DF80A90B9F1550FE8
:1010500004D19DF80B90B9F1540F03D0BEF14F0F9E
:101060007DD0C8E000F1010909F0FF0906F800B0E1
:101070004FF0E20009F1010E0EF0FF0B06F8090037
:101080004FF02E0E0BF1010909F0FF0906F80BE0F5
:101090004FF0550E09F1010B0BF0FF0B06F809E0BC
:1010A0000BF1010909F0FF0906F80B004FF0FB00F6
:1010B00009F1010B0BF0FF0B06F809004FF0F500EA
:1010C0000BF1010909F0FF0906F80B0009F1010015
:1010D000C0B206F809A09DF80490B5F83CB0D94517
:1010E00041D19DF8059095F838B0D9453BD19DF890
:1010F000069095F82C50A94535D100F10105EDB2C7
:10110000315405F10100C0B2735500F10103DBB2A7
:1011100006F800C003F10100C0B2F15400F1010370
:10112000DBB2325403F10100C0B206F803C000F193
:101130000102D2B23154B4549DF800004FF00002C5
:101140004FF02101FFF7A8FA9DF80100002240218D
:10115000FFF7A2FA00229DF80200232100E040E000
:10116000FFF79AFA63E400F10105EDB206F800A07A
:1011700005F10100C0B2715500F10105EDB2335423
:1011800005F10100C0B2725500F10102D2B206F8B9
:1011900000A002F10100C0B206F802A000F10102B5
:1011A000D2B23154B4549DF806004FF000024FF013
:1011B0002101FFF771FA9DF8040000222321FFF7B7
:1011C0006BFA9DF80500401E0C2801D38DF80570C0
:1011D0009DF80500002208EB80004021FFF746FA49
:1011E00025E49DF80990B9F1560F04D19DF80A90B5
:1011F000B9F14C0F7DD0BEF1540FB3D19DF80990D9
:10120000B9F1530FAED19DF80A90B9F1590FA9D198
:101210009DF80B90B9F1530FA4D100F1010909F029
:10122000FF0906F800B04FF0E20B09F10100C0B26F
:1012300006F809B04FF02E0900F1010B0BF0FF0B7F
:1012400006F800904FF054000BF1010909F0FF0976
:1012500006F80B004FF0F10B09F10100C0B206F8DF
:1012600009B04FF0E80E00F1010909F0FF0906F896
:1012700000E009F10100C0B206F809B000F101096F
:1012800009F0FF0906F800A09DF80400B5F83CB08D
:1012900058457ED19DF8050095F838B0584578D16D
:1012A0009DF8060095F82C50A84272D109F1010072
:1012B000C0B206F8091000F10105EDB2335405F192
:1012C0000100C0B206F805C000F10103DBB23154E1
:1012D00003F10100C0B2F25400F10102D2B206F8EB
:1012E00000C002F10100C0B2B15434549DF80000B6
:1012F00000E012E04FF000024FF02101FFF7CCF9BF
:101300009DF8010000224021FFF7C6F99DF8020078
:1013100000222321FFF7C0F94CE44FF0CF0B00F17E
:10132000010909F0FF0906F800B04FF0D00009F1FB
:10133000010E0EF0FF0B06F809004FF0C30E0BF183
:10134000010909F0FF0906F80BE009F1010B0BF0A8
:10135000FF0B06F809004FF0C70E0BF1010000F07B
:10136000FF0906F80BE009F10100C0B206F809A078
:1013700000F1010909F0FF0906F800A009F10100D8
:10138000C0B206F809A09DF80490B5F83CB0D94564
:1013900000E07EE03FD19DF8059095F838B0D94542
:1013A00039D19DF8069095F82C50A94533D100F11C
:1013B0000105EDB2315405F10100C0B2735500F1E1
:1013C0000103DBB206F800C003F10100C0B2F15422
:1013D00000F10103DBB2325403F10100C0B206F8A0
:1013E00003C000F10102D2B23154B4549DF80000A0
:1013F0004FF000024FF02101FFF74EF99DF8010078
:1014000000224021FFF748F99DF802000022232125
:10141000FFF742F90CE400F10105EDB206F800A077
:1014200005F10100C0B2715500F10105EDB2335470
:1014300005F10100C0B2725500F10102D2B206F806
:1014400000A002F10100C0B206F802A000F1010202
:10145000D2B23154B4549DF806004FF000024FF060
:101460002101FFF719F99DF8040000222321FFF75D
:1014700013F99DF80500401E0C2801D38DF8057066
:101480009DF80500002208EB80004021FFF7EEF8F0
:1014900083E409F10100C0B206F809A000F10105DA
:1014A000EDB2315405F10100C0B2735500F10103F2
:1014B000DBB2325403F10100C0B206F803A000F120
:1014C0000102D2B206F800A002F10100C0B2B1548C
:1014D00034549DF806004FF000024FF02101FFF751
:1014E000DBF89DF8040000222321FFF7D5F89DF8D2
:1014F0000500401E0C2801D38DF805709DF80500ED
:10150000002208EB80004021FFF7B0F845E4F0B579
:101510000446084616461F46FEF704FF02461046DC
:10152000FF4DFF2806D108E0295404F1010400F121
:101530000100C0B221780029F6D1FA4800780028CD
:1015400006D0002F04D002EB06014FF05F00685474
:10155000F0BD2DE9F04F0746DDE9090588469146C3
:101560009A46FEF7DFFEEF4B2021ED4C0A224FF0AA
:10157000640C012D09D11E783EB104EB0006A6F1E2
:101580000E06B1707170317017E097FBF2FB02FB31
:101590001B7E04EB00060EF1300E06F80CEC9BFBF4
:1015A000F2FE02FB1EBB0BF1300B06F80DBC97FBE5
:1015B000FCF707F1300706F80E7C022D09D11E78E2
:1015C0003EB104EB0006A6F10A06B17071703170ED
:1015D00017E098FBF2F702FB178B04EB0006A6F16D
:1015E0000A060BF1300B86F802B097FBF2FB02FB08
:1015F0001B7707F13007777098FBFCF707F130078E
:101600003770032D09D11E783EB104EB0006A6F118
:101610000606B1707170317017E099FBF2F702FBAA
:10162000179804EB0006A6F1060608F1300886F8C4
:10163000028097FBF2F802FB187707F1300777700A
:1016400099FBFCF707F130073770042D09D11B789F
:101650003BB121542044A0F1020041700170BDE86B
:10166000F08F9AFBF2F102FB11A303F13003235434
:1016700091FBF2F302FB13112044A0F1020001F1EF
:10168000300141709AFBFCF101F130010170E6E795
:1016900010B50C46FEF746FEA1491CB14FF00302FF
:1016A0000A5410BD4FF004020A5410BD17B501EBE7
:1016B000810002EB8000C2B29DF800309A4803F02E
:1016C0000F01445C96498C54A2F10102D2B200EBA6
:1016D00013131B788B54A2F10102D2B29DF8013092
:1016E00003F00F04045D8C54A2F10102D2B200EBAE
:1016F00013131B788B54A2F10102D2B29DF8023071
:1017000003F00F04045D8C54A2F10102D2B200EB8D
:1017100013131B788B54A2F10102D3B29DF803205E
:1017200002F00F04045DCC54A3F10103DBB200EB23
:1017300012100078C8541EBD30B57C490124784B86
:1017400091F9012091F904108A4204D100EB800044
:1017500003F8204030BD4D1CAA4206D100F1010023
:1017600000EB800003F8204030BD8D1CAA4206D15A
:1017700000F1020000EB800003F8204030BDCD1CDA
:10178000AA4206D100F1030000EB800003F82040DC
:1017900030BD0D1DAA4206D100F1040000EB80000F
:1017A00003F8204030BD4D1DAA4206D100F10500CE
:1017B00000EB800003F8204030BD8D1DAA4206D109
:1017C00000F1060000EB800003F8204030BDC91D89
:1017D0008A42FBD100F1070000EB800003F82040B3
:1017E00030BD534B1A88A2F10102104400B2188098
:1017F000504A00EB800002444C48136803601279A1
:101800000271427811444170704770B5484DB5F986
:10181000004004F101062E80464D04EB840425446B
:10182000424C26682E6026792E71207061702271DC
:10183000A37070BD2DE9F04180460F461646FEF7B5
:1018400065FD374C4FF0000518F8010B04F8010B4B
:1018500005F10105EDB2142DF6D34FF0000017F895
:10186000011B04F8011B00F10100C0B21428F6D3DB
:101870004FF0000016F8011B04F8011B00F10100F5
:10188000C0B21428F6D34FF0000013F8011B04F87F
:10189000011B00F10100C0B21428F6D3BDE8F081AD
:1018A00010B5029CFFF7C6FF2048C37882784178C4
:1018B0005E20FFF7AAFF642094FBF0F0BDE8104023
:1018C000C0B2FEF7C8BC2DE9FE430D464FEA4010FA
:1018D00000F58060044602A920461BF04DFA01A9DC
:1018E00004F108001BF048FA694604F10C001BF0F3
:1018F00043FA2846FEF716FD094C4FF0200600F18A
:101900000101C9B226544FF0300701F10100C0B205
:10191000675400F101014FF02108C9B20CE000004A
:101920004C0200102C000010A2440200C401001060
:1019300056000010FA05082004F800804FF0400916
:1019400001F10100C0B204F8019000F10101C9B237
:10195000265401F10100C0B2665400F10101C9B280
:1019600027544FF0230201F10100C5B262549DF8E3
:1019700006004FF000024FF02101FEF78DFE9DF8AA
:10198000040000222321FEF787FE9DF80500401E7B
:101990000C2803D34FF001008DF805009DF80500D9
:1019A0001949002201EB80004021FEF75FFE05F19E
:1019B0000100C0B2665500F10101C9B2275401F11E
:1019C0000100C0B204F801804FF03A0200F10101B9
:1019D000C9B2225401F10100C0B2675400F1010103
:1019E000CDB204F800909DF800004FF000024FF0D7
:1019F0002101FEF751FE9DF8010000224021FEF773
:101A00004BFE6655BDE8FE83184402002DE9FC41FB
:101A100006464FF00007FF4D6F76A87D4FF001039B
:101A200002280FD006EB460101EB0612FA4901EB42
:101A3000820494F83D10CA0706D04FF0660068761D
:101A4000BDE8FC816B76FBE794F83F20920703D555
:101A50004FF067006876F3E7890703D54FF0680019
:101A60006876EDE7ED4AB4F90810B2F9002091422A
:101A700003DD4FF069006876E2E75242914203DAF3
:101A80004FF06A006876DBE7E2490128C97D00D1A2
:101A900011B1012804D005E04FF06B006876CFE764
:101AA00001297DD005F116054FF06400E8702B7018
:101AB0006B8619464FF4F8701BF0D5F96E70AE8640
:101AC00031464FF4FA701BF0CEF9A761D4480021DB
:101AD00030F916001BF0C7F9AF70EF8639464FF4A6
:101AE000FB701BF0C0F9CF48008800F1010000F046
:101AF000070004EB4000008C0190CB4DA88B0090B8
:101B00004FF063024FF001016846FEF7C4FBC14C81
:101B10009DF8000080342070287E00900C22012166
:101B20006846FEF7B8FB9DF800006070287B0090C7
:101B30001F2201216846FEF7AEFB9DF80000A07051
:101B40009DF80400E0704FF4FC7021681BF0CCF9A4
:101B5000287A0090172200216846FEF79CFB9DF82A
:101B600000002071287900903B2200216846FEF792
:101B700092FB9DF800006071287800903B220021C4
:101B80006846FEF788FB9DF80000A0719DF80500EF
:101B9000E0714FF4FE7061681BF0A6F950E7FFE7B3
:101BA0004FF06C0068764BE72DE9F047994CB4F89C
:101BB0004000401C00B2A4F84000B0F5E16F03DB28
:101BC0004FF00000A4F84000B4F94000B0F5DF6F1A
:101BD00011D90F2301226421D220FEF7D0FA0F235E
:101BE0000022D821D720FEF7CAFA0F230022D821DD
:101BF000DC20FEF7C4FAB4F94000A0F5E061073933
:101C000033D18A4D8A4C844E288821880A27DFF8F0
:101C10002482DFF82492884210D0B6F9080090FBA5
:101C2000F7F000B2FEF76CFBB8F90010884205DA55
:101C3000B4F90010B9F900001BF015F96888618843
:101C4000884212D0B6F9080090FBF7F000B2FEF718
:101C500057FBB8F90010884207DAB4F90210B9F955
:101C60000200BDE8F0471BF0FEB8BDE8F08710B5F4
:101C70006C4C208800F1010020804FF008024FF0EA
:101C800000012046FEF71DFB6349B4F9000001EB9B
:101C900040004A880284B1F84E10A0F86C1010BDC4
:101CA0002DE9FE4F6548664B674A90F8780402902C
:101CB0006649B3F900B0B2F900200192614DB1F963
:101CC0000010634B634E644CDFF8908145F2116A5B
:101CD00045F2FA570091072838D04E49DFF880C105
:101CE000DFF864910A8D5649B9F9009041F2707B92
:101CF000B1F90010B8F800004A43BCF90610BCF96D
:101D000014C001FB09F1DFF8449191FBFBF1B9F933
:101D1000009009B20CFB09FC9CFBFBFC0FFA8CFC4D
:101D2000504558D14FF47A6092FBF0F000B2288011
:101D30001980A6F800C02080814200DA2180B4F921
:101D40000000844501DAA4F800C0AAE04548DFF8A5
:101D5000C4C0017842780CF16C0C01EB02211FFA2F
:101D600081F9ACF800908178C27801EB022189B248
:101D7000ACF80210027990F805E002EB0E2292B264
:101D8000ACF8042002FB0BF241F2707C92FBFCF2F7
:101D90000FFA82FBA5F800B0019A01FB02F191FB5A
:101DA000FCF109B21980009A09FB02F999FBFCF2D7
:101DB00012B232808379C07903EB00202A4B18805D
:101DC000A4F800B0594500DA2180B4F9000082423D
:101DD00067DA228065E0A0F5AC49B9F12F0908D097
:101DE00019F1280905D0B9F1140902D019F119091E
:101DF00040D149F6404092FBF0F000B228801980B3
:101E0000A6F800C02080814200DA2180B4F90000E9
:101E100084452BE004C00720BCEB0720860000109F
:101E20008E3D0200FAC00720204002407E030010D1
:101E30005EC107208C000010AE3D0200F8ED0720C7
:101E40008E03001058010010D6C007209003001028
:101E50005A0100105C01001056010010F000001043
:101E6000205D001076F207206401001019DAA4F852
:101E700000C016E0FF49B1F90020FF49098D514328
:101E8000B84203D0A0F5AA42FB3A05D148F6B80003
:101E900091FBF0F0208004E04FF4FA7091FBF0F039
:101EA00020800298072803D0F4480188F448018074
:101EB000DFF8D093B9F90020F349B1F9000050439D
:101EC0004FF4FA6690FBF6F0F04D6880B9F90830EF
:101ED000EF4AB2F9000000FB03F04FF42F7390FBC0
:101EE000F3F0A880B9F91800B1F9021001FB00F174
:101EF00091FBF6F0A5F84E00B9F90210B2F9020014
:101F000000FB01F090FBF3F0A5F850004FF0DC006F
:101F1000FEF774F9F0BBDFF87CC3BCF80000DFF813
:101F200078B3BBF80010A0EB0100DC4AB2F9001056
:101F300001FB00F1B8F8000045F63863984204D080
:101F4000A0F5BC4EBEF1920E04D14FF4967E91FBEB
:101F5000FEF10FE0B84206D0A0F5AC4EBEF1130E74
:101F600001D0504502D191FBF6F103E04FF47A7EA7
:101F700091FBFEF12981BCF80210BBF802C0A1EB75
:101F80000C0CB2F9021001FB0CF1984205D0A0F53F
:101F9000BC4200E017E0923A04D14FF4967091FBF6
:101FA000F0F00EE0B84205D0A0F5AC42133A01D0F3
:101FB000504502D191FBF6F003E04FF47A7091FBAB
:101FC000F0F0A5F85400B9F90C2040F6B73BA2F2A6
:101FD000213C01230020DC4501D2287300E02B7353
:101FE000AF49B1F900A00AFB02FA44F620619AFB5E
:101FF000F1FAAAF2111AA5F80AA0B9F90EA040F652
:10200000B73BAAF2213EDE4502D285F8580001E036
:1020100085F85830DFF888B2BBF902B00BFB0AFB39
:1020200044F620619BFBF1F1A1F21111974DA5F847
:102030005610B9F904109B4DB5F9005001FB05F598
:102040004FF4FA6695FBF6F52EB2974D2E80B9F94E
:102050000250DFF858A2BAF900A005FB0AF54FF4C8
:10206000FA7B95FBFBF5DFF848A2AAF80050DFF8F1
:1020700044A2BAF900A001FB0AFA9AFBFBFADFF8C6
:1020800038E2AEF800A0A5EB0A05DFF830A2AAF806
:1020900000508B4DB5F9005001FB05F1B8F8005028
:1020A000BD4204D14FF4C87591FBF5F101E091FBFD
:1020B000FBF1DFF8108209B2A8F80010DFF808E29F
:1020C000642918DA4FF00001BEF900A0DFF8FCB176
:1020D0000FE001EB810505EBC1050BEBC505B8F978
:1020E00000702D6ABD4201DDA8F8005001F1010128
:1020F000C9B25145EDDB4FF000084146BEF9007012
:10210000724D0BE001EB810A0AEBC10A05EBCA0A2A
:10211000DAF824A0D04401F10101C9B2B942F1DBDF
:102120006B49A1F80080B9F90A9040F6B73BA9F2D3
:102130002131DFF8A081594502D288F8000001E082
:1021400088F800306449B1F9001001FB09F944F640
:10215000206E99FBFEFAAAF2111ADFF88091A9F815
:1021600000A0DC4502D288F8000001E088F80030C9
:10217000514391FBFEF1A1F21111A9F80010584A48
:1021800011805849DFF860C1098889B9574A116838
:102190005268A1EB02024149B1F9001001FB02F1C2
:1021A0004FF4FA6291FBF2F1ACF80010504A118042
:1021B000364B5E80DFF83CB1BBF800204E49B1F9E8
:1021C000001051434FF47A6291FBF2F1DFF82CA139
:1021D00089B2AAF80010DFF828E1642902D2AEF82B
:1021E000001002E02188AEF80010BBF8024042491E
:1021F000B1F90210614391FBF2F1AAF80210414AD1
:10220000B2F90010404CB4F900A00AFB01FA41F207
:1022100070719AFBF1FBDFF8F4A0AAF800B0B2F9F4
:1022200002E0B4F902B00BFB0EFB9BFBF1FBAAF83A
:1022300002B0B2F904B0B4F9044004FB0BF494FB0F
:10224000F1F4AAF80440B2F906B0DFF8C4A0BAF974
:10225000004004FB0BF494FBF1FB2E4CA4F800B0FF
:10226000B2F908E0BAF902B00BFB0EFB9BFBF1FBE5
:1022700052E000008603001004C007205E01001039
:1022800064010010205D00107A030010BCEB0720F1
:10229000CCC007205EC107207E030010D0C00720FD
:1022A00082030010D4C007204401001092030010E4
:1022B0004A010010DAC00720500100104C01001044
:1022C000D8C0072048010010C0000010F8ED07201A
:1022D000FCC0072087010010CE010010040200108E
:1022E000520100107601001042010010DC030010C2
:1022F0004E01001010C10720880300100A020010D0
:102300006E0100100A5E0010CE03001010020010D3
:1023100016C1072016020010A4F802B0B2F90AB0E4
:10232000BAF9042002FB0BF292FBF1F1A180B9F89B
:102330000210FC4C01F211110FFA81FAA4F800A06E
:10234000B9F8041001F211110FFA81F9A4F8029002
:1023500098F80120227298F802106172F24C02B9CA
:1023600011B1012A0AD00AE00AEB090101EBD1718F
:102370006FF4887202EB610121801EE009B12AB17D
:1023800006E0A9F21119A4F8009016E0012902D084
:10239000012A05D011E0AAF2111AA4F800A00CE05D
:1023A00001290AD1E1490978052903D2E0490988C0
:1023B000218002E04FF014012180DE490A78552A7D
:1023C00004D1C82E02DDDC4A1C89148749785529BE
:1023D0000BD1B3F94E10C82907DDB3F95410B3F986
:1023E0000820914201DDD44A1187D349BCF800206E
:1023F0000A874FF000023BE002EB820101EBC201D1
:1024000005EBC101CC78192C28D28C79CE7904EB5C
:1024100006244C620C7A4E7A04EB06240C628C7A09
:10242000CE7A04EB0624CC610C7B8C624C7B81F869
:1024300056408C7B81F846400C7C4E7C04EB062495
:102440000C638C7CCE7C04EB0624A1F85E400C7DF2
:102450004E7D04EB0624A1F8604006E0C8614862A6
:102460000862886281F84600086302F10102D2B274
:10247000BA42C1DBB14CB3F908204FF00A0192FB1C
:10248000F1F2B3F9543093FBF1F11144C1F10001C1
:102490000EB22680AA4B18804FF0000112E001EB2B
:1024A000810202EBC10205EBC20292F803C0BCF14B
:1024B000050F04D2526AB3F800C062441A8001F1D9
:1024C0000101C9B2B942EADB1988314409B221805D
:1024D000002900DA2080208018804FF000010FE0F2
:1024E00001EB810202EBC10205EBC202D678052E98
:1024F00003D2526A1E8832441A8001F10101C9B226
:10250000B942EDDB1A8800EB020109B221800029F3
:1025100000DA20808B49B1F90040002C66D04FF0E2
:102520000003894E60E003F1140101EB810202EB2C
:10253000C10105EBC101CA78192A39D28A79CF794C
:1025400002EB072703EB430206EB4212D7610F7A37
:1025500091F809C007EB0C27D7628F7A91F80BC06E
:1025600007EB0C2797610F7B17624F7B82F8467051
:102570008F7B91F80FC007EB0C2797620F7C91F8C7
:1025800011C007EB0C27576290708F7C82F859704E
:10259000CF7C82F85A700F7D82F858704F7D82F898
:1025A0005B708F7D82F85C70C97D82F85D1018E0E9
:1025B00003EB430106EB4111C861C8628861086200
:1025C00081F84600486288624FF019028A7081F8EB
:1025D000590081F85A0081F8580081F85B0081F8B1
:1025E0005C0003F10103DBB2A3429CDBBDE8FE8F7C
:1025F0005648416821F4402141F4802141604168FE
:1026000021F4403141F480314160416821F440417E
:1026100041F480414160416C21F4402141F40021AA
:102620004164416C21F4403141F400314164416C1A
:1026300021F4404141F4004141644548016821F0E2
:10264000E0610160016841F400110160016821F45A
:1026500080310160016821F47F4141F480710160A3
:102660004FF48071C1603B484FF4800101607047B6
:102670002DE9F041304C723460882188401A00B254
:1026800003F06DFAA61D3080A0886188401A00B260
:1026900003F065FA7080A0882188401A00B203F028
:1026A0005EFAB0804FF49671234D884202DAA0881A
:1026B00068850CE0B6F90200884202DA6088688515
:1026C00005E0B6F90000884201DA20886885EF78D5
:1026D00000262FB32048B5F92A1002680A44026088
:1026E00042680A44426082680A448260C2681144B7
:1026F000C160698E01F1010109B26986B1F5805F9F
:1027000000DB6E86B5F932108A054DD14FEAA12162
:1027100050F821204FEA22222A8540F8216043E028
:102720001CE000009C050820660100104500001018
:10273000CC030010EE00001004C00720460100107A
:1027400008C10720C2000010C0F9072000C00240E5
:102750000040034000E100E0405D0010B5F92A10A0
:10276000FF482C796A7900EB841343F82210900714
:102770000DD1014653F820C0614400F10100C0B200
:102780001028F7D34FEA2110F64921F81400641CF1
:10279000E0B22871102807D32E7102F10102D0B2E5
:1027A0006871102800D36E71AE7007F1010707F051
:1027B0000100E870EC4A30B1106820F0FF0000F131
:1027C000040010603DE02979080706D4106820F065
:1027D000FF0000F10100106005E0106820F0FF002C
:1027E00000F102001060E148036843F08053036089
:1027F000036A43F080430362036E43F08063036621
:10280000CB070AD0436943F0805343618B0709D457
:10281000436B23F08043436308E0436923F0805314
:102820004361F3E7436B43F080434363490704D4B8
:10283000416F21F08061416703E0416F41F08061A9
:102840004167106840F080701060BDE8F0812DE9AC
:10285000F043C74FF87B002805D1B7F9220020B11B
:10286000A0F101007884BDE8F083787B0A2803D2C8
:1028700000F101007873F6E74FF000027A73BA7343
:10288000387C4FF0010608B13A7400E03E744FF016
:102890000000B949B74DB1F9003012E000EB8001FA
:1028A00001EBC00105EBC1018C78012C06D1C97880
:1028B000142903D2B97B01F10101B97300F10100C0
:1028C000C0B29842EADBBC7B022CCCD341F2883008
:1028D000B8657A65FA654FF000011CE001EB8100F4
:1028E00000EBC10005EBC00090F802C0BCF1010F85
:1028F0000ED1406AD7F854C0604500DD7865D7F83E
:1029000058C0604500DAB865D7F85CC06044F86527
:1029100001F10101C9B29942E0DBF86D90FBF4F0DE
:102920003866B86D00B9BE65786D4FF0640100FB84
:1029300001F0B96D90FBF1F07866A02800DD3E73E0
:10294000782800DA3A73387B01284CD14FF0000127
:102950006FF0310845E001EB810000EBC10005EBB1
:10296000C0008278012A39D1446A4FF0640204FB26
:1029700002FC3A6E02B93E663A6E9CFBF2FC0FFA1C
:102980008CFCA0F862C094420DDDBCF1780F0ADD2A
:1029900097F81090B9F1000F05D1B0F85490A9F153
:1029A0000109A0F8549094420ADABCF1500F07DAFA
:1029B0003A7C2AB1B0F8542002F10102A0F8542068
:1029C000B0F95420424501DAA0F85480B0F95420FF
:1029D000322A03DD4FF03202A0F8542001F1010148
:1029E000C9B29942B7DB00BF3DE710B56049B1F904
:1029F000240018B1A0F10100888410BD4FF005003B
:102A000088845E485F4BB0F900205D48B3F9001040
:102A1000B0F90000A0F10504A24209DA01F10101B8
:102A200009B2198000F132008142E6DD188010BD44
:102A3000441DA242FBDDA1F1010109B21980A0F100
:102A400032008142F3DA188010BD70B54FF00003F8
:102A50001A4610464849474DB1F9004011E000EBD5
:102A6000800101EBC00105EBC10149780E0701D0DF
:102A70004FF00103C90601D54FF0010200F101003A
:102A8000C0B2A042EBDB4049B1F900001BB140F0FD
:102A90000100088002E020F0010008803B48007837
:102AA00010B1012805D008E0088820F00200088055
:102AB00003E0088840F0020008803548007810B133
:102AC000012805D008E0088820F00400088003E011
:102AD000088840F0040008802E48007820B10128C2
:102AE00007D002280AD00DE0088820F018000880DE
:102AF00008E0088840F01000088003E0088840F0F3
:102B0000080008802448007820B1012807D0022856
:102B10000AD00DE0088820F06000088008E00888EE
:102B200040F04000088003E0088840F02000088062
:102B300022B1088840F08000088003E0088820F077
:102B4000800008804FF00000B1F90040134D144997
:102B50004FF0010635F9102022422AD022E0000071
:102B600020590010205D00100040034000C00920E3
:102B700004C00720F8ED0720C00000104A01001033
:102B80006A0000106C00001040C107204C000010CB
:102B90004F0000104D0000104E0000101C020010ED
:102BA000FA0300100A8806FA00F343EA02030B80D6
:102BB00005E00A8806FA00F322EA03020A8000F11F
:102BC0000100C0B20428C5D370BD70B5FE480168CD
:102BD000FE4A01EA02010160FD4C216841F47C716A
:102BE0002160C16921F44021C161216E41F0007171
:102BF0002166416821F040614160206840F000504A
:102C000020604FF0D200FDF7F9FAF24EF24D10B10C
:102C10002868652815D03088C0071ED0A06F40F006
:102C20000070A067D220FDF7E9FA10B12868662885
:102C300018D03088800724D4E06940F08000E0613B
:102C400023E0686820B1A06F40F00070A067E9E75A
:102C5000E06F40F00070E067E4E7E06F40F0007084
:102C6000E067DFE7686810B1012805D00DE0E06992
:102C700040F08000E06108E0A06940F08000A061C1
:102C800003E0A06940F08000A061D220FDF7B6FA11
:102C900010B12868672807D03088400713D4E0694E
:102CA00040F01000E06112E0686810B1012805D022
:102CB0000DE0E06940F01000E06108E0A06940F03C
:102CC0001000A06103E0A06940F01000A061D220D4
:102CD000FDF794FA10B12868682807D030880007FB
:102CE00012D4E06940F40070E06170BD686830B1F2
:102CF0000128FAD1A06940F40070A06170BDE069BC
:102D000040F40070E06170BDA06940F40070A06103
:102D100070BD2DE9F05FB14E00274FF0010A307D04
:102D20000A2808D200F10100C0B230750A2802D387
:102D3000377586F815A0A6F84470A6F84670CD2021
:102D4000FDF75CFADFF89882DFF898B2A0B3A249E9
:102D50004FF6FF730868CE2801D1A6F84630CF2879
:102D600002D14A68A6F84620D12802D14A68A6F8BE
:102D70004420D22801D1A6F84430D02806D1486892
:102D8000A6F844006FEA0000A6F846004FF00004E1
:102D900037E0B6F846000AFA04F919EA000F0CD039
:102DA00004EB840000EBC40008EBC00030F8441FC3
:102DB00001F10101018008E028E004EB840000EB50
:102DC000C40008EBC000A0F8447004EB840000EBE2
:102DD000C40008EBC00505F1440032220021FDF7D4
:102DE00065FAB5F94400142801DD85F82CA0B6F881
:102DF000440019EA000F01D085F82C7004F1010499
:102E0000E4B2BBF900008442C3DD8AE0707DF0B318
:102E10004FF000042146BBF900000AE001EB8102FB
:102E200002EBC10208EBC20282F82CA001F1010101
:102E3000C9B28142F2DD4FF0000122E0C2B2202A85
:102E400001D94FF02002B37E834201DB4FF0000333
:102E50000B44DBB2B3FBF2F502FB153202EB82034B
:102E600003EBC20208EBC2029378022B01D0012BC4
:102E700004D182F82C7004F10104E4B201F10101E3
:102E8000C9B2814206DA584AB2F9002000E048E0AF
:102E90009442D3DBF17E01EB810202EBC10108EB2E
:102EA000C10181F82C705149B1F900103C290FDAA9
:102EB0004FF000010AE001EB810202EBC10208EBD6
:102EC000C20282F82C7001F10101C9B28142F2DD27
:102ED0004749098879B14FF000010AE001EB81020E
:102EE00002EBC10208EBC20282F82CA001F1010141
:102EF000C9B28142F2DD4FF000016FF031030EE004
:102F000001EB810202EBC10208EBC20292F82C40F5
:102F1000012C01D1A2F8543001F10101C9B2814262
:102F2000EEDD4FF000004FF06304BBF900300FE01E
:102F300000EB800101EBC00108EBC1010A6C22B17A
:102F400081F82C40A2F101020A6400F10100C0B234
:102F50009842EDDB777577744FF00001084613E077
:102F600000EB800202EBC00208EBC2029478012C55
:102F700007D1747C04F101047474D2698A4200DDC3
:102F800091B200F10100C0B29842E9DBB187BDE81F
:102F9000F09F70B50A23184C164800252268006877
:102FA000B2FBF3F6B0FBF3F1144AB1422AD1117827
:102FB0000F2902D201F10101117011780A2922D3DF
:102FC0000F4908601FE0000000C00240FF00F0FF52
:102FD00000C00920FA03001094C0072004C0072095
:102FE000F8ED0720C0000010C403001054000010CA
:102FF00034C10720D40300101CC1072022C10720C0
:10300000C001001015702060FF48B0F90000B0FB4F
:10301000F3F1FE4CB4F90020B2FBF3F3FC4A994201
:103020000BD111780F2902D201F101011170117831
:103030000A2903D3F749088000E01570208070BD8D
:103040002DE9F04385B0F44CF44E00252078401C67
:10305000C0B220700A2840D32570DFF8C4C39CF8A2
:10306000000000F101008CF80000EE48EE49B0F9D4
:1030700000000880ED49DFF8B88362463746B1F9B1
:1030800000105278B8F90030B7F90070884206DDB8
:10309000A0EB0109B9F10A0F01DB012F07D088422B
:1030A00016DA081A0A2813DB012F09D010E002F102
:1030B00001028CF80120A3F10103A8F8003007E019
:1030C000A2F101028CF8012003F10103A8F80030FD
:1030D00014225142D648FDF7E9F82078DFF85483EE
:1030E000D54F082825D13088012822D1B8F8000012
:1030F0008DF800004FF004008DF801008DF80250AB
:103100004FF002008DF803008DF804504FF00100DD
:103110008DF805004FF0060168461CF047FC8DF85D
:1031200006004FEA20208DF80700B7F90000E8B349
:103130000128C2486FF01402B0F90000C0EB001182
:1031400002EB8101BE4AB2F94220914234D131886A
:10315000012931D1B8F800108DF800104FF00601A8
:103160008DF801108DF802504FF01E018DF80310FC
:103170004FEAE07100EB11614FEA21228DF8042043
:103180008DF805004FF0060168461CF00FFC8DF825
:1031900006004FEA20208DF80700388800280BD160
:1031A00004466D46285D1DF0E1FD00E006E004F1F7
:1031B0000104E4B2082CF5D305B015E44FF0000487
:1031C000E94619F804001DF0D1FD04F10104E4B250
:1031D000082CF6D3ADE72DE9F041064606EB860054
:1031E000984900EBC60011F83020032A77D101EB93
:1031F000C00494F84650A80717D5B4F94A104FF404
:103200009660814222DA01F1010109B2A4F84A1064
:1032100081421BDBA4F84A006078C00716D1012266
:103220000021304601F0B1FC10E0B4F94A1069B158
:10323000A1F1010108B2A4F84A0038B96078C007CA
:1032400004D000221146304601F09FFC29074FF0C0
:103250000A074FF0000015D5B4F94C000A2826DA09
:1032600000F1010000B2A4F84C000A281FDBA4F80A
:103270004C70607880071AD401221146304601F064
:1032800084FC14E0B4F94C1000290DDDA1F101011A
:1032900008B2A4F84C0050B94FF000024FF0010101
:1032A000304601F072FC02E001DAA4F84C00E806B6
:1032B00016D5B4F94E000A2820DA00F1010000B258
:1032C000A4F84E000A2819DBA4F84E706078400775
:1032D00014D401220221304601F057FC0EE046E0F2
:1032E000B4F94E0050B1A0F1010001B2A4F84E10A3
:1032F00021B900220221304601F047FC6078000726
:1033000003D04FF00400A07017E04F48007830B1B0
:10331000E078142803D94FF00500A0700DE094F870
:103320004600800603D54FF00200A07005E0E0786B
:10333000142802D24FF00100A070E0780A2806D3CA
:1033400094F82C0040F0800084F82C0005E094F8FC
:103350002C0000F07F0084F82C003949B4F95400A7
:10336000B1F91E10084460634FF47A70A063BDE8A1
:10337000F08170B54FF000003449354D4FF0010435
:10338000B1F90C20034604FA00F10A4201D02C5492
:1033900000E02B5400F10100C0B20C28F3D32D4EF5
:1033A00028782D4C317881420BD0B4F900100129D6
:1033B00007DB012870D0002301220B2127A017F082
:1033C000D3FD7178687881420BD0B4F900100229DE
:1033D00007DB01287ED0002302220B2124A017F056
:1033E000C3FDB178A87881420BD0B4F9001003294D
:1033F00007DB01286FD0002303220B2121A017F047
:10340000B3FDF178E87848E020C10720D803001028
:10341000DA030010720100104B000010D6000010FB
:10342000C6050820FCC007207E01001080010010A6
:1034300082010010DA000010D80000109200001085
:1034400004C00720F8ED07203A0000100A5E0010C3
:10345000BA0508201E5E0010C80000104176746F87
:103460006D6174202331206973204F4646000000AF
:103470004176746F6D6174202332206973204F464A
:10348000460000004176746F6D617420233320691B
:1034900073204F46460000006AE081420BD0B4F929
:1034A0000010042907DB012878D0002304220B2117
:1034B000FFA017F059FD3179287981420ED0B4F977
:1034C000001005290ADB012870D0002305220B21FA
:1034D000FCA001E053E05AE017F046FD71796879ED
:1034E00081420BD0B4F90010062907DB012864D013
:1034F000002306220B21F8A017F036FDB179A87938
:1035000081420BD0B4F90010072907DB01285BD0FA
:10351000002307220B21F5A017F026FDF179E879A9
:1035200081420BD0B4F90010082907DB012852D0E2
:10353000002308220B21F2A017F016FD317A287A19
:1035400081420BD0B4F90010092907DB012849D0CA
:10355000002309220B21EFA017F006FD4FF0000019
:10356000295C315400F10100C0B20C28F8D370BDC1
:1035700001231A460B21ECA017F0F6FC21E70123EA
:1035800002220B21EDA017F0EFFC2AE706E0012351
:1035900003220B21EEA017F0E7FC32E701230422FF
:1035A0000B21F0A017F0E0FC85E7FFE701230522DF
:1035B0000B21F1A017F0D8FC90E7012306220B2184
:1035C000F2A017F0D1FC99E7012307220B21F4A008
:1035D00017F0CAFCA2E7012308220B21F5A017F07F
:1035E000C3FCABE7012309220B21F7A017F0BCFCB9
:1035F000B4E730B4F948B0F900001E282EDBF848D3
:10360000F94BB0F90020F748B0F90010B3F9000009
:103610008A4215DA8C1A322C12DDF449B1F9001005
:1036200001EB8101B0EB410F18DA00F1010000B2AB
:103630001880B0EB410F11D130BC012001F0AFBCBC
:1036400014398A420ADD002808D0A0F1010000B236
:103650001880002802D130BC01F0A1BC30BC7047FA
:103660002DE9F041DD48B0F900000A287DDBDC4E91
:10367000DF48E04FB6F90010B0F90020B7F90000BC
:103680000025DA4C914217DDB4F9002002EB8203E9
:10369000B0EB430F0ADA00F1010000B23880B0EB62
:1036A000430F15DB012001F064FE11E002EB820004
:1036B0004FEA400038800BE0002808DDA0F101004F
:1036C00000B2388020B9002001F053FE00E03D80B8
:1036D000C948B6F90010C94EB0F90000814219DAA4
:1036E000B4F90000B6F9002000EB8003B2EB430F01
:1036F0000ADA02F1010210B23080B0EB430F17DB9F
:10370000022001F036FE13E000EB80004FEA40009B
:1037100030800DE0B6F90000002808DDA0F10100BE
:1037200000B2308020B9002001F023FE00E0358097
:10373000B34EB448B44FB6F90010B0F9000081425E
:103740001ADDB4F90000B7F9002000EB8003B2EBFA
:10375000430F0BDA02F1010210B23880B0EB430FD5
:1037600018DB012001F055FF14E035E000EB80008C
:103770004FEA400038800DE0B7F90000002808DD6E
:10378000A0F1010000B2388020B9002001F041FF13
:1037900000E03D809D48B6F900109D4EB0F9000054
:1037A00081421ADAB4F90000B6F9002000EB800378
:1037B000B2EB430F0BDA02F1010210B23080B0EB32
:1037C000430F09DBBDE8F041022001F022BF00EB0E
:1037D00080004FEA40003080C9E5B6F900000028BB
:1037E00009DDA0F1010000B230800028F4D1BDE86D
:1037F000F04101F00EBF3580B9E530B47748B0F93B
:1038000000000A2822DB8348844CB0F9001082486B
:10381000B0F90020B4F90000914218DD734AB2F902
:10382000002002EB8203B0EB430F0ADA00F1010043
:1038300000B22080B0EB430F08DB30BC012002F067
:1038400041B802EB82004FEA4000208006E70028E2
:1038500008DDA0F1010000B220800028F6D130BCC4
:1038600002F030B84FF000002080F7E638B56C4920
:103870006C4C098881B16C49097821B14FF0140171
:10388000ADF8001003E069490988ADF80010684AF6
:10389000BDF90010116020806648008810B16648AC
:1038A00000882080BE20FCF7A9FC00B1C6E0CBE078
:1038B0004176746F6D6174202334206973204F4604
:1038C000460000004176746F6D61742023352069D5
:1038D00073204F46460000004176746F6D6174207E
:1038E0002336206973204F46460000004176746FEE
:1038F0006D6174202337206973204F464600000015
:103900004176746F6D6174202338206973204F46AF
:10391000460000004176746F6D6174202339206980
:1039200073204F46460000004176746F6D6174202D
:103930002331206973204F4E200000004176746FC0
:103940006D6174202332206973204F4E20000000E7
:103950004176746F6D6174202333206973204F4E5C
:10396000200000004176746F6D617420233420695B
:1039700073204F4E200000004176746F6D617420FB
:103980002335206973204F4E200000004176746F6C
:103990006D6174202336206973204F4E2000000093
:1039A0004176746F6D6174202337206973204F4E08
:1039B000200000004176746F6D6174202338206907
:1039C00073204F4E200000004176746F6D617420AB
:1039D0002339206973204F4E20000000540000104E
:1039E0004A0100106A00001038C107209000001042
:1039F00082000010F4030010840000103AC1072078
:103A00004C0100107E000010F60300108000001032
:103A10003CC107205201001074000010F803001090
:103A2000B2000010680100108701001004020010AD
:103A300004C10720EC030010E8030010FF480168F0
:103A4000BF2901D140682080FD48008820B1FD4990
:103A50002088098808442080B4F900004FF06201F2
:103A600000FB01F14FF0640291FBF2F1F64B19807B
:103A70004FF0660100FB01F090FBF2F0F349088083
:103A800038BD2DE9F041F24CB4F9260010B1A0F197
:103A90000100E084EF48F04D00882880EF4E0A27AF
:103AA000B6F90800002806DAFCF72AFC90FBF7F0CC
:103AB000298808442880B6F95400002806DAFCF763
:103AC0001FFC90FBF7F0298808442880E448B5F9EA
:103AD0000010B0F9000091FBF0F000F10100C0B25D
:103AE000A074E04AB2F9002091FBF2F101F101016A
:103AF000C9B2E174DC4B4FF03C05B3F900209042B1
:103B000002DD1880E58405E0914203DAE08C08B913
:103B10001980E584D548B0F900201A80BDE8F0414D
:103B20000121D148FCF7C2BB2DE9F047D048DFF8AE
:103B30002083B0F90010A8F83A10CE48008818B1D8
:103B4000CD480088A8F83A00B8F94E0018B1A0F1A5
:103B50000100A8F84E00B8F9500018B1A0F101001A
:103B6000A8F85000BD484FF00A0990F83F2092078E
:103B700003D190F88B00800703D091FBF9F0A8F8EF
:103B80003A00BE480125B0F90010491E052900D3AE
:103B90000580B0F90000002400EB800198F80700D0
:103BA000B0EB410F0BDA00F10100C0B288F807005A
:103BB000B0EB410F03DB88F8074088F80850E1209C
:103BC000FCF71CFBAE4BAF4AAF4E40F2F237002879
:103BD0007ED09A49086864280AD069280FD0DFF897
:103BE000ACC26E2813D0E52833D0E62835D05DE18D
:103BF0004868B8F820100844A8F81E0056E1486844
:103C0000B8F82010A1EB0000A8F81E004EE1B8F8AB
:103C10001E00A0F1010000B2A8F81E001E2806DD5B
:103C20009B49BCF90000B1F9001088420EDA98F8FF
:103C30000100401CC0B288F80100FA2805D10A230F
:103C40000022E721E620FCF79AFA2FE188F80140EC
:103C50002CE14868A8F81E0028E1BCF90010B3F96F
:103C6000000081421FDD4FF00B0188F81D10B2F9F2
:103C70000010A1EB0000282808DDB8F91E0000287C
:103C800004DDA0F10500A8F81E000FE1B8F91E0040
:103C9000002807D098F80810002903D0A0F10100EF
:103CA000A8F81E0002E1B2F90010814213DA4FF0C9
:103CB0000C0288F81D20A0EB010028280CDDB8F9C3
:103CC0001E0040F2F731884206DA00F1050000E0FC
:103CD0000FE0A8F81E00E9E0B8F91E00B0F57F7FFC
:103CE00033DA98F8081081B300F10100A8F81E003B
:103CF000DCE098F8080040B36648008818B196F8F0
:103D00004303282821D9B8F92000A8F836004FF03D
:103D1000130188F81D10B8F938C0B8F83A109CFBA8
:103D2000F9F9B9EB410F11DD4FF0140188F81D10BE
:103D3000B8F84E1021B1A0F10100A8F836003AE021
:103D4000A0F10A00A8F8360035E076E014DAC1EBFD
:103D5000011AE24510DA4FF0150188F81D10B8F885
:103D60004E1021B1A0F10100A8F8360023E0A0F127
:103D70000300A8F836001EE0C1EB011AE2450ADD97
:103D8000894508DD4FF0160188F81D10A0F10100EB
:103D9000A8F836000FE0B2F90000B3F9001088422D
:103DA00004DA4FF0170088F81D0004E003DD4FF03F
:103DB000210088F81D0038483849B0F90000B1F9F1
:103DC0000010A0EB01004FF47A7100FB01F040F20B
:103DD0008A2190FBF1F0A8F836001D483A464FF0D2
:103DE0000A0100F13600FCF761FAB8F83600A8F8CD
:103DF0002000A8F81E002A4A98F80B1022F811009B
:103E000001F10101C8B288F80B00102801D388F82D
:103E10000B404FF00001084632F91030194400F110
:103E20000100C0B21028F7D34FEA211000B2A8F861
:103E30003E001C49098801B136E037E094C00720F4
:103E4000D60000108201001002C10720C20300103A
:103E500004C0072008C10720C6030010BCEB0720E0
:103E6000880000108A000010C4030010C000001079
:103E70008C000010EC0300102CC10720EA00001099
:103E80006801001048010010F8ED072044010010FF
:103E900078000010760100106C0000104C0100103A
:103EA000605D0010C6000010A8F81E0088F80A40E7
:103EB00088F80940FF48B0F900201BE001EB8100C1
:103EC00000EBC10006EBC000C3781E2B01D288F8BE
:103ED0000A5000F12C00B8F81EC0038D634403871C
:103EE00010F82C39DB0701D0A0F8644001F1010182
:103EF00088F8091098F809109142DFDB98F80A0059
:103F000038B94FF41670A8F81E00A8F82000A8F8D9
:103F100036003A460A21E848FCF7C8F988F8084014
:103F2000BDE8F0872DE9F05F4FF00000E54AE34B74
:103F3000E34D4FF0010A4FF00A0B0646B2F900407C
:103F400025E0E149E14F095C37F91110B1F5FA6F4D
:103F50000EDA19560A2908DA01F1010149B2195499
:103F60000A2911DB05F800A00EE003F800B00BE011
:103F70001956002907DDA1F1010149B219540029A0
:103F800002DC2E5400E01E5400F10100C0B2A04239
:103F9000D7DB4FF00004DFF83893CE4FDFF83883DB
:103FA00083E0CE4830F9140010B9295D01290FD003
:103FB00008B1285D60B119F90400002819DBA0F1EF
:103FC000010040B209F80400002814DC3E5512E05C
:103FD00019F904000A2809DA00F1010040B209F8D1
:103FE00004000A2807DB07F804A004E009F804B07D
:103FF00001E009F8046018F80410385D81424ED0E1
:10400000AD4A1E3A918E01F101019186012807D037
:1040100054B3012C2FD0022C34D0032C39D03EE0E5
:1040200034B1012C0BD0022C10D0032C15D036E06B
:1040300001231A460F21AAA016F096FF2FE00123B4
:1040400002220F21A9A016F08FFF28E001230322EE
:104050000F21A9A016F088FF21E0012304220F21DF
:10406000A8A016F081FF1AE0002301220F21A8A0CA
:1040700016F07AFF13E0002302220F21A9A016F008
:1040800073FF0CE0002303220F21ABA016F06CFF9E
:1040900005E0002304220F21ACA016F065FF385D77
:1040A00008F8040004F10104E4B28648B0F9000005
:1040B0008442FFF676AFBDE8F09FA94A4FF00100B9
:1040C0001070A84908705070487070472DE9F05F73
:1040D000A648DFF89C92DFF89082B0F900C0B9F9E9
:1040E0000000754CC0EB00111E3CB8F902706FF077
:1040F0001D0A6FF0950B0025994EB4F942000AEBAA
:1041000081020BEB8103674505DCDFF868C2BCF96F
:1041100000C0674504DA824202DD834200DA35706E
:10412000954FB8F908C0B7F900E08E4FBCEB4E0FC1
:1041300004DCCEF1000EBCEB4E0F04DA824202DD4D
:10414000834200DA3D706FF0090202EB8101814287
:1041500020D1A07DF0B9307801281BD13878012812
:1041600018D14FF4D67018F080FD8449B1F90010D1
:1041700088420FD08248008860B198F83D00C0079F
:1041800008D14FF4D67018F06EFE7E48017801F128
:10419000010101707548B8F90210B0F900008142C0
:1041A00006DC7448B8F94E10B0F9000081420EDA0E
:1041B000B9F90000B4F94210C0EB00100AEB80021C
:1041C0008A4204DD0BEB8000884200DA75706A4990
:1041D000B8F95400B1F90010B0EB410F03DC4942CB
:1041E000B0EB410F0EDAB9F90000B4F94210C0EBA0
:1041F00000100AEB80028A4204DD0BEB800088424B
:1042000000DA7D70B9F90000C0EB00116FF0090011
:1042100000EB8100B4F94210884221D1A07DF8B9A9
:10422000707801281CD17878012819D14FF4E575F0
:10423000284618F01AFD5149B1F9021088420FD0F2
:104240004F48008802280BD198F88900C00707D191
:10425000284618F008FE4B48017801F10101017071
:10426000B9F900006FF00101C0EB001001EB800014
:10427000B4F94210884202D1BDE8F05F1DE71AE7A9
:104280002DE9F0034048414F414E00784FF0000CBB
:104290004FF0010868B13F48B0F900503E48B0F90E
:1042A00000903E48B0F900203D48B0F900303D484C
:1042B0007AE0ACE0C000001022C00720B00100107E
:1042C0008A010010C6000010823D0200205D00102F
:1042D000FEC007208E010010BE0300102402001053
:1042E000534B20233120416C61726D00534B2023CE
:1042F0003220416C61726D00534B20233320416C9E
:1043000061726D00534B20233420416C61726D004B
:10431000534B20233120416C61726D206973206FF3
:1043200066660000534B20233220416C61726D2081
:104330006973206F66660000534B20233320416C65
:1043400061726D206973206F66660000534B2023F5
:104350003420416C61726D206973206F66660000C5
:104360000AC10720C8030010BCEB0720C2030010DD
:104370009200001002C1072086000010ECC0072048
:10438000BC0000100CC107203000001024C1072021
:10439000CAC0072044010010AE00001058010010F0
:1043A0005A0100105C010010B0F90040FF48394686
:1043B0004D45B0F90000B1F9001013DA824203DB79
:1043C000834201DB84420DDAF948B0F900209142C2
:1043D00021DA01F1010108B2388090421BD186F840
:1043E00000C018E0DFF8CCC3BCF900C0654512DDA1
:1043F000824210DD83420EDD84420CDD59B1A1F111
:10440000010108B2388030B986F8008003E0A7F8CF
:1044100000C086F800803078002807D1BDE8F0039E
:104420000F2301226E21D220FBF7A9BEBDE8F003C5
:1044300070472DE9F041E04CA07EE0764FF000059A
:10444000A576DE4EB6F90000002802DDB0F5FA7F51
:1044500002DD3580BDE8F081207F00F10100C0B2AF
:1044600020773C281AD325774FF49477384618F0F4
:10447000FCFB00F1010000B2A4F85200D04AB6F9EA
:104480000010B2F9002001FB02F1814201DCA4F826
:104490005250B4F95210384618F0E5FCB4F9520005
:1044A000B6F9001090FBF1F0A076D3E710B500212B
:1044B0004FF4947018F0D7FCBF494FF03A000877DA
:1044C00010BD2DE9F0414FF00002BD48BD4FB0F9DD
:1044D00000606EE002EB820000EBC20007EBC00060
:1044E000417B8B0906D00123B3EB911F05D180F8E6
:1044F00059100FE080F858100CE00223B3EB911F25
:1045000002D180F85A1005E00323B3EB911F01D1CB
:1045100080F85B1010F8581FC1F30114437803F0C2
:10452000300544EA9505847804F0300C4CEA050C1B
:10453000C578A0F1580005F030084CEA880C01F06D
:104540000F0103F00F0383EA010804F00F0484EA6B
:10455000080805F00F0585EA0808E04513D14FEA81
:10456000051544EA05044FEA041443EA04034FEA3C
:1045700003534FEA134341EA0301B0F85C308B4226
:1045800001D0A0F85C109049B0F85C30B1F900108F
:1045900001EB8101B3EB410F04DD417841F01001E3
:1045A000417003E0417821F01001417002F10102F5
:1045B000D2B2B2428EDB4DE72DE9F04F87B083488F
:1045C0007D4C8349834A007894F90030B1F900109A
:1045D000B2F9002048B102283CD001287ED04FF02B
:1045E0000100207007B0BDE8F08F7B4FDFF8EC8151
:1045F000B7F90A003D7BB7F9566098F800C097F804
:10460000587098F801802BB1012BEBD1BCF1550FFC
:1046100015D110E0BCF1550F02D1884207DC35B945
:10462000B8F1550FDED18E4201DC002FDAD04FF009
:1046300001002070D6E79042D4DA002DD2D1B8F133
:10464000550F03D19642CDDA002FCBD14FF00000A9
:104650002070C7E75B4E5A48B56AB0F90000F6789B
:1046600018B18D427ADC1E2E78D2DFF858C10128AD
:10467000DCF890709CF86BC0CDF818C006DD8F4256
:104680006CDCDDF818C0BCF11E0F67D2DFF834C156
:104690000228DCF8F880CDF814809CF8D3C0CDF85F
:1046A00010C008DDDDF814C08C4557DCDDF810C003
:1046B000BCF11E0F52D2DFF80CC10328DCF8608178
:1046C000CDF80C809CF83BC1CDF808C00ADDDDF8C0
:1046D0000CC08C4542DCDDF808C000E09BE0BCF17A
:1046E0001E0F3BD2DFF8DC800428D8F8C8C198F848
:1046F000A381CDF8048006DD8C452FDCDDF8048035
:10470000B8F11E0F2AD2DFF8BC900528D9F8308204
:1047100099F80B92CDF8009006DD88451EDCDDF897
:104720000090B9F11E0F19D2DFF898A006289AF868
:1047300073E2DAF8989204DD89450FDCBEF11E0FB2
:104740000CD2DFF880B00728DBF800A39BF8DBB2BF
:1047500008DD8A4502DCBBF11E0F03D34FF00100D8
:1047600020703FE7012BFCD118B19542F9DA0A2EEF
:10477000F7D2022804DB9742F3DA06990A29F0D22D
:10478000032805DB05999142EBDA04990A29E8D25E
:10479000042805DB03999142E3DA02990A29E0D261
:1047A00005281FDB9445DCDA019919E07A00001036
:1047B000AC000010B000001004C00720BA000010C8
:1047C000C0000010F8ED0720D40000109C0300107A
:1047D00098030010E0C00720BCEB0720EE0000109B
:1047E0000A29BED2062804DB9045BADA00990A29C4
:1047F000B7D2072804DB9145B3DABEF10A0FB0D275
:10480000082804DB9245ACDABBF10A0FA9D24FF0BD
:1048100000002070E6E62348234D244EB0F9000046
:10482000B5F90050367810B18D421DDCE6B91E4F47
:10483000DFF878C00128B7F902709CF801C004DDE8
:104840008F4211DCBCF1000F0ED1DFF85C80DFF885
:104850005C900228B8F9048099F8029008DD884538
:1048600002DCB9F1000F03D04FF001002070B9E66F
:10487000012BCFD118B19542CCDA002ECAD1022833
:1048800004DB9742C6DABCF1000FC3D1032804DB76
:104890009045BFDAB9F1000FBCD14FF00000207095
:1048A000A0E60000C4000010040200108701001000
:1048B00030B5FF48FF4A0178106819B140F0010097
:1048C000106002E020F0010010604FF00000FA4C90
:1048D0004FF0010300EB400101EB001104EB8101FB
:1048E00091F83D10C9070AD000F1010503FA05F15E
:1048F000156825EA010545EA0105156007E000F1A4
:10490000010503FA05F1156825EA0105156000F1B6
:104910000100C0B20228DDD34FF00000E74C00EBED
:10492000800101EBC00104EBC101497811F0EF0FE8
:104930000AD000F1030503FA05F1156825EA01051F
:1049400045EA0105156007E000F1030103FA01F5EE
:10495000116821EA0501116000F10100C0B20C28C4
:10496000DDD34FF00000D34C04F11404215C51B1AD
:1049700000F10F0503FA05F1156825EA010545EA7E
:104980000105156007E000F10F01156803FA01F158
:1049900025EA0105156000F10100C0B20628E5D343
:1049A0004FF00000C64D1C46295C012914D000F1CF
:1049B000180104FA01F3116821EA0301116000F102
:1049C0000100C0B20428EFD3BE48007878B1106867
:1049D00040F0805010600EE000F1180304FA03F17B
:1049E000136823EA010343EA01031360E7E7106851
:1049F00020F0805010609468106820EA0401D160B3
:104A0000536843EA01035360AF490D8815B123F0A1
:104A1000807353604B881BB1536823F0007353605D
:104A20008B881BB1536823F080635360C98819B128
:104A3000516821F00061516024EA00046FEA04012A
:104A40001161A24B1B881BB9A14B41EA0301116103
:104A50001369516801EA03015160906030BDF8B5F7
:104A60004FF46065284618F000F900F10100044693
:104A70003F2C01D94FF0000421B2284618F0F3F979
:104A800040F60266304618F0F0F83F2800D0204685
:104A900001B2304618F0E7F9284618F0E6F84FF46E
:104AA000806101EB40144FF055008DF800004FF08D
:104AB00000068DF801604FF052008DF802008DF86D
:104AC00003606946204618F052FA00966946201D98
:104AD00018F04DFA7F4DA88B8DF80000287E8DF8D8
:104AE0000100287B8DF802008DF80360694604F10F
:104AF000080018F03CFA287A8DF8000028798DF823
:104B0000010028788DF802007348D0F880018DF8F4
:104B10000300694604F10C0018F029FA4FF0410532
:104B20008DF800508DF801508DF802508DF803502B
:104B3000694604F1100018F01AFA8DF800508DF84B
:104B400001508DF802508DF80350694604F11400AD
:104B500018F00DFA8DF800508DF801508DF80250C4
:104B60008DF80350694604F1180018F000FA8DF82A
:104B700000508DF801508DF802508DF803506946B1
:104B800004F11C0018F0F3F9F8BD2DE9F84F0646C2
:104B90000C464FF0540774B1012C04D0022C05D000
:104BA000032C06D007E04FF0550704E04FF07507DF
:104BB00001E04FF04C07DFF81C81404806EB86010E
:104BC00001EBC6014FF00009A8F120084FF4606A1C
:104BD0004FF4806500EBC100012A02D0002A7DD08D
:104BE000DAE134B1012C09D0022C0CD0032C0FD007
:104BF00012E0417841F0010141700DE0417841F04F
:104C00000201417008E0417841F00401417003E085
:104C1000417841F00801417080F85740504618F043
:104C200024F800F101001FFA80FBBBF13F0F01D90E
:104C30004FF0000B0FFA8BF1504618F014F940F6C4
:104C4000026018F012F880B23F2800D0584601B236
:104C500040F6026018F007F9504618F006F805EB28
:104C6000401085B24FF053008DF800008DF80160C0
:104C70008DF802708DF803906946284618F077F990
:104C8000CDF800906946281D18F071F9B8F83C007D
:104C90008DF8000098F838008DF8010098F82C0085
:104CA0008DF802008DF80390694605F1080016E0C2
:104CB0003A000010B0C00720BCEB0720F8ED072039
:104CC0008E01001049000010340200107600001020
:104CD000FEFFFFEF2040024000C00F40BCE018F094
:104CE00046F998F828008DF8000098F824008DF80F
:104CF000010098F820008DF802008DF803906946B5
:104D000005F10C0018F033F94FF041078DF80070F1
:104D10008DF801708DF802708DF80370694605F109
:104D2000100018F024F98DF800708DF801708DF8DE
:104D300002708DF80370694605F1140018F017F938
:104D40008DF800708DF801708DF802708DF8037089
:104D5000694605F1180018F00AF98DF800708DF811
:104D600001708DF802708DF80370694605F11C0022
:104D700018F0FDF826B1012E26D0022E48D00BE106
:104D800034B1012C0BD0022C10D0032C15D003E130
:104D9000002301220421DFA016F0E6F8FCE0012345
:104DA0001A460421E1A016F0DFF8F5E00223012203
:104DB0000421E5A016F0D8F8EEE003230122042137
:104DC000E9A016F0D1F8E7E034B1012C0BD0022CA9
:104DD00010D0032C15D0DFE0002302220421EAA02A
:104DE00016F0C2F8D8E0012302220421ECA016F04C
:104DF000BBF8D1E002231A460421F0A016F0B4F863
:104E0000CAE0032302220421F4A016F0ADF8C3E0A7
:104E100034B1012C0BD0022C10D0032C15D0BBE0E8
:104E2000002303220421F5A016F09EF8B4E001232C
:104E300003220421F7A016F097F8ADE00223032225
:104E40000421FBA016F090F8A6E003231A460421E3
:104E5000FFA016F089F89FE034B1012C09D0022C94
:104E60000CD0032C0FD012E0417821F001014170E9
:104E70000DE0417821F00201417008E0417821F015
:104E80000401417003E0417821F00801417050466F
:104E900017F0EBFE1FFA80FB5C4605EB44101FFA8F
:104EA00080FA6946504617F067FF9DF800005328C6
:104EB00007D19DF80100B04203D19DF80200B8422D
:104EC00009D01CB1A4F10104A4B201E04FF03F04E9
:104ED0005C45E2D160E069460AF1100017F04CFF32
:104EE0009DF8000041280BD19DF80100412807D111
:104EF0009DF80200412803D19DF80300412809D004
:104F00001CB1A4F10104A4B201E04FF03F045C45E0
:104F1000C3D141E0B8F83C008DF8000098F83800A3
:104F20008DF8010098F82C008DF802008DF80390A0
:104F300069460AF1100018F01AF898F828008DF860
:104F4000000098F824008DF8010098F820008DF8F2
:104F500002008DF8039069460AF1140018F007F872
:104F60004FF042048DF800408DF801408DF802406A
:104F70008DF8034069460AF1180017F0F8FF8DF824
:104F800000408DF801408DF802408DF803406946DD
:104F90000AF11C0017F0EBFF00BFBDE8F88F2DE908
:104FA000F843B44AB24F4FF4606511784FF00008EF
:104FB0004FF48069012816D000287DD100297BD0CC
:104FC00082F80080284617F050FE86B2344609EB7E
:104FD000441085B26946284617F0CEFE9DF80000C1
:104FE0004F286AD154E1012966D04FF001001070BA
:104FF000284617F03AFE00F1010084B23F2C01D997
:105000004FF0000421B2284617F02DFF40F602664B
:10501000304617F02AFE81B23F2900D0214609B25E
:10502000304617F020FF284617F01FFE09EB40100E
:1050300084B24FF04F008DF800004FF056008DF80D
:1050400001004FF04C008DF802008DF80380694696
:10505000204617F08CFFCDF800806946201D17F020
:1050600086FF07F12007B88B8DF80000387E8DF899
:105070000100387B8DF802008DF80380694604F149
:10508000080017F074FF387A8DF8000038798DF831
:10509000010038788DF802008DF80380694604F12C
:1050A0000C0017F064FF4FF041058DF800508DF8AB
:1050B00001508DF8025001E0E8E0F1E08DF8035076
:1050C000694604F1100017F052FF8DF800508DF87A
:1050D00001508DF802508DF80350694604F1140018
:1050E00017F045FF8DF800508DF801508DF80250F3
:1050F0008DF80350694604F1180017F038FF8DF859
:1051000000508DF801508DF802508DF8035069461B
:10511000B2E0000042505320233120416C61726D97
:105120002C206F76657268656174000042505320D0
:10513000233120416C61726D2C20766F6C74616735
:10514000652069732075700042505320233120413F
:105150006C61726D2C20766F6C7461676520697369
:1051600020646F776E0000004250532023312041AD
:105170006C61726D2C20636F6E6E65637420697351
:10518000206C6F7374000000425053202332204182
:105190006C61726D2C206F766572686561740000B9
:1051A00042505320233220416C61726D2C20766F67
:1051B0006C746167652069732075700042505320DC
:1051C000233220416C61726D2C20766F6C746167A4
:1051D0006520697320646F776E0000004250532091
:1051E000233220416C61726D2C20636F6E6E65639B
:1051F00074206973206C6F73740000004250532058
:10520000233320416C61726D2C206F766572686566
:105210006174000042505320233320416C61726D51
:105220002C20766F6C74616765206973207570003F
:1052300042505320233320416C61726D2C20766FD5
:105240006C7461676520697320646F776E0000007D
:1052500042505320233320416C61726D2C20636FC8
:105260006E6E656374206973206C6F737400000048
:10527000004002404C00001004F11C0017F077FEC3
:10528000022301220521FAA015F06EFEBDE8F88385
:105290009DF80100562803D19DF802004C280AD041
:1052A0001CB1A4F10104A4B201E04FF03F04B442E8
:1052B0007FF48DAEEAE7694605F1100017F05CFD5A
:1052C0009DF8000041280BD19DF80100412807D12D
:1052D0009DF80200412803D19DF80300412809D020
:1052E0001CB1A4F10104A4B201E04FF03F04B442A8
:1052F000DED1CBE707F12007B88B8DF80000387EB0
:105300008DF80100387B8DF802008DF80380694626
:1053100005F1100017F02BFE387A8DF8000038796F
:105320008DF8010038788DF802008DF80380694609
:1053300005F1140017F01BFE4FF042048DF80040F9
:105340008DF801408DF802408DF80340694605F163
:10535000180017F00CFE8DF800408DF801408DF814
:1053600002408DF80340694605F11C0017F0FFFD6F
:105370008CE72DE9F34F81B00546C1490878A84272
:105380007ED09DF808609DF80970DFF8F8824FF430
:1053900060644FF000094FF4806A012D19D0022D8E
:1053A00017D0002D6CD100286AD081F800902046DB
:1053B00017F05BFC1FFA80FB5C460AEB441085B2D9
:1053C0006946284617F0D8FC9DF8000056287DD184
:1053D000A6E00D70204617F048FC00F101001FFA0E
:1053E00080FBBBF13F0F01D94FF0000B0FFA8BF19F
:1053F000204617F038FD40F6026017F036FC80B208
:105400003F2800D0584601B240F6026017F02BFD4D
:10541000204617F02AFC0AEB401084B24FF05600E9
:105420008DF800004FF04F008DF801004FF055004F
:105430008DF802004FF054008DF8030069462046B5
:1054400017F095FD8DF800608DF801708DF8025011
:105450008DF803906946201D17F089FDB8F83C00CF
:105460008DF8000098F838008DF8010098F82C00AD
:105470008DF802008DF80390694604F1080000E001
:105480004CE017F074FD98F828008DF8000098F8AB
:1054900024008DF8010098F820008DF802008DF8A6
:1054A0000390694604F10C0017F061FD4FF04105CF
:1054B0008DF800508DF801508DF802508DF8035092
:1054C000694604F1100017F052FD00E034E08DF859
:1054D00000508DF801508DF802508DF80350694648
:1054E00004F1140017F043FD8DF800508DF80150C1
:1054F0008DF802508DF80350694604F1180017F03A
:1055000036FD8DF800508DF801508DF802508DF861
:105510000350694604F11C0017F029FDBDE8FE8F19
:105520009DF801004F2807D19DF80200552803D1AE
:105530009DF8030054280AD01CB1A4F10104A4B2C0
:1055400001E04FF03F045C457FF437AFE6E7694682
:1055500005F1100017F010FC9DF8000041280BD158
:105560009DF80100412807D19DF80200412803D190
:105570009DF80300412809D01CB1A4F10104A4B294
:1055800001E04FF03F045C45DED1C7E7B8F83C00CE
:105590008DF8000098F838008DF8010098F82C007C
:1055A0008DF802008DF80390694605F1100017F0A0
:1055B000DEFC98F828008DF8000098F824008DF89B
:1055C000010098F820008DF802008DF803906946DC
:1055D00005F1140017F0CBFC8DF800608DF8017018
:1055E0004FF042048DF802408DF80340694605F102
:1055F000180017F0BCFC8DF800408DF801408DF8C4
:1056000002408DF80340694605F11C0017F0AFFC1D
:1056100084E72DE9F34F81B005461B480178A94284
:105620007ED09DF808609DF80970DFF858804FF42F
:1056300060644FF000094FF4806A012D26D0022DDE
:1056400024D0002D6CD180F80090204617F00DFB7F
:1056500084B2A3465C460AEB441085B269462846EC
:1056600017F08AFB9DF8000056287DD1B2E00000BB
:1056700053797374656D206F7665726C6F61640029
:105680004D000010004002404E0000100570204602
:1056900017F0EBFA00F101001FFA80FBBBF13F0F9E
:1056A00001D94FF0000B0FFA8BF1204617F0DBFB0E
:1056B00040F6026017F0D9FA80B23F2800D0584671
:1056C00001B240F6026017F0CEFB204617F0CDFA8B
:1056D0000AEB401084B24FF056008DF800004FF0F6
:1056E00049008DF801004FF04E008DF802008DF852
:1056F00003906946204617F03AFC8DF800608DF85B
:1057000001708DF802508DF803906946201D17F046
:105710002EFCB8F83C008DF8000098F8380000E046
:1057200057E08DF8010098F82C008DF802008DF8F4
:105730000390694604F1080017F019FC98F8280056
:105740008DF8000098F824008DF8010098F82000EA
:105750008DF802008DF80390694604F10C0017F0F3
:1057600006FC4FF0410500E03FE08DF800508DF859
:1057700001508DF802508DF80350694604F1100075
:1057800017F0F5FB8DF800508DF801508DF80250A0
:105790008DF80350694604F1140017F0E8FB8DF80A
:1057A00000508DF801508DF802508DF80350694675
:1057B00004F1180017F0DBFB8DF800508DF8015054
:1057C0008DF802508DF80350694604F11C0017F063
:1057D000CEFBA3E69DF80100492806D19DF8020002
:1057E0004E2802D19DF8030050B11CB1A4F1010470
:1057F000A4B201E04FF03F045C457FF42CAF8DE68E
:10580000694605F1100017F0B7FA9DF8000041282D
:105810000BD19DF80100412807D19DF802004128D5
:1058200003D19DF80300412809D01CB1A4F1010463
:10583000A4B201E04FF03F045C45DED16EE6B8F85B
:105840003C008DF8000098F838008DF8010098F8B9
:105850002C008DF802008DF80390694605F11000C8
:1058600017F085FB98F828008DF8000098F82400C0
:105870008DF8010098F820008DF802008DF8039053
:10588000694605F1140017F072FB8DF800608DF881
:1058900001704FF042048DF802408DF803406946D4
:1058A00005F1180017F063FB8DF800408DF80140FA
:1058B0008DF802408DF80340694605F11C0017F091
:1058C00056FB2BE62DE9F34F81B0A0490A788242BE
:1058D0007ED09DF808709DF80980DFF874924FF42F
:1058E00060654FF0000A4FF4806B012814D0002847
:1058F0006ED181F800A0284617F0B7F986B2344679
:105900000BEB441085B26946284617F035FA9DF82E
:10591000000054287ED1A0E00870284617F0A5F9B1
:1059200000F1010084B23F2C01D94FF0000421B2F4
:10593000284617F098FA40F60266304617F095F9B7
:1059400080B23F2800D0204601B2304617F08BFAD3
:10595000284617F08AF90BEB401084B24FF0540040
:105960008DF800004FF053008DF801004FF0590101
:105970008DF802108DF803006946204617F0F7FAFB
:105980008DF800708DF801808DF802A08DF803A0CD
:105990006946201D17F0EBFAB9F83C008DF80000BD
:1059A00099F838008DF8010099F82C008DF8020064
:1059B0008DF803A0694604F1080017F0D8FA99F8A9
:1059C00028008DF8000099F824008DF8010000E00F
:1059D00042E099F820008DF802008DF803A0694696
:1059E00004F10C0017F0C3FA4FF041058DF8005098
:1059F0008DF801508DF802508DF80350694604F17E
:105A0000100017F0B4FA8DF800508DF801508DF8A1
:105A1000025000E02DE08DF80350694604F11400B7
:105A200017F0A5FA8DF800508DF801508DF802504E
:105A30008DF80350694604F1180017F098FA8DF8B4
:105A400000508DF801508DF802508DF803506946D2
:105A500004F11C0017F08BFA60E59DF80100532853
:105A600007D19DF80200592803D19DF8030053285F
:105A70000AD01CB1A4F10104A4B201E04FF03F042C
:105A8000B4427FF43DAF49E5694605F1100017F0D7
:105A900073F99DF8000041280BD19DF801004128C1
:105AA00007D19DF80200412803D19DF80300412849
:105AB00009D01CB1A4F10104A4B201E04FF03F04ED
:105AC000B442DED12AE5B9F83C008DF8000099F81F
:105AD00038008DF8010099F82C008DF802008DF83F
